{
    "transactionCollidingWithNonEmptyAccount_callsItself" : {
        "_info" : {
            "comment" : "Account with non-empty code attempts to send tx to call itself",
            "filling-rpc-server" : "evm version 1.14.4-unstable-3d8028a6-20240513",
            "filling-tool-version" : "retesteth-0.3.2-cancun+commit.cae6bc33.Linux.g++",
            "generatedTestHash" : "1deaddc38a9d407e1c57b0599968a552d538a51d8799e9233c2724633460f766",
            "lllcversion" : "Version: 0.5.14-develop.2023.7.11+commit.c58ab2c6.mod.Linux.g++",
            "solidity" : "Version: 0.8.21+commit.d9974bed.Linux.g++",
            "source" : "src/GeneralStateTestsFiller/stEIP3607/transactionCollidingWithNonEmptyAccount_callsItselfFiller.yml",
            "sourceHash" : "cdd346d99e562edf27b1e90eebff35c6255290c8c512ed712ebfe142f53c11a1"
        },
        "env" : {
            "currentBaseFee" : "0x0a",
            "currentCoinbase" : "0x2adc25665018aa1fe0e6bc666dac8fc2697ff9ba",
            "currentDifficulty" : "0x020000",
            "currentExcessBlobGas" : "0x00",
            "currentGasLimit" : "0xff112233445566",
            "currentNumber" : "0x01",
            "currentRandom" : "0x0000000000000000000000000000000000000000000000000000000000020000",
            "currentTimestamp" : "0x03e8"
        },
        "post" : {
            "Cancun" : [
                {
                    "expectException" : "TransactionException.SENDER_NOT_EOA",
                    "hash" : "0xb326b0f9bdbf3dac935ffe578676ceb8c10e369aac5d96521900815951e04ff9",
                    "indexes" : {
                        "data" : 0,
                        "gas" : 0,
                        "value" : 0
                    },
                    "logs" : "0x1dcc4de8dec75d7aab85b567b6ccd41ad312451b948a7413f0a142fd40d49347",
                    "txbytes" : "0xf863800a83061a8094a94f5374fce5edbc8e2a8697c15331677e6ebf0b830186a0801ba02babb190411301aad79da24e4a6bf1cb3197855e76dfadbc76a85bbf5b1e3ea3a033b4a142663a140757c5eb1af576fc328eb0a4f711730886c03a587abc2173de"
                }
            ]
        },
        "pre" : {
            "0x2adc25665018aa1fe0e6bc666dac8fc2697ff9ba" : {
                "balance" : "0x00",
                "code" : "0x",
                "nonce" : "0x01",
                "storage" : {
                }
            },
            "0xa94f5374fce5edbc8e2a8697c15331677e6ebf0b" : {
                "balance" : "0x0de0b6b3a7640000",
                "code" : "0x6000600155",
                "nonce" : "0x00",
                "storage" : {
                }
            }
        },
        "transaction" : {
            "data" : [
                "0x"
            ],
            "gasLimit" : [
                "0x061a80"
            ],
            "gasPrice" : "0x0a",
            "nonce" : "0x00",
            "secretKey" : "0x45a915e4d060149eb4365960e6a7a45f334393093061116b197e3240065ff2d8",
            "sender" : "0xa94f5374fce5edbc8e2a8697c15331677e6ebf0b",
            "to" : "0xa94f5374fce5edbc8e2a8697c15331677e6ebf0b",
            "value" : [
                "0x0186a0"
            ]
        }
    }
}