{
    "shiftCombinations" : {
        "_info" : {
            "comment" : "https://github.com/ethereum/tests/issues/564",
            "filling-rpc-server" : "evm version 1.14.4-unstable-3d8028a6-20240513",
            "filling-tool-version" : "retesteth-0.3.2-cancun+commit.2ab0208e.Linux.g++",
            "generatedTestHash" : "0ba314564a09f61b4ed04ce35cff55edf4f7390ade2fee63935c61afba0c7ad1",
            "lllcversion" : "Version: 0.5.14-develop.2023.7.11+commit.c58ab2c6.mod.Linux.g++",
            "solidity" : "Version: 0.8.21+commit.d9974bed.Linux.g++",
            "source" : "src/GeneralStateTestsFiller/stShift/shiftCombinationsFiller.yml",
            "sourceHash" : "01f9364a971e50d54f9b3ae74c82075fa709b60abf463b7801d9ccb8f178bce9"
        },
        "env" : {
            "currentBaseFee" : "0x0a",
            "currentCoinbase" : "0x2adc25665018aa1fe0e6bc666dac8fc2697ff9ba",
            "currentDifficulty" : "0x020000",
            "currentExcessBlobGas" : "0x00",
            "currentGasLimit" : "0x05f5e100",
            "currentNumber" : "0x01",
            "currentRandom" : "0x0000000000000000000000000000000000000000000000000000000000020000",
            "currentTimestamp" : "0x03e8"
        },
        "post" : {
            "Cancun" : [
                {
                    "hash" : "0xb3b78b46c1fd3051bb2cb46b703db21b6ec760f50f406a686cb887b720baeec8",
                    "indexes" : {
                        "data" : 0,
                        "gas" : 0,
                        "value" : 0
                    },
                    "logs" : "0x1dcc4de8dec75d7aab85b567b6ccd41ad312451b948a7413f0a142fd40d49347",
                    "txbytes" : "0xf861800a8404c4b40094095e7baea6a6c7c4c2dfeb977efac326af552d8701801ba0ee27b78889f9804d41653c96e9719d812664cdad812b86cfbcd5aed83cd93e87a05fdfe56c164829fe45dd3008c5daa006a2e2e4e87de68c39622b11d07f1b3775"
                }
            ]
        },
        "pre" : {
            "0x095e7baea6a6c7c4c2dfeb977efac326af552d87" : {
                "balance" : "0x0de0b6b3a7640000",
                "code" : "0x60ff60005260006000602002612774015260016001602002612774015260026002602002612774015260056003602002612774015260fe6004602002612774015260ff6005602002612774015261010060066020026127740152610101600760200261277401527fffffffffffffffffffffffffffffffffffffffffffffffffffffffffffffffff600860200261277401527ffffffffffffffffffffffffffffffffffffffffffffffffffffffffffffffffe600960200261277401527f8000000000000000000000000000000000000000000000000000000000000000600a60200261277401527fa000000000000000000000000000000000000000000000000000000000000000600b60200261277401527f5555555555555555555555555555555555555555555555555555555555555555600c60200261277401527faaaaaaaaaaaaaaaaaaaaaaaaaaaaaaaaaaaaaaaaaaaaaaaaaaaaaaaaaaaaaaaa600d602002612774015260006000602002614e84015260016001602002614e84015260026002602002614e84015260056003602002612774015260fe6004602002614e84015260ff6005602002614e8401526101006006602002614e8401526101016007602002614e8401527fffffffffffffffffffffffffffffffffffffffffffffffffffffffffffffffff6008602002614e8401527ffffffffffffffffffffffffffffffffffffffffffffffffffffffffffffffffe6009602002614e8401527f8000000000000000000000000000000000000000000000000000000000000000600a602002614e8401527fa000000000000000000000000000000000000000000000000000000000000000600b602002614e8401527f5555555555555555555555555555555555555555555555555555555555555555600c602002614e8401527faaaaaaaaaaaaaaaaaaaaaaaaaaaaaaaaaaaaaaaaaaaaaaaaaaaaaaaaaaaaaaaa600d602002614e84015260006020525b600e60205110156104f05760006040525b600e60405110156104e257600051600101600052631000001d60005155600051600101600052600060205160200261277401511461032f57602051602002612774015160005155610336565b6080600051555b6000516001016000526000604051602002614e8401511461036557604051602002614e8401516000515561036c565b6080600051555b600051600101600052604051602002614e84015160205160200261277401511d60005155600051600101600052631000001b6000515560005160010160005260006020516020026127740151146103d1576020516020026127740151600051556103d8565b6080600051555b6000516001016000526000604051602002614e8401511461040757604051602002614e8401516000515561040e565b6080600051555b600051600101600052604051602002614e84015160205160200261277401511b60005155600051600101600052631000001c6000515560005160010160005260006020516020026127740151146104735760205160200261277401516000515561047a565b6080600051555b6000516001016000526000604051602002614e840151146104a957604051602002614e840151600051556104b0565b6080600051555b600051600101600052604051602002614e84015160205160200261277401511c600051556040516001016040526102e3565b6020516001016020526102d2565b0000",
                "nonce" : "0x00",
                "storage" : {
                }
            },
            "0xa94f5374fce5edbc8e2a8697c15331677e6ebf0b" : {
                "balance" : "0x0de0b6b3a7640000",
                "code" : "0x",
                "nonce" : "0x00",
                "storage" : {
                }
            }
        },
        "transaction" : {
            "data" : [
                "0x"
            ],
            "gasLimit" : [
                "0x04c4b400"
            ],
            "gasPrice" : "0x0a",
            "nonce" : "0x00",
            "secretKey" : "0x45a915e4d060149eb4365960e6a7a45f334393093061116b197e3240065ff2d8",
            "sender" : "0xa94f5374fce5edbc8e2a8697c15331677e6ebf0b",
            "to" : "0x095e7baea6a6c7c4c2dfeb977efac326af552d87",
            "value" : [
                "0x01"
            ]
        }
    }
}