{
    "gasCostJump" : {
        "_info" : {
            "comment" : "Ori Pomerantz qbzzt1@gmail.com",
            "filling-rpc-server" : "evm version 1.14.4-unstable-3d8028a6-20240513",
            "filling-tool-version" : "retesteth-0.3.2-cancun+commit.2ab0208e.Linux.g++",
            "generatedTestHash" : "38fe7fc1703a3b3cf4de8699157d32a3df7233b73491d293e6683233aa67872c",
            "lllcversion" : "Version: 0.5.14-develop.2023.7.11+commit.c58ab2c6.mod.Linux.g++",
            "solidity" : "Version: 0.8.21+commit.d9974bed.Linux.g++",
            "source" : "src/GeneralStateTestsFiller/stEIP150singleCodeGasPrices/gasCostJumpFiller.yml",
            "sourceHash" : "5aefdbc0c28885c532a1c1c123babd803835580e62abd4b32f17fe4283774b1c"
        },
        "env" : {
            "currentBaseFee" : "0x0a",
            "currentCoinbase" : "0x2adc25665018aa1fe0e6bc666dac8fc2697ff9ba",
            "currentDifficulty" : "0x020000",
            "currentExcessBlobGas" : "0x00",
            "currentGasLimit" : "0x05f5e100",
            "currentNumber" : "0x01",
            "currentRandom" : "0x0000000000000000000000000000000000000000000000000000000000020000",
            "currentTimestamp" : "0x03e8"
        },
        "post" : {
            "Cancun" : [
                {
                    "hash" : "0x5053d7b8470e469e4178519ffb60d612f4508d07760fcb8ba2d0783c4d59c9b0",
                    "indexes" : {
                        "data" : 0,
                        "gas" : 0,
                        "value" : 0
                    },
                    "logs" : "0x1dcc4de8dec75d7aab85b567b6ccd41ad312451b948a7413f0a142fd40d49347",
                    "txbytes" : "0xf8a6800a8404c4b40094095e7baea6a6c7c4c2dfeb977efac326af552d8701b844c5b5a1ae000000000000000000000000000000000000000000000000000000000000000100000000000000000000000000000000000000000000000000000000000000041ba008bbebf9b8f46f1f8718c6e2c417282b702e60971f3936f4f325be31cfdb3d8da049b11c23090587c00a0b0fc597b5abd6ac487edd70fc039cf941d0215ab9a45f"
                },
                {
                    "hash" : "0xa8b9b3113aae7b593e982fc2170ad0b243f85c4eed66f11fd5bceacaad041336",
                    "indexes" : {
                        "data" : 1,
                        "gas" : 0,
                        "value" : 0
                    },
                    "logs" : "0x1dcc4de8dec75d7aab85b567b6ccd41ad312451b948a7413f0a142fd40d49347",
                    "txbytes" : "0xf8a6800a8404c4b40094095e7baea6a6c7c4c2dfeb977efac326af552d8701b844c5b5a1ae000000000000000000000000000000000000000000000000000000000000000200000000000000000000000000000000000000000000000000000000000000061ca0269ef807a8e6d1733a8e0a0e2abc49dafd3a55e5fa07a73ea3cbe3bf466203bfa0526fca5ee6c73a93178abda3689bee240b388a18002c954f04da17c0301c1f23"
                },
                {
                    "hash" : "0xa8b9b3113aae7b593e982fc2170ad0b243f85c4eed66f11fd5bceacaad041336",
                    "indexes" : {
                        "data" : 2,
                        "gas" : 0,
                        "value" : 0
                    },
                    "logs" : "0x1dcc4de8dec75d7aab85b567b6ccd41ad312451b948a7413f0a142fd40d49347",
                    "txbytes" : "0xf8a6800a8404c4b40094095e7baea6a6c7c4c2dfeb977efac326af552d8701b844c5b5a1ae000000000000000000000000000000000000000000000000000000000000000300000000000000000000000000000000000000000000000000000000000000061ba006025aa744a50296c2686fc8675001e635e2de03ac96c852f01f0f4c3763fa43a00491ba2907b27c32f6d3fda4c8ee78350f3659ba78ad0d0872fdedb567be5c53"
                }
            ]
        },
        "pre" : {
            "0x0000000000000000000000000000000000000100" : {
                "balance" : "0x0ba1a9ce0ba1a9ce",
                "code" : "0x600060005b5b00",
                "nonce" : "0x00",
                "storage" : {
                }
            },
            "0x0000000000000000000000000000000000000200" : {
                "balance" : "0x0ba1a9ce0ba1a9ce",
                "code" : "0x60006005565b00",
                "nonce" : "0x00",
                "storage" : {
                }
            },
            "0x0000000000000000000000000000000000000300" : {
                "balance" : "0x0ba1a9ce0ba1a9ce",
                "code" : "0x60016005575b00",
                "nonce" : "0x00",
                "storage" : {
                }
            },
            "0x0000000000000000000000000000000000000400" : {
                "balance" : "0x0ba1a9ce0ba1a9ce",
                "code" : "0x60006005575b00",
                "nonce" : "0x00",
                "storage" : {
                }
            },
            "0x095e7baea6a6c7c4c2dfeb977efac326af552d87" : {
                "balance" : "0x0ba1a9ce0ba1a9ce",
                "code" : "0x5a6000526000600060006000600061010062010000f1505a60005103602052600160043514602e57600050604e565b5a6000526000600060006000600061020062010000f1505a600051036040525b600260043514605e57600050607e565b5a6000526000600060006000600061030062010000f1505a600051036040525b600360043514608e5760005060ae565b5a6000526000600060006000600061040062010000f1505a600051036040525b602435602051604051030360005500",
                "nonce" : "0x00",
                "storage" : {
                    "0x00" : "0x60a7"
                }
            },
            "0xa94f5374fce5edbc8e2a8697c15331677e6ebf0b" : {
                "balance" : "0x0ba1a9ce0ba1a9ce",
                "code" : "0x",
                "nonce" : "0x00",
                "storage" : {
                }
            }
        },
        "transaction" : {
            "data" : [
                "0xc5b5a1ae00000000000000000000000000000000000000000000000000000000000000010000000000000000000000000000000000000000000000000000000000000004",
                "0xc5b5a1ae00000000000000000000000000000000000000000000000000000000000000020000000000000000000000000000000000000000000000000000000000000006",
                "0xc5b5a1ae00000000000000000000000000000000000000000000000000000000000000030000000000000000000000000000000000000000000000000000000000000006"
            ],
            "gasLimit" : [
                "0x04c4b400"
            ],
            "gasPrice" : "0x0a",
            "nonce" : "0x00",
            "secretKey" : "0x45a915e4d060149eb4365960e6a7a45f334393093061116b197e3240065ff2d8",
            "sender" : "0xa94f5374fce5edbc8e2a8697c15331677e6ebf0b",
            "to" : "0x095e7baea6a6c7c4c2dfeb977efac326af552d87",
            "value" : [
                "0x01"
            ]
        }
    }
}