{
    "RawExtCodeCopyGas" : {
        "_info" : {
            "comment" : "",
            "filling-rpc-server" : "evm version 1.14.4-unstable-3d8028a6-20240513",
            "filling-tool-version" : "retesteth-0.3.2-cancun+commit.2ab0208e.Linux.g++",
            "generatedTestHash" : "7a80ca55140254ac749290a0743874c28268f46535a4430b7d6339b0b2d4c8dc",
            "lllcversion" : "Version: 0.5.14-develop.2023.7.11+commit.c58ab2c6.mod.Linux.g++",
            "solidity" : "Version: 0.8.21+commit.d9974bed.Linux.g++",
            "source" : "src/GeneralStateTestsFiller/stEIP150singleCodeGasPrices/RawExtCodeCopyGasFiller.json",
            "sourceHash" : "0373172858e5b0404b626a2ede171352674236ca9fdf5c1124c31fd31d056326"
        },
        "env" : {
            "currentBaseFee" : "0x0a",
            "currentCoinbase" : "0x2adc25665018aa1fe0e6bc666dac8fc2697ff9ba",
            "currentDifficulty" : "0x020000",
            "currentExcessBlobGas" : "0x00",
            "currentGasLimit" : "0x989680",
            "currentNumber" : "0x01",
            "currentRandom" : "0x0000000000000000000000000000000000000000000000000000000000020000",
            "currentTimestamp" : "0x03e8"
        },
        "post" : {
            "Cancun" : [
                {
                    "hash" : "0x825901769608f7d982fd35d92e3eb5643520e4aaa104a5974607b97bec367a15",
                    "indexes" : {
                        "data" : 0,
                        "gas" : 0,
                        "value" : 0
                    },
                    "logs" : "0x1dcc4de8dec75d7aab85b567b6ccd41ad312451b948a7413f0a142fd40d49347",
                    "txbytes" : "0xf860800a830927c094b94f5374fce5edbc8e2a8697c15331677e6ebf0b80801ca065622aa0319be041688699ffcc35390d71659fb43600cba91177760bd5cbe3f7a05d3be8e63e5061a12f6f569ba20df19ea8a844cbe9eba3a85c230f7cd8d70426"
                }
            ]
        },
        "pre" : {
            "0x094f5374fce5edbc8e2a8697c15331677e6ebf0b" : {
                "balance" : "0x00",
                "code" : "0x0112233445566778899101112131415161718191202122232425",
                "nonce" : "0x00",
                "storage" : {
                }
            },
            "0xa94f5374fce5edbc8e2a8697c15331677e6ebf0b" : {
                "balance" : "0xe8d4a51000",
                "code" : "0x",
                "nonce" : "0x00",
                "storage" : {
                }
            },
            "0xb94f5374fce5edbc8e2a8697c15331677e6ebf0b" : {
                "balance" : "0x00",
                "code" : "0x5a60005260146000602073094f5374fce5edbc8e2a8697c15331677e6ebf0b3c5a6000510360015500",
                "nonce" : "0x00",
                "storage" : {
                }
            }
        },
        "transaction" : {
            "data" : [
                "0x"
            ],
            "gasLimit" : [
                "0x0927c0"
            ],
            "gasPrice" : "0x0a",
            "nonce" : "0x00",
            "secretKey" : "0x45a915e4d060149eb4365960e6a7a45f334393093061116b197e3240065ff2d8",
            "sender" : "0xa94f5374fce5edbc8e2a8697c15331677e6ebf0b",
            "to" : "0xb94f5374fce5edbc8e2a8697c15331677e6ebf0b",
            "value" : [
                "0x00"
            ]
        }
    }
}