{
    "PointAtInfinityECRecover" : {
        "_info" : {
            "comment" : "",
            "filling-rpc-server" : "evm version 1.14.4-unstable-3d8028a6-20240513",
            "filling-tool-version" : "retesteth-0.3.2-cancun+commit.2ab0208e.Linux.g++",
            "generatedTestHash" : "ea73cfd05c83cce8c8f19a96d0c4a7f58d021c0c093601d8dff8280a9f6ce892",
            "lllcversion" : "Version: 0.5.14-develop.2023.7.11+commit.c58ab2c6.mod.Linux.g++",
            "solidity" : "Version: 0.8.21+commit.d9974bed.Linux.g++",
            "source" : "src/GeneralStateTestsFiller/stTransactionTest/PointAtInfinityECRecoverFiller.yml",
            "sourceHash" : "0820bce681b3fa38687487011989309256e5a5824b2f0b5bacdd1d8676362c62"
        },
        "env" : {
            "currentBaseFee" : "0x0a",
            "currentCoinbase" : "0x2adc25665018aa1fe0e6bc666dac8fc2697ff9ba",
            "currentDifficulty" : "0x020000",
            "currentExcessBlobGas" : "0x00",
            "currentGasLimit" : "0x05500000",
            "currentNumber" : "0x01",
            "currentRandom" : "0x0000000000000000000000000000000000000000000000000000000000020000",
            "currentTimestamp" : "0x03e8"
        },
        "post" : {
            "Cancun" : [
                {
                    "hash" : "0x57810ec74a0661aa4ba94b220f6a58b758e5127fba3c62b9a14b98b7897c6178",
                    "indexes" : {
                        "data" : 0,
                        "gas" : 0,
                        "value" : 0
                    },
                    "logs" : "0x1dcc4de8dec75d7aab85b567b6ccd41ad312451b948a7413f0a142fd40d49347",
                    "txbytes" : "0xf860800a8398968094000000000000000000000000000000000000ff0a80801ca087a3a3a16259f6d19712a4066e1685ee514322be23a682d586e5091c6ebeb4a2a02ad425cbf21f2487fab7147553f9db6803b7c6da28b409d57fd8acec8f0350d3"
                }
            ]
        },
        "pre" : {
            "0x000000000000000000000000000000000000ff0a" : {
                "balance" : "0xffffffff",
                "code" : "0x6000805160206065833981519152600052601b6020527f79be667ef9dcbbac55a06295ce870b07029bfcdb2dce28d959f2815b16f81798604052600080516020606583398151915260605260206000608081806001620f4240f160005560005160015500fe6b8d2c81b11b2d699528dde488dbdf2f94293d0d33c32e347f255fa4a6c1f0a9",
                "nonce" : "0x00",
                "storage" : {
                }
            },
            "0xa94f5374fce5edbc8e2a8697c15331677e6ebf0b" : {
                "balance" : "0x0de0b6b3a7640000",
                "code" : "0x",
                "nonce" : "0x00",
                "storage" : {
                }
            }
        },
        "transaction" : {
            "data" : [
                "0x"
            ],
            "gasLimit" : [
                "0x989680"
            ],
            "gasPrice" : "0x0a",
            "nonce" : "0x00",
            "secretKey" : "0x45a915e4d060149eb4365960e6a7a45f334393093061116b197e3240065ff2d8",
            "sender" : "0xa94f5374fce5edbc8e2a8697c15331677e6ebf0b",
            "to" : "0x000000000000000000000000000000000000ff0a",
            "value" : [
                "0x00"
            ]
        }
    }
}