{
    "TransactionDataCosts652" : {
        "_info" : {
            "comment" : "",
            "filling-rpc-server" : "evm version 1.14.4-unstable-3d8028a6-20240513",
            "filling-tool-version" : "retesteth-0.3.2-cancun+commit.2ab0208e.Linux.g++",
            "generatedTestHash" : "a24cf57b6ae86ed38d3f48ce6db1ac7a2ee507a2fac0ce7b4dfe98beb12142f9",
            "lllcversion" : "Version: 0.5.14-develop.2023.7.11+commit.c58ab2c6.mod.Linux.g++",
            "solidity" : "Version: 0.8.21+commit.d9974bed.Linux.g++",
            "source" : "src/GeneralStateTestsFiller/stTransactionTest/TransactionDataCosts652Filler.json",
            "sourceHash" : "07ab40e02ce5f449c5ebd8640e35b417600a25e6d173e2cb437f19a3cd800487"
        },
        "env" : {
            "currentBaseFee" : "0x0a",
            "currentCoinbase" : "0x2adc25665018aa1fe0e6bc666dac8fc2697ff9ba",
            "currentDifficulty" : "0x020000",
            "currentExcessBlobGas" : "0x00",
            "currentGasLimit" : "0x989680",
            "currentNumber" : "0x01",
            "currentRandom" : "0x0000000000000000000000000000000000000000000000000000000000020000",
            "currentTimestamp" : "0x03e8"
        },
        "post" : {
            "Cancun" : [
                {
                    "hash" : "0x390e88e70cf927a9e1da1f435bd28edaa7f77b61e5e2bf33269984c46c327073",
                    "indexes" : {
                        "data" : 0,
                        "gas" : 0,
                        "value" : 0
                    },
                    "logs" : "0x1dcc4de8dec75d7aab85b567b6ccd41ad312451b948a7413f0a142fd40d49347",
                    "txbytes" : "0xf872800a8255f094b94f5374fce5edbc8e2a8697c15331677e6ebf0b809300000000000000000000112233445566778f321ca0bec034895a43db0478a263ab08933113806fabae98a4533773e718efcdc10538a06bbc608f5ec63c4b09c80108ad80462f1b4d0202123594de4ea720da4cfd6bbc"
                },
                {
                    "hash" : "0x390e88e70cf927a9e1da1f435bd28edaa7f77b61e5e2bf33269984c46c327073",
                    "indexes" : {
                        "data" : 0,
                        "gas" : 1,
                        "value" : 0
                    },
                    "logs" : "0x1dcc4de8dec75d7aab85b567b6ccd41ad312451b948a7413f0a142fd40d49347",
                    "txbytes" : "0xf873800a8301194094b94f5374fce5edbc8e2a8697c15331677e6ebf0b809300000000000000000000112233445566778f321ca04eed738f79e0b7de1843b8411b59272f63fdfcc96e6c2ff5f130b23f64888346a009e29a49e42a89b55daedff0c3754fe533acbf79607f05104ed4ba35f4b12f4b"
                }
            ]
        },
        "pre" : {
            "0xa94f5374fce5edbc8e2a8697c15331677e6ebf0b" : {
                "balance" : "0x989680",
                "code" : "0x",
                "nonce" : "0x00",
                "storage" : {
                }
            }
        },
        "transaction" : {
            "data" : [
                "0x00000000000000000000112233445566778f32"
            ],
            "gasLimit" : [
                "0x55f0",
                "0x011940"
            ],
            "gasPrice" : "0x0a",
            "nonce" : "0x00",
            "secretKey" : "0x45a915e4d060149eb4365960e6a7a45f334393093061116b197e3240065ff2d8",
            "sender" : "0xa94f5374fce5edbc8e2a8697c15331677e6ebf0b",
            "to" : "0xb94f5374fce5edbc8e2a8697c15331677e6ebf0b",
            "value" : [
                "0x00"
            ]
        }
    }
}