{
    "callToNonExistent" : {
        "_info" : {
            "comment" : "https://github.com/ethereum/tests/issues/652",
            "filling-rpc-server" : "evm version 1.14.4-unstable-3d8028a6-20240513",
            "filling-tool-version" : "retesteth-0.3.2-cancun+commit.2ab0208e.Linux.g++",
            "generatedTestHash" : "c5de49db4cb66718e3c470531f1d190dddf2a48901d7f5e7e3f5134c73e4f947",
            "lllcversion" : "Version: 0.5.14-develop.2023.7.11+commit.c58ab2c6.mod.Linux.g++",
            "solidity" : "Version: 0.8.21+commit.d9974bed.Linux.g++",
            "source" : "src/GeneralStateTestsFiller/stExtCodeHash/callToNonExistentFiller.json",
            "sourceHash" : "cd28c6728f3b589109f09f99453b572c7de4a275411566938a86e260720ce785"
        },
        "env" : {
            "currentBaseFee" : "0x0a",
            "currentCoinbase" : "0x2adc25665018aa1fe0e6bc666dac8fc2697ff9ba",
            "currentDifficulty" : "0x020000",
            "currentExcessBlobGas" : "0x00",
            "currentGasLimit" : "0xb2d05e00",
            "currentNumber" : "0x01",
            "currentRandom" : "0x0000000000000000000000000000000000000000000000000000000000020000",
            "currentTimestamp" : "0x03e8"
        },
        "post" : {
            "Cancun" : [
                {
                    "hash" : "0xf17230cfba74c08ff9098bedd67f4b57cffdbfa0e93a10af108f60bcc6f3c5ac",
                    "indexes" : {
                        "data" : 0,
                        "gas" : 0,
                        "value" : 0
                    },
                    "logs" : "0x1dcc4de8dec75d7aab85b567b6ccd41ad312451b948a7413f0a142fd40d49347",
                    "txbytes" : "0xf880800a830186a094100000000000000000000000000000000000000001a000000000000000000000000010000000000000000000000000000000000000011ca07c083b036be3a2e160151e89a1c9253049fe80fb916fb44f1ed5dd2c27f8e63da04a1e1e46aa1f22836f2223ba6d6380f918b6e71620dc77caddd45bbffb526b4e"
                },
                {
                    "hash" : "0xf17230cfba74c08ff9098bedd67f4b57cffdbfa0e93a10af108f60bcc6f3c5ac",
                    "indexes" : {
                        "data" : 1,
                        "gas" : 0,
                        "value" : 0
                    },
                    "logs" : "0x1dcc4de8dec75d7aab85b567b6ccd41ad312451b948a7413f0a142fd40d49347",
                    "txbytes" : "0xf880800a830186a094100000000000000000000000000000000000000001a000000000000000000000000020000000000000000000000000000000000000011ba007880ac8844b66fc4a9c7599d8fafdfd42bcfb098665e854b1f355bb3bb59795a003fcdf76e6661ed9b8da69fb8d203672a120f4c5e54d1836c2818f7225922cf1"
                },
                {
                    "hash" : "0xd8bf3a99bf42b0bb3fc5c202419aee1a42bef6237a8c3e7373adb7a208382331",
                    "indexes" : {
                        "data" : 2,
                        "gas" : 0,
                        "value" : 0
                    },
                    "logs" : "0x1dcc4de8dec75d7aab85b567b6ccd41ad312451b948a7413f0a142fd40d49347",
                    "txbytes" : "0xf880800a830186a094100000000000000000000000000000000000000001a000000000000000000000000030000000000000000000000000000000000000011ca0ee5a124738fe45bfe6f7033bc18a47894d051562826706ef514be677ab76026ca05a37a5aaa2a104cb2d19e45530b98076375d9f61e1a6b21e8e6f3922c02bbc2f"
                },
                {
                    "hash" : "0xd8bf3a99bf42b0bb3fc5c202419aee1a42bef6237a8c3e7373adb7a208382331",
                    "indexes" : {
                        "data" : 3,
                        "gas" : 0,
                        "value" : 0
                    },
                    "logs" : "0x1dcc4de8dec75d7aab85b567b6ccd41ad312451b948a7413f0a142fd40d49347",
                    "txbytes" : "0xf880800a830186a094100000000000000000000000000000000000000001a000000000000000000000000040000000000000000000000000000000000000011ba0a48163c9728cdb95c26a49faafe02e2ca5c9ff4e44470fe3498544a412d02fd0a012a2ed928c2f0a08ff3a57eea09d87b797fe56d678aa2bd732238395d5cf56a5"
                }
            ]
        },
        "pre" : {
            "0x1000000000000000000000000000000000000000" : {
                "balance" : "0x00",
                "code" : "0x604060006040600060006000355af200",
                "nonce" : "0x00",
                "storage" : {
                    "0x01" : "0x1122"
                }
            },
            "0x1000000000000000000000000000000000000001" : {
                "balance" : "0x00",
                "code" : "0x6000600060006000600073dead0000000000000000000000000000000000016161a8f160005573dead0000000000000000000000000000000000013f60015500",
                "nonce" : "0x00",
                "storage" : {
                }
            },
            "0x2000000000000000000000000000000000000001" : {
                "balance" : "0x00",
                "code" : "0x6000600060006000600073dead0000000000000000000000000000000000016161a8f260005573dead0000000000000000000000000000000000013f60015500",
                "nonce" : "0x00",
                "storage" : {
                }
            },
            "0x3000000000000000000000000000000000000001" : {
                "balance" : "0x00",
                "code" : "0x600060006000600073dead0000000000000000000000000000000000016161a8f460005573dead0000000000000000000000000000000000013f60015500",
                "nonce" : "0x00",
                "storage" : {
                }
            },
            "0x4000000000000000000000000000000000000001" : {
                "balance" : "0x00",
                "code" : "0x600060006000600073dead0000000000000000000000000000000000016161a8fa60005573dead0000000000000000000000000000000000013f60015500",
                "nonce" : "0x00",
                "storage" : {
                }
            },
            "0xa94f5374fce5edbc8e2a8697c15331677e6ebf0b" : {
                "balance" : "0x0de0b6b3a7640000",
                "code" : "0x",
                "nonce" : "0x00",
                "storage" : {
                }
            }
        },
        "transaction" : {
            "data" : [
                "0x0000000000000000000000001000000000000000000000000000000000000001",
                "0x0000000000000000000000002000000000000000000000000000000000000001",
                "0x0000000000000000000000003000000000000000000000000000000000000001",
                "0x0000000000000000000000004000000000000000000000000000000000000001"
            ],
            "gasLimit" : [
                "0x0186a0"
            ],
            "gasPrice" : "0x0a",
            "nonce" : "0x00",
            "secretKey" : "0x45a915e4d060149eb4365960e6a7a45f334393093061116b197e3240065ff2d8",
            "sender" : "0xa94f5374fce5edbc8e2a8697c15331677e6ebf0b",
            "to" : "0x1000000000000000000000000000000000000000",
            "value" : [
                "0x01"
            ]
        }
    }
}