{
    "extCodeHashDeletedAccount4" : {
        "_info" : {
            "comment" : "4) Call creates Account A\nCall to Account B stores Account A hash to 1\nCall to Account C runs self destruct on A\nCall to Account B stores Account a hash to 2\n",
            "filling-rpc-server" : "evm version 1.14.4-unstable-3d8028a6-20240513",
            "filling-tool-version" : "retesteth-0.3.2-cancun+commit.2ab0208e.Linux.g++",
            "generatedTestHash" : "0b541076a7d51d57919dba656494f41100df874af64a6836a3f5e402ef3f76ec",
            "lllcversion" : "Version: 0.5.14-develop.2023.7.11+commit.c58ab2c6.mod.Linux.g++",
            "solidity" : "Version: 0.8.21+commit.d9974bed.Linux.g++",
            "source" : "src/GeneralStateTestsFiller/stExtCodeHash/extCodeHashDeletedAccount4Filler.yml",
            "sourceHash" : "f7e9507ea63728ad297472d1441c13d49edbdc259a1fb05cffc449a4b6306c24"
        },
        "env" : {
            "currentBaseFee" : "0x0a",
            "currentCoinbase" : "0x2adc25665018aa1fe0e6bc666dac8fc2697ff9ba",
            "currentDifficulty" : "0x020000",
            "currentExcessBlobGas" : "0x00",
            "currentGasLimit" : "0x0f4240",
            "currentNumber" : "0x01",
            "currentRandom" : "0x0000000000000000000000000000000000000000000000000000000000020000",
            "currentTimestamp" : "0x03e8"
        },
        "post" : {
            "Cancun" : [
                {
                    "hash" : "0xecb5a3017feb638aa561317ec583f47710a1add481659bc2f7e1a9084c651799",
                    "indexes" : {
                        "data" : 0,
                        "gas" : 0,
                        "value" : 0
                    },
                    "logs" : "0x1dcc4de8dec75d7aab85b567b6ccd41ad312451b948a7413f0a142fd40d49347",
                    "txbytes" : "0xf860800a83061a8094095e7baea6a6c7c4c2dfeb977efac326af552d8701801ca09d46b87169053cc40670aef750b032c895cde3e35c2c7f5a37c059272e0914c7a04d4a94b67b2776cc3e0fca2ed9503c10fd92ec79f1b2dcbb85df9634c7de3119"
                }
            ]
        },
        "pre" : {
            "0x095e7baea6a6c7c4c2dfeb977efac326af552d87" : {
                "balance" : "0x0de0b6b3a7640000",
                "code" : "0x6000603d80609460003960006000f560005260005160005560016020526020600060206020600073bbbbbbbb00000000000000000000000000000000620249f0f1506020600060006000600073cccccccc00000000000000000000000000000000620249f0f15060046040526020600060206040600073bbbbbbbb00000000000000000000000000000000620249f0f1500000fe73dddddddd000000000000000000000000000000003b6000526000516000602073dddddddd000000000000000000000000000000003c6000516020f300",
                "nonce" : "0x00",
                "storage" : {
                }
            },
            "0xa94f5374fce5edbc8e2a8697c15331677e6ebf0b" : {
                "balance" : "0x0de0b6b3a7640000",
                "code" : "0x",
                "nonce" : "0x00",
                "storage" : {
                }
            },
            "0xbbbbbbbb00000000000000000000000000000000" : {
                "balance" : "0x0de0b6b3a7640000",
                "code" : "0x6020600060003773c5691dc90d9fd2a2e9a5fa5bd28bf77ffd60aa783f6000515560016000510160005273c5691dc90d9fd2a2e9a5fa5bd28bf77ffd60aa783b60005155600051546000602073c5691dc90d9fd2a2e9a5fa5bd28bf77ffd60aa783c6001600051016000526020516000515500",
                "nonce" : "0x00",
                "storage" : {
                }
            },
            "0xcccccccc00000000000000000000000000000000" : {
                "balance" : "0x00",
                "code" : "0x6020600060006000600073c5691dc90d9fd2a2e9a5fa5bd28bf77ffd60aa78620249f0f100",
                "nonce" : "0x00",
                "storage" : {
                }
            },
            "0xdddddddd00000000000000000000000000000000" : {
                "balance" : "0x00",
                "code" : "0x73bbbbbbbb00000000000000000000000000000000ff00",
                "nonce" : "0x00",
                "storage" : {
                }
            }
        },
        "transaction" : {
            "data" : [
                "0x"
            ],
            "gasLimit" : [
                "0x061a80"
            ],
            "gasPrice" : "0x0a",
            "nonce" : "0x00",
            "secretKey" : "0x45a915e4d060149eb4365960e6a7a45f334393093061116b197e3240065ff2d8",
            "sender" : "0xa94f5374fce5edbc8e2a8697c15331677e6ebf0b",
            "to" : "0x095e7baea6a6c7c4c2dfeb977efac326af552d87",
            "value" : [
                "0x01"
            ]
        }
    }
}