{
    "extCodeHashCreatedAndDeletedAccountRecheckInOuterCall" : {
        "_info" : {
            "comment" : "EXTCODEHASH/EXTCODESIZE of an account created then deleted in a CALL, checking results after the CALL returns",
            "filling-rpc-server" : "evm version 1.14.4-unstable-3d8028a6-20240513",
            "filling-tool-version" : "retesteth-0.3.2-cancun+commit.2ab0208e.Linux.g++",
            "generatedTestHash" : "04452d84a3560afe6cd20b9a395e20f2638dc10f5a8de302aa3bade6b39cffa9",
            "lllcversion" : "Version: 0.5.14-develop.2023.7.11+commit.c58ab2c6.mod.Linux.g++",
            "solidity" : "Version: 0.8.21+commit.d9974bed.Linux.g++",
            "source" : "src/GeneralStateTestsFiller/stExtCodeHash/extCodeHashCreatedAndDeletedAccountRecheckInOuterCallFiller.json",
            "sourceHash" : "d154391eec193a9a4428bfd8d8031def8b1d1d0e87e9dd39b07d75a38274e75b"
        },
        "env" : {
            "currentBaseFee" : "0x0a",
            "currentCoinbase" : "0x2adc25665018aa1fe0e6bc666dac8fc2697ff9ba",
            "currentDifficulty" : "0x020000",
            "currentExcessBlobGas" : "0x00",
            "currentGasLimit" : "0x0f4240",
            "currentNumber" : "0x01",
            "currentRandom" : "0x0000000000000000000000000000000000000000000000000000000000020000",
            "currentTimestamp" : "0x03e8"
        },
        "post" : {
            "Cancun" : [
                {
                    "hash" : "0x075fce705601ab21d8c3010e613c883c7043a20160d743ee0dfdf489269c7796",
                    "indexes" : {
                        "data" : 0,
                        "gas" : 0,
                        "value" : 0
                    },
                    "logs" : "0x1dcc4de8dec75d7aab85b567b6ccd41ad312451b948a7413f0a142fd40d49347",
                    "txbytes" : "0xf860800a83061a8094deadbeef0000000000000000000000000000000101801ca0ca915032d520b0ce68147354cbf04fc2ddf38a11ce2f4f767abd6a32b14b9152a073f798b81ce7c99b290b46865b6e1aa84a9fd5cd0164784a97fa4f70604d225a"
                }
            ]
        },
        "pre" : {
            "0xa94f5374fce5edbc8e2a8697c15331677e6ebf0b" : {
                "balance" : "0x0de0b6b3a7640000",
                "code" : "0x",
                "nonce" : "0x00",
                "storage" : {
                }
            },
            "0xdeadbeef00000000000000000000000000000000" : {
                "balance" : "0x0de0b6b3a7640000",
                "code" : "0x6010601180604460803960806000f56000526000513f6000556000513b6001556000600060006000600060005162010000f1506000513f6002556000513b6003550000fe600480600d6000396000f300fe6000ff00",
                "nonce" : "0x00",
                "storage" : {
                }
            },
            "0xdeadbeef00000000000000000000000000000001" : {
                "balance" : "0x0de0b6b3a7640000",
                "code" : "0x6000600060006000600073deadbeef0000000000000000000000000000000062020000f15073123f4c415171383dcf6f3ac6c3b70fe321e11b5e3f60005573123f4c415171383dcf6f3ac6c3b70fe321e11b5e3b6001550000",
                "nonce" : "0x00",
                "storage" : {
                }
            }
        },
        "transaction" : {
            "data" : [
                "0x"
            ],
            "gasLimit" : [
                "0x061a80"
            ],
            "gasPrice" : "0x0a",
            "nonce" : "0x00",
            "secretKey" : "0x45a915e4d060149eb4365960e6a7a45f334393093061116b197e3240065ff2d8",
            "sender" : "0xa94f5374fce5edbc8e2a8697c15331677e6ebf0b",
            "to" : "0xdeadbeef00000000000000000000000000000001",
            "value" : [
                "0x01"
            ]
        }
    }
}