{
    "extcodehashEmpty_Paris" : {
        "_info" : {
            "comment" : "Ori Pomerantz  qbzzt1@gmail.com",
            "filling-rpc-server" : "evm version 1.14.4-unstable-3d8028a6-20240513",
            "filling-tool-version" : "retesteth-0.3.2-cancun+commit.2ab0208e.Linux.g++",
            "generatedTestHash" : "06b8e4dff7fc415573ffe7e0433529b731f38c129c82463536d82de0c5c8fe69",
            "labels" : {
                "0" : "empty",
                "1" : "storage",
                "2" : "balance",
                "3" : "balance",
                "4" : "nonce",
                "5" : "nonce",
                "6" : "hasCode",
                "7" : "dead",
                "8" : "born",
                "9" : "born2"
            },
            "lllcversion" : "Version: 0.5.14-develop.2023.7.11+commit.c58ab2c6.mod.Linux.g++",
            "solidity" : "Version: 0.8.21+commit.d9974bed.Linux.g++",
            "source" : "src/GeneralStateTestsFiller/stExtCodeHash/extcodehashEmpty_ParisFiller.yml",
            "sourceHash" : "cea5488fc5f7ff43778eb72ba094cc7c45e5b60ab2ae62da795522f82ae46732"
        },
        "env" : {
            "currentBaseFee" : "0x0a",
            "currentCoinbase" : "0x2adc25665018aa1fe0e6bc666dac8fc2697ff9ba",
            "currentDifficulty" : "0x020000",
            "currentExcessBlobGas" : "0x00",
            "currentGasLimit" : "0x05f5e100",
            "currentNumber" : "0x01",
            "currentRandom" : "0x0000000000000000000000000000000000000000000000000000000000020000",
            "currentTimestamp" : "0x03e8"
        },
        "post" : {
            "Cancun" : [
                {
                    "hash" : "0x4067640bb285129811a3392a94903e7b524e59d3aeeee0c31116e9abe39a8bb2",
                    "indexes" : {
                        "data" : 1,
                        "gas" : 0,
                        "value" : 0
                    },
                    "logs" : "0x1dcc4de8dec75d7aab85b567b6ccd41ad312451b948a7413f0a142fd40d49347",
                    "txbytes" : "0xf885800a8404c4b40094cccccccccccccccccccccccccccccccccccccccc01a4693c613900000000000000000000000000000000000000000000000000000000000010031ba0d157c71aee392a2cb44cee057e4d2db6bed3fb85e8357bc5bab7c6ecb2c4e883a0719c1b56cf2ff0738c1243855f3c1c80ea7e23a685c8a33bdc537db9f6b5f9f3"
                },
                {
                    "hash" : "0x7fe01823ed2cf6cbde70d016cf94d93f133ff196b80c0c1c61ff966728ad3ca0",
                    "indexes" : {
                        "data" : 0,
                        "gas" : 0,
                        "value" : 0
                    },
                    "logs" : "0x1dcc4de8dec75d7aab85b567b6ccd41ad312451b948a7413f0a142fd40d49347",
                    "txbytes" : "0xf885800a8404c4b40094cccccccccccccccccccccccccccccccccccccccc01a4693c613900000000000000000000000000000000000000000000000000000000000010001ca0d0faf29220da9d066af214636c188e833d2fcfedcea697d03ed36f8e13762625a00af5cc22f1e964310380350f723177b3e71b7b2a17a87ef260cf169b031fe541"
                },
                {
                    "hash" : "0x3e8f0498d3bcf5764479ccd828624be8e31ba6f7560df1d03e79d3e1562adf68",
                    "indexes" : {
                        "data" : 2,
                        "gas" : 0,
                        "value" : 0
                    },
                    "logs" : "0x1dcc4de8dec75d7aab85b567b6ccd41ad312451b948a7413f0a142fd40d49347",
                    "txbytes" : "0xf885800a8404c4b40094cccccccccccccccccccccccccccccccccccccccc01a4693c613900000000000000000000000000000000000000000000000000000000000010011ba011e01802e95744bf078a882fb02bdec52b95435489e754af75a064faaf0de41da05f7940cf633ca49fbbb1435f6793b2fb0c820aed728c28990c33b53fd0bdc1f6"
                },
                {
                    "hash" : "0x58ed5209c8ff671c5016b3e746518c1010f27cb4b73812acf5ed83e24f6e5e77",
                    "indexes" : {
                        "data" : 3,
                        "gas" : 0,
                        "value" : 0
                    },
                    "logs" : "0x1dcc4de8dec75d7aab85b567b6ccd41ad312451b948a7413f0a142fd40d49347",
                    "txbytes" : "0xf885800a8404c4b40094cccccccccccccccccccccccccccccccccccccccc01a4693c613900000000000000000000000000000000000000000000000000000000000011011ba0954c075c882fedd49eea58b1bb10e2dda0ffdec0ba391a8e945efa811b64932ca040f9eecc73b92bcafcab717da27dcca528d737ec0c6803cb84ac3438488822e4"
                },
                {
                    "hash" : "0xbe5ff26b46ac014346f115eaddf833d5724a55f1caca011f1e8a10d9d98de73c",
                    "indexes" : {
                        "data" : 4,
                        "gas" : 0,
                        "value" : 0
                    },
                    "logs" : "0x1dcc4de8dec75d7aab85b567b6ccd41ad312451b948a7413f0a142fd40d49347",
                    "txbytes" : "0xf885800a8404c4b40094cccccccccccccccccccccccccccccccccccccccc01a4693c613900000000000000000000000000000000000000000000000000000000000010021ba0a7384f5023aa10211fa3f243cba5a7d6e3ac854fee93ecd0b280a0f01a778307a024f38de5b1ba047732983500c32902b731083191f5cdd7941e22a51811a2510a"
                },
                {
                    "hash" : "0x45e33bf812ed0ce9881183b1ab82df0b2f5075b0c9295be632c633aacc247444",
                    "indexes" : {
                        "data" : 5,
                        "gas" : 0,
                        "value" : 0
                    },
                    "logs" : "0x1dcc4de8dec75d7aab85b567b6ccd41ad312451b948a7413f0a142fd40d49347",
                    "txbytes" : "0xf885800a8404c4b40094cccccccccccccccccccccccccccccccccccccccc01a4693c613900000000000000000000000000000000000000000000000000000000000011021ca06dc574ed80fbd9795c6bff2ea6d372cfabe479b289bcd2f1b6ac27cf1c1ae2aca038f3aedb9960bd7a3f667c3cd62c199a589f8ee5c69eb776c811467dbbe4724f"
                },
                {
                    "hash" : "0x2b3672567275163e973449389c3b59dd386c0e1658b44a4088a86b3473b7f36d",
                    "indexes" : {
                        "data" : 6,
                        "gas" : 0,
                        "value" : 0
                    },
                    "logs" : "0x1dcc4de8dec75d7aab85b567b6ccd41ad312451b948a7413f0a142fd40d49347",
                    "txbytes" : "0xf885800a8404c4b40094cccccccccccccccccccccccccccccccccccccccc01a4693c613900000000000000000000000000000000000000000000000000000000000010041ba04f18aee70c81433e0fd9c3aabf9d61c3563808634813a1136df4c526c60eac1fa04a36225bbb4b3940f8a5af09dedbc6aa4e663eb7268c92fec01210162a11501f"
                },
                {
                    "hash" : "0x5953633690be0d8e9029c000e2df35076ea395b92fcbfc4d3a4fabcb9bbeaca9",
                    "indexes" : {
                        "data" : 7,
                        "gas" : 0,
                        "value" : 0
                    },
                    "logs" : "0x1dcc4de8dec75d7aab85b567b6ccd41ad312451b948a7413f0a142fd40d49347",
                    "txbytes" : "0xf885800a8404c4b40094cccccccccccccccccccccccccccccccccccccccc01a4693c6139000000000000000000000000000000000000000000000000000000000000dead1ca07575396df30638f2cdf43e562d1a4d6b9907f3cc44bec937b866aa1eb38c84dfa050d77175eef8416db59ee1e6c0c6e0ba657ccb6758e94e5fbd95decc532e09d9"
                },
                {
                    "hash" : "0x33f6e3714b013e61b24c75eea2e165b4f3c19d6db00f115198486c89a6b274e3",
                    "indexes" : {
                        "data" : 8,
                        "gas" : 0,
                        "value" : 0
                    },
                    "logs" : "0x1dcc4de8dec75d7aab85b567b6ccd41ad312451b948a7413f0a142fd40d49347",
                    "txbytes" : "0xf885800a8404c4b40094cccccccccccccccccccccccccccccccccccccccc01a4693c61390000000000000000000000000000000000000000000000000000000000c0ea7e1ba04894bc12eff853fe6b012c77a3a001dfa2e1a7d5bf1b29e372065427e61ca29aa0264e1c3025b6324667162fafddb29f37a4b0b5273fe6770aef126cf4ad216374"
                },
                {
                    "hash" : "0x5cff3e5897e29c7a2d99035fb3e5bd946efcb9606a5912765ec41e28dabe6074",
                    "indexes" : {
                        "data" : 9,
                        "gas" : 0,
                        "value" : 0
                    },
                    "logs" : "0x1dcc4de8dec75d7aab85b567b6ccd41ad312451b948a7413f0a142fd40d49347",
                    "txbytes" : "0xf885800a8404c4b40094cccccccccccccccccccccccccccccccccccccccc01a4693c6139000000000000000000000000000000000000000000000000000000000c0ea7e21ba0ddd17f6a616d9603b8937f60af60b0c44fad36caa6ff7680e356f2e9872122c8a04e619ba362929323c13f957c7b727b0b4b8d8bf1f322bc2c5aff36d82ef3db76"
                }
            ]
        },
        "pre" : {
            "0x0000000000000000000000000000000000001001" : {
                "balance" : "0x01",
                "code" : "0x",
                "nonce" : "0x00",
                "storage" : {
                }
            },
            "0x0000000000000000000000000000000000001002" : {
                "balance" : "0x00",
                "code" : "0x",
                "nonce" : "0x01",
                "storage" : {
                }
            },
            "0x0000000000000000000000000000000000001003" : {
                "balance" : "0x0a",
                "code" : "0x",
                "nonce" : "0x00",
                "storage" : {
                    "0x00" : "0x01000000",
                    "0x0fffffff" : "0xffffffff"
                }
            },
            "0x0000000000000000000000000000000000001004" : {
                "balance" : "0x00",
                "code" : "0x00",
                "nonce" : "0x00",
                "storage" : {
                }
            },
            "0x0000000000000000000000000000000000001101" : {
                "balance" : "0x0100000000000000",
                "code" : "0x",
                "nonce" : "0x00",
                "storage" : {
                }
            },
            "0x0000000000000000000000000000000000001102" : {
                "balance" : "0x00",
                "code" : "0x",
                "nonce" : "0xe8d4a51000",
                "storage" : {
                }
            },
            "0x000000000000000000000000000000000000dead" : {
                "balance" : "0x64",
                "code" : "0x6160a7ff",
                "nonce" : "0x00",
                "storage" : {
                }
            },
            "0x0000000000000000000000000000000000c0ea7e" : {
                "balance" : "0x64",
                "code" : "0x6006806021610100396020526020516101006000f06040526040513f60005500fe60006000f300",
                "nonce" : "0x00",
                "storage" : {
                }
            },
            "0x000000000000000000000000000000000c0ea7e2" : {
                "balance" : "0x64",
                "code" : "0x600680602a610100396020526160a76020516101006000f56040526040513f60005560405160015500fe60006000f300",
                "nonce" : "0x00",
                "storage" : {
                }
            },
            "0xa94f5374fce5edbc8e2a8697c15331677e6ebf0b" : {
                "balance" : "0x0ba1a9ce0ba1a9ce",
                "code" : "0x",
                "nonce" : "0x00",
                "storage" : {
                }
            },
            "0xcccccccccccccccccccccccccccccccccccccccc" : {
                "balance" : "0x0ba1a9ce0ba1a9ce",
                "code" : "0x61200060043511600f576000601f565b600060006000600060006004355af15b506004353b6000556004353f600155600054600060006004353c60005160025561200060043510604f576000605f565b600060006000600060016004355af15b506004353f6003555a6020526004353f505a6040526013604051602051030360045500",
                "nonce" : "0x00",
                "storage" : {
                }
            }
        },
        "transaction" : {
            "data" : [
                "0x693c61390000000000000000000000000000000000000000000000000000000000001000",
                "0x693c61390000000000000000000000000000000000000000000000000000000000001003",
                "0x693c61390000000000000000000000000000000000000000000000000000000000001001",
                "0x693c61390000000000000000000000000000000000000000000000000000000000001101",
                "0x693c61390000000000000000000000000000000000000000000000000000000000001002",
                "0x693c61390000000000000000000000000000000000000000000000000000000000001102",
                "0x693c61390000000000000000000000000000000000000000000000000000000000001004",
                "0x693c6139000000000000000000000000000000000000000000000000000000000000dead",
                "0x693c61390000000000000000000000000000000000000000000000000000000000c0ea7e",
                "0x693c6139000000000000000000000000000000000000000000000000000000000c0ea7e2"
            ],
            "gasLimit" : [
                "0x04c4b400"
            ],
            "gasPrice" : "0x0a",
            "nonce" : "0x00",
            "secretKey" : "0x45a915e4d060149eb4365960e6a7a45f334393093061116b197e3240065ff2d8",
            "sender" : "0xa94f5374fce5edbc8e2a8697c15331677e6ebf0b",
            "to" : "0xcccccccccccccccccccccccccccccccccccccccc",
            "value" : [
                "0x01"
            ]
        }
    }
}