{
    "refund_multimpleSuicide" : {
        "_info" : {
            "comment" : "",
            "filling-rpc-server" : "evm version 1.14.4-unstable-3d8028a6-20240513",
            "filling-tool-version" : "retesteth-0.3.2-cancun+commit.2ab0208e.Linux.g++",
            "generatedTestHash" : "f316041cff8da137cf9a48f042d574784da704895c3438dc2a164eadb1bc07aa",
            "lllcversion" : "Version: 0.5.14-develop.2023.7.11+commit.c58ab2c6.mod.Linux.g++",
            "solidity" : "Version: 0.8.21+commit.d9974bed.Linux.g++",
            "source" : "src/GeneralStateTestsFiller/stRefundTest/refund_multimpleSuicideFiller.json",
            "sourceHash" : "c4b3cad29ed00b06faaf33f8a88f56acfd350972fcb9cd9d2a9d6ada080c70ac"
        },
        "env" : {
            "currentBaseFee" : "0x0a",
            "currentCoinbase" : "0x2adc25665018aa1fe0e6bc666dac8fc2697ff9ba",
            "currentDifficulty" : "0x020000",
            "currentExcessBlobGas" : "0x00",
            "currentGasLimit" : "0x0f4240",
            "currentNumber" : "0x01",
            "currentRandom" : "0x0000000000000000000000000000000000000000000000000000000000020000",
            "currentTimestamp" : "0x03e8"
        },
        "post" : {
            "Cancun" : [
                {
                    "hash" : "0x5fbb9a191c97d513cb62f54a71633e88f58f63e6f916e55a19986f6140629f55",
                    "indexes" : {
                        "data" : 0,
                        "gas" : 0,
                        "value" : 0
                    },
                    "logs" : "0x1dcc4de8dec75d7aab85b567b6ccd41ad312451b948a7413f0a142fd40d49347",
                    "txbytes" : "0xf864800a830493e09410000000000000000000000000000000000000018084c04062261ba09bed14f3c7f7c266c64cf1f95041cb02cfdd16d13e7d5977aa0dfd4b36632070a0027d78a7a9aac2cb8067a0b374d1bb5c3e6c6e12e0f68fa35ef603df8a508cd5"
                }
            ]
        },
        "pre" : {
            "0x1000000000000000000000000000000000000001" : {
                "balance" : "0x0de0b6b3a7640000",
                "code" : "0x606060405260e060020a600035046309e587a58114610031578063c04062261461004d578063dd4f1f2a1461005a575b005b61002f3373ffffffffffffffffffffffffffffffffffffffff16ff5b6100f5600061010961005e565b61002f5b60003090508073ffffffffffffffffffffffffffffffffffffffff166309e587a56040518160e060020a0281526004018090506000604051808303816000876161da5a03f1156100025750604080517f09e587a500000000000000000000000000000000000000000000000000000000815290516004828101926000929190829003018183876161da5a03f1156100025750505050565b604080519115158252519081900360200190f35b5060019056",
                "nonce" : "0x00",
                "storage" : {
                }
            },
            "0x2adc25665018aa1fe0e6bc666dac8fc2697ff9ba" : {
                "balance" : "0x00",
                "code" : "0x",
                "nonce" : "0x01",
                "storage" : {
                }
            },
            "0xa94f5374fce5edbc8e2a8697c15331677e6ebf0b" : {
                "balance" : "0x0623a7c0",
                "code" : "0x",
                "nonce" : "0x00",
                "storage" : {
                }
            }
        },
        "transaction" : {
            "data" : [
                "0xc0406226"
            ],
            "gasLimit" : [
                "0x0493e0"
            ],
            "gasPrice" : "0x0a",
            "nonce" : "0x00",
            "secretKey" : "0x45a915e4d060149eb4365960e6a7a45f334393093061116b197e3240065ff2d8",
            "sender" : "0xa94f5374fce5edbc8e2a8697c15331677e6ebf0b",
            "to" : "0x1000000000000000000000000000000000000001",
            "value" : [
                "0x00"
            ]
        }
    }
}