{
    "CreateOOGafterInitCodeRevert2" : {
        "_info" : {
            "comment" : "Calls a contract that runs CREATE which deploy a code. then after deployment and exiting from CREATE a REVERT is called. check the REVERT data in this case equal to RETURN value of CREATE. CREATE fails due to the deployment cost.",
            "filling-rpc-server" : "evm version 1.14.4-unstable-3d8028a6-20240513",
            "filling-tool-version" : "retesteth-0.3.2-cancun+commit.2ab0208e.Linux.g++",
            "generatedTestHash" : "a1467e79fa32c9f694fcc8a5ed5f2b36a358785d2c57eaa3438130733c1e8336",
            "lllcversion" : "Version: 0.5.14-develop.2023.7.11+commit.c58ab2c6.mod.Linux.g++",
            "solidity" : "Version: 0.8.21+commit.d9974bed.Linux.g++",
            "source" : "src/GeneralStateTestsFiller/stCreateTest/CreateOOGafterInitCodeRevert2Filler.json",
            "sourceHash" : "ace90c235be32cefc8301f5afccd916b43a97ef9adae63e8a4211627614f0cc1"
        },
        "env" : {
            "currentBaseFee" : "0x0a",
            "currentCoinbase" : "0x2adc25665018aa1fe0e6bc666dac8fc2697ff9ba",
            "currentDifficulty" : "0x020000",
            "currentExcessBlobGas" : "0x00",
            "currentGasLimit" : "0x989680",
            "currentNumber" : "0x01",
            "currentRandom" : "0x0000000000000000000000000000000000000000000000000000000000020000",
            "currentTimestamp" : "0x03e8"
        },
        "post" : {
            "Cancun" : [
                {
                    "hash" : "0xe4d34abce801214152bd484e5d95543ef9245d2a0033c85104069067155693b5",
                    "indexes" : {
                        "data" : 0,
                        "gas" : 0,
                        "value" : 0
                    },
                    "logs" : "0x1dcc4de8dec75d7aab85b567b6ccd41ad312451b948a7413f0a142fd40d49347",
                    "txbytes" : "0xf880800a8302ab9894100000000000000000000000000000000000000080a0000000000000000000000000c94f5374fce5edbc8e2a8697c15331677e6ebf0b1ca058c02baf049069fdfbfceb5ee9f680c3c1649b0924d0684eb5f65ada0cc2d6b9a01e882d88130957899dfb410e21c15cc92191eb9749d8f43185eabcbe02aa4036"
                },
                {
                    "hash" : "0x1c5564a343dc220156e161483a41db98b03fd6bf43e51e6cc6b902822f24628c",
                    "indexes" : {
                        "data" : 1,
                        "gas" : 0,
                        "value" : 0
                    },
                    "logs" : "0x1dcc4de8dec75d7aab85b567b6ccd41ad312451b948a7413f0a142fd40d49347",
                    "txbytes" : "0xf880800a8302ab9894100000000000000000000000000000000000000080a0000000000000000000000000d94f5374fce5edbc8e2a8697c15331677e6ebf0b1ba0cf6174be194c8f23b0815ce25c15d5304d72482e94c8a138e58f64164cdedf62a0297044d9512a58a71ad81532a1c774327fdae7989bf448acae5fb2f1ef1e2c06"
                }
            ]
        },
        "pre" : {
            "0x1000000000000000000000000000000000000000" : {
                "balance" : "0xe8d4a51000",
                "code" : "0x600060006000600060006000355af100",
                "nonce" : "0x00",
                "storage" : {
                }
            },
            "0xa94f5374fce5edbc8e2a8697c15331677e6ebf0b" : {
                "balance" : "0xe8d4a51000",
                "code" : "0x",
                "nonce" : "0x00",
                "storage" : {
                }
            },
            "0xb94f5374fce5edbc8e2a8697c15331677e6ebf0b" : {
                "balance" : "0x00",
                "code" : "0x6d6460016001556000526005601bf3600052600e60126000f05060206000fd00",
                "nonce" : "0x00",
                "storage" : {
                }
            },
            "0xc94f5374fce5edbc8e2a8697c15331677e6ebf0b" : {
                "balance" : "0x00",
                "code" : "0x6020600060006000600073b94f5374fce5edbc8e2a8697c15331677e6ebf0b6180e8f15060005160015500",
                "nonce" : "0x00",
                "storage" : {
                    "0x01" : "0xff"
                }
            },
            "0xd94f5374fce5edbc8e2a8697c15331677e6ebf0b" : {
                "balance" : "0x00",
                "code" : "0x6020600060006000600073b94f5374fce5edbc8e2a8697c15331677e6ebf0b6159d8f15060005160015500",
                "nonce" : "0x00",
                "storage" : {
                    "0x01" : "0xff"
                }
            }
        },
        "transaction" : {
            "data" : [
                "0x000000000000000000000000c94f5374fce5edbc8e2a8697c15331677e6ebf0b",
                "0x000000000000000000000000d94f5374fce5edbc8e2a8697c15331677e6ebf0b"
            ],
            "gasLimit" : [
                "0x02ab98"
            ],
            "gasPrice" : "0x0a",
            "nonce" : "0x00",
            "secretKey" : "0x45a915e4d060149eb4365960e6a7a45f334393093061116b197e3240065ff2d8",
            "sender" : "0xa94f5374fce5edbc8e2a8697c15331677e6ebf0b",
            "to" : "0x1000000000000000000000000000000000000000",
            "value" : [
                "0x00"
            ]
        }
    }
}