{
    "CreateOOGafterMaxCodesize" : {
        "_info" : {
            "comment" : "",
            "filling-rpc-server" : "evm version 1.14.4-unstable-3d8028a6-20240513",
            "filling-tool-version" : "retesteth-0.3.2-cancun+commit.2ab0208e.Linux.g++",
            "generatedTestHash" : "11e735dd60fa88a111e3a61f9ae6a71eaceec688dba132546c82b9c71ef7bd13",
            "labels" : {
                "0" : "LowContractCount_NoDelegateCreate_CallCreateOOG",
                "1" : "LowContractCount_DelegateCreate_CallCreateOOG",
                "2" : "LowContractCount_DelegateCreate_CallCreate_SelfDestruct",
                "3" : "HighContractCount_NoDelegateCreate_CallCreateOOG",
                "4" : "HighContractCount_DelegateCreate_CallCreateOOG",
                "5" : "HighContractCount_DelegateCreate_CallCreate_SelfDestruct"
            },
            "lllcversion" : "Version: 0.5.14-develop.2023.7.11+commit.c58ab2c6.mod.Linux.g++",
            "solidity" : "Version: 0.8.21+commit.d9974bed.Linux.g++",
            "source" : "src/GeneralStateTestsFiller/stCreateTest/CreateOOGafterMaxCodesizeFiller.yml",
            "sourceHash" : "153bc15ae567bd58549bc6d78ec5e3f778e5069cd763377c63bb54cb07482599"
        },
        "env" : {
            "currentBaseFee" : "0x0a",
            "currentCoinbase" : "0x2adc25665018aa1fe0e6bc666dac8fc2697ff9ba",
            "currentDifficulty" : "0x020000",
            "currentExcessBlobGas" : "0x00",
            "currentGasLimit" : "0x0100000000",
            "currentNumber" : "0x01",
            "currentRandom" : "0x0000000000000000000000000000000000000000000000000000000000020000",
            "currentTimestamp" : "0x03e8"
        },
        "post" : {
            "Cancun" : [
                {
                    "hash" : "0xb75bbd6f41df8919dad99e16dfe7be6e05b3e62fc961c63c7a34146ba6dee83b",
                    "indexes" : {
                        "data" : 0,
                        "gas" : 0,
                        "value" : 0
                    },
                    "logs" : "0x1dcc4de8dec75d7aab85b567b6ccd41ad312451b948a7413f0a142fd40d49347",
                    "txbytes" : "0xf8e7800a8501000000009400000000000000000000000000000000000c0dea80b884a6f227c00000000000000000000000000000000000000000000000000000000000000000000000000000000000000000000000000000000000000000000000000000000a000000000000000000000000000000000000000000000000000000000000000100000000000000000000000000000000000000000000000000000000000000001ca05c698c89240f08eda2e2d678a53a63d48261d4d71da22f163e5f4d9507ba9c32a02faf9b7a967b88fed493e556295716f803ebf68f0a991d1935f29a56bb7d578d"
                },
                {
                    "hash" : "0xb3f8918f6e0334e986fc9c5ced7921824a86e90eeddeb37a38ffc931d32cab1b",
                    "indexes" : {
                        "data" : 1,
                        "gas" : 0,
                        "value" : 0
                    },
                    "logs" : "0x1dcc4de8dec75d7aab85b567b6ccd41ad312451b948a7413f0a142fd40d49347",
                    "txbytes" : "0xf8e7800a8501000000009400000000000000000000000000000000000c0dea80b884a6f227c0000000000000000000000000000000000000000000000000000000000000000a000000000000000000000000000000000000000000000000000000000000000a000000000000000000000000000000000000000000000000000000000000000100000000000000000000000000000000000000000000000000000000000000001ba0296515874d707f54be818e0a8a5fe37f4d248a7be1751ed7f443e7f1747472f8a03bcca7b24c7aca5c56f27a5c9c4b6c550293406fc1ffd7b26620a8e22edd19c7"
                },
                {
                    "hash" : "0xfcd1389c3aecb79adda4a4e535189394f5e35ae4f198278905f9fe18d79df1fb",
                    "indexes" : {
                        "data" : 2,
                        "gas" : 0,
                        "value" : 0
                    },
                    "logs" : "0x1dcc4de8dec75d7aab85b567b6ccd41ad312451b948a7413f0a142fd40d49347",
                    "txbytes" : "0xf8e7800a8501000000009400000000000000000000000000000000000c0dea80b884a6f227c0000000000000000000000000000000000000000000000000000000000000000a000000000000000000000000000000000000000000000000000000000000000a0000000000000000000000000000000000000000000000000000000000000000000000000000000000000000000000000000000000000000000000000000000e1ba00f1bdf006744048a7988183b373e200b8cc4d15d4a35d92003103391e005b50fa0086f4dec0b3847b12c0ba87291de8af843ccfacc4760353c4a02d5d5de7392f7"
                },
                {
                    "hash" : "0xf2a6f4d75332d871f6edb1ff2a60d1ca3c666d206c7df7c6d05a18ef84a87c22",
                    "indexes" : {
                        "data" : 3,
                        "gas" : 0,
                        "value" : 0
                    },
                    "logs" : "0x1dcc4de8dec75d7aab85b567b6ccd41ad312451b948a7413f0a142fd40d49347",
                    "txbytes" : "0xf8e7800a8501000000009400000000000000000000000000000000000c0dea80b884a6f227c0000000000000000000000000000000000000000000000000000000000000000000000000000000000000000000000000000000000000000000000000000000fa000000000000000000000000000000000000000000000000000000000000000100000000000000000000000000000000000000000000000000000000000000001ca013cb18c8a2d22fc4328622c1c7e2cc2c41cdc7770eaf891994f185de521c401ba0300fcfab3dedd33a0c7bc00ff617fbdd0fcbc767924e9d8f190c59b714c255f2"
                },
                {
                    "hash" : "0xf5ec405f15a7b6c3c29da12ab21d5413698f8f51e6147d262b1f8c7e7ed71608",
                    "indexes" : {
                        "data" : 4,
                        "gas" : 0,
                        "value" : 0
                    },
                    "logs" : "0x1dcc4de8dec75d7aab85b567b6ccd41ad312451b948a7413f0a142fd40d49347",
                    "txbytes" : "0xf8e7800a8501000000009400000000000000000000000000000000000c0dea80b884a6f227c000000000000000000000000000000000000000000000000000000000000000fa00000000000000000000000000000000000000000000000000000000000000fa000000000000000000000000000000000000000000000000000000000000000100000000000000000000000000000000000000000000000000000000000000001ba00b21f45fe64e6aba8d3bade62ed7fbf2e5fb1515540afd17b9d8964ed1dc38b1a016ef18f9f4408b6394d1d49831d773971aa386f8abbb235842a99cff08cd7022"
                },
                {
                    "hash" : "0x6deb8f24ef40f0ed2590b3abab9154821f927dd99d3b8973a70ae12bed961962",
                    "indexes" : {
                        "data" : 5,
                        "gas" : 0,
                        "value" : 0
                    },
                    "logs" : "0x1dcc4de8dec75d7aab85b567b6ccd41ad312451b948a7413f0a142fd40d49347",
                    "txbytes" : "0xf8e7800a8501000000009400000000000000000000000000000000000c0dea80b884a6f227c000000000000000000000000000000000000000000000000000000000000000fa00000000000000000000000000000000000000000000000000000000000000fa000000000000000000000000000000000000000000000000000000000000000000000000000000000000000000000000000000000000000000000000000001ee1ba0ff8bb3085619b656c3f5a7397758a6c64f19a546b18c117a1787bf9d97cc3c1da07fc487bff20fbf11200c819ae29086011784971b247fed6dfb7531e59ab834da"
                }
            ]
        },
        "pre" : {
            "0x00000000000000000000000000000000000c0de0" : {
                "balance" : "0x00",
                "code" : "0x3860005560003611600c57005b6000ff",
                "nonce" : "0x00",
                "storage" : {
                }
            },
            "0x00000000000000000000000000000000000c0de1" : {
                "balance" : "0x00",
                "code" : "0x620c0de0600080823b923c6160006000f3",
                "nonce" : "0x00",
                "storage" : {
                }
            },
            "0x00000000000000000000000000000000000c0dea" : {
                "balance" : "0x00",
                "code" : "0x6004356024356044359060643592806000526000602052600060406020830290604083620c0deb60025a04f41460bf578160005282602052600060208202604001602084029060408380620c0deb60025a04f11460ba575b600081931460b1575b505060005b8181106094578260005b818110607757005b80600080600181806020839702604001516103e85a03f15001606f565b80600080808080602060019702604001516103e85a03f150016065565b01905038806060565b826057575b600080fd",
                "nonce" : "0x01",
                "storage" : {
                }
            },
            "0x00000000000000000000000000000000000c0deb" : {
                "balance" : "0x00",
                "code" : "0x6001805560008035602035620c0de183813b9485923c60005b828110602d5750600010602b5760200290f35bfe5b60019084600080f06020820286015201601856",
                "nonce" : "0x01",
                "storage" : {
                }
            },
            "0xa94f5374fce5edbc8e2a8697c15331677e6ebf0b" : {
                "balance" : "0x0ba1a9ce0ba1a9ce",
                "code" : "0x",
                "nonce" : "0x00",
                "storage" : {
                }
            }
        },
        "transaction" : {
            "data" : [
                "0xa6f227c00000000000000000000000000000000000000000000000000000000000000000000000000000000000000000000000000000000000000000000000000000000a00000000000000000000000000000000000000000000000000000000000000010000000000000000000000000000000000000000000000000000000000000000",
                "0xa6f227c0000000000000000000000000000000000000000000000000000000000000000a000000000000000000000000000000000000000000000000000000000000000a00000000000000000000000000000000000000000000000000000000000000010000000000000000000000000000000000000000000000000000000000000000",
                "0xa6f227c0000000000000000000000000000000000000000000000000000000000000000a000000000000000000000000000000000000000000000000000000000000000a0000000000000000000000000000000000000000000000000000000000000000000000000000000000000000000000000000000000000000000000000000000e",
                "0xa6f227c0000000000000000000000000000000000000000000000000000000000000000000000000000000000000000000000000000000000000000000000000000000fa00000000000000000000000000000000000000000000000000000000000000010000000000000000000000000000000000000000000000000000000000000000",
                "0xa6f227c000000000000000000000000000000000000000000000000000000000000000fa00000000000000000000000000000000000000000000000000000000000000fa00000000000000000000000000000000000000000000000000000000000000010000000000000000000000000000000000000000000000000000000000000000",
                "0xa6f227c000000000000000000000000000000000000000000000000000000000000000fa00000000000000000000000000000000000000000000000000000000000000fa000000000000000000000000000000000000000000000000000000000000000000000000000000000000000000000000000000000000000000000000000001ee"
            ],
            "gasLimit" : [
                "0x0100000000"
            ],
            "gasPrice" : "0x0a",
            "nonce" : "0x00",
            "secretKey" : "0x45a915e4d060149eb4365960e6a7a45f334393093061116b197e3240065ff2d8",
            "sender" : "0xa94f5374fce5edbc8e2a8697c15331677e6ebf0b",
            "to" : "0x00000000000000000000000000000000000c0dea",
            "value" : [
                "0x00"
            ]
        }
    }
}