{
    "CREATE_AcreateB_BSuicide_BStore" : {
        "_info" : {
            "comment" : "",
            "filling-rpc-server" : "evm version 1.14.4-unstable-3d8028a6-20240513",
            "filling-tool-version" : "retesteth-0.3.2-cancun+commit.2ab0208e.Linux.g++",
            "generatedTestHash" : "845ead4ec67ec5d260d88add1b76319651bf1215a2b24362eee2a54daebcbbc5",
            "lllcversion" : "Version: 0.5.14-develop.2023.7.11+commit.c58ab2c6.mod.Linux.g++",
            "solidity" : "Version: 0.8.21+commit.d9974bed.Linux.g++",
            "source" : "src/GeneralStateTestsFiller/stCreateTest/CREATE_AcreateB_BSuicide_BStoreFiller.json",
            "sourceHash" : "2bc679789fa8af43f6c96259c8c5b30d9d6feed445939801795410ea4918bc55"
        },
        "env" : {
            "currentBaseFee" : "0x0a",
            "currentCoinbase" : "0x2adc25665018aa1fe0e6bc666dac8fc2697ff9ba",
            "currentDifficulty" : "0x020000",
            "currentExcessBlobGas" : "0x00",
            "currentGasLimit" : "0x989680",
            "currentNumber" : "0x01",
            "currentRandom" : "0x0000000000000000000000000000000000000000000000000000000000020000",
            "currentTimestamp" : "0x03e8"
        },
        "post" : {
            "Cancun" : [
                {
                    "hash" : "0x7990e46df8b01315d9d0cf31d4c782b3eb875dd716fb89454e7e2480f1e6a3a2",
                    "indexes" : {
                        "data" : 0,
                        "gas" : 0,
                        "value" : 0
                    },
                    "logs" : "0x1dcc4de8dec75d7aab85b567b6ccd41ad312451b948a7413f0a142fd40d49347",
                    "txbytes" : "0xf864800a830927c094b94f5374fce5edbc8e2a8697c15331677e6ebf0b8084c04062261ca02533703e522920868c57dd13bf60c6f16e493cf32e3d0e84509b5f21ae242447a0437bd5ba83d1b45949c55e91c85d996bfbbeb34c6ad1abab1b741a7198b70dee"
                }
            ]
        },
        "pre" : {
            "0x1000000000000000000000000000000000000000" : {
                "balance" : "0x01",
                "code" : "0x",
                "nonce" : "0x00",
                "storage" : {
                }
            },
            "0xa94f5374fce5edbc8e2a8697c15331677e6ebf0b" : {
                "balance" : "0xe8d4a51000",
                "code" : "0x",
                "nonce" : "0x00",
                "storage" : {
                }
            },
            "0xb94f5374fce5edbc8e2a8697c15331677e6ebf0b" : {
                "balance" : "0xe8d4a51000",
                "code" : "0x60606040526000357c010000000000000000000000000000000000000000000000000000000090048063c04062261461003c57610037565b610002565b346100025761004e6004805050610050565b005b600060405160c9806101d3833901809050604051809103906000f080156100025790508073ffffffffffffffffffffffffffffffffffffffff166369bda7aa604051817c0100000000000000000000000000000000000000000000000000000000028152600401809050600060405180830381600087803b156100025760325a03f115610002575050508073ffffffffffffffffffffffffffffffffffffffff16633ac6dff3604051817c0100000000000000000000000000000000000000000000000000000000028152600401809050600060405180830381600087803b156100025760325a03f115610002575050508073ffffffffffffffffffffffffffffffffffffffff16636f118b2b600060405160200152604051817c0100000000000000000000000000000000000000000000000000000000028152600401809050602060405180830381600087803b156100025760325a03f115610002575050506040518051906020015060016000508190555060016000600050819055505b5056606060405260b98060106000396000f360606040526000357c0100000000000000000000000000000000000000000000000000000000900480633ac6dff314604d57806369bda7aa14605e5780636f118b2b14606f576049565b6002565b34600257605c60048050506094565b005b34600257606d600480505060a2565b005b34600257607e600480505060a8565b6040518082815260200191505060405180910390f35b600c6000600050819055505b565b6011ff5b565b6000600060005054905060b6565b9056",
                "nonce" : "0x00",
                "storage" : {
                }
            }
        },
        "transaction" : {
            "data" : [
                "0xc0406226"
            ],
            "gasLimit" : [
                "0x0927c0"
            ],
            "gasPrice" : "0x0a",
            "nonce" : "0x00",
            "secretKey" : "0x45a915e4d060149eb4365960e6a7a45f334393093061116b197e3240065ff2d8",
            "sender" : "0xa94f5374fce5edbc8e2a8697c15331677e6ebf0b",
            "to" : "0xb94f5374fce5edbc8e2a8697c15331677e6ebf0b",
            "value" : [
                "0x00"
            ]
        }
    }
}