{
    "calldatacopy" : {
        "_info" : {
            "comment" : "Ori Pomerantz qbzzt1@gmail.com",
            "filling-rpc-server" : "evm version 1.14.4-unstable-3d8028a6-20240513",
            "filling-tool-version" : "retesteth-0.3.2-cancun+commit.2ab0208e.Linux.g++",
            "generatedTestHash" : "b55832d3888cbac5ef4cf5aa8def0c32040148a76b9a9b70d6ffaa9c2569ba0e",
            "labels" : {
                "0" : "cdc_0_1_2",
                "1" : "cdc_0_1_1",
                "2" : "cdc_0_1_0",
                "3" : "cdc_0_0_0",
                "4" : "cdc_0_neg6_ff",
                "5" : "cdc_0_neg6_9",
                "6" : "underflow",
                "7" : "sec"
            },
            "lllcversion" : "Version: 0.5.14-develop.2023.7.11+commit.c58ab2c6.mod.Linux.g++",
            "solidity" : "Version: 0.8.21+commit.d9974bed.Linux.g++",
            "source" : "src/GeneralStateTestsFiller/VMTests/vmTests/calldatacopyFiller.yml",
            "sourceHash" : "d23b717cf15facd18f9e281576fdcd2deb5c859ca1461ca66e453a65e99219ce"
        },
        "env" : {
            "currentBaseFee" : "0x0a",
            "currentCoinbase" : "0x2adc25665018aa1fe0e6bc666dac8fc2697ff9ba",
            "currentDifficulty" : "0x020000",
            "currentExcessBlobGas" : "0x00",
            "currentGasLimit" : "0x05f5e100",
            "currentNumber" : "0x01",
            "currentRandom" : "0x0000000000000000000000000000000000000000000000000000000000020000",
            "currentTimestamp" : "0x03e8"
        },
        "post" : {
            "Cancun" : [
                {
                    "hash" : "0xc554280c3c8e58e4439e95254ce5f48926f7b59164c1701cbadfc9c92c5b7e62",
                    "indexes" : {
                        "data" : 0,
                        "gas" : 0,
                        "value" : 0
                    },
                    "logs" : "0x1dcc4de8dec75d7aab85b567b6ccd41ad312451b948a7413f0a142fd40d49347",
                    "txbytes" : "0xf885800a8404c4b40094cccccccccccccccccccccccccccccccccccccccc01a4693c613900000000000000000000000000000000000000000000000000000000000000001ba0e8ff56322287185f6afd3422a825b47bf5c1a4ccf0dc0389cdc03f7c1c32b7eaa0776b02f9f5773238d3ff36b74a123f409cd6420908d7855bbe4c8ff63e00d698"
                },
                {
                    "hash" : "0xba91307cd773325f5a5a1eaced058f695875cee11771cd537f07d41269245b92",
                    "indexes" : {
                        "data" : 1,
                        "gas" : 0,
                        "value" : 0
                    },
                    "logs" : "0x1dcc4de8dec75d7aab85b567b6ccd41ad312451b948a7413f0a142fd40d49347",
                    "txbytes" : "0xf885800a8404c4b40094cccccccccccccccccccccccccccccccccccccccc01a4693c613900000000000000000000000000000000000000000000000000000000000000011ba02c5e81a024dd0f6fb773c8787fa46ab5eb55cb73df83562e6ddbe9106a3df7f6a029437b9a23e45bbfce086f2ddaa98b1e9e6914d7e58e2c5a128310042b332f89"
                },
                {
                    "hash" : "0xaeaec387f8b0706e14ac2af1da851b3ac4d37a33afbce20eb11cc24d1b48d1a3",
                    "indexes" : {
                        "data" : 2,
                        "gas" : 0,
                        "value" : 0
                    },
                    "logs" : "0x1dcc4de8dec75d7aab85b567b6ccd41ad312451b948a7413f0a142fd40d49347",
                    "txbytes" : "0xf885800a8404c4b40094cccccccccccccccccccccccccccccccccccccccc01a4693c613900000000000000000000000000000000000000000000000000000000000000021ba0fc37ad4eb0633eb18f2b7867bacbe994a2ffcbb04a71e394e6e76041f6ce216fa03b1b415a5c386d8de9e16be9fdc188234b80a0dec99922d03c240f2e463053e3"
                },
                {
                    "hash" : "0xaeaec387f8b0706e14ac2af1da851b3ac4d37a33afbce20eb11cc24d1b48d1a3",
                    "indexes" : {
                        "data" : 3,
                        "gas" : 0,
                        "value" : 0
                    },
                    "logs" : "0x1dcc4de8dec75d7aab85b567b6ccd41ad312451b948a7413f0a142fd40d49347",
                    "txbytes" : "0xf885800a8404c4b40094cccccccccccccccccccccccccccccccccccccccc01a4693c613900000000000000000000000000000000000000000000000000000000000000031ba0f06eb219c5dba98711a9a2678339f64d172bfac289a5c43a0018d3917be8dc2aa0147bd7a6ee30217e63cbddc28b0e72f115da754d8916b87992aa27ed00eb105e"
                },
                {
                    "hash" : "0x2ebc219360d5b42e76f81c225c3475657e885ebbaf16f8d09e9e7d1a46215d82",
                    "indexes" : {
                        "data" : 4,
                        "gas" : 0,
                        "value" : 0
                    },
                    "logs" : "0x1dcc4de8dec75d7aab85b567b6ccd41ad312451b948a7413f0a142fd40d49347",
                    "txbytes" : "0xf885800a8404c4b40094cccccccccccccccccccccccccccccccccccccccc01a4693c613900000000000000000000000000000000000000000000000000000000000000041ba0c148a101aa54703ff0e949441bdba90b1972a16c338f7f9a24b07f0313cd49d6a028cb82229b8a57e2048761d6fa5060c5b459f000d4e218de1372c1df9cfa171e"
                },
                {
                    "hash" : "0x469d242fbf875107a9a8675fc5329a4c3021c3f80c79db1b376936cecc11a2b1",
                    "indexes" : {
                        "data" : 5,
                        "gas" : 0,
                        "value" : 0
                    },
                    "logs" : "0x1dcc4de8dec75d7aab85b567b6ccd41ad312451b948a7413f0a142fd40d49347",
                    "txbytes" : "0xf885800a8404c4b40094cccccccccccccccccccccccccccccccccccccccc01a4693c613900000000000000000000000000000000000000000000000000000000000000051ca09a1ce3fdc8469be9bbe660a07c169cf5b6b70fe408cc1395057bbd4cdc2c8557a0560e8c0503c4364efd017933749f22e1d9ad4eff4580d5463df54b9bff8dca31"
                },
                {
                    "hash" : "0x392ca973cbe773331852bfa8693fc1edd744c5be9d6a3bc25422bdd9d62b05c5",
                    "indexes" : {
                        "data" : 6,
                        "gas" : 0,
                        "value" : 0
                    },
                    "logs" : "0x1dcc4de8dec75d7aab85b567b6ccd41ad312451b948a7413f0a142fd40d49347",
                    "txbytes" : "0xf885800a8404c4b40094cccccccccccccccccccccccccccccccccccccccc01a4693c613900000000000000000000000000000000000000000000000000000000000000101ca06c152640dac29cb80ec9f732a0678d6d1726c81b49519bfbb36eb749ceae4d73a013e6321b16e7a88298c22b8c8393fe93d7da4d097b0b4413a86cd2a66bc694e1"
                },
                {
                    "hash" : "0x12459467a709099234d284d87b4893bedab3f8e6839c058cb789bb1d29d29e96",
                    "indexes" : {
                        "data" : 7,
                        "gas" : 0,
                        "value" : 0
                    },
                    "logs" : "0x1dcc4de8dec75d7aab85b567b6ccd41ad312451b948a7413f0a142fd40d49347",
                    "txbytes" : "0xf885800a8404c4b40094cccccccccccccccccccccccccccccccccccccccc01a4693c613900000000000000000000000000000000000000000000000000000000000000111ca0526b9497015a0e30342a1e3dca77f3573a2abc2335cac8a118693e4055db3324a06c761bb3be083c41df354dd219b07e24e019fa85b62feeab97257523c52c682a"
                }
            ]
        },
        "pre" : {
            "0x0000000000000000000000000000000000001000" : {
                "balance" : "0x0ba1a9ce0ba1a9ce",
                "code" : "0x60026001600037600051600055596000f300",
                "nonce" : "0x00",
                "storage" : {
                }
            },
            "0x0000000000000000000000000000000000001001" : {
                "balance" : "0x0ba1a9ce0ba1a9ce",
                "code" : "0x60016001600037600051600055596000f300",
                "nonce" : "0x00",
                "storage" : {
                }
            },
            "0x0000000000000000000000000000000000001002" : {
                "balance" : "0x0ba1a9ce0ba1a9ce",
                "code" : "0x60006001600037600051600055596000f300",
                "nonce" : "0x00",
                "storage" : {
                }
            },
            "0x0000000000000000000000000000000000001003" : {
                "balance" : "0x0ba1a9ce0ba1a9ce",
                "code" : "0x60006000600037600051600055596000f300",
                "nonce" : "0x00",
                "storage" : {
                }
            },
            "0x0000000000000000000000000000000000001004" : {
                "balance" : "0x0ba1a9ce0ba1a9ce",
                "code" : "0x60ff7ffffffffffffffffffffffffffffffffffffffffffffffffffffffffffffffffa600037600051600055596000f300",
                "nonce" : "0x00",
                "storage" : {
                }
            },
            "0x0000000000000000000000000000000000001005" : {
                "balance" : "0x0ba1a9ce0ba1a9ce",
                "code" : "0x60097ffffffffffffffffffffffffffffffffffffffffffffffffffffffffffffffffa600037600051600055596000f300",
                "nonce" : "0x00",
                "storage" : {
                }
            },
            "0x0000000000000000000000000000000000001010" : {
                "balance" : "0x0ba1a9ce0ba1a9ce",
                "code" : "0x60016001556001600237",
                "nonce" : "0x00",
                "storage" : {
                }
            },
            "0x0000000000000000000000000000000000001011" : {
                "balance" : "0x0ba1a9ce0ba1a9ce",
                "code" : "0x6005565b005b6042601f536101036000601f3760005180606014600357640badc0ffee60ff55",
                "nonce" : "0x00",
                "storage" : {
                }
            },
            "0xa94f5374fce5edbc8e2a8697c15331677e6ebf0b" : {
                "balance" : "0x0ba1a9ce0ba1a9ce",
                "code" : "0x",
                "nonce" : "0x00",
                "storage" : {
                }
            },
            "0xcccccccccccccccccccccccccccccccccccccccc" : {
                "balance" : "0x0ba1a9ce0ba1a9ce",
                "code" : "0x701234567890abcdef01234567890abcdef0600052604060206010600f60006004356110000162fffffff15060205160005560405160015500",
                "nonce" : "0x00",
                "storage" : {
                }
            }
        },
        "transaction" : {
            "data" : [
                "0x693c61390000000000000000000000000000000000000000000000000000000000000000",
                "0x693c61390000000000000000000000000000000000000000000000000000000000000001",
                "0x693c61390000000000000000000000000000000000000000000000000000000000000002",
                "0x693c61390000000000000000000000000000000000000000000000000000000000000003",
                "0x693c61390000000000000000000000000000000000000000000000000000000000000004",
                "0x693c61390000000000000000000000000000000000000000000000000000000000000005",
                "0x693c61390000000000000000000000000000000000000000000000000000000000000010",
                "0x693c61390000000000000000000000000000000000000000000000000000000000000011"
            ],
            "gasLimit" : [
                "0x04c4b400"
            ],
            "gasPrice" : "0x0a",
            "nonce" : "0x00",
            "secretKey" : "0x45a915e4d060149eb4365960e6a7a45f334393093061116b197e3240065ff2d8",
            "sender" : "0xa94f5374fce5edbc8e2a8697c15331677e6ebf0b",
            "to" : "0xcccccccccccccccccccccccccccccccccccccccc",
            "value" : [
                "0x01"
            ]
        }
    }
}