{
    "calldataload" : {
        "_info" : {
            "comment" : "Ori Pomerantz qbzzt1@gmail.com",
            "filling-rpc-server" : "evm version 1.14.4-unstable-3d8028a6-20240513",
            "filling-tool-version" : "retesteth-0.3.2-cancun+commit.2ab0208e.Linux.g++",
            "generatedTestHash" : "11bc1b8b618eef4956ec44d53e4598b378111bf9584353a7a4563f0e34724d20",
            "labels" : {
                "0" : "two_bytes",
                "1" : "word_n_byte",
                "2" : "34_bytes"
            },
            "lllcversion" : "Version: 0.5.14-develop.2023.7.11+commit.c58ab2c6.mod.Linux.g++",
            "solidity" : "Version: 0.8.21+commit.d9974bed.Linux.g++",
            "source" : "src/GeneralStateTestsFiller/VMTests/vmTests/calldataloadFiller.yml",
            "sourceHash" : "f63e55d9212f8c4b711d7364594ddb157758a502a43b6ea8ed7b9702bad76192"
        },
        "env" : {
            "currentBaseFee" : "0x0a",
            "currentCoinbase" : "0x2adc25665018aa1fe0e6bc666dac8fc2697ff9ba",
            "currentDifficulty" : "0x020000",
            "currentExcessBlobGas" : "0x00",
            "currentGasLimit" : "0x05f5e100",
            "currentNumber" : "0x01",
            "currentRandom" : "0x0000000000000000000000000000000000000000000000000000000000020000",
            "currentTimestamp" : "0x03e8"
        },
        "post" : {
            "Cancun" : [
                {
                    "hash" : "0x2e4e6a11c6832dcdcc2abbc981b869d557b676555ce283e3b865e5261dfae0d7",
                    "indexes" : {
                        "data" : 0,
                        "gas" : 0,
                        "value" : 0
                    },
                    "logs" : "0x1dcc4de8dec75d7aab85b567b6ccd41ad312451b948a7413f0a142fd40d49347",
                    "txbytes" : "0xf885800a8404c4b40094cccccccccccccccccccccccccccccccccccccccc01a4693c613900000000000000000000000000000000000000000000000000000000000000001ba0e8ff56322287185f6afd3422a825b47bf5c1a4ccf0dc0389cdc03f7c1c32b7eaa0776b02f9f5773238d3ff36b74a123f409cd6420908d7855bbe4c8ff63e00d698"
                },
                {
                    "hash" : "0xdee3663ba86eb1d0f81df6f609abb1a7eef139fea453581ac44a7bc78a2a9fbc",
                    "indexes" : {
                        "data" : 1,
                        "gas" : 0,
                        "value" : 0
                    },
                    "logs" : "0x1dcc4de8dec75d7aab85b567b6ccd41ad312451b948a7413f0a142fd40d49347",
                    "txbytes" : "0xf885800a8404c4b40094cccccccccccccccccccccccccccccccccccccccc01a4693c613900000000000000000000000000000000000000000000000000000000000000011ba02c5e81a024dd0f6fb773c8787fa46ab5eb55cb73df83562e6ddbe9106a3df7f6a029437b9a23e45bbfce086f2ddaa98b1e9e6914d7e58e2c5a128310042b332f89"
                },
                {
                    "hash" : "0xb3c0ba91202ab459609d868f33217c25f5cdd8275632a2b8cc33767e781564f8",
                    "indexes" : {
                        "data" : 2,
                        "gas" : 0,
                        "value" : 0
                    },
                    "logs" : "0x1dcc4de8dec75d7aab85b567b6ccd41ad312451b948a7413f0a142fd40d49347",
                    "txbytes" : "0xf885800a8404c4b40094cccccccccccccccccccccccccccccccccccccccc01a4693c613900000000000000000000000000000000000000000000000000000000000000021ba0fc37ad4eb0633eb18f2b7867bacbe994a2ffcbb04a71e394e6e76041f6ce216fa03b1b415a5c386d8de9e16be9fdc188234b80a0dec99922d03c240f2e463053e3"
                }
            ]
        },
        "pre" : {
            "0x0000000000000000000000000000000000000200" : {
                "balance" : "0x0ba1a9ce0ba1a9ce",
                "code" : "0x60003560005500",
                "nonce" : "0x00",
                "storage" : {
                }
            },
            "0x0000000000000000000000000000000000000201" : {
                "balance" : "0x0ba1a9ce0ba1a9ce",
                "code" : "0x60013560005500",
                "nonce" : "0x00",
                "storage" : {
                }
            },
            "0x0000000000000000000000000000000000000205" : {
                "balance" : "0x0ba1a9ce0ba1a9ce",
                "code" : "0x60053560005500",
                "nonce" : "0x00",
                "storage" : {
                }
            },
            "0x0000000000000000000000000000000000001000" : {
                "balance" : "0x0ba1a9ce0ba1a9ce",
                "code" : "0x602560005360606001536000600060026000600061020062fffffff100",
                "nonce" : "0x00",
                "storage" : {
                }
            },
            "0x0000000000000000000000000000000000001001" : {
                "balance" : "0x0ba1a9ce0ba1a9ce",
                "code" : "0x7fffffffffffffffffffffffffffffffffffffffffffffffffffffffffffffffff60005260236020536000600060216000600061020162fffffff100",
                "nonce" : "0x00",
                "storage" : {
                }
            },
            "0x0000000000000000000000000000000000001002" : {
                "balance" : "0x0ba1a9ce0ba1a9ce",
                "code" : "0x7f123456789abcdef0000000000000000000000000000000000000000000000000600052600060205360246021536000600060226000600061020562fffffff100",
                "nonce" : "0x00",
                "storage" : {
                }
            },
            "0xa94f5374fce5edbc8e2a8697c15331677e6ebf0b" : {
                "balance" : "0x0ba1a9ce0ba1a9ce",
                "code" : "0x",
                "nonce" : "0x00",
                "storage" : {
                }
            },
            "0xcccccccccccccccccccccccccccccccccccccccc" : {
                "balance" : "0x0ba1a9ce0ba1a9ce",
                "code" : "0x600060006000600060006004356110000162fffffff100",
                "nonce" : "0x00",
                "storage" : {
                }
            }
        },
        "transaction" : {
            "data" : [
                "0x693c61390000000000000000000000000000000000000000000000000000000000000000",
                "0x693c61390000000000000000000000000000000000000000000000000000000000000001",
                "0x693c61390000000000000000000000000000000000000000000000000000000000000002"
            ],
            "gasLimit" : [
                "0x04c4b400"
            ],
            "gasPrice" : "0x0a",
            "nonce" : "0x00",
            "secretKey" : "0x45a915e4d060149eb4365960e6a7a45f334393093061116b197e3240065ff2d8",
            "sender" : "0xa94f5374fce5edbc8e2a8697c15331677e6ebf0b",
            "to" : "0xcccccccccccccccccccccccccccccccccccccccc",
            "value" : [
                "0x01"
            ]
        }
    }
}