{
    "dup" : {
        "_info" : {
            "comment" : "Ori Pomerantz qbzzt1@gmail.com",
            "filling-rpc-server" : "evm version 1.14.4-unstable-3d8028a6-20240513",
            "filling-tool-version" : "retesteth-0.3.2-cancun+commit.2ab0208e.Linux.g++",
            "generatedTestHash" : "3aed758207617dcb9cd1beea5f38e104273e05682dc9b26226fa64f834f1a2d6",
            "labels" : {
                "0" : "dup1",
                "1" : "dup2",
                "10" : "dup11",
                "11" : "dup12",
                "12" : "dup13",
                "13" : "dup14",
                "14" : "dup15",
                "15" : "dup16",
                "2" : "dup3",
                "3" : "dup4",
                "4" : "dup5",
                "5" : "dup6",
                "6" : "dup7",
                "7" : "dup8",
                "8" : "dup9",
                "9" : "dup10"
            },
            "lllcversion" : "Version: 0.5.14-develop.2023.7.11+commit.c58ab2c6.mod.Linux.g++",
            "solidity" : "Version: 0.8.21+commit.d9974bed.Linux.g++",
            "source" : "src/GeneralStateTestsFiller/VMTests/vmTests/dupFiller.yml",
            "sourceHash" : "e23091ef0182dac626f5eadf114503d99f4245c9bc9c6a1ac8a45229c2371422"
        },
        "env" : {
            "currentBaseFee" : "0x0a",
            "currentCoinbase" : "0x2adc25665018aa1fe0e6bc666dac8fc2697ff9ba",
            "currentDifficulty" : "0x020000",
            "currentExcessBlobGas" : "0x00",
            "currentGasLimit" : "0x05f5e100",
            "currentNumber" : "0x01",
            "currentRandom" : "0x0000000000000000000000000000000000000000000000000000000000020000",
            "currentTimestamp" : "0x03e8"
        },
        "post" : {
            "Cancun" : [
                {
                    "hash" : "0xeeb36adeb244f70029d9933d8e0335cf1ea0e4c2fdd11916e8cad619144c7eb4",
                    "indexes" : {
                        "data" : 0,
                        "gas" : 0,
                        "value" : 0
                    },
                    "logs" : "0x1dcc4de8dec75d7aab85b567b6ccd41ad312451b948a7413f0a142fd40d49347",
                    "txbytes" : "0xf885800a8404c4b40094cccccccccccccccccccccccccccccccccccccccc01a4693c613900000000000000000000000000000000000000000000000000000000000000001ba0e8ff56322287185f6afd3422a825b47bf5c1a4ccf0dc0389cdc03f7c1c32b7eaa0776b02f9f5773238d3ff36b74a123f409cd6420908d7855bbe4c8ff63e00d698"
                },
                {
                    "hash" : "0x52411b57fa2c4d9cd41d0e75c14e82c7f127660a4496fdbf38761d8585c0e07e",
                    "indexes" : {
                        "data" : 1,
                        "gas" : 0,
                        "value" : 0
                    },
                    "logs" : "0x1dcc4de8dec75d7aab85b567b6ccd41ad312451b948a7413f0a142fd40d49347",
                    "txbytes" : "0xf885800a8404c4b40094cccccccccccccccccccccccccccccccccccccccc01a4693c613900000000000000000000000000000000000000000000000000000000000000011ba02c5e81a024dd0f6fb773c8787fa46ab5eb55cb73df83562e6ddbe9106a3df7f6a029437b9a23e45bbfce086f2ddaa98b1e9e6914d7e58e2c5a128310042b332f89"
                },
                {
                    "hash" : "0x4691571c12d95f35665b4e511c9db10991cf012aa27b17334562938f4caf7e6c",
                    "indexes" : {
                        "data" : 2,
                        "gas" : 0,
                        "value" : 0
                    },
                    "logs" : "0x1dcc4de8dec75d7aab85b567b6ccd41ad312451b948a7413f0a142fd40d49347",
                    "txbytes" : "0xf885800a8404c4b40094cccccccccccccccccccccccccccccccccccccccc01a4693c613900000000000000000000000000000000000000000000000000000000000000021ba0fc37ad4eb0633eb18f2b7867bacbe994a2ffcbb04a71e394e6e76041f6ce216fa03b1b415a5c386d8de9e16be9fdc188234b80a0dec99922d03c240f2e463053e3"
                },
                {
                    "hash" : "0x8c67c949e8f1795695765349deeaec49c5ec287c2bbfe6a2e591d000d5a1278f",
                    "indexes" : {
                        "data" : 3,
                        "gas" : 0,
                        "value" : 0
                    },
                    "logs" : "0x1dcc4de8dec75d7aab85b567b6ccd41ad312451b948a7413f0a142fd40d49347",
                    "txbytes" : "0xf885800a8404c4b40094cccccccccccccccccccccccccccccccccccccccc01a4693c613900000000000000000000000000000000000000000000000000000000000000031ba0f06eb219c5dba98711a9a2678339f64d172bfac289a5c43a0018d3917be8dc2aa0147bd7a6ee30217e63cbddc28b0e72f115da754d8916b87992aa27ed00eb105e"
                },
                {
                    "hash" : "0xc829e3142a2e7a96025d70cd83ad3078f5f7f261197cdbdf58f88ad7a73c5412",
                    "indexes" : {
                        "data" : 4,
                        "gas" : 0,
                        "value" : 0
                    },
                    "logs" : "0x1dcc4de8dec75d7aab85b567b6ccd41ad312451b948a7413f0a142fd40d49347",
                    "txbytes" : "0xf885800a8404c4b40094cccccccccccccccccccccccccccccccccccccccc01a4693c613900000000000000000000000000000000000000000000000000000000000000041ba0c148a101aa54703ff0e949441bdba90b1972a16c338f7f9a24b07f0313cd49d6a028cb82229b8a57e2048761d6fa5060c5b459f000d4e218de1372c1df9cfa171e"
                },
                {
                    "hash" : "0xc1c0d382e0d35ec2c40fd77dd54f8d88d8d332db84c83b0622b7feee2ac5eb8e",
                    "indexes" : {
                        "data" : 5,
                        "gas" : 0,
                        "value" : 0
                    },
                    "logs" : "0x1dcc4de8dec75d7aab85b567b6ccd41ad312451b948a7413f0a142fd40d49347",
                    "txbytes" : "0xf885800a8404c4b40094cccccccccccccccccccccccccccccccccccccccc01a4693c613900000000000000000000000000000000000000000000000000000000000000051ca09a1ce3fdc8469be9bbe660a07c169cf5b6b70fe408cc1395057bbd4cdc2c8557a0560e8c0503c4364efd017933749f22e1d9ad4eff4580d5463df54b9bff8dca31"
                },
                {
                    "hash" : "0x39ad075c528d376c0d80f9ad58b11af44dd32255cf8f817bdea3a9035b958de7",
                    "indexes" : {
                        "data" : 6,
                        "gas" : 0,
                        "value" : 0
                    },
                    "logs" : "0x1dcc4de8dec75d7aab85b567b6ccd41ad312451b948a7413f0a142fd40d49347",
                    "txbytes" : "0xf885800a8404c4b40094cccccccccccccccccccccccccccccccccccccccc01a4693c613900000000000000000000000000000000000000000000000000000000000000061ca04f7114759d69db050a87677a2dff3d6f9399f0b66da593b2cc50748708377f6fa042f32766ce38ec3cee0d2c2dbc4d14b9cbf94e4af75b0584a04c933457bb83bb"
                },
                {
                    "hash" : "0xc987179664e63526a2f2f94cf3c8995a79a42137b3e6908e6e0b22b316f19599",
                    "indexes" : {
                        "data" : 7,
                        "gas" : 0,
                        "value" : 0
                    },
                    "logs" : "0x1dcc4de8dec75d7aab85b567b6ccd41ad312451b948a7413f0a142fd40d49347",
                    "txbytes" : "0xf885800a8404c4b40094cccccccccccccccccccccccccccccccccccccccc01a4693c613900000000000000000000000000000000000000000000000000000000000000071ba0e77cc0b2a4af0e43bc5732d6747afb3ddcf781f7277650aeef15b9caba68c91aa04af80af420b77c3f4ad457f1c6535be5d46993e2c8987250d28d088b3a11bb4a"
                },
                {
                    "hash" : "0xa350ed4dece1154b84e225ceddd608aeb4696bf025029cde7e16d42be2359be1",
                    "indexes" : {
                        "data" : 8,
                        "gas" : 0,
                        "value" : 0
                    },
                    "logs" : "0x1dcc4de8dec75d7aab85b567b6ccd41ad312451b948a7413f0a142fd40d49347",
                    "txbytes" : "0xf884800a8404c4b40094cccccccccccccccccccccccccccccccccccccccc01a4693c613900000000000000000000000000000000000000000000000000000000000000081ca057f87767c304f58d8c351529457f9fbe53d04ba7f9f0ae7f2bac7a2d6dc59bc09fd8de811557a1287c01a1e09edeb750adba79cef13ebeb951d030ff29e63f39"
                },
                {
                    "hash" : "0xe6d7098949558a81815cf863b46768966a325cd35114566a5360e6d4cdc3ae44",
                    "indexes" : {
                        "data" : 9,
                        "gas" : 0,
                        "value" : 0
                    },
                    "logs" : "0x1dcc4de8dec75d7aab85b567b6ccd41ad312451b948a7413f0a142fd40d49347",
                    "txbytes" : "0xf885800a8404c4b40094cccccccccccccccccccccccccccccccccccccccc01a4693c613900000000000000000000000000000000000000000000000000000000000000091ba09cffdf14ebc27c6c36a8cc9e679e32251165b52fb39e7ccc52cbc42f7157c301a032f0bebe1ae01ef86e26c0194bc26e9ed9e6bb7dad277927a92def3d0badbe74"
                },
                {
                    "hash" : "0xf951cf8952d37e9ebbeb9307e954c04854a9262f429b185551aa56a602fb41b0",
                    "indexes" : {
                        "data" : 10,
                        "gas" : 0,
                        "value" : 0
                    },
                    "logs" : "0x1dcc4de8dec75d7aab85b567b6ccd41ad312451b948a7413f0a142fd40d49347",
                    "txbytes" : "0xf885800a8404c4b40094cccccccccccccccccccccccccccccccccccccccc01a4693c6139000000000000000000000000000000000000000000000000000000000000000a1ca0a1b03cd747783811efe72b24c5681a14f13ddc2a54b346efc81da94b8a6d82aaa04b794a29cf9f0433518c93172d3b2d7cd77315c278ec2220c80fa4448481a8a6"
                },
                {
                    "hash" : "0x5b9c17d7bcb6a146f0bc9bf3ef4d0321a7c308af6e2c77b350a2d1358832aae2",
                    "indexes" : {
                        "data" : 11,
                        "gas" : 0,
                        "value" : 0
                    },
                    "logs" : "0x1dcc4de8dec75d7aab85b567b6ccd41ad312451b948a7413f0a142fd40d49347",
                    "txbytes" : "0xf885800a8404c4b40094cccccccccccccccccccccccccccccccccccccccc01a4693c6139000000000000000000000000000000000000000000000000000000000000000b1ca0c966b1649b82df31630735542a36cd21a0c8ccca99661e9daf19e24b5cd0b4d5a0297ca7c15e08b09a84dfdaee72deecc74b852df21c2b1cce63e4e3638c680015"
                },
                {
                    "hash" : "0x0a805b7ab2097488d8cddf36c1144da0dfc1ff2440b20021238a40630d4f25fa",
                    "indexes" : {
                        "data" : 12,
                        "gas" : 0,
                        "value" : 0
                    },
                    "logs" : "0x1dcc4de8dec75d7aab85b567b6ccd41ad312451b948a7413f0a142fd40d49347",
                    "txbytes" : "0xf885800a8404c4b40094cccccccccccccccccccccccccccccccccccccccc01a4693c6139000000000000000000000000000000000000000000000000000000000000000c1ca0e7c9b0d9792ea976c6e21b9ac03fec15a7a57ede02dd4d5d75bdaea8019be119a03b4dd5fbca89a77591d755174fb98c746ed2856efaa679866bb9591c16fd1ca2"
                },
                {
                    "hash" : "0x68e8bddb00537844beec19897fd3019c955868a8e729ebc09863c31692b10f7e",
                    "indexes" : {
                        "data" : 13,
                        "gas" : 0,
                        "value" : 0
                    },
                    "logs" : "0x1dcc4de8dec75d7aab85b567b6ccd41ad312451b948a7413f0a142fd40d49347",
                    "txbytes" : "0xf885800a8404c4b40094cccccccccccccccccccccccccccccccccccccccc01a4693c6139000000000000000000000000000000000000000000000000000000000000000d1ca01691906b205874203c9abd32dd85c221936c1c63bf7231148e3846ce4b776a23a07496ef32b0a1259d037431119f19ceca327e9a7318eec4d71f1dbb8a878dc2f5"
                },
                {
                    "hash" : "0xa4dd24809e55b8a186e429dc36cd53452a4182b30262eb39a9fd7f67431574a2",
                    "indexes" : {
                        "data" : 14,
                        "gas" : 0,
                        "value" : 0
                    },
                    "logs" : "0x1dcc4de8dec75d7aab85b567b6ccd41ad312451b948a7413f0a142fd40d49347",
                    "txbytes" : "0xf885800a8404c4b40094cccccccccccccccccccccccccccccccccccccccc01a4693c6139000000000000000000000000000000000000000000000000000000000000000e1ca038eda85bee73907a8eca42c2425bd9c1c0cc7eb377305a1d12135cc442cc2595a01163d3c3c904542c96588d1a134242818a982a8ed0e28be50b5d74f89968ed6b"
                },
                {
                    "hash" : "0xafe6d447adedbe06705ba824f07b6a8c3aa6b93cb492a1121a36128b83e27477",
                    "indexes" : {
                        "data" : 15,
                        "gas" : 0,
                        "value" : 0
                    },
                    "logs" : "0x1dcc4de8dec75d7aab85b567b6ccd41ad312451b948a7413f0a142fd40d49347",
                    "txbytes" : "0xf885800a8404c4b40094cccccccccccccccccccccccccccccccccccccccc01a4693c6139000000000000000000000000000000000000000000000000000000000000000f1ba0651a47e0c9ecbc6ea2c076f38a80e16d51db98bfba82c0fccc5ba4a09d5dd5aea006572dccf26b21afd25f5f58bf2f23fd0242c0774f44785976b7a9e1ff5c194f"
                }
            ]
        },
        "pre" : {
            "0x0000000000000000000000000000000000001000" : {
                "balance" : "0x0ba1a9ce0ba1a9ce",
                "code" : "0x6000600160026003600460056006600760086009600a600b600c600d600e600f601080600055600155600255600355600455600555600655600755600855600955600a55600b55600c55600d55600e55600f55",
                "nonce" : "0x00",
                "storage" : {
                }
            },
            "0x0000000000000000000000000000000000001001" : {
                "balance" : "0x0ba1a9ce0ba1a9ce",
                "code" : "0x6000600160026003600460056006600760086009600a600b600c600d600e600f601081600055600155600255600355600455600555600655600755600855600955600a55600b55600c55600d55600e55600f55",
                "nonce" : "0x00",
                "storage" : {
                }
            },
            "0x0000000000000000000000000000000000001002" : {
                "balance" : "0x0ba1a9ce0ba1a9ce",
                "code" : "0x6000600160026003600460056006600760086009600a600b600c600d600e600f601082600055600155600255600355600455600555600655600755600855600955600a55600b55600c55600d55600e55600f55",
                "nonce" : "0x00",
                "storage" : {
                }
            },
            "0x0000000000000000000000000000000000001003" : {
                "balance" : "0x0ba1a9ce0ba1a9ce",
                "code" : "0x6000600160026003600460056006600760086009600a600b600c600d600e600f601083600055600155600255600355600455600555600655600755600855600955600a55600b55600c55600d55600e55600f55",
                "nonce" : "0x00",
                "storage" : {
                }
            },
            "0x0000000000000000000000000000000000001004" : {
                "balance" : "0x0ba1a9ce0ba1a9ce",
                "code" : "0x6000600160026003600460056006600760086009600a600b600c600d600e600f601084600055600155600255600355600455600555600655600755600855600955600a55600b55600c55600d55600e55600f55",
                "nonce" : "0x00",
                "storage" : {
                }
            },
            "0x0000000000000000000000000000000000001005" : {
                "balance" : "0x0ba1a9ce0ba1a9ce",
                "code" : "0x6000600160026003600460056006600760086009600a600b600c600d600e600f601085600055600155600255600355600455600555600655600755600855600955600a55600b55600c55600d55600e55600f55",
                "nonce" : "0x00",
                "storage" : {
                }
            },
            "0x0000000000000000000000000000000000001006" : {
                "balance" : "0x0ba1a9ce0ba1a9ce",
                "code" : "0x6000600160026003600460056006600760086009600a600b600c600d600e600f601086600055600155600255600355600455600555600655600755600855600955600a55600b55600c55600d55600e55600f55",
                "nonce" : "0x00",
                "storage" : {
                }
            },
            "0x0000000000000000000000000000000000001007" : {
                "balance" : "0x0ba1a9ce0ba1a9ce",
                "code" : "0x6000600160026003600460056006600760086009600a600b600c600d600e600f601087600055600155600255600355600455600555600655600755600855600955600a55600b55600c55600d55600e55600f55",
                "nonce" : "0x00",
                "storage" : {
                }
            },
            "0x0000000000000000000000000000000000001008" : {
                "balance" : "0x0ba1a9ce0ba1a9ce",
                "code" : "0x6000600160026003600460056006600760086009600a600b600c600d600e600f601088600055600155600255600355600455600555600655600755600855600955600a55600b55600c55600d55600e55600f55",
                "nonce" : "0x00",
                "storage" : {
                }
            },
            "0x0000000000000000000000000000000000001009" : {
                "balance" : "0x0ba1a9ce0ba1a9ce",
                "code" : "0x6000600160026003600460056006600760086009600a600b600c600d600e600f601089600055600155600255600355600455600555600655600755600855600955600a55600b55600c55600d55600e55600f55",
                "nonce" : "0x00",
                "storage" : {
                }
            },
            "0x000000000000000000000000000000000000100a" : {
                "balance" : "0x0ba1a9ce0ba1a9ce",
                "code" : "0x6000600160026003600460056006600760086009600a600b600c600d600e600f60108a600055600155600255600355600455600555600655600755600855600955600a55600b55600c55600d55600e55600f55",
                "nonce" : "0x00",
                "storage" : {
                }
            },
            "0x000000000000000000000000000000000000100b" : {
                "balance" : "0x0ba1a9ce0ba1a9ce",
                "code" : "0x6000600160026003600460056006600760086009600a600b600c600d600e600f60108b600055600155600255600355600455600555600655600755600855600955600a55600b55600c55600d55600e55600f55",
                "nonce" : "0x00",
                "storage" : {
                }
            },
            "0x000000000000000000000000000000000000100c" : {
                "balance" : "0x0ba1a9ce0ba1a9ce",
                "code" : "0x6000600160026003600460056006600760086009600a600b600c600d600e600f60108c600055600155600255600355600455600555600655600755600855600955600a55600b55600c55600d55600e55600f55",
                "nonce" : "0x00",
                "storage" : {
                }
            },
            "0x000000000000000000000000000000000000100d" : {
                "balance" : "0x0ba1a9ce0ba1a9ce",
                "code" : "0x6000600160026003600460056006600760086009600a600b600c600d600e600f60108d600055600155600255600355600455600555600655600755600855600955600a55600b55600c55600d55600e55600f55",
                "nonce" : "0x00",
                "storage" : {
                }
            },
            "0x000000000000000000000000000000000000100e" : {
                "balance" : "0x0ba1a9ce0ba1a9ce",
                "code" : "0x6000600160026003600460056006600760086009600a600b600c600d600e600f60108e600055600155600255600355600455600555600655600755600855600955600a55600b55600c55600d55600e55600f55",
                "nonce" : "0x00",
                "storage" : {
                }
            },
            "0x000000000000000000000000000000000000100f" : {
                "balance" : "0x0ba1a9ce0ba1a9ce",
                "code" : "0x6000600160026003600460056006600760086009600a600b600c600d600e600f60108f600055600155600255600355600455600555600655600755600855600955600a55600b55600c55600d55600e55600f55",
                "nonce" : "0x00",
                "storage" : {
                }
            },
            "0xa94f5374fce5edbc8e2a8697c15331677e6ebf0b" : {
                "balance" : "0x100000000000",
                "code" : "0x",
                "nonce" : "0x00",
                "storage" : {
                }
            },
            "0xcccccccccccccccccccccccccccccccccccccccc" : {
                "balance" : "0x0ba1a9ce0ba1a9ce",
                "code" : "0x60006000600060006000600435611000015af100",
                "nonce" : "0x00",
                "storage" : {
                }
            }
        },
        "transaction" : {
            "data" : [
                "0x693c61390000000000000000000000000000000000000000000000000000000000000000",
                "0x693c61390000000000000000000000000000000000000000000000000000000000000001",
                "0x693c61390000000000000000000000000000000000000000000000000000000000000002",
                "0x693c61390000000000000000000000000000000000000000000000000000000000000003",
                "0x693c61390000000000000000000000000000000000000000000000000000000000000004",
                "0x693c61390000000000000000000000000000000000000000000000000000000000000005",
                "0x693c61390000000000000000000000000000000000000000000000000000000000000006",
                "0x693c61390000000000000000000000000000000000000000000000000000000000000007",
                "0x693c61390000000000000000000000000000000000000000000000000000000000000008",
                "0x693c61390000000000000000000000000000000000000000000000000000000000000009",
                "0x693c6139000000000000000000000000000000000000000000000000000000000000000a",
                "0x693c6139000000000000000000000000000000000000000000000000000000000000000b",
                "0x693c6139000000000000000000000000000000000000000000000000000000000000000c",
                "0x693c6139000000000000000000000000000000000000000000000000000000000000000d",
                "0x693c6139000000000000000000000000000000000000000000000000000000000000000e",
                "0x693c6139000000000000000000000000000000000000000000000000000000000000000f"
            ],
            "gasLimit" : [
                "0x04c4b400"
            ],
            "gasPrice" : "0x0a",
            "nonce" : "0x00",
            "secretKey" : "0x45a915e4d060149eb4365960e6a7a45f334393093061116b197e3240065ff2d8",
            "sender" : "0xa94f5374fce5edbc8e2a8697c15331677e6ebf0b",
            "to" : "0xcccccccccccccccccccccccccccccccccccccccc",
            "value" : [
                "0x01"
            ]
        }
    }
}