{
    "push" : {
        "_info" : {
            "comment" : "Ori Pomerantz qbzzt1@gmail.com",
            "filling-rpc-server" : "evm version 1.14.4-unstable-3d8028a6-20240513",
            "filling-tool-version" : "retesteth-0.3.2-cancun+commit.2ab0208e.Linux.g++",
            "generatedTestHash" : "def31be3cfbe8847214a5250834474efc0b5f8197065c99246097df1cfdf6da6",
            "labels" : {
                "0" : "push1",
                "1" : "push2",
                "10" : "push11",
                "11" : "push12",
                "12" : "push13",
                "13" : "push14",
                "14" : "push15",
                "15" : "push16",
                "16" : "push17",
                "17" : "push18",
                "18" : "push19",
                "19" : "push20",
                "2" : "push3",
                "20" : "push21",
                "21" : "push22",
                "22" : "push23",
                "23" : "push24",
                "24" : "push25",
                "25" : "push26",
                "26" : "push27",
                "27" : "push28",
                "28" : "push29",
                "29" : "push30",
                "3" : "push4",
                "30" : "push31",
                "31" : "push32",
                "4" : "push5",
                "5" : "push6",
                "6" : "push7",
                "7" : "push8",
                "8" : "push9",
                "9" : "push10"
            },
            "lllcversion" : "Version: 0.5.14-develop.2023.7.11+commit.c58ab2c6.mod.Linux.g++",
            "solidity" : "Version: 0.8.21+commit.d9974bed.Linux.g++",
            "source" : "src/GeneralStateTestsFiller/VMTests/vmTests/pushFiller.yml",
            "sourceHash" : "a7f144f5d900610d10d98ce0cf68cdd5a3d8586b6c3dc191d74552a5287ac1fc"
        },
        "env" : {
            "currentBaseFee" : "0x0a",
            "currentCoinbase" : "0x2adc25665018aa1fe0e6bc666dac8fc2697ff9ba",
            "currentDifficulty" : "0x020000",
            "currentExcessBlobGas" : "0x00",
            "currentGasLimit" : "0x05f5e100",
            "currentNumber" : "0x01",
            "currentRandom" : "0x0000000000000000000000000000000000000000000000000000000000020000",
            "currentTimestamp" : "0x03e8"
        },
        "post" : {
            "Cancun" : [
                {
                    "hash" : "0xdb6d04f6acbbee106e6576909ebbaee4bfb9271a9443c98a85a1824255af1439",
                    "indexes" : {
                        "data" : 0,
                        "gas" : 0,
                        "value" : 0
                    },
                    "logs" : "0x1dcc4de8dec75d7aab85b567b6ccd41ad312451b948a7413f0a142fd40d49347",
                    "txbytes" : "0xf885800a8404c4b40094cccccccccccccccccccccccccccccccccccccccc01a4693c613900000000000000000000000000000000000000000000000000000000000000001ba0e8ff56322287185f6afd3422a825b47bf5c1a4ccf0dc0389cdc03f7c1c32b7eaa0776b02f9f5773238d3ff36b74a123f409cd6420908d7855bbe4c8ff63e00d698"
                },
                {
                    "hash" : "0x27f07b8078e98218e5524998314976143dc493e28db0bed71f96a45fa5b50c7b",
                    "indexes" : {
                        "data" : 1,
                        "gas" : 0,
                        "value" : 0
                    },
                    "logs" : "0x1dcc4de8dec75d7aab85b567b6ccd41ad312451b948a7413f0a142fd40d49347",
                    "txbytes" : "0xf885800a8404c4b40094cccccccccccccccccccccccccccccccccccccccc01a4693c613900000000000000000000000000000000000000000000000000000000000000011ba02c5e81a024dd0f6fb773c8787fa46ab5eb55cb73df83562e6ddbe9106a3df7f6a029437b9a23e45bbfce086f2ddaa98b1e9e6914d7e58e2c5a128310042b332f89"
                },
                {
                    "hash" : "0xa7ab3499c55308eb730873219a3180800463eb67c028239ef8be409710c70954",
                    "indexes" : {
                        "data" : 2,
                        "gas" : 0,
                        "value" : 0
                    },
                    "logs" : "0x1dcc4de8dec75d7aab85b567b6ccd41ad312451b948a7413f0a142fd40d49347",
                    "txbytes" : "0xf885800a8404c4b40094cccccccccccccccccccccccccccccccccccccccc01a4693c613900000000000000000000000000000000000000000000000000000000000000021ba0fc37ad4eb0633eb18f2b7867bacbe994a2ffcbb04a71e394e6e76041f6ce216fa03b1b415a5c386d8de9e16be9fdc188234b80a0dec99922d03c240f2e463053e3"
                },
                {
                    "hash" : "0xc6030e4bbc185cea1ae3963aa18eae8f3d3c6f3667abe8715dcab69790c29ee2",
                    "indexes" : {
                        "data" : 3,
                        "gas" : 0,
                        "value" : 0
                    },
                    "logs" : "0x1dcc4de8dec75d7aab85b567b6ccd41ad312451b948a7413f0a142fd40d49347",
                    "txbytes" : "0xf885800a8404c4b40094cccccccccccccccccccccccccccccccccccccccc01a4693c613900000000000000000000000000000000000000000000000000000000000000031ba0f06eb219c5dba98711a9a2678339f64d172bfac289a5c43a0018d3917be8dc2aa0147bd7a6ee30217e63cbddc28b0e72f115da754d8916b87992aa27ed00eb105e"
                },
                {
                    "hash" : "0xce4e033ef77838164fa6ec6775b28aa7cddefc5ce3b0aaf601b68c8865d7c751",
                    "indexes" : {
                        "data" : 4,
                        "gas" : 0,
                        "value" : 0
                    },
                    "logs" : "0x1dcc4de8dec75d7aab85b567b6ccd41ad312451b948a7413f0a142fd40d49347",
                    "txbytes" : "0xf885800a8404c4b40094cccccccccccccccccccccccccccccccccccccccc01a4693c613900000000000000000000000000000000000000000000000000000000000000041ba0c148a101aa54703ff0e949441bdba90b1972a16c338f7f9a24b07f0313cd49d6a028cb82229b8a57e2048761d6fa5060c5b459f000d4e218de1372c1df9cfa171e"
                },
                {
                    "hash" : "0x206c502793aee92c3bfc5ef4125417bd7ccf99a71b247b7d6d03ee28d675a36a",
                    "indexes" : {
                        "data" : 5,
                        "gas" : 0,
                        "value" : 0
                    },
                    "logs" : "0x1dcc4de8dec75d7aab85b567b6ccd41ad312451b948a7413f0a142fd40d49347",
                    "txbytes" : "0xf885800a8404c4b40094cccccccccccccccccccccccccccccccccccccccc01a4693c613900000000000000000000000000000000000000000000000000000000000000051ca09a1ce3fdc8469be9bbe660a07c169cf5b6b70fe408cc1395057bbd4cdc2c8557a0560e8c0503c4364efd017933749f22e1d9ad4eff4580d5463df54b9bff8dca31"
                },
                {
                    "hash" : "0xac97da2702a16b8096d8a062afeffd3875dab24948b27dc3f789bd07a078b9ea",
                    "indexes" : {
                        "data" : 6,
                        "gas" : 0,
                        "value" : 0
                    },
                    "logs" : "0x1dcc4de8dec75d7aab85b567b6ccd41ad312451b948a7413f0a142fd40d49347",
                    "txbytes" : "0xf885800a8404c4b40094cccccccccccccccccccccccccccccccccccccccc01a4693c613900000000000000000000000000000000000000000000000000000000000000061ca04f7114759d69db050a87677a2dff3d6f9399f0b66da593b2cc50748708377f6fa042f32766ce38ec3cee0d2c2dbc4d14b9cbf94e4af75b0584a04c933457bb83bb"
                },
                {
                    "hash" : "0x8135c714fd88b9a6433df5237a5cd209f85c4639b8e7e3cac284bfaafab5d4c1",
                    "indexes" : {
                        "data" : 7,
                        "gas" : 0,
                        "value" : 0
                    },
                    "logs" : "0x1dcc4de8dec75d7aab85b567b6ccd41ad312451b948a7413f0a142fd40d49347",
                    "txbytes" : "0xf885800a8404c4b40094cccccccccccccccccccccccccccccccccccccccc01a4693c613900000000000000000000000000000000000000000000000000000000000000071ba0e77cc0b2a4af0e43bc5732d6747afb3ddcf781f7277650aeef15b9caba68c91aa04af80af420b77c3f4ad457f1c6535be5d46993e2c8987250d28d088b3a11bb4a"
                },
                {
                    "hash" : "0x0fddc9aa145f4e00999fd059c2aa022a6c55efe65b550c44ee185a77ae195fe1",
                    "indexes" : {
                        "data" : 8,
                        "gas" : 0,
                        "value" : 0
                    },
                    "logs" : "0x1dcc4de8dec75d7aab85b567b6ccd41ad312451b948a7413f0a142fd40d49347",
                    "txbytes" : "0xf884800a8404c4b40094cccccccccccccccccccccccccccccccccccccccc01a4693c613900000000000000000000000000000000000000000000000000000000000000081ca057f87767c304f58d8c351529457f9fbe53d04ba7f9f0ae7f2bac7a2d6dc59bc09fd8de811557a1287c01a1e09edeb750adba79cef13ebeb951d030ff29e63f39"
                },
                {
                    "hash" : "0x809a15d5909dcf483b1f96d47b92a70241b87508be453697ce681bf815caa8f1",
                    "indexes" : {
                        "data" : 9,
                        "gas" : 0,
                        "value" : 0
                    },
                    "logs" : "0x1dcc4de8dec75d7aab85b567b6ccd41ad312451b948a7413f0a142fd40d49347",
                    "txbytes" : "0xf885800a8404c4b40094cccccccccccccccccccccccccccccccccccccccc01a4693c613900000000000000000000000000000000000000000000000000000000000000091ba09cffdf14ebc27c6c36a8cc9e679e32251165b52fb39e7ccc52cbc42f7157c301a032f0bebe1ae01ef86e26c0194bc26e9ed9e6bb7dad277927a92def3d0badbe74"
                },
                {
                    "hash" : "0x623d12e969d7955584ba625ba033a6a6954c83181138b0fb21f12642d701a2c0",
                    "indexes" : {
                        "data" : 10,
                        "gas" : 0,
                        "value" : 0
                    },
                    "logs" : "0x1dcc4de8dec75d7aab85b567b6ccd41ad312451b948a7413f0a142fd40d49347",
                    "txbytes" : "0xf885800a8404c4b40094cccccccccccccccccccccccccccccccccccccccc01a4693c6139000000000000000000000000000000000000000000000000000000000000000a1ca0a1b03cd747783811efe72b24c5681a14f13ddc2a54b346efc81da94b8a6d82aaa04b794a29cf9f0433518c93172d3b2d7cd77315c278ec2220c80fa4448481a8a6"
                },
                {
                    "hash" : "0xacb282a5d58e6a8c8659d26466f46c5b9dee0d0f968e00a975818994b493722f",
                    "indexes" : {
                        "data" : 11,
                        "gas" : 0,
                        "value" : 0
                    },
                    "logs" : "0x1dcc4de8dec75d7aab85b567b6ccd41ad312451b948a7413f0a142fd40d49347",
                    "txbytes" : "0xf885800a8404c4b40094cccccccccccccccccccccccccccccccccccccccc01a4693c6139000000000000000000000000000000000000000000000000000000000000000b1ca0c966b1649b82df31630735542a36cd21a0c8ccca99661e9daf19e24b5cd0b4d5a0297ca7c15e08b09a84dfdaee72deecc74b852df21c2b1cce63e4e3638c680015"
                },
                {
                    "hash" : "0xa568134ef38b83904632dabc563ac1ff74be965c29c1db8c759a8767d6bf1bf0",
                    "indexes" : {
                        "data" : 12,
                        "gas" : 0,
                        "value" : 0
                    },
                    "logs" : "0x1dcc4de8dec75d7aab85b567b6ccd41ad312451b948a7413f0a142fd40d49347",
                    "txbytes" : "0xf885800a8404c4b40094cccccccccccccccccccccccccccccccccccccccc01a4693c6139000000000000000000000000000000000000000000000000000000000000000c1ca0e7c9b0d9792ea976c6e21b9ac03fec15a7a57ede02dd4d5d75bdaea8019be119a03b4dd5fbca89a77591d755174fb98c746ed2856efaa679866bb9591c16fd1ca2"
                },
                {
                    "hash" : "0x5d0b307b98e34f2108dc29fd1eb4fe578bf01de0c96b77f6ff659adf3495dacb",
                    "indexes" : {
                        "data" : 13,
                        "gas" : 0,
                        "value" : 0
                    },
                    "logs" : "0x1dcc4de8dec75d7aab85b567b6ccd41ad312451b948a7413f0a142fd40d49347",
                    "txbytes" : "0xf885800a8404c4b40094cccccccccccccccccccccccccccccccccccccccc01a4693c6139000000000000000000000000000000000000000000000000000000000000000d1ca01691906b205874203c9abd32dd85c221936c1c63bf7231148e3846ce4b776a23a07496ef32b0a1259d037431119f19ceca327e9a7318eec4d71f1dbb8a878dc2f5"
                },
                {
                    "hash" : "0x3673b701e9d6a9a88ddaa7900c19f8774f81143544c87cdc8f19413e96e2ae7e",
                    "indexes" : {
                        "data" : 14,
                        "gas" : 0,
                        "value" : 0
                    },
                    "logs" : "0x1dcc4de8dec75d7aab85b567b6ccd41ad312451b948a7413f0a142fd40d49347",
                    "txbytes" : "0xf885800a8404c4b40094cccccccccccccccccccccccccccccccccccccccc01a4693c6139000000000000000000000000000000000000000000000000000000000000000e1ca038eda85bee73907a8eca42c2425bd9c1c0cc7eb377305a1d12135cc442cc2595a01163d3c3c904542c96588d1a134242818a982a8ed0e28be50b5d74f89968ed6b"
                },
                {
                    "hash" : "0xb41ad24ae949419ddad0f717113f36d4fa02367ce197a91e8d08fc8fe04e21e0",
                    "indexes" : {
                        "data" : 15,
                        "gas" : 0,
                        "value" : 0
                    },
                    "logs" : "0x1dcc4de8dec75d7aab85b567b6ccd41ad312451b948a7413f0a142fd40d49347",
                    "txbytes" : "0xf885800a8404c4b40094cccccccccccccccccccccccccccccccccccccccc01a4693c6139000000000000000000000000000000000000000000000000000000000000000f1ba0651a47e0c9ecbc6ea2c076f38a80e16d51db98bfba82c0fccc5ba4a09d5dd5aea006572dccf26b21afd25f5f58bf2f23fd0242c0774f44785976b7a9e1ff5c194f"
                },
                {
                    "hash" : "0x0013e5b86fcbbb9115ed81648617458ca32aa076082246309171de5c8dafc530",
                    "indexes" : {
                        "data" : 16,
                        "gas" : 0,
                        "value" : 0
                    },
                    "logs" : "0x1dcc4de8dec75d7aab85b567b6ccd41ad312451b948a7413f0a142fd40d49347",
                    "txbytes" : "0xf885800a8404c4b40094cccccccccccccccccccccccccccccccccccccccc01a4693c613900000000000000000000000000000000000000000000000000000000000000101ca06c152640dac29cb80ec9f732a0678d6d1726c81b49519bfbb36eb749ceae4d73a013e6321b16e7a88298c22b8c8393fe93d7da4d097b0b4413a86cd2a66bc694e1"
                },
                {
                    "hash" : "0xac8ce35cfb5ae06fbac8f874eef94a5f4b2938da9a08ee31cadbaba4e1aed37c",
                    "indexes" : {
                        "data" : 17,
                        "gas" : 0,
                        "value" : 0
                    },
                    "logs" : "0x1dcc4de8dec75d7aab85b567b6ccd41ad312451b948a7413f0a142fd40d49347",
                    "txbytes" : "0xf885800a8404c4b40094cccccccccccccccccccccccccccccccccccccccc01a4693c613900000000000000000000000000000000000000000000000000000000000000111ca0526b9497015a0e30342a1e3dca77f3573a2abc2335cac8a118693e4055db3324a06c761bb3be083c41df354dd219b07e24e019fa85b62feeab97257523c52c682a"
                },
                {
                    "hash" : "0x3a8f805d8136535571bf2fbf65f9170cc03ab957fffdbd92d5e7a6dcebbc802b",
                    "indexes" : {
                        "data" : 18,
                        "gas" : 0,
                        "value" : 0
                    },
                    "logs" : "0x1dcc4de8dec75d7aab85b567b6ccd41ad312451b948a7413f0a142fd40d49347",
                    "txbytes" : "0xf885800a8404c4b40094cccccccccccccccccccccccccccccccccccccccc01a4693c613900000000000000000000000000000000000000000000000000000000000000121ba0560fa87a2ec033e39ccbb51f5cf67fc329818d2cb1a72550cac90371fb0a75daa01320b5f945691b0602ad296ad8ce5f0232ce3b35231667dbc8f8d2f06a7638b8"
                },
                {
                    "hash" : "0x1b81fb84cfa553250918f5287fa149c2a8eda9e33df8dfb19cc8697b022381fc",
                    "indexes" : {
                        "data" : 19,
                        "gas" : 0,
                        "value" : 0
                    },
                    "logs" : "0x1dcc4de8dec75d7aab85b567b6ccd41ad312451b948a7413f0a142fd40d49347",
                    "txbytes" : "0xf885800a8404c4b40094cccccccccccccccccccccccccccccccccccccccc01a4693c613900000000000000000000000000000000000000000000000000000000000000131ca0ad1f75d29cf02b3d3a43fb7339087a2aae978c50589c660510e0656b91b8265fa01a7670b6ee956f080d5e521e05f9089314a1af8a45e88f2b1e353a55caa30c9b"
                },
                {
                    "hash" : "0x84d2f7908fe94e489bbbc08f2894cafcc1870160e2064b527876ffb3049db2c6",
                    "indexes" : {
                        "data" : 20,
                        "gas" : 0,
                        "value" : 0
                    },
                    "logs" : "0x1dcc4de8dec75d7aab85b567b6ccd41ad312451b948a7413f0a142fd40d49347",
                    "txbytes" : "0xf885800a8404c4b40094cccccccccccccccccccccccccccccccccccccccc01a4693c613900000000000000000000000000000000000000000000000000000000000000141ba091b173d1664bac42e9b06d3a0f682ccf42e793cdbca9c529f7c08bc373bb91c4a05e93aa04a6635c77daffc025f982afb82ca3bebb2e035814fb5e5922dd625397"
                },
                {
                    "hash" : "0x762cb10e03be9dd5fcf28a45694676a46d55e80064bf9a5a7afff9df86db4676",
                    "indexes" : {
                        "data" : 21,
                        "gas" : 0,
                        "value" : 0
                    },
                    "logs" : "0x1dcc4de8dec75d7aab85b567b6ccd41ad312451b948a7413f0a142fd40d49347",
                    "txbytes" : "0xf885800a8404c4b40094cccccccccccccccccccccccccccccccccccccccc01a4693c613900000000000000000000000000000000000000000000000000000000000000151ba0b262f19909a10922a409648a204b6f6380e9c9820ea2f1c1e6e69203f9941beea053d0331098e4e852804aba7705c412346918da44e0b58a41096421fd7cc5c826"
                },
                {
                    "hash" : "0xe121a31d688073043bd155cde5aa115b97aba68e3b4f26751766492623d839bc",
                    "indexes" : {
                        "data" : 22,
                        "gas" : 0,
                        "value" : 0
                    },
                    "logs" : "0x1dcc4de8dec75d7aab85b567b6ccd41ad312451b948a7413f0a142fd40d49347",
                    "txbytes" : "0xf885800a8404c4b40094cccccccccccccccccccccccccccccccccccccccc01a4693c613900000000000000000000000000000000000000000000000000000000000000161ba01d546baeba64e0908b37d5dd31c81e1d198d7b11d6e9efcc2fbc6f1ef44c5143a041be371294cc46c45c70489d6f7b96c5a095451d19308da90e724c4e74df8e57"
                },
                {
                    "hash" : "0x7eac82fa21b75f2f6ad8ff5afb8bbf26d1f6b443592e9afee4e7c9a2dcef1afc",
                    "indexes" : {
                        "data" : 23,
                        "gas" : 0,
                        "value" : 0
                    },
                    "logs" : "0x1dcc4de8dec75d7aab85b567b6ccd41ad312451b948a7413f0a142fd40d49347",
                    "txbytes" : "0xf885800a8404c4b40094cccccccccccccccccccccccccccccccccccccccc01a4693c613900000000000000000000000000000000000000000000000000000000000000171ca092d8cb772e8469b5165f3bab6bbaeb9b5ef213ca5ddae53a905548a9baf22ca8a05347b01aa825ca48706cd3b06e032e494dbdbf48b39a8d678c6ee545e5994018"
                },
                {
                    "hash" : "0x04363d12ea39902ec768997447ab9a05e4b39a79e384a4a3fb869b6987058a36",
                    "indexes" : {
                        "data" : 24,
                        "gas" : 0,
                        "value" : 0
                    },
                    "logs" : "0x1dcc4de8dec75d7aab85b567b6ccd41ad312451b948a7413f0a142fd40d49347",
                    "txbytes" : "0xf885800a8404c4b40094cccccccccccccccccccccccccccccccccccccccc01a4693c613900000000000000000000000000000000000000000000000000000000000000181ca03510f25c9078e5ffcca1c270e34d340e8469cd0e1a5f9c94567eede72c3283afa0231c0d0293c59311fe680efca262dc8703c00ec43c33abe948cfe4359743d55b"
                },
                {
                    "hash" : "0x83a099947c10c48f55bab2e5c0f09126caf4d21dd15ffc204e6014cb172abc98",
                    "indexes" : {
                        "data" : 25,
                        "gas" : 0,
                        "value" : 0
                    },
                    "logs" : "0x1dcc4de8dec75d7aab85b567b6ccd41ad312451b948a7413f0a142fd40d49347",
                    "txbytes" : "0xf885800a8404c4b40094cccccccccccccccccccccccccccccccccccccccc01a4693c613900000000000000000000000000000000000000000000000000000000000000191ca0d2a647687b12d3b641649d38b387da52c462c5a82d1e1cf3e3d5204e122fb7c0a0786d79b0fc3d844f21cd13c44723f6f425b79907c1589ef51716ed226eddc83a"
                },
                {
                    "hash" : "0x5dda256005d5a3c82e157aed44792561fe7cd61ba3182ad734d1ea03616fbe33",
                    "indexes" : {
                        "data" : 26,
                        "gas" : 0,
                        "value" : 0
                    },
                    "logs" : "0x1dcc4de8dec75d7aab85b567b6ccd41ad312451b948a7413f0a142fd40d49347",
                    "txbytes" : "0xf885800a8404c4b40094cccccccccccccccccccccccccccccccccccccccc01a4693c6139000000000000000000000000000000000000000000000000000000000000001a1ca00b08d35158ec2feb719d394060c2a20d902d14570670bd322b0b3eebfeea86d1a05989f373ddd41e799a9fd9a57a82337e36b3c06a9c992cc1c4fae621bad610be"
                },
                {
                    "hash" : "0xbb6c993d8358d543e4f6eb1380583882a4422623a59d29098d2e5d4f2794cf28",
                    "indexes" : {
                        "data" : 27,
                        "gas" : 0,
                        "value" : 0
                    },
                    "logs" : "0x1dcc4de8dec75d7aab85b567b6ccd41ad312451b948a7413f0a142fd40d49347",
                    "txbytes" : "0xf885800a8404c4b40094cccccccccccccccccccccccccccccccccccccccc01a4693c6139000000000000000000000000000000000000000000000000000000000000001b1ca0afd5b767ee84f3eb576fb79608ffbe37ca955365c0a82802ea95d9df8b58acfba0402fd08dfdb9ecdc381996893150d1a4f564d880d05958c25e2693f65fb55599"
                },
                {
                    "hash" : "0x34f1c93ce5914ad7ae35e789eb29aab65d4ea8b0c8f705fde6d16b6b9083a6ad",
                    "indexes" : {
                        "data" : 28,
                        "gas" : 0,
                        "value" : 0
                    },
                    "logs" : "0x1dcc4de8dec75d7aab85b567b6ccd41ad312451b948a7413f0a142fd40d49347",
                    "txbytes" : "0xf885800a8404c4b40094cccccccccccccccccccccccccccccccccccccccc01a4693c6139000000000000000000000000000000000000000000000000000000000000001c1ba05948aaac51fb34ffc8333971b6115e3cbc9df8b349a5bfc39099ad3e2e8f50a6a065c2b8b7d2be1fc4da526d9a7f7627e56b3355d4fe468e4b583eb7f5b257fc26"
                },
                {
                    "hash" : "0x0c6fcdca2561b3463b6c41c203eeef3a5d238dc27773cafff232f3981cc47050",
                    "indexes" : {
                        "data" : 29,
                        "gas" : 0,
                        "value" : 0
                    },
                    "logs" : "0x1dcc4de8dec75d7aab85b567b6ccd41ad312451b948a7413f0a142fd40d49347",
                    "txbytes" : "0xf885800a8404c4b40094cccccccccccccccccccccccccccccccccccccccc01a4693c6139000000000000000000000000000000000000000000000000000000000000001d1ba01eca1dbda7e29b231913d84c7e81f25ee5b78d9b892876211a99b3cfbf82ec45a06e67b423ad6909ee166a52077a7aca2067a19fb25ee057ab01eadbd378cb717e"
                },
                {
                    "hash" : "0x027827ba0ecd4e0838bd14ee06b90822158f02ba78b86255b2c61b57c4a29087",
                    "indexes" : {
                        "data" : 30,
                        "gas" : 0,
                        "value" : 0
                    },
                    "logs" : "0x1dcc4de8dec75d7aab85b567b6ccd41ad312451b948a7413f0a142fd40d49347",
                    "txbytes" : "0xf885800a8404c4b40094cccccccccccccccccccccccccccccccccccccccc01a4693c6139000000000000000000000000000000000000000000000000000000000000001e1ca0326fa77d326d45ae9eb5988654c18f4aca7aecfe2fa5acc010af2c85ee8a5535a03295dde0a4b3d8bda60a81b362dbd76b6795727f5b313cb648412b4d581668de"
                },
                {
                    "hash" : "0x20645034f629711dbaa63ea69895a077a6eddb3630c9e186461f18749b259224",
                    "indexes" : {
                        "data" : 31,
                        "gas" : 0,
                        "value" : 0
                    },
                    "logs" : "0x1dcc4de8dec75d7aab85b567b6ccd41ad312451b948a7413f0a142fd40d49347",
                    "txbytes" : "0xf885800a8404c4b40094cccccccccccccccccccccccccccccccccccccccc01a4693c6139000000000000000000000000000000000000000000000000000000000000001f1ba0d857909ab8c903282175d5372f9030bf223f483c0dc68e05b7c1cded26446acda05e4dc987bd56eeeffc63541c8a9203687a949813391b0d874d4624e2e0c4ee88"
                }
            ]
        },
        "pre" : {
            "0x0000000000000000000000000000000000001000" : {
                "balance" : "0x0ba1a9ce0ba1a9ce",
                "code" : "0x60ff600055",
                "nonce" : "0x00",
                "storage" : {
                }
            },
            "0x0000000000000000000000000000000000001001" : {
                "balance" : "0x0ba1a9ce0ba1a9ce",
                "code" : "0x61eeff600055",
                "nonce" : "0x00",
                "storage" : {
                }
            },
            "0x0000000000000000000000000000000000001002" : {
                "balance" : "0x0ba1a9ce0ba1a9ce",
                "code" : "0x62ddeeff600055",
                "nonce" : "0x00",
                "storage" : {
                }
            },
            "0x0000000000000000000000000000000000001003" : {
                "balance" : "0x0ba1a9ce0ba1a9ce",
                "code" : "0x63ccddeeff600055",
                "nonce" : "0x00",
                "storage" : {
                }
            },
            "0x0000000000000000000000000000000000001004" : {
                "balance" : "0x0ba1a9ce0ba1a9ce",
                "code" : "0x64bbccddeeff600055",
                "nonce" : "0x00",
                "storage" : {
                }
            },
            "0x0000000000000000000000000000000000001005" : {
                "balance" : "0x0ba1a9ce0ba1a9ce",
                "code" : "0x65aabbccddeeff600055",
                "nonce" : "0x00",
                "storage" : {
                }
            },
            "0x0000000000000000000000000000000000001006" : {
                "balance" : "0x0ba1a9ce0ba1a9ce",
                "code" : "0x6699aabbccddeeff600055",
                "nonce" : "0x00",
                "storage" : {
                }
            },
            "0x0000000000000000000000000000000000001007" : {
                "balance" : "0x0ba1a9ce0ba1a9ce",
                "code" : "0x678899aabbccddeeff600055",
                "nonce" : "0x00",
                "storage" : {
                }
            },
            "0x0000000000000000000000000000000000001008" : {
                "balance" : "0x0ba1a9ce0ba1a9ce",
                "code" : "0x68778899aabbccddeeff600055",
                "nonce" : "0x00",
                "storage" : {
                }
            },
            "0x0000000000000000000000000000000000001009" : {
                "balance" : "0x0ba1a9ce0ba1a9ce",
                "code" : "0x6966778899aabbccddeeff600055",
                "nonce" : "0x00",
                "storage" : {
                }
            },
            "0x000000000000000000000000000000000000100a" : {
                "balance" : "0x0ba1a9ce0ba1a9ce",
                "code" : "0x6a5566778899aabbccddeeff600055",
                "nonce" : "0x00",
                "storage" : {
                }
            },
            "0x000000000000000000000000000000000000100b" : {
                "balance" : "0x0ba1a9ce0ba1a9ce",
                "code" : "0x6b445566778899aabbccddeeff600055",
                "nonce" : "0x00",
                "storage" : {
                }
            },
            "0x000000000000000000000000000000000000100c" : {
                "balance" : "0x0ba1a9ce0ba1a9ce",
                "code" : "0x6c33445566778899aabbccddeeff600055",
                "nonce" : "0x00",
                "storage" : {
                }
            },
            "0x000000000000000000000000000000000000100d" : {
                "balance" : "0x0ba1a9ce0ba1a9ce",
                "code" : "0x6d2233445566778899aabbccddeeff600055",
                "nonce" : "0x00",
                "storage" : {
                }
            },
            "0x000000000000000000000000000000000000100e" : {
                "balance" : "0x0ba1a9ce0ba1a9ce",
                "code" : "0x6e112233445566778899aabbccddeeff600055",
                "nonce" : "0x00",
                "storage" : {
                }
            },
            "0x000000000000000000000000000000000000100f" : {
                "balance" : "0x0ba1a9ce0ba1a9ce",
                "code" : "0x6f00112233445566778899aabbccddeeff600055",
                "nonce" : "0x00",
                "storage" : {
                }
            },
            "0x0000000000000000000000000000000000001010" : {
                "balance" : "0x0ba1a9ce0ba1a9ce",
                "code" : "0x70ff00112233445566778899aabbccddeeff600055",
                "nonce" : "0x00",
                "storage" : {
                }
            },
            "0x0000000000000000000000000000000000001011" : {
                "balance" : "0x0ba1a9ce0ba1a9ce",
                "code" : "0x71eeff00112233445566778899aabbccddeeff600055",
                "nonce" : "0x00",
                "storage" : {
                }
            },
            "0x0000000000000000000000000000000000001012" : {
                "balance" : "0x0ba1a9ce0ba1a9ce",
                "code" : "0x72ddeeff00112233445566778899aabbccddeeff600055",
                "nonce" : "0x00",
                "storage" : {
                }
            },
            "0x0000000000000000000000000000000000001013" : {
                "balance" : "0x0ba1a9ce0ba1a9ce",
                "code" : "0x73ccddeeff00112233445566778899aabbccddeeff600055",
                "nonce" : "0x00",
                "storage" : {
                }
            },
            "0x0000000000000000000000000000000000001014" : {
                "balance" : "0x0ba1a9ce0ba1a9ce",
                "code" : "0x74bbccddeeff00112233445566778899aabbccddeeff600055",
                "nonce" : "0x00",
                "storage" : {
                }
            },
            "0x0000000000000000000000000000000000001015" : {
                "balance" : "0x0ba1a9ce0ba1a9ce",
                "code" : "0x75aabbccddeeff00112233445566778899aabbccddeeff600055",
                "nonce" : "0x00",
                "storage" : {
                }
            },
            "0x0000000000000000000000000000000000001016" : {
                "balance" : "0x0ba1a9ce0ba1a9ce",
                "code" : "0x7699aabbccddeeff00112233445566778899aabbccddeeff600055",
                "nonce" : "0x00",
                "storage" : {
                }
            },
            "0x0000000000000000000000000000000000001017" : {
                "balance" : "0x0ba1a9ce0ba1a9ce",
                "code" : "0x778899aabbccddeeff00112233445566778899aabbccddeeff600055",
                "nonce" : "0x00",
                "storage" : {
                }
            },
            "0x0000000000000000000000000000000000001018" : {
                "balance" : "0x0ba1a9ce0ba1a9ce",
                "code" : "0x78778899aabbccddeeff00112233445566778899aabbccddeeff600055",
                "nonce" : "0x00",
                "storage" : {
                }
            },
            "0x0000000000000000000000000000000000001019" : {
                "balance" : "0x0ba1a9ce0ba1a9ce",
                "code" : "0x7966778899aabbccddeeff00112233445566778899aabbccddeeff600055",
                "nonce" : "0x00",
                "storage" : {
                }
            },
            "0x000000000000000000000000000000000000101a" : {
                "balance" : "0x0ba1a9ce0ba1a9ce",
                "code" : "0x7a5566778899aabbccddeeff00112233445566778899aabbccddeeff600055",
                "nonce" : "0x00",
                "storage" : {
                }
            },
            "0x000000000000000000000000000000000000101b" : {
                "balance" : "0x0ba1a9ce0ba1a9ce",
                "code" : "0x7b445566778899aabbccddeeff00112233445566778899aabbccddeeff600055",
                "nonce" : "0x00",
                "storage" : {
                }
            },
            "0x000000000000000000000000000000000000101c" : {
                "balance" : "0x0ba1a9ce0ba1a9ce",
                "code" : "0x7c33445566778899aabbccddeeff00112233445566778899aabbccddeeff600055",
                "nonce" : "0x00",
                "storage" : {
                }
            },
            "0x000000000000000000000000000000000000101d" : {
                "balance" : "0x0ba1a9ce0ba1a9ce",
                "code" : "0x7d2233445566778899aabbccddeeff00112233445566778899aabbccddeeff600055",
                "nonce" : "0x00",
                "storage" : {
                }
            },
            "0x000000000000000000000000000000000000101e" : {
                "balance" : "0x0ba1a9ce0ba1a9ce",
                "code" : "0x7e112233445566778899aabbccddeeff00112233445566778899aabbccddeeff600055",
                "nonce" : "0x00",
                "storage" : {
                }
            },
            "0x000000000000000000000000000000000000101f" : {
                "balance" : "0x0ba1a9ce0ba1a9ce",
                "code" : "0x7f00112233445566778899aabbccddeeff00112233445566778899aabbccddeeff600055",
                "nonce" : "0x00",
                "storage" : {
                }
            },
            "0xa94f5374fce5edbc8e2a8697c15331677e6ebf0b" : {
                "balance" : "0x100000000000",
                "code" : "0x",
                "nonce" : "0x00",
                "storage" : {
                }
            },
            "0xcccccccccccccccccccccccccccccccccccccccc" : {
                "balance" : "0x0ba1a9ce0ba1a9ce",
                "code" : "0x60006000600060006000600435611000015af100",
                "nonce" : "0x00",
                "storage" : {
                }
            }
        },
        "transaction" : {
            "data" : [
                "0x693c61390000000000000000000000000000000000000000000000000000000000000000",
                "0x693c61390000000000000000000000000000000000000000000000000000000000000001",
                "0x693c61390000000000000000000000000000000000000000000000000000000000000002",
                "0x693c61390000000000000000000000000000000000000000000000000000000000000003",
                "0x693c61390000000000000000000000000000000000000000000000000000000000000004",
                "0x693c61390000000000000000000000000000000000000000000000000000000000000005",
                "0x693c61390000000000000000000000000000000000000000000000000000000000000006",
                "0x693c61390000000000000000000000000000000000000000000000000000000000000007",
                "0x693c61390000000000000000000000000000000000000000000000000000000000000008",
                "0x693c61390000000000000000000000000000000000000000000000000000000000000009",
                "0x693c6139000000000000000000000000000000000000000000000000000000000000000a",
                "0x693c6139000000000000000000000000000000000000000000000000000000000000000b",
                "0x693c6139000000000000000000000000000000000000000000000000000000000000000c",
                "0x693c6139000000000000000000000000000000000000000000000000000000000000000d",
                "0x693c6139000000000000000000000000000000000000000000000000000000000000000e",
                "0x693c6139000000000000000000000000000000000000000000000000000000000000000f",
                "0x693c61390000000000000000000000000000000000000000000000000000000000000010",
                "0x693c61390000000000000000000000000000000000000000000000000000000000000011",
                "0x693c61390000000000000000000000000000000000000000000000000000000000000012",
                "0x693c61390000000000000000000000000000000000000000000000000000000000000013",
                "0x693c61390000000000000000000000000000000000000000000000000000000000000014",
                "0x693c61390000000000000000000000000000000000000000000000000000000000000015",
                "0x693c61390000000000000000000000000000000000000000000000000000000000000016",
                "0x693c61390000000000000000000000000000000000000000000000000000000000000017",
                "0x693c61390000000000000000000000000000000000000000000000000000000000000018",
                "0x693c61390000000000000000000000000000000000000000000000000000000000000019",
                "0x693c6139000000000000000000000000000000000000000000000000000000000000001a",
                "0x693c6139000000000000000000000000000000000000000000000000000000000000001b",
                "0x693c6139000000000000000000000000000000000000000000000000000000000000001c",
                "0x693c6139000000000000000000000000000000000000000000000000000000000000001d",
                "0x693c6139000000000000000000000000000000000000000000000000000000000000001e",
                "0x693c6139000000000000000000000000000000000000000000000000000000000000001f"
            ],
            "gasLimit" : [
                "0x04c4b400"
            ],
            "gasPrice" : "0x0a",
            "nonce" : "0x00",
            "secretKey" : "0x45a915e4d060149eb4365960e6a7a45f334393093061116b197e3240065ff2d8",
            "sender" : "0xa94f5374fce5edbc8e2a8697c15331677e6ebf0b",
            "to" : "0xcccccccccccccccccccccccccccccccccccccccc",
            "value" : [
                "0x01"
            ]
        }
    }
}