{
    "ExtCodeCopyTestsParis" : {
        "_info" : {
            "comment" : "",
            "filling-rpc-server" : "evm version 1.14.4-unstable-3d8028a6-20240513",
            "filling-tool-version" : "retesteth-0.3.2-cancun+commit.2ab0208e.Linux.g++",
            "generatedTestHash" : "af73fb6b43ad90a5f7ce649e94aa68da69008d7ef23c4e57f6da6ae1d0a8b69e",
            "lllcversion" : "Version: 0.5.14-develop.2023.7.11+commit.c58ab2c6.mod.Linux.g++",
            "solidity" : "Version: 0.8.21+commit.d9974bed.Linux.g++",
            "source" : "src/GeneralStateTestsFiller/stCodeCopyTest/ExtCodeCopyTestsParisFiller.json",
            "sourceHash" : "cc06658f825b22822f31cc9c9e364b3ab96dec2da3e54a3e00c824edf64747a0"
        },
        "env" : {
            "currentBaseFee" : "0x0a",
            "currentCoinbase" : "0x2adc25665018aa1fe0e6bc666dac8fc2697ff9ba",
            "currentDifficulty" : "0x020000",
            "currentExcessBlobGas" : "0x00",
            "currentGasLimit" : "0x7fffffffffffffff",
            "currentNumber" : "0x28d138",
            "currentRandom" : "0x0000000000000000000000000000000000000000000000000000000000020000",
            "currentTimestamp" : "0x03e8"
        },
        "post" : {
            "Cancun" : [
                {
                    "hash" : "0x4f46db920d7a35059c282abf5c700db48523b19e83f4878b1718b171e22ced92",
                    "indexes" : {
                        "data" : 0,
                        "gas" : 0,
                        "value" : 0
                    },
                    "logs" : "0x1dcc4de8dec75d7aab85b567b6ccd41ad312451b948a7413f0a142fd40d49347",
                    "txbytes" : "0xf860800a83061a8094aaaf5374fce5edbc8e2a8697c15331677e6ebf0b80801ca0f1326147c4351dc80fb7bef9b63c76a4aae39ceccd9ec54065339ba60f77c6d9a02567b84dc4697e7b6ca92bec948694fa9723fec84460588629068c5bbb1ee6de"
                }
            ]
        },
        "pre" : {
            "0xa94f5374fce5edbc8e2a8697c15331677e6ebf0b" : {
                "balance" : "0xffffffffffffffffffffffffffffffff",
                "code" : "0x",
                "nonce" : "0x00",
                "storage" : {
                }
            },
            "0xaaaf5374fce5edbc8e2a8697c15331677e6ebf0b" : {
                "balance" : "0x1b58",
                "code" : "0x6002600a600173bbbf5374fce5edbc8e2a8697c15331677e6ebf0b3c6000516002556002600a600173cccf5374fce5edbc8e2a8697c15331677e6ebf0b3c6000516003556002600a600173dddf5374fce5edbc8e2a8697c15331677e6ebf0b3c6000516004556002600a600173eeef5374fce5edbc8e2a8697c15331677e6ebf0b3c60005160055560c8600a600173eeef5374fce5edbc8e2a8697c15331677e6ebf0b3c60005160065500",
                "nonce" : "0x00",
                "storage" : {
                }
            },
            "0xcccf5374fce5edbc8e2a8697c15331677e6ebf0b" : {
                "balance" : "0x0a",
                "code" : "0x",
                "nonce" : "0x00",
                "storage" : {
                }
            },
            "0xdddf5374fce5edbc8e2a8697c15331677e6ebf0b" : {
                "balance" : "0x00",
                "code" : "0x",
                "nonce" : "0x01",
                "storage" : {
                }
            },
            "0xeeef5374fce5edbc8e2a8697c15331677e6ebf0b" : {
                "balance" : "0x00",
                "code" : "0x1122334455667788991011121314151617181920212223242526272829303132",
                "nonce" : "0x01",
                "storage" : {
                }
            }
        },
        "transaction" : {
            "data" : [
                "0x"
            ],
            "gasLimit" : [
                "0x061a80"
            ],
            "gasPrice" : "0x0a",
            "nonce" : "0x00",
            "secretKey" : "0x45a915e4d060149eb4365960e6a7a45f334393093061116b197e3240065ff2d8",
            "sender" : "0xa94f5374fce5edbc8e2a8697c15331677e6ebf0b",
            "to" : "0xaaaf5374fce5edbc8e2a8697c15331677e6ebf0b",
            "value" : [
                "0x00"
            ]
        }
    }
}