{
    "createNonConst" : {
        "_info" : {
            "comment" : "",
            "filling-rpc-server" : "evm version 1.14.4-unstable-3d8028a6-20240513",
            "filling-tool-version" : "retesteth-0.3.2-cancun+commit.2ab0208e.Linux.g++",
            "generatedTestHash" : "b66a85109af28c45d5d963c4c044fdcfed63ff53b5a1ff900dda52d46f3bb724",
            "lllcversion" : "Version: 0.5.14-develop.2023.7.11+commit.c58ab2c6.mod.Linux.g++",
            "solidity" : "Version: 0.8.21+commit.d9974bed.Linux.g++",
            "source" : "src/GeneralStateTestsFiller/stArgsZeroOneBalance/createNonConstFiller.yml",
            "sourceHash" : "14ec9ec4b6adefc0d750a1fa73b61fd1aeaf0ba1098a116380acba7cb3796dd7"
        },
        "env" : {
            "currentBaseFee" : "0x0a",
            "currentCoinbase" : "0x2adc25665018aa1fe0e6bc666dac8fc2697ff9ba",
            "currentDifficulty" : "0x020000",
            "currentExcessBlobGas" : "0x00",
            "currentGasLimit" : "0x0f4240",
            "currentNumber" : "0x01",
            "currentRandom" : "0x0000000000000000000000000000000000000000000000000000000000020000",
            "currentTimestamp" : "0x03e8"
        },
        "post" : {
            "Cancun" : [
                {
                    "hash" : "0xf14c1ce6c76b47d3190949f826e53d8989f8a72642474104c349c905adccd8fd",
                    "indexes" : {
                        "data" : 0,
                        "gas" : 0,
                        "value" : 0
                    },
                    "logs" : "0x1dcc4de8dec75d7aab85b567b6ccd41ad312451b948a7413f0a142fd40d49347",
                    "txbytes" : "0xf860800a83061a8094095e7baea6a6c7c4c2dfeb977efac326af552d8780801ba072ed817487b84ba367d15d2f039b5fc5f087d0a8882fbdf73e8cb49357e1ce30a0403d800545b8fc544f92ce8124e2255f8c3c6af93f28243a120585d4c4c6a2a3"
                },
                {
                    "hash" : "0xb6d4087bd3e1931eee363d532e8de6189759b4f1e55260a5a1a1a913395bbbb5",
                    "indexes" : {
                        "data" : 0,
                        "gas" : 0,
                        "value" : 1
                    },
                    "logs" : "0x1dcc4de8dec75d7aab85b567b6ccd41ad312451b948a7413f0a142fd40d49347",
                    "txbytes" : "0xf860800a83061a8094095e7baea6a6c7c4c2dfeb977efac326af552d8701801ca09d46b87169053cc40670aef750b032c895cde3e35c2c7f5a37c059272e0914c7a04d4a94b67b2776cc3e0fca2ed9503c10fd92ec79f1b2dcbb85df9634c7de3119"
                }
            ]
        },
        "pre" : {
            "0x095e7baea6a6c7c4c2dfeb977efac326af552d87" : {
                "balance" : "0x00",
                "code" : "0x73095e7baea6a6c7c4c2dfeb977efac326af552d873173095e7baea6a6c7c4c2dfeb977efac326af552d873173095e7baea6a6c7c4c2dfeb977efac326af552d8731f060005500",
                "nonce" : "0x00",
                "storage" : {
                }
            },
            "0xa94f5374fce5edbc8e2a8697c15331677e6ebf0b" : {
                "balance" : "0x0de0b6b3a7640000",
                "code" : "0x",
                "nonce" : "0x00",
                "storage" : {
                }
            }
        },
        "transaction" : {
            "data" : [
                "0x"
            ],
            "gasLimit" : [
                "0x061a80"
            ],
            "gasPrice" : "0x0a",
            "nonce" : "0x00",
            "secretKey" : "0x45a915e4d060149eb4365960e6a7a45f334393093061116b197e3240065ff2d8",
            "sender" : "0xa94f5374fce5edbc8e2a8697c15331677e6ebf0b",
            "to" : "0x095e7baea6a6c7c4c2dfeb977efac326af552d87",
            "value" : [
                "0x00",
                "0x01"
            ]
        }
    }
}