{
    "costRevert" : {
        "_info" : {
            "comment" : "Ori Pomerantz qbzzt1@gmail.com",
            "filling-rpc-server" : "evm version 1.14.4-unstable-3d8028a6-20240513",
            "filling-tool-version" : "retesteth-0.3.2-cancun+commit.2ab0208e.Linux.g++",
            "generatedTestHash" : "449121b9d5d0c8c4e1f43875869563127c894b285bc53778716f7ab7139fc7c4",
            "labels" : {
                "0" : "revert",
                "1" : "outOfGas",
                "10" : "badOpcode",
                "11" : "jumpBadly",
                "12" : "stackUnder",
                "13" : "stackOver",
                "14" : "revert",
                "15" : "outOfGas",
                "16" : "xtremeOOG",
                "17" : "badOpcode",
                "18" : "jumpBadly",
                "19" : "stackUnder",
                "2" : "xtremeOOG",
                "20" : "stackOver",
                "21" : "revert",
                "22" : "outOfGas",
                "23" : "xtremeOOG",
                "24" : "badOpcode",
                "25" : "jumpBadly",
                "26" : "stackUnder",
                "27" : "stackOver",
                "3" : "badOpcode",
                "4" : "jumpBadly",
                "5" : "stackUnder",
                "6" : "stackOver",
                "7" : "revert",
                "8" : "outOfGas",
                "9" : "xtremeOOG"
            },
            "lllcversion" : "Version: 0.5.14-develop.2023.7.11+commit.c58ab2c6.mod.Linux.g++",
            "solidity" : "Version: 0.8.21+commit.d9974bed.Linux.g++",
            "source" : "src/GeneralStateTestsFiller/stRevertTest/costRevertFiller.yml",
            "sourceHash" : "532af863afaead2c461054471889259be83a2071eaf8a96401f6fe84d1283aaa"
        },
        "env" : {
            "currentBaseFee" : "0x0a",
            "currentCoinbase" : "0x2adc25665018aa1fe0e6bc666dac8fc2697ff9ba",
            "currentDifficulty" : "0x020000",
            "currentExcessBlobGas" : "0x00",
            "currentGasLimit" : "0x05f5e100",
            "currentNumber" : "0x01",
            "currentRandom" : "0x0000000000000000000000000000000000000000000000000000000000020000",
            "currentTimestamp" : "0x03e8"
        },
        "post" : {
            "Cancun" : [
                {
                    "hash" : "0xcbdefdd6cc76077f8a0addba3b6ee9243627aecd90a7b2249303e0ab6a38c190",
                    "indexes" : {
                        "data" : 0,
                        "gas" : 0,
                        "value" : 0
                    },
                    "logs" : "0x1dcc4de8dec75d7aab85b567b6ccd41ad312451b948a7413f0a142fd40d49347",
                    "txbytes" : "0xf8a6800a8404c4b40094cccccccccccccccccccccccccccccccccccccccc01b8441a8451e6000000000000000000000000000000000000000000000000000000000000010000000000000000000000000000000000000000000000000000000000000000001ba0ebaf01566b36071452a195dcef2d50236b42635a79bf58bc1b418c8eb283b86fa00e76427c118fd6dc7e4e736ef7db2c6c23356182932cb5e23053c9dc68cfc250"
                },
                {
                    "hash" : "0xb0ae957a52662482fc57beeab5433384fbeb34fad43f72232a1b9780fbf2459e",
                    "indexes" : {
                        "data" : 7,
                        "gas" : 0,
                        "value" : 0
                    },
                    "logs" : "0x1dcc4de8dec75d7aab85b567b6ccd41ad312451b948a7413f0a142fd40d49347",
                    "txbytes" : "0xf8a6800a8404c4b40094cccccccccccccccccccccccccccccccccccccccc01b8441a8451e6000000000000000000000000000000000000000000000000000000000000010000000000000000000000000000000000000000000000000000000000000000011ba02d16726028c44b0c14de9b72b5871ccd57d0fc729c4a84a33ce12373654c5916a06c14a99469475cc46d4ffcbba49a03e8800eaba626814213fa26f90a08e7a679"
                },
                {
                    "hash" : "0xb0ae957a52662482fc57beeab5433384fbeb34fad43f72232a1b9780fbf2459e",
                    "indexes" : {
                        "data" : 14,
                        "gas" : 0,
                        "value" : 0
                    },
                    "logs" : "0x1dcc4de8dec75d7aab85b567b6ccd41ad312451b948a7413f0a142fd40d49347",
                    "txbytes" : "0xf8a6800a8404c4b40094cccccccccccccccccccccccccccccccccccccccc01b8441a8451e6000000000000000000000000000000000000000000000000000000000000010000000000000000000000000000000000000000000000000000000000000000021ba0201909fcdd1062d11f01bbd57978fa6d0f20e99c762d6a2cbee0686a2677c63ea051e4e17b617c876c618975072f32149052bed421fa7ea9337c4ca037641d7690"
                },
                {
                    "hash" : "0xa550590b813a85de3e7ad7306c2a80faf6558f4de1529fd71d19fa260049f2d3",
                    "indexes" : {
                        "data" : 21,
                        "gas" : 0,
                        "value" : 0
                    },
                    "logs" : "0x1dcc4de8dec75d7aab85b567b6ccd41ad312451b948a7413f0a142fd40d49347",
                    "txbytes" : "0xf8a6800a8404c4b40094cccccccccccccccccccccccccccccccccccccccc01b8441a8451e6000000000000000000000000000000000000000000000000000000000000010000000000000000000000000000000000000000000000000000000000000000031ba0fa7b9f26fa52d4ef281633b43f1a7fd3e6e5b53a2ca9cd4dfb71bd744fc6113fa030ceb26510c09df9bc51f70c7ba4f3100213074ed064ed409ef9a02049a74b8b"
                },
                {
                    "hash" : "0xbf1c05e3f28a1cb0f08dd98e27cf0c66f12620292026ede53e0d8ffe84efcc8a",
                    "indexes" : {
                        "data" : 1,
                        "gas" : 0,
                        "value" : 0
                    },
                    "logs" : "0x1dcc4de8dec75d7aab85b567b6ccd41ad312451b948a7413f0a142fd40d49347",
                    "txbytes" : "0xf8a6800a8404c4b40094cccccccccccccccccccccccccccccccccccccccc01b8441a8451e6000000000000000000000000000000000000000000000000000000000000010100000000000000000000000000000000000000000000000000000000000000001ba0de6f985bbe054978571a1498443a85e33e4b6270fe2abf084106b125f237e945a06c71573d54a418cda62cb9f7661586f00d9c5242e7c4babbd6b496966b418fe2"
                },
                {
                    "hash" : "0xbf1c05e3f28a1cb0f08dd98e27cf0c66f12620292026ede53e0d8ffe84efcc8a",
                    "indexes" : {
                        "data" : 2,
                        "gas" : 0,
                        "value" : 0
                    },
                    "logs" : "0x1dcc4de8dec75d7aab85b567b6ccd41ad312451b948a7413f0a142fd40d49347",
                    "txbytes" : "0xf8a6800a8404c4b40094cccccccccccccccccccccccccccccccccccccccc01b8441a8451e6000000000000000000000000000000000000000000000000000000000000010200000000000000000000000000000000000000000000000000000000000000001ca0b961d6788cdbc8218479b213efaf1a3e873d7b8b176b86e5ddb7744e230a0fdaa0341f98f932f7580d8ece7b581de34b11657bfa4a935a8b7c599cf279eefbcdee"
                },
                {
                    "hash" : "0xbf1c05e3f28a1cb0f08dd98e27cf0c66f12620292026ede53e0d8ffe84efcc8a",
                    "indexes" : {
                        "data" : 3,
                        "gas" : 0,
                        "value" : 0
                    },
                    "logs" : "0x1dcc4de8dec75d7aab85b567b6ccd41ad312451b948a7413f0a142fd40d49347",
                    "txbytes" : "0xf8a6800a8404c4b40094cccccccccccccccccccccccccccccccccccccccc01b8441a8451e6000000000000000000000000000000000000000000000000000000000000010300000000000000000000000000000000000000000000000000000000000000001ba0ca04f5f3f26cb81360930859c57abbafd4ce6078fd73fe3f67f347ab647807b7a0214bd7306ea208e97fbc461621088c74a845f3e66d964798c534548ceb8aeab7"
                },
                {
                    "hash" : "0xbf1c05e3f28a1cb0f08dd98e27cf0c66f12620292026ede53e0d8ffe84efcc8a",
                    "indexes" : {
                        "data" : 4,
                        "gas" : 0,
                        "value" : 0
                    },
                    "logs" : "0x1dcc4de8dec75d7aab85b567b6ccd41ad312451b948a7413f0a142fd40d49347",
                    "txbytes" : "0xf8a6800a8404c4b40094cccccccccccccccccccccccccccccccccccccccc01b8441a8451e6000000000000000000000000000000000000000000000000000000000000010400000000000000000000000000000000000000000000000000000000000000001ca06a06757ec49d663fc47d23ad074c2af21053668ad0a75b3c4786ad696903290aa03fac614c66b731ad5d949ed4588da5f5d2dd2e2d2bb17370050ba5d6089bc8e8"
                },
                {
                    "hash" : "0xbf1c05e3f28a1cb0f08dd98e27cf0c66f12620292026ede53e0d8ffe84efcc8a",
                    "indexes" : {
                        "data" : 5,
                        "gas" : 0,
                        "value" : 0
                    },
                    "logs" : "0x1dcc4de8dec75d7aab85b567b6ccd41ad312451b948a7413f0a142fd40d49347",
                    "txbytes" : "0xf8a6800a8404c4b40094cccccccccccccccccccccccccccccccccccccccc01b8441a8451e6000000000000000000000000000000000000000000000000000000000000010500000000000000000000000000000000000000000000000000000000000000001ba054206526e51e9d3ab7266dc9e43ae2a021742ff75a5305a03e3721055da047a0a02c2a69567bec696fa984c232c4701479adeabf9557aa03840e605842bd476e60"
                },
                {
                    "hash" : "0xbf1c05e3f28a1cb0f08dd98e27cf0c66f12620292026ede53e0d8ffe84efcc8a",
                    "indexes" : {
                        "data" : 6,
                        "gas" : 0,
                        "value" : 0
                    },
                    "logs" : "0x1dcc4de8dec75d7aab85b567b6ccd41ad312451b948a7413f0a142fd40d49347",
                    "txbytes" : "0xf8a6800a8404c4b40094cccccccccccccccccccccccccccccccccccccccc01b8441a8451e6000000000000000000000000000000000000000000000000000000000000010600000000000000000000000000000000000000000000000000000000000000001ca0b0f2cce6f11f8aa9cc00fac64345f786bcddda9fda0c6f88086ac9530ab8323fa026223627341bf31406860c0b3f6d5e4e8ecd83f4b1509ac9d5f070e5e5cf51da"
                },
                {
                    "hash" : "0xeda22c2ba1a660d7c172fbb2e87efd125824a210164426bf14f87d087b45c7e5",
                    "indexes" : {
                        "data" : 8,
                        "gas" : 0,
                        "value" : 0
                    },
                    "logs" : "0x1dcc4de8dec75d7aab85b567b6ccd41ad312451b948a7413f0a142fd40d49347",
                    "txbytes" : "0xf8a5800a8404c4b40094cccccccccccccccccccccccccccccccccccccccc01b8441a8451e6000000000000000000000000000000000000000000000000000000000000010100000000000000000000000000000000000000000000000000000000000000011b9fd31681d0908b3731536cd32073a2abef1a567b5f459da975225748d697f2c4a0013e03ba0ebe1b9789f09947a797b4bd944d13dce4d312ca9c692111daf01e86"
                },
                {
                    "hash" : "0xeda22c2ba1a660d7c172fbb2e87efd125824a210164426bf14f87d087b45c7e5",
                    "indexes" : {
                        "data" : 9,
                        "gas" : 0,
                        "value" : 0
                    },
                    "logs" : "0x1dcc4de8dec75d7aab85b567b6ccd41ad312451b948a7413f0a142fd40d49347",
                    "txbytes" : "0xf8a6800a8404c4b40094cccccccccccccccccccccccccccccccccccccccc01b8441a8451e6000000000000000000000000000000000000000000000000000000000000010200000000000000000000000000000000000000000000000000000000000000011ca07865f0c0e24f3d61e613a580b3778e12c885c6edac7d1281cc41db8dd6c02feba03bcab22f0ac95c16c736ad8015525c002ce2d08bb7a723101446f8aa87bca968"
                },
                {
                    "hash" : "0xeda22c2ba1a660d7c172fbb2e87efd125824a210164426bf14f87d087b45c7e5",
                    "indexes" : {
                        "data" : 10,
                        "gas" : 0,
                        "value" : 0
                    },
                    "logs" : "0x1dcc4de8dec75d7aab85b567b6ccd41ad312451b948a7413f0a142fd40d49347",
                    "txbytes" : "0xf8a6800a8404c4b40094cccccccccccccccccccccccccccccccccccccccc01b8441a8451e6000000000000000000000000000000000000000000000000000000000000010300000000000000000000000000000000000000000000000000000000000000011ba0a273d9ea352f41783b57c5b47a7ede69887a7398950c547eefbd5f1567e31d9da07f1f1a5dc28232a6ba12666dd47496f2310bc131fb871880f787abb9d30d54a7"
                },
                {
                    "hash" : "0xeda22c2ba1a660d7c172fbb2e87efd125824a210164426bf14f87d087b45c7e5",
                    "indexes" : {
                        "data" : 11,
                        "gas" : 0,
                        "value" : 0
                    },
                    "logs" : "0x1dcc4de8dec75d7aab85b567b6ccd41ad312451b948a7413f0a142fd40d49347",
                    "txbytes" : "0xf8a6800a8404c4b40094cccccccccccccccccccccccccccccccccccccccc01b8441a8451e6000000000000000000000000000000000000000000000000000000000000010400000000000000000000000000000000000000000000000000000000000000011ca06e8655ddbc9aa9582c3b00370533e97a75c60f16f8dfdb1f53c6997755840285a02381aac07c6c76b103d747664b829fff04f2e60395eeee2e40b14b42afc88fae"
                },
                {
                    "hash" : "0xeda22c2ba1a660d7c172fbb2e87efd125824a210164426bf14f87d087b45c7e5",
                    "indexes" : {
                        "data" : 12,
                        "gas" : 0,
                        "value" : 0
                    },
                    "logs" : "0x1dcc4de8dec75d7aab85b567b6ccd41ad312451b948a7413f0a142fd40d49347",
                    "txbytes" : "0xf8a6800a8404c4b40094cccccccccccccccccccccccccccccccccccccccc01b8441a8451e6000000000000000000000000000000000000000000000000000000000000010500000000000000000000000000000000000000000000000000000000000000011ba0d48100eab8ca45e4ab41faec089dd97e1c7c29bd98b23914d9f3e19c6183512da0102811ea0274ea3d4d41211e032e41917824ef502833d59c32eda29f3a380e1b"
                },
                {
                    "hash" : "0xeda22c2ba1a660d7c172fbb2e87efd125824a210164426bf14f87d087b45c7e5",
                    "indexes" : {
                        "data" : 13,
                        "gas" : 0,
                        "value" : 0
                    },
                    "logs" : "0x1dcc4de8dec75d7aab85b567b6ccd41ad312451b948a7413f0a142fd40d49347",
                    "txbytes" : "0xf8a6800a8404c4b40094cccccccccccccccccccccccccccccccccccccccc01b8441a8451e6000000000000000000000000000000000000000000000000000000000000010600000000000000000000000000000000000000000000000000000000000000011ba04745d6ad6dd50a9ed89b78942c753192841222e18f4cd16a835af1b46ae22886a01239bb967f2e1d803a44150406c762b133e4c1f1cc16d10dc1b2b5e919ce0bbb"
                },
                {
                    "hash" : "0xad89c12a9147b3093c94d50f21708848657626c1df449e30d9cf76956c3be00a",
                    "indexes" : {
                        "data" : 15,
                        "gas" : 0,
                        "value" : 0
                    },
                    "logs" : "0x1dcc4de8dec75d7aab85b567b6ccd41ad312451b948a7413f0a142fd40d49347",
                    "txbytes" : "0xf8a6800a8404c4b40094cccccccccccccccccccccccccccccccccccccccc01b8441a8451e6000000000000000000000000000000000000000000000000000000000000010100000000000000000000000000000000000000000000000000000000000000021ba0e29d49f1a143862d7cca6c32bdc658497c92e67a726862bc28a73f8a651605eda04ee36623678d9402011ba1b050c29619c6172b8b800bfd7b5c9e06fddfd13eb6"
                },
                {
                    "hash" : "0xad89c12a9147b3093c94d50f21708848657626c1df449e30d9cf76956c3be00a",
                    "indexes" : {
                        "data" : 16,
                        "gas" : 0,
                        "value" : 0
                    },
                    "logs" : "0x1dcc4de8dec75d7aab85b567b6ccd41ad312451b948a7413f0a142fd40d49347",
                    "txbytes" : "0xf8a6800a8404c4b40094cccccccccccccccccccccccccccccccccccccccc01b8441a8451e6000000000000000000000000000000000000000000000000000000000000010200000000000000000000000000000000000000000000000000000000000000021ca0fdd74e45c3a23166a682509dedc49b85abe6c9f4b351f41e8bf60ab2a241b029a009784c21e8f50afa67263fbcb4872439beea2faa1dc283506336694abf234302"
                },
                {
                    "hash" : "0xad89c12a9147b3093c94d50f21708848657626c1df449e30d9cf76956c3be00a",
                    "indexes" : {
                        "data" : 17,
                        "gas" : 0,
                        "value" : 0
                    },
                    "logs" : "0x1dcc4de8dec75d7aab85b567b6ccd41ad312451b948a7413f0a142fd40d49347",
                    "txbytes" : "0xf8a6800a8404c4b40094cccccccccccccccccccccccccccccccccccccccc01b8441a8451e6000000000000000000000000000000000000000000000000000000000000010300000000000000000000000000000000000000000000000000000000000000021ca0f3fa33870699d541c4d187b65639565843e29d073c8b5b1fd0a50ce387c3f578a01ce23fef15128d0217668fc784efd7bb706f15244fa14f198a67075dfcc99b7f"
                },
                {
                    "hash" : "0xad89c12a9147b3093c94d50f21708848657626c1df449e30d9cf76956c3be00a",
                    "indexes" : {
                        "data" : 18,
                        "gas" : 0,
                        "value" : 0
                    },
                    "logs" : "0x1dcc4de8dec75d7aab85b567b6ccd41ad312451b948a7413f0a142fd40d49347",
                    "txbytes" : "0xf8a6800a8404c4b40094cccccccccccccccccccccccccccccccccccccccc01b8441a8451e6000000000000000000000000000000000000000000000000000000000000010400000000000000000000000000000000000000000000000000000000000000021ca04e729945218ebeaa4351ce4b5b4595d5a10795ab93ce7df3d3e10a29a43774dba01598b62b97d24c0401c92e47628ba753d716c5c35bf3a0fdffd6e6d6f2ca5b94"
                },
                {
                    "hash" : "0xad89c12a9147b3093c94d50f21708848657626c1df449e30d9cf76956c3be00a",
                    "indexes" : {
                        "data" : 19,
                        "gas" : 0,
                        "value" : 0
                    },
                    "logs" : "0x1dcc4de8dec75d7aab85b567b6ccd41ad312451b948a7413f0a142fd40d49347",
                    "txbytes" : "0xf8a6800a8404c4b40094cccccccccccccccccccccccccccccccccccccccc01b8441a8451e6000000000000000000000000000000000000000000000000000000000000010500000000000000000000000000000000000000000000000000000000000000021ba0bab3ee89d5d0a8dfbf3fb29bf4b0da0c229a11a50d4d3bb43695a4b27517e6dea0383febb574c433f12bee1537d4a66989964679d59db7297f9c3fe4f9cf265906"
                },
                {
                    "hash" : "0xad89c12a9147b3093c94d50f21708848657626c1df449e30d9cf76956c3be00a",
                    "indexes" : {
                        "data" : 20,
                        "gas" : 0,
                        "value" : 0
                    },
                    "logs" : "0x1dcc4de8dec75d7aab85b567b6ccd41ad312451b948a7413f0a142fd40d49347",
                    "txbytes" : "0xf8a6800a8404c4b40094cccccccccccccccccccccccccccccccccccccccc01b8441a8451e6000000000000000000000000000000000000000000000000000000000000010600000000000000000000000000000000000000000000000000000000000000021ca0488ad2a073e8db4966bd2bbd49983c19e28b6bc12ddc6bfb2696e4364ad8b3e8a0264a9a0762b40faf8262da47af85be69f7fab375da7e9ae7012b4c5f62e8a70a"
                },
                {
                    "hash" : "0x361fa0f6e3ae06aab3e0added5794e590effc7097dfb24902aaa3664cd891760",
                    "indexes" : {
                        "data" : 22,
                        "gas" : 0,
                        "value" : 0
                    },
                    "logs" : "0x1dcc4de8dec75d7aab85b567b6ccd41ad312451b948a7413f0a142fd40d49347",
                    "txbytes" : "0xf8a6800a8404c4b40094cccccccccccccccccccccccccccccccccccccccc01b8441a8451e6000000000000000000000000000000000000000000000000000000000000010100000000000000000000000000000000000000000000000000000000000000031ba0b40a4a3f574298ac000132752d4cce594550d3c553489461d2c63b11fc6f4c2ba06eaf5668847d599f33b153c571208c23db18a53eeb989d004172ec8c96feab2e"
                },
                {
                    "hash" : "0x361fa0f6e3ae06aab3e0added5794e590effc7097dfb24902aaa3664cd891760",
                    "indexes" : {
                        "data" : 23,
                        "gas" : 0,
                        "value" : 0
                    },
                    "logs" : "0x1dcc4de8dec75d7aab85b567b6ccd41ad312451b948a7413f0a142fd40d49347",
                    "txbytes" : "0xf8a6800a8404c4b40094cccccccccccccccccccccccccccccccccccccccc01b8441a8451e6000000000000000000000000000000000000000000000000000000000000010200000000000000000000000000000000000000000000000000000000000000031ca0868b187bcd7739f4d53ee68f961f42dace10744f76d1b9a9916f6d6e54bb0ffea0763ad3129a7e569cf89b0a5e0c4b4e0defc8a15513f699dc0cab0dc079a9c1b1"
                },
                {
                    "hash" : "0x361fa0f6e3ae06aab3e0added5794e590effc7097dfb24902aaa3664cd891760",
                    "indexes" : {
                        "data" : 24,
                        "gas" : 0,
                        "value" : 0
                    },
                    "logs" : "0x1dcc4de8dec75d7aab85b567b6ccd41ad312451b948a7413f0a142fd40d49347",
                    "txbytes" : "0xf8a6800a8404c4b40094cccccccccccccccccccccccccccccccccccccccc01b8441a8451e6000000000000000000000000000000000000000000000000000000000000010300000000000000000000000000000000000000000000000000000000000000031ca0f41de697e2fce354b031b02970ebfc1332fbc6a5339bf752dfad999930f2f4f7a03351d42a7fed72c956f449b8acf12817380ff7a70a5435d61801754ced988aeb"
                },
                {
                    "hash" : "0x361fa0f6e3ae06aab3e0added5794e590effc7097dfb24902aaa3664cd891760",
                    "indexes" : {
                        "data" : 25,
                        "gas" : 0,
                        "value" : 0
                    },
                    "logs" : "0x1dcc4de8dec75d7aab85b567b6ccd41ad312451b948a7413f0a142fd40d49347",
                    "txbytes" : "0xf8a6800a8404c4b40094cccccccccccccccccccccccccccccccccccccccc01b8441a8451e6000000000000000000000000000000000000000000000000000000000000010400000000000000000000000000000000000000000000000000000000000000031ba055da06bac29d85c800522f8a2b004fd2846e70045499228eae85a66564aa80b4a04f73a8bc3eb7a208f936a9b0616f1ee3fa2363ce4c7176e3a4ccec2717bc1ae3"
                },
                {
                    "hash" : "0x361fa0f6e3ae06aab3e0added5794e590effc7097dfb24902aaa3664cd891760",
                    "indexes" : {
                        "data" : 26,
                        "gas" : 0,
                        "value" : 0
                    },
                    "logs" : "0x1dcc4de8dec75d7aab85b567b6ccd41ad312451b948a7413f0a142fd40d49347",
                    "txbytes" : "0xf8a6800a8404c4b40094cccccccccccccccccccccccccccccccccccccccc01b8441a8451e6000000000000000000000000000000000000000000000000000000000000010500000000000000000000000000000000000000000000000000000000000000031ca06f7de0c856ad7eac3fe231a33b9e9d226647e8fd7788ac1404ee3a19899867e9a01756d1e15ce5b5dfb4864ca123cd7e9177463bc4e3c19af70a9a18c64be984a1"
                },
                {
                    "hash" : "0x361fa0f6e3ae06aab3e0added5794e590effc7097dfb24902aaa3664cd891760",
                    "indexes" : {
                        "data" : 27,
                        "gas" : 0,
                        "value" : 0
                    },
                    "logs" : "0x1dcc4de8dec75d7aab85b567b6ccd41ad312451b948a7413f0a142fd40d49347",
                    "txbytes" : "0xf8a6800a8404c4b40094cccccccccccccccccccccccccccccccccccccccc01b8441a8451e6000000000000000000000000000000000000000000000000000000000000010600000000000000000000000000000000000000000000000000000000000000031ca0ec14ba8d5ce9de095dff0c90c857b07f1740379db894e616e6b4012e399950c1a0109af88b99507ae57648d4ddff0ee971d4b471932cc60d2981edb048abafa547"
                }
            ]
        },
        "pre" : {
            "0x0000000000000000000000000000000000000100" : {
                "balance" : "0x0ba1a9ce0ba1a9ce",
                "code" : "0x60106000fd00",
                "nonce" : "0x00",
                "storage" : {
                }
            },
            "0x0000000000000000000000000000000000000101" : {
                "balance" : "0x0ba1a9ce0ba1a9ce",
                "code" : "0x5b6001156013576301000000600020506000565b00",
                "nonce" : "0x00",
                "storage" : {
                }
            },
            "0x0000000000000000000000000000000000000102" : {
                "balance" : "0x0ba1a9ce0ba1a9ce",
                "code" : "0x600160000360002000",
                "nonce" : "0x00",
                "storage" : {
                }
            },
            "0x0000000000000000000000000000000000000103" : {
                "balance" : "0x0ba1a9ce0ba1a9ce",
                "code" : "0x610103600155600060006000600061dead6175305a03f450ba",
                "nonce" : "0x00",
                "storage" : {
                }
            },
            "0x0000000000000000000000000000000000000104" : {
                "balance" : "0x0ba1a9ce0ba1a9ce",
                "code" : "0x610104600155600060006000600061dead6175305a03f450600056",
                "nonce" : "0x00",
                "storage" : {
                }
            },
            "0x0000000000000000000000000000000000000105" : {
                "balance" : "0x0ba1a9ce0ba1a9ce",
                "code" : "0x0100",
                "nonce" : "0x00",
                "storage" : {
                }
            },
            "0x0000000000000000000000000000000000000106" : {
                "balance" : "0x0ba1a9ce0ba1a9ce",
                "code" : "0x5b586004580356",
                "nonce" : "0x00",
                "storage" : {
                }
            },
            "0xa94f5374fce5edbc8e2a8697c15331677e6ebf0b" : {
                "balance" : "0x100000000000",
                "code" : "0x",
                "nonce" : "0x00",
                "storage" : {
                }
            },
            "0xcccccccccccccccccccccccccccccccccccccccc" : {
                "balance" : "0x0ba1a9ce0ba1a9ce",
                "code" : "0x6000602435146100115760005061003b565b5a600052600060006000600060006004356175305a03f1505a602052602a60205160005103036000555b60016024351461004d57600050610075565b5a60005260006000600060006004356175305a03f4505a602052602760205160005103036000555b600260243514610087576000506100af565b5a60005260006000600060006004356175305a03fa505a602052602760205160005103036000555b6003602435146100c1576000506100eb565b5a600052600060006000600060006004356175305a03f1505a602052602a60205160005103036000555b63040000006000541161010057600054610105565b62ffffff5b60005500",
                "nonce" : "0x00",
                "storage" : {
                }
            }
        },
        "transaction" : {
            "data" : [
                "0x1a8451e600000000000000000000000000000000000000000000000000000000000001000000000000000000000000000000000000000000000000000000000000000000",
                "0x1a8451e600000000000000000000000000000000000000000000000000000000000001010000000000000000000000000000000000000000000000000000000000000000",
                "0x1a8451e600000000000000000000000000000000000000000000000000000000000001020000000000000000000000000000000000000000000000000000000000000000",
                "0x1a8451e600000000000000000000000000000000000000000000000000000000000001030000000000000000000000000000000000000000000000000000000000000000",
                "0x1a8451e600000000000000000000000000000000000000000000000000000000000001040000000000000000000000000000000000000000000000000000000000000000",
                "0x1a8451e600000000000000000000000000000000000000000000000000000000000001050000000000000000000000000000000000000000000000000000000000000000",
                "0x1a8451e600000000000000000000000000000000000000000000000000000000000001060000000000000000000000000000000000000000000000000000000000000000",
                "0x1a8451e600000000000000000000000000000000000000000000000000000000000001000000000000000000000000000000000000000000000000000000000000000001",
                "0x1a8451e600000000000000000000000000000000000000000000000000000000000001010000000000000000000000000000000000000000000000000000000000000001",
                "0x1a8451e600000000000000000000000000000000000000000000000000000000000001020000000000000000000000000000000000000000000000000000000000000001",
                "0x1a8451e600000000000000000000000000000000000000000000000000000000000001030000000000000000000000000000000000000000000000000000000000000001",
                "0x1a8451e600000000000000000000000000000000000000000000000000000000000001040000000000000000000000000000000000000000000000000000000000000001",
                "0x1a8451e600000000000000000000000000000000000000000000000000000000000001050000000000000000000000000000000000000000000000000000000000000001",
                "0x1a8451e600000000000000000000000000000000000000000000000000000000000001060000000000000000000000000000000000000000000000000000000000000001",
                "0x1a8451e600000000000000000000000000000000000000000000000000000000000001000000000000000000000000000000000000000000000000000000000000000002",
                "0x1a8451e600000000000000000000000000000000000000000000000000000000000001010000000000000000000000000000000000000000000000000000000000000002",
                "0x1a8451e600000000000000000000000000000000000000000000000000000000000001020000000000000000000000000000000000000000000000000000000000000002",
                "0x1a8451e600000000000000000000000000000000000000000000000000000000000001030000000000000000000000000000000000000000000000000000000000000002",
                "0x1a8451e600000000000000000000000000000000000000000000000000000000000001040000000000000000000000000000000000000000000000000000000000000002",
                "0x1a8451e600000000000000000000000000000000000000000000000000000000000001050000000000000000000000000000000000000000000000000000000000000002",
                "0x1a8451e600000000000000000000000000000000000000000000000000000000000001060000000000000000000000000000000000000000000000000000000000000002",
                "0x1a8451e600000000000000000000000000000000000000000000000000000000000001000000000000000000000000000000000000000000000000000000000000000003",
                "0x1a8451e600000000000000000000000000000000000000000000000000000000000001010000000000000000000000000000000000000000000000000000000000000003",
                "0x1a8451e600000000000000000000000000000000000000000000000000000000000001020000000000000000000000000000000000000000000000000000000000000003",
                "0x1a8451e600000000000000000000000000000000000000000000000000000000000001030000000000000000000000000000000000000000000000000000000000000003",
                "0x1a8451e600000000000000000000000000000000000000000000000000000000000001040000000000000000000000000000000000000000000000000000000000000003",
                "0x1a8451e600000000000000000000000000000000000000000000000000000000000001050000000000000000000000000000000000000000000000000000000000000003",
                "0x1a8451e600000000000000000000000000000000000000000000000000000000000001060000000000000000000000000000000000000000000000000000000000000003"
            ],
            "gasLimit" : [
                "0x04c4b400"
            ],
            "gasPrice" : "0x0a",
            "nonce" : "0x00",
            "secretKey" : "0x45a915e4d060149eb4365960e6a7a45f334393093061116b197e3240065ff2d8",
            "sender" : "0xa94f5374fce5edbc8e2a8697c15331677e6ebf0b",
            "to" : "0xcccccccccccccccccccccccccccccccccccccccc",
            "value" : [
                "0x01"
            ]
        }
    }
}