{
    "RevertOpcodeCreate" : {
        "_info" : {
            "comment" : "",
            "filling-rpc-server" : "evm version 1.14.4-unstable-3d8028a6-20240513",
            "filling-tool-version" : "retesteth-0.3.2-cancun+commit.2ab0208e.Linux.g++",
            "generatedTestHash" : "b784e99cb88fa8dee1fde4e77c3b191fe9ed6b884027ffbb0a70e83e4d727e08",
            "lllcversion" : "Version: 0.5.14-develop.2023.7.11+commit.c58ab2c6.mod.Linux.g++",
            "solidity" : "Version: 0.8.21+commit.d9974bed.Linux.g++",
            "source" : "src/GeneralStateTestsFiller/stRevertTest/RevertOpcodeCreateFiller.json",
            "sourceHash" : "8bf75f5b0be356d1135bf1164f975313e99fb4112f0abf245cf3bead232949a1"
        },
        "env" : {
            "currentBaseFee" : "0x0a",
            "currentCoinbase" : "0x2adc25665018aa1fe0e6bc666dac8fc2697ff9ba",
            "currentDifficulty" : "0x020000",
            "currentExcessBlobGas" : "0x00",
            "currentGasLimit" : "0x989680",
            "currentNumber" : "0x01",
            "currentRandom" : "0x0000000000000000000000000000000000000000000000000000000000020000",
            "currentTimestamp" : "0x03e8"
        },
        "post" : {
            "Cancun" : [
                {
                    "hash" : "0xd4374d43df82aa0442815320182f907f32b88646baf72b4a2e007f7d0f4222c6",
                    "indexes" : {
                        "data" : 0,
                        "gas" : 0,
                        "value" : 0
                    },
                    "logs" : "0x1dcc4de8dec75d7aab85b567b6ccd41ad312451b948a7413f0a142fd40d49347",
                    "txbytes" : "0xf86f800a830704e094b94f5374fce5edbc8e2a8697c15331677e6ebf0b808f600160005560016000fe60116001551ba0d5edd414de54afb709bd23f2e5dda1a01b1e96b3cfb5d730812fa37160a4f05ba028ba9657cea41957eeca7ea84ad2861d9701381f08a94de4b6eae629c59ec32e"
                },
                {
                    "hash" : "0xfa64b4828cec208c82fb9477e49c9ee56c776694cbff9bc54b6cc1d01b848079",
                    "indexes" : {
                        "data" : 0,
                        "gas" : 1,
                        "value" : 0
                    },
                    "logs" : "0x1dcc4de8dec75d7aab85b567b6ccd41ad312451b948a7413f0a142fd40d49347",
                    "txbytes" : "0xf86f800a8301117094b94f5374fce5edbc8e2a8697c15331677e6ebf0b808f600160005560016000fe60116001551ca01c0067161eb4a947f3634eadfb6eb4f1187913d69e32f62ffe19621650a96571a0554d1b57109a2120bfc3701fa29348b22333351428c028e2835b0ac7a3070a20"
                }
            ]
        },
        "pre" : {
            "0xa94f5374fce5edbc8e2a8697c15331677e6ebf0b" : {
                "balance" : "0xe8d4a51000",
                "code" : "0x",
                "nonce" : "0x00",
                "storage" : {
                }
            },
            "0xb94f5374fce5edbc8e2a8697c15331677e6ebf0b" : {
                "balance" : "0x01",
                "code" : "0x6e600160005560016000fd6011600155600052600f60116001f0600155600c60005500",
                "nonce" : "0x00",
                "storage" : {
                }
            }
        },
        "transaction" : {
            "data" : [
                "0x600160005560016000fe6011600155"
            ],
            "gasLimit" : [
                "0x0704e0",
                "0x011170"
            ],
            "gasPrice" : "0x0a",
            "nonce" : "0x00",
            "secretKey" : "0x45a915e4d060149eb4365960e6a7a45f334393093061116b197e3240065ff2d8",
            "sender" : "0xa94f5374fce5edbc8e2a8697c15331677e6ebf0b",
            "to" : "0xb94f5374fce5edbc8e2a8697c15331677e6ebf0b",
            "value" : [
                "0x00"
            ]
        }
    }
}