{
    "DUP_Bounds" : {
        "_info" : {
            "comment" : "",
            "filling-rpc-server" : "evm version 1.14.4-unstable-3d8028a6-20240513",
            "filling-tool-version" : "retesteth-0.3.2-cancun+commit.2ab0208e.Linux.g++",
            "generatedTestHash" : "e5c1d82748ab9c77f71c70cff9bdcad7bcdf35250ab15b7e52ef784c6c0ab2ff",
            "lllcversion" : "Version: 0.5.14-develop.2023.7.11+commit.c58ab2c6.mod.Linux.g++",
            "solidity" : "Version: 0.8.21+commit.d9974bed.Linux.g++",
            "source" : "src/GeneralStateTestsFiller/stMemoryStressTest/DUP_BoundsFiller.json",
            "sourceHash" : "ae7f83443b1d8cac24889f15047003eb4d9bc6fe364691ff3152d26ea44783cd"
        },
        "env" : {
            "currentBaseFee" : "0x0a",
            "currentCoinbase" : "0x2adc25665018aa1fe0e6bc666dac8fc2697ff9ba",
            "currentDifficulty" : "0x020000",
            "currentExcessBlobGas" : "0x00",
            "currentGasLimit" : "0x7fffffffffffffff",
            "currentNumber" : "0x01",
            "currentRandom" : "0x0000000000000000000000000000000000000000000000000000000000020000",
            "currentTimestamp" : "0x03e8"
        },
        "post" : {
            "Cancun" : [
                {
                    "hash" : "0xf733b01497f62bcc11273bf0f3730f555ad9d84ea858f4763d06d67c43dd5b03",
                    "indexes" : {
                        "data" : 0,
                        "gas" : 0,
                        "value" : 0
                    },
                    "logs" : "0x1dcc4de8dec75d7aab85b567b6ccd41ad312451b948a7413f0a142fd40d49347",
                    "txbytes" : "0xf860800a830249f094100000000000000000000000000000000000000001801ba0f56f3b98c5ed3c38d0e4e1e3e499b6ba9bda60fcf0f6a811d7979fb5d81cec53a00be599284605e5223d1fc0a043f56e1a6a9ec2802406f664cbfea850323aeabf"
                },
                {
                    "hash" : "0xf733b01497f62bcc11273bf0f3730f555ad9d84ea858f4763d06d67c43dd5b03",
                    "indexes" : {
                        "data" : 0,
                        "gas" : 1,
                        "value" : 0
                    },
                    "logs" : "0x1dcc4de8dec75d7aab85b567b6ccd41ad312451b948a7413f0a142fd40d49347",
                    "txbytes" : "0xf860800a830f424094100000000000000000000000000000000000000001801ca0762b992dfa4bdba09e74392a9a7f5ecca4dc51b6c532d754c85e43c1eb5a9b99a073aca7e77a140bce62bbbd4f9dd5e343d61b28d9829e78ea19d67b6b9cd5a0a6"
                },
                {
                    "hash" : "0xf733b01497f62bcc11273bf0f3730f555ad9d84ea858f4763d06d67c43dd5b03",
                    "indexes" : {
                        "data" : 0,
                        "gas" : 2,
                        "value" : 0
                    },
                    "logs" : "0x1dcc4de8dec75d7aab85b567b6ccd41ad312451b948a7413f0a142fd40d49347",
                    "txbytes" : "0xf861800a840ee6b28094100000000000000000000000000000000000000001801ba03640a6caf9899ca45eae05a4cf9012df3acee146ac86e6bf1dab1135d88963caa06a8076e5713e9298c2e8115b867a91f23a042d6b29b5c453b3700f1ce8a7d6d9"
                }
            ]
        },
        "pre" : {
            "0x1000000000000000000000000000000000000000" : {
                "balance" : "0x00",
                "code" : "0x600080505063ffffffff80505067ffffffffffffffff8050506fffffffffffffffffffffffffffffffff8050507fffffffffffffffffffffffffffffffffffffffffffffffffffffffffffffffff805050600060008150505063ffffffff63ffffffff8150505067ffffffffffffffff67ffffffffffffffff815050506fffffffffffffffffffffffffffffffff6fffffffffffffffffffffffffffffffff815050507fffffffffffffffffffffffffffffffffffffffffffffffffffffffffffffffff7fffffffffffffffffffffffffffffffffffffffffffffffffffffffffffffffff81505050600060006000825050505063ffffffff63ffffffff63ffffffff825050505067ffffffffffffffff67ffffffffffffffff67ffffffffffffffff82505050506fffffffffffffffffffffffffffffffff6fffffffffffffffffffffffffffffffff6fffffffffffffffffffffffffffffffff82505050507fffffffffffffffffffffffffffffffffffffffffffffffffffffffffffffffff7fffffffffffffffffffffffffffffffffffffffffffffffffffffffffffffffff7fffffffffffffffffffffffffffffffffffffffffffffffffffffffffffffffff8250505050600060006000600083505050505063ffffffff63ffffffff63ffffffff63ffffffff83505050505067ffffffffffffffff67ffffffffffffffff67ffffffffffffffff67ffffffffffffffff8350505050506fffffffffffffffffffffffffffffffff6fffffffffffffffffffffffffffffffff6fffffffffffffffffffffffffffffffff6fffffffffffffffffffffffffffffffff8350505050507fffffffffffffffffffffffffffffffffffffffffffffffffffffffffffffffff7fffffffffffffffffffffffffffffffffffffffffffffffffffffffffffffffff7fffffffffffffffffffffffffffffffffffffffffffffffffffffffffffffffff7fffffffffffffffffffffffffffffffffffffffffffffffffffffffffffffffff835050505050600060006000600060008450505050505063ffffffff63ffffffff63ffffffff63ffffffff63ffffffff8450505050505067ffffffffffffffff67ffffffffffffffff67ffffffffffffffff67ffffffffffffffff67ffffffffffffffff845050505050506fffffffffffffffffffffffffffffffff6fffffffffffffffffffffffffffffffff6fffffffffffffffffffffffffffffffff6fffffffffffffffffffffffffffffffff6fffffffffffffffffffffffffffffffff845050505050507fffffffffffffffffffffffffffffffffffffffffffffffffffffffffffffffff7fffffffffffffffffffffffffffffffffffffffffffffffffffffffffffffffff7fffffffffffffffffffffffffffffffffffffffffffffffffffffffffffffffff7fffffffffffffffffffffffffffffffffffffffffffffffffffffffffffffffff7fffffffffffffffffffffffffffffffffffffffffffffffffffffffffffffffff84505050505050600060006000600060006000855050505050505063ffffffff63ffffffff63ffffffff63ffffffff63ffffffff63ffffffff855050505050505067ffffffffffffffff67ffffffffffffffff67ffffffffffffffff67ffffffffffffffff67ffffffffffffffff67ffffffffffffffff85505050505050506fffffffffffffffffffffffffffffffff6fffffffffffffffffffffffffffffffff6fffffffffffffffffffffffffffffffff6fffffffffffffffffffffffffffffffff6fffffffffffffffffffffffffffffffff6fffffffffffffffffffffffffffffffff85505050505050507fffffffffffffffffffffffffffffffffffffffffffffffffffffffffffffffff7fffffffffffffffffffffffffffffffffffffffffffffffffffffffffffffffff7fffffffffffffffffffffffffffffffffffffffffffffffffffffffffffffffff7fffffffffffffffffffffffffffffffffffffffffffffffffffffffffffffffff7fffffffffffffffffffffffffffffffffffffffffffffffffffffffffffffffff7fffffffffffffffffffffffffffffffffffffffffffffffffffffffffffffffff8550505050505050600060006000600060006000600086505050505050505063ffffffff63ffffffff63ffffffff63ffffffff63ffffffff63ffffffff63ffffffff86505050505050505067ffffffffffffffff67ffffffffffffffff67ffffffffffffffff67ffffffffffffffff67ffffffffffffffff67ffffffffffffffff67ffffffffffffffff8650505050505050506fffffffffffffffffffffffffffffffff6fffffffffffffffffffffffffffffffff6fffffffffffffffffffffffffffffffff6fffffffffffffffffffffffffffffffff6fffffffffffffffffffffffffffffffff6fffffffffffffffffffffffffffffffff6fffffffffffffffffffffffffffffffff8650505050505050507fffffffffffffffffffffffffffffffffffffffffffffffffffffffffffffffff7fffffffffffffffffffffffffffffffffffffffffffffffffffffffffffffffff7fffffffffffffffffffffffffffffffffffffffffffffffffffffffffffffffff7fffffffffffffffffffffffffffffffffffffffffffffffffffffffffffffffff7fffffffffffffffffffffffffffffffffffffffffffffffffffffffffffffffff7fffffffffffffffffffffffffffffffffffffffffffffffffffffffffffffffff7fffffffffffffffffffffffffffffffffffffffffffffffffffffffffffffffff865050505050505050600060006000600060006000600060008750505050505050505063ffffffff63ffffffff63ffffffff63ffffffff63ffffffff63ffffffff63ffffffff63ffffffff8750505050505050505067ffffffffffffffff67ffffffffffffffff67ffffffffffffffff67ffffffffffffffff67ffffffffffffffff67ffffffffffffffff67ffffffffffffffff67ffffffffffffffff875050505050505050506fffffffffffffffffffffffffffffffff6fffffffffffffffffffffffffffffffff6fffffffffffffffffffffffffffffffff6fffffffffffffffffffffffffffffffff6fffffffffffffffffffffffffffffffff6fffffffffffffffffffffffffffffffff6fffffffffffffffffffffffffffffffff6fffffffffffffffffffffffffffffffff875050505050505050507fffffffffffffffffffffffffffffffffffffffffffffffffffffffffffffffff7fffffffffffffffffffffffffffffffffffffffffffffffffffffffffffffffff7fffffffffffffffffffffffffffffffffffffffffffffffffffffffffffffffff7fffffffffffffffffffffffffffffffffffffffffffffffffffffffffffffffff7fffffffffffffffffffffffffffffffffffffffffffffffffffffffffffffffff7fffffffffffffffffffffffffffffffffffffffffffffffffffffffffffffffff7fffffffffffffffffffffffffffffffffffffffffffffffffffffffffffffffff7fffffffffffffffffffffffffffffffffffffffffffffffffffffffffffffffff87",
                "nonce" : "0x00",
                "storage" : {
                }
            },
            "0xa94f5374fce5edbc8e2a8697c15331677e6ebf0b" : {
                "balance" : "0x7fffffffffffffff",
                "code" : "0x",
                "nonce" : "0x00",
                "storage" : {
                }
            }
        },
        "transaction" : {
            "data" : [
                "0x"
            ],
            "gasLimit" : [
                "0x0249f0",
                "0x0f4240",
                "0x0ee6b280"
            ],
            "gasPrice" : "0x0a",
            "nonce" : "0x00",
            "secretKey" : "0x45a915e4d060149eb4365960e6a7a45f334393093061116b197e3240065ff2d8",
            "sender" : "0xa94f5374fce5edbc8e2a8697c15331677e6ebf0b",
            "to" : "0x1000000000000000000000000000000000000000",
            "value" : [
                "0x01"
            ]
        }
    }
}