{
    "CallLowLevelCreatesSolidity" : {
        "_info" : {
            "comment" : "",
            "filling-rpc-server" : "evm version 1.14.4-unstable-3d8028a6-20240513",
            "filling-tool-version" : "retesteth-0.3.2-cancun+commit.2ab0208e.Linux.g++",
            "generatedTestHash" : "63a0032fb627e52f7bfb9e9df12cc4fa6237d1db3a57ae0226d2d58f846eeabc",
            "lllcversion" : "Version: 0.5.14-develop.2023.7.11+commit.c58ab2c6.mod.Linux.g++",
            "solidity" : "Version: 0.8.21+commit.d9974bed.Linux.g++",
            "source" : "src/GeneralStateTestsFiller/stSolidityTest/CallLowLevelCreatesSolidityFiller.json",
            "sourceHash" : "79c4cf51198a6b2a49e4017b638a584d8a381d0b1fe742d16c3e67a18cb00790"
        },
        "env" : {
            "currentBaseFee" : "0x0a",
            "currentCoinbase" : "0x2adc25665018aa1fe0e6bc666dac8fc2697ff9ba",
            "currentDifficulty" : "0x020000",
            "currentExcessBlobGas" : "0x00",
            "currentGasLimit" : "0x05f5e100",
            "currentNumber" : "0x01",
            "currentRandom" : "0x0000000000000000000000000000000000000000000000000000000000020000",
            "currentTimestamp" : "0x03e8"
        },
        "post" : {
            "Cancun" : [
                {
                    "hash" : "0x66406856312c8a63e245b40df0cbbfef257bee17b13598a27d2bd171b51cccdd",
                    "indexes" : {
                        "data" : 0,
                        "gas" : 0,
                        "value" : 0
                    },
                    "logs" : "0x1dcc4de8dec75d7aab85b567b6ccd41ad312451b948a7413f0a142fd40d49347",
                    "txbytes" : "0xf864800a8305573094095e7baea6a6c7c4c2dfeb977efac326af552d870184c04062261ca08ace2d28de65f8c8518280a42df3cb6691db78cd335dd296a5e805dd6e19f8b0a0473dc62994ef0bc26438486640fd602903e2076ec6af601c728ba1f1fa8aab64"
                }
            ]
        },
        "pre" : {
            "0x095e7baea6a6c7c4c2dfeb977efac326af552d87" : {
                "balance" : "0x0186a0",
                "code" : "0x60003560e060020a9004806330debb4214610021578063c04062261461003257005b61002c6004356100c7565b60006000f35b61003a610044565b8060005260206000f35b60006000600160008190555073095e7baea6a6c7c4c2dfeb977efac326af552d87600181905550606a6100d2600039606a60006000f0905080600160a060020a03166319ab453c600060008260e060020a026000526004600154600160a060020a03168152602001600060008660325a03f16100bc57005b505060005491505090565b80600081905550505600605e80600c6000396000f30060003560e060020a9004806319ab453c14601557005b601e6004356024565b60006000f35b80600160a060020a03166330debb42600060008260e060020a02600052600460e18152602001600060008660325a03f1605957005b50505056",
                "nonce" : "0x00",
                "storage" : {
                }
            },
            "0xa94f5374fce5edbc8e2a8697c15331677e6ebf0b" : {
                "balance" : "0x05f5e100",
                "code" : "0x",
                "nonce" : "0x00",
                "storage" : {
                }
            }
        },
        "transaction" : {
            "data" : [
                "0xc0406226"
            ],
            "gasLimit" : [
                "0x055730"
            ],
            "gasPrice" : "0x0a",
            "nonce" : "0x00",
            "secretKey" : "0x45a915e4d060149eb4365960e6a7a45f334393093061116b197e3240065ff2d8",
            "sender" : "0xa94f5374fce5edbc8e2a8697c15331677e6ebf0b",
            "to" : "0x095e7baea6a6c7c4c2dfeb977efac326af552d87",
            "value" : [
                "0x01"
            ]
        }
    }
}