{
    "TestContractInteraction" : {
        "_info" : {
            "comment" : "",
            "filling-rpc-server" : "evm version 1.14.4-unstable-3d8028a6-20240513",
            "filling-tool-version" : "retesteth-0.3.2-cancun+commit.2ab0208e.Linux.g++",
            "generatedTestHash" : "0e6354c25fbeba1e364763ea7c2379a4526b991a729dc7ffa52688e7199eab3a",
            "lllcversion" : "Version: 0.5.14-develop.2023.7.11+commit.c58ab2c6.mod.Linux.g++",
            "solidity" : "Version: 0.8.21+commit.d9974bed.Linux.g++",
            "source" : "src/GeneralStateTestsFiller/stSolidityTest/TestContractInteractionFiller.json",
            "sourceHash" : "e322f161ad876a9b2b1e149df31cb2df448813856141a50abe81258b62eec66d"
        },
        "env" : {
            "currentBaseFee" : "0x0a",
            "currentCoinbase" : "0x2adc25665018aa1fe0e6bc666dac8fc2697ff9ba",
            "currentDifficulty" : "0x020000",
            "currentExcessBlobGas" : "0x00",
            "currentGasLimit" : "0x05f5e100",
            "currentNumber" : "0x01",
            "currentRandom" : "0x0000000000000000000000000000000000000000000000000000000000020000",
            "currentTimestamp" : "0x03e8"
        },
        "post" : {
            "Cancun" : [
                {
                    "hash" : "0x0d88b7fd8f48773c629d991fb5901f3123fdd9ea54238bac4c4aa22558f6e699",
                    "indexes" : {
                        "data" : 0,
                        "gas" : 0,
                        "value" : 0
                    },
                    "logs" : "0x1dcc4de8dec75d7aab85b567b6ccd41ad312451b948a7413f0a142fd40d49347",
                    "txbytes" : "0xf864800a8305573094095e7baea6a6c7c4c2dfeb977efac326af552d870184c04062261ca08ace2d28de65f8c8518280a42df3cb6691db78cd335dd296a5e805dd6e19f8b0a0473dc62994ef0bc26438486640fd602903e2076ec6af601c728ba1f1fa8aab64"
                }
            ]
        },
        "pre" : {
            "0x095e7baea6a6c7c4c2dfeb977efac326af552d87" : {
                "balance" : "0x0186a0",
                "code" : "0x7c01000000000000000000000000000000000000000000000000000000006000350463c04062268114610039578063ed973fe91461004b57005b6100416100ea565b8060005260206000f35b61005361005d565b8060005260206000f35b60006000608161011a600039608160006000f0905073ffffffffffffffffffffffffffffffffffffffff811663b9c3d0a5602060007fb9c3d0a50000000000000000000000000000000000000000000000000000000081526004600060008660325a03f16100c757005b505060005160e1146100d8576100e1565b600191506100e6565b600091505b5090565b60006100f461005d565b600060006101000a81548160ff0219169083021790555060ff600160005404169050905600607580600c6000396000f3007c01000000000000000000000000000000000000000000000000000000006000350462f55d9d81146036578063b9c3d0a514604557005b603f6004356055565b60006000f35b604b6070565b8060005260206000f35b8073ffffffffffffffffffffffffffffffffffffffff16ff50565b60e19056",
                "nonce" : "0x00",
                "storage" : {
                }
            },
            "0xa94f5374fce5edbc8e2a8697c15331677e6ebf0b" : {
                "balance" : "0x05f5e100",
                "code" : "0x",
                "nonce" : "0x00",
                "storage" : {
                }
            }
        },
        "transaction" : {
            "data" : [
                "0xc0406226"
            ],
            "gasLimit" : [
                "0x055730"
            ],
            "gasPrice" : "0x0a",
            "nonce" : "0x00",
            "secretKey" : "0x45a915e4d060149eb4365960e6a7a45f334393093061116b197e3240065ff2d8",
            "sender" : "0xa94f5374fce5edbc8e2a8697c15331677e6ebf0b",
            "to" : "0x095e7baea6a6c7c4c2dfeb977efac326af552d87",
            "value" : [
                "0x01"
            ]
        }
    }
}