{
    "static_call_value_inherit_from_call" : {
        "_info" : {
            "comment" : "",
            "filling-rpc-server" : "evm version 1.14.4-unstable-3d8028a6-20240513",
            "filling-tool-version" : "retesteth-0.3.2-cancun+commit.2ab0208e.Linux.g++",
            "generatedTestHash" : "b365444a9c2482ee8d8d43a6ffdc93491fbd86c3c5ac1160e06d4f372309d421",
            "lllcversion" : "Version: 0.5.14-develop.2023.7.11+commit.c58ab2c6.mod.Linux.g++",
            "solidity" : "Version: 0.8.21+commit.d9974bed.Linux.g++",
            "source" : "src/GeneralStateTestsFiller/stStaticCall/static_call_value_inherit_from_callFiller.json",
            "sourceHash" : "3c46c990bc2780566e29b48c735781c37a684ad2283d4b7154ee649708231cf7"
        },
        "env" : {
            "currentBaseFee" : "0x0a",
            "currentCoinbase" : "0x2adc25665018aa1fe0e6bc666dac8fc2697ff9ba",
            "currentDifficulty" : "0x020000",
            "currentExcessBlobGas" : "0x00",
            "currentGasLimit" : "0x989680",
            "currentNumber" : "0x01",
            "currentRandom" : "0x0000000000000000000000000000000000000000000000000000000000020000",
            "currentTimestamp" : "0x03e8"
        },
        "post" : {
            "Cancun" : [
                {
                    "hash" : "0xae762b56fc85b82046022eedd44abc36ebbf560d8507476425a3bad16ee4fecd",
                    "indexes" : {
                        "data" : 0,
                        "gas" : 0,
                        "value" : 0
                    },
                    "logs" : "0x1dcc4de8dec75d7aab85b567b6ccd41ad312451b948a7413f0a142fd40d49347",
                    "txbytes" : "0xf860800a830704e094c8b90f8d999d9d9988209481999a9889098a89a00a801ba015bd7a44e39b3f98ab5b08c3034173b8e4b2be8507b3a1ca0fa99def5a8a35c6a06d89cd6d72a710e3c53662f0f29031985a150d38789e88d1b2c32ba5a473849d"
                }
            ]
        },
        "pre" : {
            "0x094f5374fce5edbc8e2a8697c15331677e6ebf0b" : {
                "balance" : "0x01",
                "code" : "0x602060006000600073c94f5374fce5edbc8e2a8697c15331677e6ebf0b61c350fa60005560005160015500",
                "nonce" : "0x00",
                "storage" : {
                    "0x01" : "0x01"
                }
            },
            "0xa94f5374fce5edbc8e2a8697c15331677e6ebf0b" : {
                "balance" : "0xe8d4a51000",
                "code" : "0x",
                "nonce" : "0x00",
                "storage" : {
                }
            },
            "0xc8b90f8d999d9d9988209481999a9889098a89a0" : {
                "balance" : "0x00",
                "code" : "0x6000600060006000600a73094f5374fce5edbc8e2a8697c15331677e6ebf0b620186a0f100",
                "nonce" : "0x00",
                "storage" : {
                }
            },
            "0xc94f5374fce5edbc8e2a8697c15331677e6ebf0b" : {
                "balance" : "0x01",
                "code" : "0x3460005260206000f300",
                "nonce" : "0x00",
                "storage" : {
                }
            }
        },
        "transaction" : {
            "data" : [
                "0x"
            ],
            "gasLimit" : [
                "0x0704e0"
            ],
            "gasPrice" : "0x0a",
            "nonce" : "0x00",
            "secretKey" : "0x45a915e4d060149eb4365960e6a7a45f334393093061116b197e3240065ff2d8",
            "sender" : "0xa94f5374fce5edbc8e2a8697c15331677e6ebf0b",
            "to" : "0xc8b90f8d999d9d9988209481999a9889098a89a0",
            "value" : [
                "0x0a"
            ]
        }
    }
}