{
    "static_ABAcalls0" : {
        "_info" : {
            "comment" : "",
            "filling-rpc-server" : "evm version 1.14.4-unstable-3d8028a6-20240513",
            "filling-tool-version" : "retesteth-0.3.2-cancun+commit.2ab0208e.Linux.g++",
            "generatedTestHash" : "705a60edd63fcf3dbc14b828eacb64ec6187ca4b9392b0423d5906c95a84ac4b",
            "lllcversion" : "Version: 0.5.14-develop.2023.7.11+commit.c58ab2c6.mod.Linux.g++",
            "solidity" : "Version: 0.8.21+commit.d9974bed.Linux.g++",
            "source" : "src/GeneralStateTestsFiller/stStaticCall/static_ABAcalls0Filler.json",
            "sourceHash" : "5101cb15e89f132165c2a2ed820cca4a818d72f28bdfc3772b28206b15e1c3f4"
        },
        "env" : {
            "currentBaseFee" : "0x0a",
            "currentCoinbase" : "0x2adc25665018aa1fe0e6bc666dac8fc2697ff9ba",
            "currentDifficulty" : "0x020000",
            "currentExcessBlobGas" : "0x00",
            "currentGasLimit" : "0x989680",
            "currentNumber" : "0x01",
            "currentRandom" : "0x0000000000000000000000000000000000000000000000000000000000020000",
            "currentTimestamp" : "0x03e8"
        },
        "post" : {
            "Cancun" : [
                {
                    "hash" : "0x75dc4c5a9a8dfb71ae9bb0d8b4e234632aad3dce4900a5c636fe6e48f87242e5",
                    "indexes" : {
                        "data" : 0,
                        "gas" : 0,
                        "value" : 0
                    },
                    "logs" : "0x1dcc4de8dec75d7aab85b567b6ccd41ad312451b948a7413f0a142fd40d49347",
                    "txbytes" : "0xf883800a830f4240941000000000000000000000000000000000000000830186a0a0000000000000000000000000095e7baea6a6c7c4c2dfeb977efac326af552d871ba09d136895ce0470c68607475c5bff239e915b82b698318727487b937ea6f3c95aa01a5966ef37ae086420cd3f1a58d777faa3decd816153903b8d257f3d0e53fa93"
                },
                {
                    "hash" : "0x146f3e9fe577739a2432a0fe02bd1fdfaf578567763c9171d70f455da18f89d0",
                    "indexes" : {
                        "data" : 1,
                        "gas" : 0,
                        "value" : 0
                    },
                    "logs" : "0x1dcc4de8dec75d7aab85b567b6ccd41ad312451b948a7413f0a142fd40d49347",
                    "txbytes" : "0xf883800a830f4240941000000000000000000000000000000000000000830186a0a0000000000000000000000000195e7baea6a6c7c4c2dfeb977efac326af552d871ca0037bdc35f16c61313548efa51e6baf1946811d19937b9b4cec91fe5ddf428aeba061bafab3c0390cb3ce3e02b0d3b6a537f6e8d43d5058630e2931d60aaf4ef78b"
                }
            ]
        },
        "pre" : {
            "0x095e7baea6a6c7c4c2dfeb977efac326af552d87" : {
                "balance" : "0x0de0b6b3a7640000",
                "code" : "0x600060006000600073945304eb96065b2a98b57a48a06ae28d285a71b5620186a0fa585500",
                "nonce" : "0x00",
                "storage" : {
                }
            },
            "0x1000000000000000000000000000000000000000" : {
                "balance" : "0x0de0b6b3a7640000",
                "code" : "0x6000600060006000346000355af1600055600160015500",
                "nonce" : "0x00",
                "storage" : {
                }
            },
            "0x195e7baea6a6c7c4c2dfeb977efac326af552d87" : {
                "balance" : "0x0de0b6b3a7640000",
                "code" : "0x58600152600060006000600073245304eb96065b2a98b57a48a06ae28d285a71b5620186a0fa00",
                "nonce" : "0x00",
                "storage" : {
                }
            },
            "0x245304eb96065b2a98b57a48a06ae28d285a71b5" : {
                "balance" : "0x17",
                "code" : "0x58600152600060006000600073195e7baea6a6c7c4c2dfeb977efac326af552d8761c350fa00",
                "nonce" : "0x00",
                "storage" : {
                }
            },
            "0x945304eb96065b2a98b57a48a06ae28d285a71b5" : {
                "balance" : "0x17",
                "code" : "0x600060006000600073095e7baea6a6c7c4c2dfeb977efac326af552d8761c350fa600101585500",
                "nonce" : "0x00",
                "storage" : {
                }
            },
            "0xa94f5374fce5edbc8e2a8697c15331677e6ebf0b" : {
                "balance" : "0x0de0b6b3a7640000",
                "code" : "0x",
                "nonce" : "0x00",
                "storage" : {
                }
            }
        },
        "transaction" : {
            "data" : [
                "0x000000000000000000000000095e7baea6a6c7c4c2dfeb977efac326af552d87",
                "0x000000000000000000000000195e7baea6a6c7c4c2dfeb977efac326af552d87"
            ],
            "gasLimit" : [
                "0x0f4240"
            ],
            "gasPrice" : "0x0a",
            "nonce" : "0x00",
            "secretKey" : "0x45a915e4d060149eb4365960e6a7a45f334393093061116b197e3240065ff2d8",
            "sender" : "0xa94f5374fce5edbc8e2a8697c15331677e6ebf0b",
            "to" : "0x1000000000000000000000000000000000000000",
            "value" : [
                "0x0186a0"
            ]
        }
    }
}