{
    "static_ABAcalls3" : {
        "_info" : {
            "comment" : "",
            "filling-rpc-server" : "evm version 1.14.4-unstable-3d8028a6-20240513",
            "filling-tool-version" : "retesteth-0.3.2-cancun+commit.2ab0208e.Linux.g++",
            "generatedTestHash" : "2f15fc0c93d25921763033dbef2de93d365879294afbcc1fd35d5c5680b9dc6e",
            "lllcversion" : "Version: 0.5.14-develop.2023.7.11+commit.c58ab2c6.mod.Linux.g++",
            "solidity" : "Version: 0.8.21+commit.d9974bed.Linux.g++",
            "source" : "src/GeneralStateTestsFiller/stStaticCall/static_ABAcalls3Filler.json",
            "sourceHash" : "ac3a40d26dcf5bd23d296642a08b5bdc324c0aa9f9c0f4cf237b17c682bdc744"
        },
        "env" : {
            "currentBaseFee" : "0x0a",
            "currentCoinbase" : "0x2adc25665018aa1fe0e6bc666dac8fc2697ff9ba",
            "currentDifficulty" : "0x020000",
            "currentExcessBlobGas" : "0x00",
            "currentGasLimit" : "0x3b9aca00",
            "currentNumber" : "0x01",
            "currentRandom" : "0x0000000000000000000000000000000000000000000000000000000000020000",
            "currentTimestamp" : "0x03e8"
        },
        "post" : {
            "Cancun" : [
                {
                    "hash" : "0x8f3d8e30c8225e818f2fa2980187214a82006f7be3311bea33afb8998f0df7f0",
                    "indexes" : {
                        "data" : 0,
                        "gas" : 0,
                        "value" : 0
                    },
                    "logs" : "0x1dcc4de8dec75d7aab85b567b6ccd41ad312451b948a7413f0a142fd40d49347",
                    "txbytes" : "0xf883800a83989680941000000000000000000000000000000000000000830186a0a0000000000000000000000000095e7baea6a6c7c4c2dfeb977efac326af552d871ba03674fcb63609cd71c51805c258b15e7cd1934bfcf749c4176810d314a585abd3a00afbe1fe69fd381dc0934227cfb1e6218176ccd4cd358b43a36c7b4969fa67eb"
                },
                {
                    "hash" : "0xa69b929f8bca73d38581445791014515eec9fba3100fd16b9ecec3c0d998ac3e",
                    "indexes" : {
                        "data" : 1,
                        "gas" : 0,
                        "value" : 0
                    },
                    "logs" : "0x1dcc4de8dec75d7aab85b567b6ccd41ad312451b948a7413f0a142fd40d49347",
                    "txbytes" : "0xf883800a83989680941000000000000000000000000000000000000000830186a0a0000000000000000000000000195e7baea6a6c7c4c2dfeb977efac326af552d871ba0ddd17b28ea282a3246d40c121250322a72b15d5b7986a359e475a74d9953ab33a0085575043cc90b9a2fcf7a3505d85661a25255e400cce3cba54a25398103b6cd"
                }
            ]
        },
        "pre" : {
            "0x095e7baea6a6c7c4c2dfeb977efac326af552d87" : {
                "balance" : "0x0fa3e8",
                "code" : "0x600160005401600055600060006000600073945304eb96065b2a98b57a48a06ae28d285a71b5620186a05a03fa00",
                "nonce" : "0x00",
                "storage" : {
                }
            },
            "0x1000000000000000000000000000000000000000" : {
                "balance" : "0x00",
                "code" : "0x6000600060006000346000355af1600055600160015500",
                "nonce" : "0x00",
                "storage" : {
                }
            },
            "0x195e7baea6a6c7c4c2dfeb977efac326af552d87" : {
                "balance" : "0x0fa3e8",
                "code" : "0x600160005401600052600060006000600073245304eb96065b2a98b57a48a06ae28d285a71b5620186a05a03fa00",
                "nonce" : "0x00",
                "storage" : {
                }
            },
            "0x245304eb96065b2a98b57a48a06ae28d285a71b5" : {
                "balance" : "0x00",
                "code" : "0x600160005401600052600060006000600073195e7baea6a6c7c4c2dfeb977efac326af552d87620186a05a03fa00",
                "nonce" : "0x00",
                "storage" : {
                }
            },
            "0x945304eb96065b2a98b57a48a06ae28d285a71b5" : {
                "balance" : "0x00",
                "code" : "0x600160005401600055600060006000600073095e7baea6a6c7c4c2dfeb977efac326af552d87620186a05a03fa00",
                "nonce" : "0x00",
                "storage" : {
                }
            },
            "0xa94f5374fce5edbc8e2a8697c15331677e6ebf0b" : {
                "balance" : "0x0de0b6b3a7640000",
                "code" : "0x",
                "nonce" : "0x00",
                "storage" : {
                }
            }
        },
        "transaction" : {
            "data" : [
                "0x000000000000000000000000095e7baea6a6c7c4c2dfeb977efac326af552d87",
                "0x000000000000000000000000195e7baea6a6c7c4c2dfeb977efac326af552d87"
            ],
            "gasLimit" : [
                "0x989680"
            ],
            "gasPrice" : "0x0a",
            "nonce" : "0x00",
            "secretKey" : "0x45a915e4d060149eb4365960e6a7a45f334393093061116b197e3240065ff2d8",
            "sender" : "0xa94f5374fce5edbc8e2a8697c15331677e6ebf0b",
            "to" : "0x1000000000000000000000000000000000000000",
            "value" : [
                "0x0186a0"
            ]
        }
    }
}