{
    "static_RawCallGasAsk" : {
        "_info" : {
            "comment" : "",
            "filling-rpc-server" : "evm version 1.14.4-unstable-3d8028a6-20240513",
            "filling-tool-version" : "retesteth-0.3.2-cancun+commit.2ab0208e.Linux.g++",
            "generatedTestHash" : "5a49c469a721178addf7f50cd746962fb04a6f138aa63b453dff8b8177439ea9",
            "lllcversion" : "Version: 0.5.14-develop.2023.7.11+commit.c58ab2c6.mod.Linux.g++",
            "solidity" : "Version: 0.8.21+commit.d9974bed.Linux.g++",
            "source" : "src/GeneralStateTestsFiller/stStaticCall/static_RawCallGasAskFiller.json",
            "sourceHash" : "851f335edcb9dd98cb1760d7e9dc9b267dd9c5022791eadcc616350a3324c6ab"
        },
        "env" : {
            "currentBaseFee" : "0x0a",
            "currentCoinbase" : "0x2adc25665018aa1fe0e6bc666dac8fc2697ff9ba",
            "currentDifficulty" : "0x020000",
            "currentExcessBlobGas" : "0x00",
            "currentGasLimit" : "0x989680",
            "currentNumber" : "0x01",
            "currentRandom" : "0x0000000000000000000000000000000000000000000000000000000000020000",
            "currentTimestamp" : "0x03e8"
        },
        "post" : {
            "Cancun" : [
                {
                    "hash" : "0x9f4cce6f259934cec1ba66fdce17b2ca65fc18bad3f9a28a15bb5043d5a809d6",
                    "indexes" : {
                        "data" : 0,
                        "gas" : 0,
                        "value" : 0
                    },
                    "logs" : "0x1dcc4de8dec75d7aab85b567b6ccd41ad312451b948a7413f0a142fd40d49347",
                    "txbytes" : "0xf880800a830f424094100000000000000000000000000000000000000080a000000000000000000000000010000000000000000000000000000000000000011ba0ca40286cf510dd110911c6af510abd371016c753d97a4a306498c7e5e0a37f7fa00c0e0cd7f37671b9086387e571267b36b02bceed7978227cef9d14c2d6bd8429"
                },
                {
                    "hash" : "0x471002fbb534161123c5e7e22cea400e4bac14ae519b6af2c3cea2aa45eb4d0d",
                    "indexes" : {
                        "data" : 1,
                        "gas" : 0,
                        "value" : 0
                    },
                    "logs" : "0x1dcc4de8dec75d7aab85b567b6ccd41ad312451b948a7413f0a142fd40d49347",
                    "txbytes" : "0xf880800a830f424094100000000000000000000000000000000000000080a000000000000000000000000020000000000000000000000000000000000000011ba0ba980204ef9d34737a326b503432984d6b3724a24c2ee1334a9f47b838f94625a062922ac8f39378bacdfc45793f527e1923e7aa99502b350e65b4a206a7ec2941"
                },
                {
                    "hash" : "0x450b069dd451bcf2386057e2a4940bf24ac40e89aaca1d7afe8c650601298b99",
                    "indexes" : {
                        "data" : 2,
                        "gas" : 0,
                        "value" : 0
                    },
                    "logs" : "0x1dcc4de8dec75d7aab85b567b6ccd41ad312451b948a7413f0a142fd40d49347",
                    "txbytes" : "0xf880800a830f424094100000000000000000000000000000000000000080a000000000000000000000000030000000000000000000000000000000000000011ba07824aed1c1cfe024f3da4846d5f51126a6c7e980d70b63cb4e89c8785e7949dba02e48e80ef66529c7e82a60df59443c777bbf10fda01b9caac1c5a85c52d600ad"
                },
                {
                    "hash" : "0x294f166815f0267c2d69d4bf5aa90794bbb30f63313d2aaa8a0e8cb6bbe00078",
                    "indexes" : {
                        "data" : 3,
                        "gas" : 0,
                        "value" : 0
                    },
                    "logs" : "0x1dcc4de8dec75d7aab85b567b6ccd41ad312451b948a7413f0a142fd40d49347",
                    "txbytes" : "0xf880800a830f424094100000000000000000000000000000000000000080a000000000000000000000000040000000000000000000000000000000000000011ca0a23bede74153162a10f3a3c3d88e4aeb8e7656e1974a82f231e84b6c91fbbf5aa07cca804453cb41b24a9c65e78a2ff2fc58e4d9734e9110af5f6422cba3066bc2"
                }
            ]
        },
        "pre" : {
            "0x094f5374fce5edbc8e2a8697c15331677e6ebf0b" : {
                "balance" : "0x00",
                "code" : "0x5a60005200",
                "nonce" : "0x00",
                "storage" : {
                }
            },
            "0x1000000000000000000000000000000000000000" : {
                "balance" : "0xe8d4a51000",
                "code" : "0x600060006000600060006000355af100",
                "nonce" : "0x00",
                "storage" : {
                }
            },
            "0x1000000000000000000000000000000000000001" : {
                "balance" : "0x00",
                "code" : "0x600060006000600073094f5374fce5edbc8e2a8697c15331677e6ebf0b622dc6c0fa505a60015500",
                "nonce" : "0x00",
                "storage" : {
                }
            },
            "0x2000000000000000000000000000000000000001" : {
                "balance" : "0x00",
                "code" : "0x600060006000600073094f5374fce5edbc8e2a8697c15331677e6ebf0b6201fbd0fa505a60015500",
                "nonce" : "0x00",
                "storage" : {
                }
            },
            "0x3000000000000000000000000000000000000001" : {
                "balance" : "0x00",
                "code" : "0x611f406000611f40600073094f5374fce5edbc8e2a8697c15331677e6ebf0b622dc6c0fa505a60015500",
                "nonce" : "0x00",
                "storage" : {
                }
            },
            "0x4000000000000000000000000000000000000001" : {
                "balance" : "0x00",
                "code" : "0x611f406000611f40600073094f5374fce5edbc8e2a8697c15331677e6ebf0b6201fbd0fa505a60015500",
                "nonce" : "0x00",
                "storage" : {
                }
            },
            "0xa94f5374fce5edbc8e2a8697c15331677e6ebf0b" : {
                "balance" : "0xe8d4a51000",
                "code" : "0x",
                "nonce" : "0x00",
                "storage" : {
                }
            }
        },
        "transaction" : {
            "data" : [
                "0x0000000000000000000000001000000000000000000000000000000000000001",
                "0x0000000000000000000000002000000000000000000000000000000000000001",
                "0x0000000000000000000000003000000000000000000000000000000000000001",
                "0x0000000000000000000000004000000000000000000000000000000000000001"
            ],
            "gasLimit" : [
                "0x0f4240"
            ],
            "gasPrice" : "0x0a",
            "nonce" : "0x00",
            "secretKey" : "0x45a915e4d060149eb4365960e6a7a45f334393093061116b197e3240065ff2d8",
            "sender" : "0xa94f5374fce5edbc8e2a8697c15331677e6ebf0b",
            "to" : "0x1000000000000000000000000000000000000000",
            "value" : [
                "0x00"
            ]
        }
    }
}