{
    "static_CheckCallCostOOG" : {
        "_info" : {
            "comment" : "Check balance in blackbox, just fill the balance consumed",
            "filling-rpc-server" : "evm version 1.14.4-unstable-3d8028a6-20240513",
            "filling-tool-version" : "retesteth-0.3.2-cancun+commit.2ab0208e.Linux.g++",
            "generatedTestHash" : "db6629081ddf264e3d5457f580a15b5076cd5bf587ab9dab545154b893c1b70b",
            "lllcversion" : "Version: 0.5.14-develop.2023.7.11+commit.c58ab2c6.mod.Linux.g++",
            "solidity" : "Version: 0.8.21+commit.d9974bed.Linux.g++",
            "source" : "src/GeneralStateTestsFiller/stStaticCall/static_CheckCallCostOOGFiller.json",
            "sourceHash" : "9b95a49e5ae7e8518cfa7fa7a29daf11fd95dc89e979001eadfa6607016de823"
        },
        "env" : {
            "currentBaseFee" : "0x0a",
            "currentCoinbase" : "0x2adc25665018aa1fe0e6bc666dac8fc2697ff9ba",
            "currentDifficulty" : "0x020000",
            "currentExcessBlobGas" : "0x00",
            "currentGasLimit" : "0x989680",
            "currentNumber" : "0x01",
            "currentRandom" : "0x0000000000000000000000000000000000000000000000000000000000020000",
            "currentTimestamp" : "0x03e8"
        },
        "post" : {
            "Cancun" : [
                {
                    "hash" : "0x627da1578db9dc104025104be8041b54398cfbaebad3421d0f928aa37c511a00",
                    "indexes" : {
                        "data" : 0,
                        "gas" : 0,
                        "value" : 0
                    },
                    "logs" : "0x1dcc4de8dec75d7aab85b567b6ccd41ad312451b948a7413f0a142fd40d49347",
                    "txbytes" : "0xf85f800a8255f094100000000000000000000000000000000000000080801ba040185a046592c0d18a1b27e18337675fd85a2e38612b9a5932c6c9a2169272d9a072f913a418c724bf98d64130e584d7385d68fc2ce5b6af87e9fece115df90c1d"
                },
                {
                    "hash" : "0xf593d5ec1481773f9cb40f4afa6d953526149977830238054b0198c7cdfcb734",
                    "indexes" : {
                        "data" : 0,
                        "gas" : 1,
                        "value" : 0
                    },
                    "logs" : "0x1dcc4de8dec75d7aab85b567b6ccd41ad312451b948a7413f0a142fd40d49347",
                    "txbytes" : "0xf860800a830f424094100000000000000000000000000000000000000080801ba0878fccf1801724b1bfb5b0a67d68454b9c56fe9e3753200bc36cd66eed5636eca00dc53455b0e859433799ddbe3c16f98e70c52b6bf684992d9907dc9d1ccb03f1"
                }
            ]
        },
        "pre" : {
            "0x1000000000000000000000000000000000000000" : {
                "balance" : "0x00",
                "code" : "0x60006000600060007320000000000000000000000000000000000000006064fa00",
                "nonce" : "0x00",
                "storage" : {
                }
            },
            "0x2000000000000000000000000000000000000000" : {
                "balance" : "0x00",
                "code" : "0x6001600152622fffff60002000",
                "nonce" : "0x00",
                "storage" : {
                }
            },
            "0xa94f5374fce5edbc8e2a8697c15331677e6ebf0b" : {
                "balance" : "0x5af3107a4000",
                "code" : "0x",
                "nonce" : "0x00",
                "storage" : {
                }
            }
        },
        "transaction" : {
            "data" : [
                "0x"
            ],
            "gasLimit" : [
                "0x55f0",
                "0x0f4240"
            ],
            "gasPrice" : "0x0a",
            "nonce" : "0x00",
            "secretKey" : "0x45a915e4d060149eb4365960e6a7a45f334393093061116b197e3240065ff2d8",
            "sender" : "0xa94f5374fce5edbc8e2a8697c15331677e6ebf0b",
            "to" : "0x1000000000000000000000000000000000000000",
            "value" : [
                "0x00"
            ]
        }
    }
}