{
    "static_CheckOpcodes4" : {
        "_info" : {
            "comment" : "",
            "filling-rpc-server" : "evm version 1.14.4-unstable-3d8028a6-20240513",
            "filling-tool-version" : "retesteth-0.3.2-cancun+commit.2ab0208e.Linux.g++",
            "generatedTestHash" : "83690d169634fcddc49f1c1f286627640e07e6e5cc64fac4a919e666f91b24fa",
            "lllcversion" : "Version: 0.5.14-develop.2023.7.11+commit.c58ab2c6.mod.Linux.g++",
            "solidity" : "Version: 0.8.21+commit.d9974bed.Linux.g++",
            "source" : "src/GeneralStateTestsFiller/stStaticCall/static_CheckOpcodes4Filler.json",
            "sourceHash" : "e117954fbbed61d11f3f0d1aa3781f6d102b00c6e5a20c028787f5ecade803cd"
        },
        "env" : {
            "currentBaseFee" : "0x0a",
            "currentCoinbase" : "0x2adc25665018aa1fe0e6bc666dac8fc2697ff9ba",
            "currentDifficulty" : "0x020000",
            "currentExcessBlobGas" : "0x00",
            "currentGasLimit" : "0x989680",
            "currentNumber" : "0x01",
            "currentRandom" : "0x0000000000000000000000000000000000000000000000000000000000020000",
            "currentTimestamp" : "0x03e8"
        },
        "post" : {
            "Cancun" : [
                {
                    "hash" : "0xd3398060db7e66f492bb914f095ace368a18379dbefd74a0199b9046e7793222",
                    "indexes" : {
                        "data" : 0,
                        "gas" : 1,
                        "value" : 0
                    },
                    "logs" : "0x1dcc4de8dec75d7aab85b567b6ccd41ad312451b948a7413f0a142fd40d49347",
                    "txbytes" : "0xf860800a83051c9894100000000000000000000000000000000000000080801ba0489ad5a390bdd2c02913d512ea0bf3630d64d3b4c96d25df2b6610d22d9a7c10a00d31aa79a65b0fa02d26cfb3ad71def707305dd3b220184913a55f216b020fde"
                },
                {
                    "hash" : "0x50052d47dc95b0fea8a838db3b73e259faf6cfc6f5d8281895879acf707c87fd",
                    "indexes" : {
                        "data" : 0,
                        "gas" : 0,
                        "value" : 0
                    },
                    "logs" : "0x1dcc4de8dec75d7aab85b567b6ccd41ad312451b948a7413f0a142fd40d49347",
                    "txbytes" : "0xf85f800a82c35094100000000000000000000000000000000000000080801ca05cea5cc7518c5ea6a01851bea2dcefa5b0c4fd0ad0c11f383ac20263a07afb03a050c1112df28fa0b248f53ea877f5eea0e0f8de9c886c68d53095f6b54f073bce"
                },
                {
                    "hash" : "0x50052d47dc95b0fea8a838db3b73e259faf6cfc6f5d8281895879acf707c87fd",
                    "indexes" : {
                        "data" : 0,
                        "gas" : 0,
                        "value" : 1
                    },
                    "logs" : "0x1dcc4de8dec75d7aab85b567b6ccd41ad312451b948a7413f0a142fd40d49347",
                    "txbytes" : "0xf85f800a82c35094100000000000000000000000000000000000000064801ba075c592ea52ad4f81b79f20e48661e73d7368a6a54e26aad367cc42a12a4c3770a0755a679c3bdce61ee290f25fda5d781a01eee2998eacdedad6e05d623425aa9a"
                },
                {
                    "hash" : "0xf454965664980ee636555a30c937d11c455de7f5d0ceb5a4188ea0c347f973ae",
                    "indexes" : {
                        "data" : 0,
                        "gas" : 1,
                        "value" : 1
                    },
                    "logs" : "0x1dcc4de8dec75d7aab85b567b6ccd41ad312451b948a7413f0a142fd40d49347",
                    "txbytes" : "0xf860800a83051c9894100000000000000000000000000000000000000064801ba07e531536b6fe1146a0727e85ff99d42465b12d84d2cad8bffc4a574086822e33a079ea956fb554b0ea2aeb7a632dfdf9aa629ff16618a71ef1fc81a2a0c5459859"
                }
            ]
        },
        "pre" : {
            "0x1000000000000000000000000000000000000000" : {
                "balance" : "0x00",
                "code" : "0x6000600060006000731000000000000000000000000000000000000001620186a0fa6001556000600060006000731000000000000000000000000000000000000002620186a0fa6002553360035534600455326005553060065500",
                "nonce" : "0x00",
                "storage" : {
                }
            },
            "0x1000000000000000000000000000000000000001" : {
                "balance" : "0x00",
                "code" : "0x3273a94f5374fce5edbc8e2a8697c15331677e6ebf0b1460225760026001556028565b60016001525b3373100000000000000000000000000000000000000014604b5760026001556051565b60016001525b30731000000000000000000000000000000000000001146074576002600155607a565b60016001525b34600014608a5760026001556090565b60016001525b00",
                "nonce" : "0x00",
                "storage" : {
                }
            },
            "0x1000000000000000000000000000000000000002" : {
                "balance" : "0x00",
                "code" : "0x3273a94f5374fce5edbc8e2a8697c15331677e6ebf0b1460225760026001556028565b60016001525b3373100000000000000000000000000000000000000014604b5760026001556051565b60016001525b30731000000000000000000000000000000000000002146074576002600155607a565b60016001525b34600014608a5760026001556090565b60016001525b00",
                "nonce" : "0x00",
                "storage" : {
                }
            },
            "0xa94f5374fce5edbc8e2a8697c15331677e6ebf0b" : {
                "balance" : "0xe8d4a51000",
                "code" : "0x",
                "nonce" : "0x00",
                "storage" : {
                }
            }
        },
        "transaction" : {
            "data" : [
                "0x"
            ],
            "gasLimit" : [
                "0xc350",
                "0x051c98"
            ],
            "gasPrice" : "0x0a",
            "nonce" : "0x00",
            "secretKey" : "0x45a915e4d060149eb4365960e6a7a45f334393093061116b197e3240065ff2d8",
            "sender" : "0xa94f5374fce5edbc8e2a8697c15331677e6ebf0b",
            "to" : "0x1000000000000000000000000000000000000000",
            "value" : [
                "0x00",
                "0x64"
            ]
        }
    }
}