{
    "static_callcodecallcallcode_ABCB_RECURSIVE2" : {
        "_info" : {
            "comment" : "",
            "filling-rpc-server" : "evm version 1.14.4-unstable-3d8028a6-20240513",
            "filling-tool-version" : "retesteth-0.3.2-cancun+commit.2ab0208e.Linux.g++",
            "generatedTestHash" : "287fa041b8ac8c578de4c467d3881e2e6334bc7d9ede819ef7d2147db224a56c",
            "lllcversion" : "Version: 0.5.14-develop.2023.7.11+commit.c58ab2c6.mod.Linux.g++",
            "solidity" : "Version: 0.8.21+commit.d9974bed.Linux.g++",
            "source" : "src/GeneralStateTestsFiller/stStaticCall/static_callcodecallcallcode_ABCB_RECURSIVE2Filler.json",
            "sourceHash" : "7bbc37744755f3474ece7f81458a87c3f58855fa37fea4af3d0dd1e08b1abcff"
        },
        "env" : {
            "currentBaseFee" : "0x0a",
            "currentCoinbase" : "0x2adc25665018aa1fe0e6bc666dac8fc2697ff9ba",
            "currentDifficulty" : "0x020000",
            "currentExcessBlobGas" : "0x00",
            "currentGasLimit" : "0xb2d05e00",
            "currentNumber" : "0x01",
            "currentRandom" : "0x0000000000000000000000000000000000000000000000000000000000020000",
            "currentTimestamp" : "0x03e8"
        },
        "post" : {
            "Cancun" : [
                {
                    "hash" : "0xa9206b218546850a94e6295d7112aa1fb6645b579b69d2a72100ce9bea154ccf",
                    "indexes" : {
                        "data" : 0,
                        "gas" : 0,
                        "value" : 0
                    },
                    "logs" : "0x1dcc4de8dec75d7aab85b567b6ccd41ad312451b948a7413f0a142fd40d49347",
                    "txbytes" : "0xf881800a8401c9c38094100000000000000000000000000000000000000080a000000000000000000000000010000000000000000000000000000000000000011ca0d14cd022c7b393927d0a2566c0b9650b6db158dcd159967c1e2f8ef9629aa151a034d3af7dac5b7dd0e3f3e377f100bf137d601fcbef5c72f8aa335d4c311140b1"
                },
                {
                    "hash" : "0x5fcebee45aa2f044eed71a4a8395ff1b3fd6d9bb77df2ce32c52aa70d01c93af",
                    "indexes" : {
                        "data" : 0,
                        "gas" : 0,
                        "value" : 1
                    },
                    "logs" : "0x1dcc4de8dec75d7aab85b567b6ccd41ad312451b948a7413f0a142fd40d49347",
                    "txbytes" : "0xf881800a8401c9c38094100000000000000000000000000000000000000001a000000000000000000000000010000000000000000000000000000000000000011ca003c3b36674b91c341b54e5a6686eb182b438768fccea18328ebfae46a9985140a045a52bfb9cfc0b51aa850113d6f53aef8e78af1fc87891e6e92ad4cf8468e2ce"
                },
                {
                    "hash" : "0x7f20f80c2026f5199ddde60e82f8692f52c14a63783f1e0f00f7674868e3f7dd",
                    "indexes" : {
                        "data" : 1,
                        "gas" : 0,
                        "value" : 0
                    },
                    "logs" : "0x1dcc4de8dec75d7aab85b567b6ccd41ad312451b948a7413f0a142fd40d49347",
                    "txbytes" : "0xf881800a8401c9c38094100000000000000000000000000000000000000080a000000000000000000000000020000000000000000000000000000000000000011ca05b0214d29b80397dec30769c8e64b6b063affd91335be7da78cf15495a6f0c84a00b6fe6dda44797133980c869456a21b5734698a508d34ed6c9d9d8edbca29df0"
                },
                {
                    "hash" : "0x7b7c658eabcfca11dd60bc6338909e175e57c677ee038e6da5aa79af4e624c94",
                    "indexes" : {
                        "data" : 1,
                        "gas" : 0,
                        "value" : 1
                    },
                    "logs" : "0x1dcc4de8dec75d7aab85b567b6ccd41ad312451b948a7413f0a142fd40d49347",
                    "txbytes" : "0xf881800a8401c9c38094100000000000000000000000000000000000000001a000000000000000000000000020000000000000000000000000000000000000011ca05ad4b5756c23f3bc1bca240a1798e23b09b9a908490d206566cb7e9dc7bb1498a00cf91e75009709ab62cbc5cf846f08c565d9c0517b857c8dad961713525f2d75"
                }
            ]
        },
        "pre" : {
            "0x1000000000000000000000000000000000000000" : {
                "balance" : "0x0de0b6b3a7640000",
                "code" : "0x60406000604060003460003563017d7840f2600055600160015500",
                "nonce" : "0x00",
                "storage" : {
                }
            },
            "0x1000000000000000000000000000000000000001" : {
                "balance" : "0x02540be400",
                "code" : "0x6040600060406000731000000000000000000000000000000000000002620f4240fa00",
                "nonce" : "0x00",
                "storage" : {
                }
            },
            "0x1000000000000000000000000000000000000002" : {
                "balance" : "0x02540be400",
                "code" : "0x604060006040600060007310000000000000000000000000000000000000016207a120f200",
                "nonce" : "0x00",
                "storage" : {
                }
            },
            "0x2000000000000000000000000000000000000001" : {
                "balance" : "0x02540be400",
                "code" : "0x6040600060406000732000000000000000000000000000000000000002620f4240fa00",
                "nonce" : "0x00",
                "storage" : {
                }
            },
            "0x2000000000000000000000000000000000000002" : {
                "balance" : "0x02540be400",
                "code" : "0x604060006040600060017320000000000000000000000000000000000000016207a120f200",
                "nonce" : "0x00",
                "storage" : {
                }
            },
            "0xa94f5374fce5edbc8e2a8697c15331677e6ebf0b" : {
                "balance" : "0x0de0b6b3a7640000",
                "code" : "0x",
                "nonce" : "0x00",
                "storage" : {
                }
            }
        },
        "transaction" : {
            "data" : [
                "0x0000000000000000000000001000000000000000000000000000000000000001",
                "0x0000000000000000000000002000000000000000000000000000000000000001"
            ],
            "gasLimit" : [
                "0x01c9c380"
            ],
            "gasPrice" : "0x0a",
            "nonce" : "0x00",
            "secretKey" : "0x45a915e4d060149eb4365960e6a7a45f334393093061116b197e3240065ff2d8",
            "sender" : "0xa94f5374fce5edbc8e2a8697c15331677e6ebf0b",
            "to" : "0x1000000000000000000000000000000000000000",
            "value" : [
                "0x00",
                "0x01"
            ]
        }
    }
}