{
    "StaticcallToPrecompileFromContractInitialization" : {
        "_info" : {
            "comment" : "STATICCALL to precompiled contracts from contract initialization code.\nIt should execute successfully for each precompiled contract.\n",
            "filling-rpc-server" : "evm version 1.14.4-unstable-3d8028a6-20240513",
            "filling-tool-version" : "retesteth-0.3.2-cancun+commit.2ab0208e.Linux.g++",
            "generatedTestHash" : "828eec61b92c8cf827c1d142d93be9b0cbf4b6a5f77210073cdb7d3629b85d4d",
            "lllcversion" : "Version: 0.5.14-develop.2023.7.11+commit.c58ab2c6.mod.Linux.g++",
            "solidity" : "Version: 0.8.21+commit.d9974bed.Linux.g++",
            "source" : "src/GeneralStateTestsFiller/stStaticCall/StaticcallToPrecompileFromContractInitializationFiller.yml",
            "sourceHash" : "f82f0f056471e07d02ae1590b6d88ccad13170c543a90acd78df48a006f0a5b3"
        },
        "env" : {
            "currentBaseFee" : "0x0a",
            "currentCoinbase" : "0xcafe000000000000000000000000000000000001",
            "currentDifficulty" : "0x020000",
            "currentExcessBlobGas" : "0x00",
            "currentGasLimit" : "0x989680",
            "currentNumber" : "0x01",
            "currentRandom" : "0x0000000000000000000000000000000000000000000000000000000000020000",
            "currentTimestamp" : "0x03e8"
        },
        "post" : {
            "Cancun" : [
                {
                    "hash" : "0x324405f7a0fd43727f4f7fd42ac3bbcbd5800c134925dadd5e7d4f67bf244f74",
                    "indexes" : {
                        "data" : 0,
                        "gas" : 0,
                        "value" : 0
                    },
                    "logs" : "0x1dcc4de8dec75d7aab85b567b6ccd41ad312451b948a7413f0a142fd40d49347",
                    "txbytes" : "0xf905c1800a830f424094a00000000000000000000000000000000000000064b9055f7f18c547e4f7b0f325ad1e56f57e26c745b09a3e503d86e00e5255ff7f715d3d1c600052601c6020527f73b1693892219d736caba55bdb67216e485557ea6b6af75f37096c9aa6a5a75f6040527feeb940b1d03b21e36b0e47e79769f095fe2ab855bd91e3a38756b7d75a9c454960605260206103e860806000600162061a80fa60005560a060020a6103e851066001556001543214600255600060005260006020526000604052600060605260006103e8527c0ccccccccccccccccccccccccccccccccccccccccccccccccccc00000060005260206103e86020600060025afa6003556000516004556103e851600555600060005260006103e8527c0ccccccccccccccccccccccccccccccccccccccccccccccccccc00000060005260206103e86020600060035afa6006556000516007556103e851600855600060005260006103e8527c0ccccccccccccccccccccccccccccccccccccccccccccccccccc00000060005260206103e86020600060045afa6009556103e851601055600060005260006103e8526001600052602060205260206040527f03fffffffffffffffffffffffffffffffffffffffffffffffffffffffefffffc6060527f2efffffffffffffffffffffffffffffffffffffffffffffffffffffffefffffc6080527f2f0000000000000000000000000000000000000000000000000000000000000060a05260206103e860a1600060055afa6011556103e85160125560006000526000602052600060405260006060526000608052600060a05260006103e8527f0f25929bcb43d5a57391564615c9e70a992b10eafa4db109709649cf48c50dd26000527f16da2f5cb6be7a0aa72c440c53c9bbdfec6c36c7d515536431b3a865468acbba6020527f1de49a4b0233273bba8146af82042d004f2085ec982397db0d97da17204cc2866040527f0217327ffc463919bef80cc166d09c6172639d8589799928761bcd9f22c903d460605260406103e86080600060065afa6013556103e85160145561040851601555600060005260006020526000604052600060605260006103e8526000610408527f0f25929bcb43d5a57391564615c9e70a992b10eafa4db109709649cf48c50dd26000527f16da2f5cb6be7a0aa72c440c53c9bbdfec6c36c7d515536431b3a865468acbba602052600360405260406103e86060600060075afa6016556103e8516017556104085160185560006000526000602052600060405260006103e8526000610408527f1c76476f4def4bb94541d57ebba1193381ffa7aa76ada664dd31c16024c43f596000527f3034dd2920f673e204fee2811c678745fc819b55d3e9d294e45c9b03a76aef416020527f209dd15ebff5d46c4bd888e51a93cf99a7329636c63514396b4a452003a35bf76040527f04bf11ca01483bfa8b34b43561848d28905960114c8ac04049af4b6315a416786060527f2bb8324af6cfc93537a2ad1a445cfd0ca2a71acd7ac41fadbf933c2a51be344d6080527f120a2a4cf30c1bf9845f20c6fe39e07ea2cce61f0c9bb048165fe5e4de87755060a0527f111e129f1cf1097710d41c4ac70fcdfa5ba2023c6ff1cbeac322de49d1b6df7c60c0527f2032c61a830e3c17286de9462bf242fca2883585b93870a73853face6a6bf41160e0527f198e9393920d483a7260bfb731fb5d25f1aa493335a9e71297e485b7aef312c2610100527f1800deef121f1e76426a00665e5c4479674322d4f75edadd46debd5cd992f6ed610120527f090689d0585ff075ec9e99ad690c3395bc4b313370b38ef355acdadcd122975b610140527f12c85ea5db8c6deb4aab71808dcb408fe3d1e7690c43d37b4ce6cc0166fa7daa6101605260206103e8610180600060085afa6019556103e851602055001ba01c7f33801354f76548d13a3a31f765cf7635037c3e2426e552dcfbc7197b17d1a01d6b1d2ec8d7f3475232a5d2bb6aacba25bc48f979bafdd871b95c448cb9991e"
                }
            ]
        },
        "pre" : {
            "0xa000000000000000000000000000000000000000" : {
                "balance" : "0x00",
                "code" : "0x366000600037655a175a175a173660006000f560005500",
                "nonce" : "0x00",
                "storage" : {
                }
            },
            "0xa94f5374fce5edbc8e2a8697c15331677e6ebf0b" : {
                "balance" : "0x0de0b6b3a7640000",
                "code" : "0x",
                "nonce" : "0x00",
                "storage" : {
                }
            }
        },
        "transaction" : {
            "data" : [
                "0x7f18c547e4f7b0f325ad1e56f57e26c745b09a3e503d86e00e5255ff7f715d3d1c600052601c6020527f73b1693892219d736caba55bdb67216e485557ea6b6af75f37096c9aa6a5a75f6040527feeb940b1d03b21e36b0e47e79769f095fe2ab855bd91e3a38756b7d75a9c454960605260206103e860806000600162061a80fa60005560a060020a6103e851066001556001543214600255600060005260006020526000604052600060605260006103e8527c0ccccccccccccccccccccccccccccccccccccccccccccccccccc00000060005260206103e86020600060025afa6003556000516004556103e851600555600060005260006103e8527c0ccccccccccccccccccccccccccccccccccccccccccccccccccc00000060005260206103e86020600060035afa6006556000516007556103e851600855600060005260006103e8527c0ccccccccccccccccccccccccccccccccccccccccccccccccccc00000060005260206103e86020600060045afa6009556103e851601055600060005260006103e8526001600052602060205260206040527f03fffffffffffffffffffffffffffffffffffffffffffffffffffffffefffffc6060527f2efffffffffffffffffffffffffffffffffffffffffffffffffffffffefffffc6080527f2f0000000000000000000000000000000000000000000000000000000000000060a05260206103e860a1600060055afa6011556103e85160125560006000526000602052600060405260006060526000608052600060a05260006103e8527f0f25929bcb43d5a57391564615c9e70a992b10eafa4db109709649cf48c50dd26000527f16da2f5cb6be7a0aa72c440c53c9bbdfec6c36c7d515536431b3a865468acbba6020527f1de49a4b0233273bba8146af82042d004f2085ec982397db0d97da17204cc2866040527f0217327ffc463919bef80cc166d09c6172639d8589799928761bcd9f22c903d460605260406103e86080600060065afa6013556103e85160145561040851601555600060005260006020526000604052600060605260006103e8526000610408527f0f25929bcb43d5a57391564615c9e70a992b10eafa4db109709649cf48c50dd26000527f16da2f5cb6be7a0aa72c440c53c9bbdfec6c36c7d515536431b3a865468acbba602052600360405260406103e86060600060075afa6016556103e8516017556104085160185560006000526000602052600060405260006103e8526000610408527f1c76476f4def4bb94541d57ebba1193381ffa7aa76ada664dd31c16024c43f596000527f3034dd2920f673e204fee2811c678745fc819b55d3e9d294e45c9b03a76aef416020527f209dd15ebff5d46c4bd888e51a93cf99a7329636c63514396b4a452003a35bf76040527f04bf11ca01483bfa8b34b43561848d28905960114c8ac04049af4b6315a416786060527f2bb8324af6cfc93537a2ad1a445cfd0ca2a71acd7ac41fadbf933c2a51be344d6080527f120a2a4cf30c1bf9845f20c6fe39e07ea2cce61f0c9bb048165fe5e4de87755060a0527f111e129f1cf1097710d41c4ac70fcdfa5ba2023c6ff1cbeac322de49d1b6df7c60c0527f2032c61a830e3c17286de9462bf242fca2883585b93870a73853face6a6bf41160e0527f198e9393920d483a7260bfb731fb5d25f1aa493335a9e71297e485b7aef312c2610100527f1800deef121f1e76426a00665e5c4479674322d4f75edadd46debd5cd992f6ed610120527f090689d0585ff075ec9e99ad690c3395bc4b313370b38ef355acdadcd122975b610140527f12c85ea5db8c6deb4aab71808dcb408fe3d1e7690c43d37b4ce6cc0166fa7daa6101605260206103e8610180600060085afa6019556103e85160205500"
            ],
            "gasLimit" : [
                "0x0f4240"
            ],
            "gasPrice" : "0x0a",
            "nonce" : "0x00",
            "secretKey" : "0x45a915e4d060149eb4365960e6a7a45f334393093061116b197e3240065ff2d8",
            "sender" : "0xa94f5374fce5edbc8e2a8697c15331677e6ebf0b",
            "to" : "0xa000000000000000000000000000000000000000",
            "value" : [
                "0x64"
            ]
        }
    }
}