{
    "static_callChangeRevert" : {
        "_info" : {
            "comment" : "",
            "filling-rpc-server" : "evm version 1.14.4-unstable-3d8028a6-20240513",
            "filling-tool-version" : "retesteth-0.3.2-cancun+commit.2ab0208e.Linux.g++",
            "generatedTestHash" : "60640e5f2621cc4b452c5a6066ce0d054536fc0f836eed34fcd134fd03a43386",
            "lllcversion" : "Version: 0.5.14-develop.2023.7.11+commit.c58ab2c6.mod.Linux.g++",
            "solidity" : "Version: 0.8.21+commit.d9974bed.Linux.g++",
            "source" : "src/GeneralStateTestsFiller/stStaticCall/static_callChangeRevertFiller.json",
            "sourceHash" : "293e466ee9214643fbb281fdfec79a4a79ff8b9ddbc45d5a620334242bc663e4"
        },
        "env" : {
            "currentBaseFee" : "0x0a",
            "currentCoinbase" : "0x2adc25665018aa1fe0e6bc666dac8fc2697ff9ba",
            "currentDifficulty" : "0x020000",
            "currentExcessBlobGas" : "0x00",
            "currentGasLimit" : "0x989680",
            "currentNumber" : "0x01",
            "currentRandom" : "0x0000000000000000000000000000000000000000000000000000000000020000",
            "currentTimestamp" : "0x03e8"
        },
        "post" : {
            "Cancun" : [
                {
                    "hash" : "0x79441b39ed99ce02a4b162f77d03914a48eb6719b7c1b9243f966fddbe9319dd",
                    "indexes" : {
                        "data" : 0,
                        "gas" : 0,
                        "value" : 0
                    },
                    "logs" : "0x1dcc4de8dec75d7aab85b567b6ccd41ad312451b948a7413f0a142fd40d49347",
                    "txbytes" : "0xf883800a830f424094a000000000000000000000000000000000000000830186a0a000000000000000000000000010000000000000000000000000000000000000001ba011245eee4844656f39de851802157db73ed455cc95fc8a3356d6ab2af14d626ea06ca8fd956f2583c20d6a66145fa219e1a714a93fb8effce857ce9cd37a9cb80d"
                },
                {
                    "hash" : "0x8b4d44c08ae5a1f8c1dc98976bc0e0758c50d5ebd08958f4c9f259b63afc25c3",
                    "indexes" : {
                        "data" : 1,
                        "gas" : 0,
                        "value" : 0
                    },
                    "logs" : "0x1dcc4de8dec75d7aab85b567b6ccd41ad312451b948a7413f0a142fd40d49347",
                    "txbytes" : "0xf883800a830f424094a000000000000000000000000000000000000000830186a0a000000000000000000000000020000000000000000000000000000000000000001ba0f8d3b0a8d0ec9fefc48649321c7539ee90b6bd2c7b49f5d94409142076601a09a079abb99142140522477c7ef6f345153bd3b0bd2dbf971971800fb96424ed006b"
                },
                {
                    "hash" : "0x98710b72f5ee18dc300a080cec0fef314e60b821faea92e4e6f5e63e75227b28",
                    "indexes" : {
                        "data" : 2,
                        "gas" : 0,
                        "value" : 0
                    },
                    "logs" : "0x1dcc4de8dec75d7aab85b567b6ccd41ad312451b948a7413f0a142fd40d49347",
                    "txbytes" : "0xf883800a830f424094a000000000000000000000000000000000000000830186a0a000000000000000000000000030000000000000000000000000000000000000001ca0370abc6ef30d01822c06e30a0aeed612611cde4e40527df9029b64ac73094cd7a0634ce4bd2539d3a1420de90b70b34497444b72b6562410edb055dd83b5ba87fe"
                }
            ]
        },
        "pre" : {
            "0x1000000000000000000000000000000000000000" : {
                "balance" : "0x0de0b6b3a7640000",
                "code" : "0x60006000600060006001731000000000000000000000000000000000000001620186a0f16000556000600060006000731000000000000000000000000000000000000001620186a0fa60015560006000600060006001731000000000000000000000000000000000000001620186a0f160025500",
                "nonce" : "0x00",
                "storage" : {
                }
            },
            "0x1000000000000000000000000000000000000001" : {
                "balance" : "0x00",
                "code" : "0x600160015200",
                "nonce" : "0x00",
                "storage" : {
                }
            },
            "0x1000000000000000000000000000000000000002" : {
                "balance" : "0x00",
                "code" : "0x600160015260015460015500",
                "nonce" : "0x00",
                "storage" : {
                }
            },
            "0x2000000000000000000000000000000000000000" : {
                "balance" : "0x0de0b6b3a7640000",
                "code" : "0x60006000600060006001731000000000000000000000000000000000000001620186a0f16000556000600060006000731000000000000000000000000000000000000001620186a0fa60015560006000600060006001731000000000000000000000000000000000000001620186a0f16002555b61c3506080511015608f5760013b506001608051016080526073565b00",
                "nonce" : "0x00",
                "storage" : {
                }
            },
            "0x3000000000000000000000000000000000000000" : {
                "balance" : "0x0de0b6b3a7640000",
                "code" : "0x60006000600060006001731000000000000000000000000000000000000002620186a0f16000556000600060006000731000000000000000000000000000000000000002620186a0fa60015560006000600060006001731000000000000000000000000000000000000002620186a0f160025500",
                "nonce" : "0x00",
                "storage" : {
                }
            },
            "0xa000000000000000000000000000000000000000" : {
                "balance" : "0x0de0b6b3a7640000",
                "code" : "0x6000600060006000600060003562055730f100",
                "nonce" : "0x00",
                "storage" : {
                }
            },
            "0xa94f5374fce5edbc8e2a8697c15331677e6ebf0b" : {
                "balance" : "0x0de0b6b3a7640000",
                "code" : "0x",
                "nonce" : "0x00",
                "storage" : {
                }
            }
        },
        "transaction" : {
            "data" : [
                "0x0000000000000000000000001000000000000000000000000000000000000000",
                "0x0000000000000000000000002000000000000000000000000000000000000000",
                "0x0000000000000000000000003000000000000000000000000000000000000000"
            ],
            "gasLimit" : [
                "0x0f4240"
            ],
            "gasPrice" : "0x0a",
            "nonce" : "0x00",
            "secretKey" : "0x45a915e4d060149eb4365960e6a7a45f334393093061116b197e3240065ff2d8",
            "sender" : "0xa94f5374fce5edbc8e2a8697c15331677e6ebf0b",
            "to" : "0xa000000000000000000000000000000000000000",
            "value" : [
                "0x0186a0"
            ]
        }
    }
}