{
    "EXP_Empty" : {
        "_info" : {
            "comment" : "",
            "filling-rpc-server" : "evm version 1.14.4-unstable-3d8028a6-20240513",
            "filling-tool-version" : "retesteth-0.3.2-cancun+commit.2ab0208e.Linux.g++",
            "generatedTestHash" : "99b7f326f15e29f54863e0fc109b8d4e0a006932bc719c6577ddda055f908020",
            "lllcversion" : "Version: 0.5.14-develop.2023.7.11+commit.c58ab2c6.mod.Linux.g++",
            "solidity" : "Version: 0.8.21+commit.d9974bed.Linux.g++",
            "source" : "src/GeneralStateTestsFiller/stEIP158Specific/EXP_EmptyFiller.json",
            "sourceHash" : "77044a9f5dec41ca2988bc0196fde64e3b9cdbedd574f8dc00d83ff8d064d8bf"
        },
        "env" : {
            "currentBaseFee" : "0x0a",
            "currentCoinbase" : "0x2adc25665018aa1fe0e6bc666dac8fc2697ff9ba",
            "currentDifficulty" : "0x020000",
            "currentExcessBlobGas" : "0x00",
            "currentGasLimit" : "0x989680",
            "currentNumber" : "0x01",
            "currentRandom" : "0x0000000000000000000000000000000000000000000000000000000000020000",
            "currentTimestamp" : "0x03e8"
        },
        "post" : {
            "Cancun" : [
                {
                    "hash" : "0x5efab47e8c3dc7d5fcb56c7586d751c81dbc952074beca1dbd2bc6e2d3caf8fd",
                    "indexes" : {
                        "data" : 0,
                        "gas" : 0,
                        "value" : 0
                    },
                    "logs" : "0x1dcc4de8dec75d7aab85b567b6ccd41ad312451b948a7413f0a142fd40d49347",
                    "txbytes" : "0xf860800a830927c094b94f5374fce5edbc8e2a8697c15331677e6ebf0b80801ca065622aa0319be041688699ffcc35390d71659fb43600cba91177760bd5cbe3f7a05d3be8e63e5061a12f6f569ba20df19ea8a844cbe9eba3a85c230f7cd8d70426"
                }
            ]
        },
        "pre" : {
            "0xa94f5374fce5edbc8e2a8697c15331677e6ebf0b" : {
                "balance" : "0xe8d4a51000",
                "code" : "0x",
                "nonce" : "0x00",
                "storage" : {
                }
            },
            "0xb94f5374fce5edbc8e2a8697c15331677e6ebf0b" : {
                "balance" : "0x00",
                "code" : "0x5a600052600c60000a6001555a600051036002555a6000526000600c0a6003555a600051036004555a60005267ffffffffffffffff60000a6005555a600051036006555a6000526fffffffffffffffffffffffffffffffff60000a6007555a600051036008555a6000527fffffffffffffffffffffffffffffffffffffffffffffffffffffffffffffffff60000a6009555a60005103600a555a600052600067ffffffffffffffff0a600b555a60005103600c555a60005260006fffffffffffffffffffffffffffffffff0a600d555a60005103600e555a60005260007fffffffffffffffffffffffffffffffffffffffffffffffffffffffffffffffff0a600f555a6000510360645500",
                "nonce" : "0x00",
                "storage" : {
                }
            }
        },
        "transaction" : {
            "data" : [
                "0x"
            ],
            "gasLimit" : [
                "0x0927c0"
            ],
            "gasPrice" : "0x0a",
            "nonce" : "0x00",
            "secretKey" : "0x45a915e4d060149eb4365960e6a7a45f334393093061116b197e3240065ff2d8",
            "sender" : "0xa94f5374fce5edbc8e2a8697c15331677e6ebf0b",
            "to" : "0xb94f5374fce5edbc8e2a8697c15331677e6ebf0b",
            "value" : [
                "0x00"
            ]
        }
    }
}