{
    "randomStatetest646" : {
        "_info" : {
            "comment" : "Geth Failed this test on all networks",
            "filling-rpc-server" : "evm version 1.14.4-unstable-3d8028a6-20240513",
            "filling-tool-version" : "retesteth-0.3.2-cancun+commit.2ab0208e.Linux.g++",
            "generatedTestHash" : "710b9f6f494390108eda53193bf79bc03a0f1e689c9a5cd23c805e1133379dd3",
            "lllcversion" : "Version: 0.5.14-develop.2023.7.11+commit.c58ab2c6.mod.Linux.g++",
            "solidity" : "Version: 0.8.21+commit.d9974bed.Linux.g++",
            "source" : "src/GeneralStateTestsFiller/stRandom2/randomStatetest646Filler.json",
            "sourceHash" : "50ce8509ca6aca93611045a5671f0b0088b3478686eb4361faf239fe3e003d32"
        },
        "env" : {
            "currentBaseFee" : "0x0a",
            "currentCoinbase" : "0xd94f5374fce5edbc8e2a8697c15331677e6ebf0b",
            "currentDifficulty" : "0x020000",
            "currentExcessBlobGas" : "0x00",
            "currentGasLimit" : "0x42fe8c95373ea1",
            "currentNumber" : "0x01",
            "currentRandom" : "0x0000000000000000000000000000000000000000000000000000000000020000",
            "currentTimestamp" : "0x03e8"
        },
        "post" : {
            "Cancun" : [
                {
                    "hash" : "0x694084468c58aeb1ac3c052db90f58695c002f2e54956f31aeaf7e80c7b4d3cc",
                    "indexes" : {
                        "data" : 0,
                        "gas" : 0,
                        "value" : 0
                    },
                    "logs" : "0x1dcc4de8dec75d7aab85b567b6ccd41ad312451b948a7413f0a142fd40d49347",
                    "txbytes" : "0xf90149800a83584d3194ffffffffffffffffffffffffffffffffffffffff845684b90ab8e4785196fdcb5d7e54c4b381e68c7eaeae2735e5537830130057f554672e70a6b867385ea2714ea3185b854bf0b4f9617fb47e6afe9ed4ed68f94b50776420fa24010960ce6b65e2a1ebdce518181d6c69a678989d767fc3d28b6c524f52a87d05519cb32e38fbdc5f801f756922b90c0e2e5bc848bb9c6a5d08ee65470af4fbbeacf87a65c90dc57babd8cdc9819f898551925828bfd360e8a1f1616619d171c23004b0045424cc962e09d8a65d9fd94af9863d61eba97d76dc150e19d991ff1b5fd340dd4fd7e522a659ddf69bcbc729599667aa30536cd85576cc3477495dae10c85b561ca09a06b8f5b138f2ab7e8b9db1202a131cc4dc9899198ce738b7412fe3450db0f7a042a392b2fe3ccc98de64d1de00f520cee9c07341dce80dc77ab43a453c312fd2"
                }
            ]
        },
        "pre" : {
            "0xa94f5374fce5edbc8e2a8697c15331677e6ebf0b" : {
                "balance" : "0x54465ef1c769628b",
                "code" : "0x",
                "nonce" : "0x00",
                "storage" : {
                }
            },
            "0xc94f5374fce5edbc8e2a8697c15331677e6ebf0b" : {
                "balance" : "0x33888d4ce6b934",
                "code" : "0x",
                "nonce" : "0x07",
                "storage" : {
                }
            },
            "0xffffffffffffffffffffffffffffffffffffffff" : {
                "balance" : "0xd61773f0c27b842f",
                "code" : "0x64ba8b878e0154689b908f27acb42e5269603972609834bf9a7e578e45609242172907dd75a92555656c5aa6e9248162013ffa6203864863446d325df0336d2c38cfa2f1cdf8cb623c0591987419",
                "nonce" : "0x1c",
                "storage" : {
                }
            }
        },
        "transaction" : {
            "data" : [
                "0x785196fdcb5d7e54c4b381e68c7eaeae2735e5537830130057f554672e70a6b867385ea2714ea3185b854bf0b4f9617fb47e6afe9ed4ed68f94b50776420fa24010960ce6b65e2a1ebdce518181d6c69a678989d767fc3d28b6c524f52a87d05519cb32e38fbdc5f801f756922b90c0e2e5bc848bb9c6a5d08ee65470af4fbbeacf87a65c90dc57babd8cdc9819f898551925828bfd360e8a1f1616619d171c23004b0045424cc962e09d8a65d9fd94af9863d61eba97d76dc150e19d991ff1b5fd340dd4fd7e522a659ddf69bcbc729599667aa30536cd85576cc3477495dae10c85b56"
            ],
            "gasLimit" : [
                "0x584d31"
            ],
            "gasPrice" : "0x0a",
            "nonce" : "0x00",
            "secretKey" : "0x45a915e4d060149eb4365960e6a7a45f334393093061116b197e3240065ff2d8",
            "sender" : "0xa94f5374fce5edbc8e2a8697c15331677e6ebf0b",
            "to" : "0xffffffffffffffffffffffffffffffffffffffff",
            "value" : [
                "0x5684b90a"
            ]
        }
    }
}