{
    "randomStatetest525" : {
        "_info" : {
            "comment" : "",
            "filling-rpc-server" : "evm version 1.14.4-unstable-3d8028a6-20240513",
            "filling-tool-version" : "retesteth-0.3.2-cancun+commit.2ab0208e.Linux.g++",
            "generatedTestHash" : "5f14a38b81cc9fe74ea3c5b224647bcb14be7f12f8e3e05b71d1f88cb3940731",
            "lllcversion" : "Version: 0.5.14-develop.2023.7.11+commit.c58ab2c6.mod.Linux.g++",
            "solidity" : "Version: 0.8.21+commit.d9974bed.Linux.g++",
            "source" : "src/GeneralStateTestsFiller/stRandom2/randomStatetest525Filler.json",
            "sourceHash" : "6ba86dc45c8b6ffada6cb9466a86bcf39a4a7c1016572c9e82fd2993137f35cb"
        },
        "env" : {
            "currentBaseFee" : "0x0a",
            "currentCoinbase" : "0x945304eb96065b2a98b57a48a06ae28d285a71b5",
            "currentDifficulty" : "0x020000",
            "currentExcessBlobGas" : "0x00",
            "currentGasLimit" : "0x7fffffffffffffff",
            "currentNumber" : "0x01",
            "currentRandom" : "0x0000000000000000000000000000000000000000000000000000000000020000",
            "currentTimestamp" : "0x03e8"
        },
        "post" : {
            "Cancun" : [
                {
                    "hash" : "0x29491318590c060e9145f48926c05657564036a2df47073a7b0019cdc759efe3",
                    "indexes" : {
                        "data" : 0,
                        "gas" : 0,
                        "value" : 0
                    },
                    "logs" : "0x1dcc4de8dec75d7aab85b567b6ccd41ad312451b948a7413f0a142fd40d49347",
                    "txbytes" : "0xf90151800a8451e4751294095e7baea6a6c7c4c2dfeb977efac326af552d87840a9a88d4b8eb7f00000000000000000000000100000000000000000000000000000000000000007fffffffffffffffffffffffffffffffffffffffffffffffffffffffffffffffff7f000000000000000000000000000000000000000000000000000000000000c3507f000000000000000000000000ffffffffffffffffffffffffffffffffffffffff7ffffffffffffffffffffffffffffffffffffffffffffffffffffffffffffffffe7f000000000000000000000000ffffffffffffffffffffffffffffffffffffffff097ffffffffffffffffffffffffffffffffffffffffffffffffffffffffffffffffe0220711ba03799a6634f8c4b59dda58d1dcaeb219bc3318e9fd1e6557302bf0d1f28ffd00fa034ed3d6fcf271b3c131d13acd377b2846489cf7a1edfa95855dbbf4be29f47f7"
                }
            ]
        },
        "pre" : {
            "0x095e7baea6a6c7c4c2dfeb977efac326af552d87" : {
                "balance" : "0x00",
                "code" : "0x7f00000000000000000000000100000000000000000000000000000000000000007fffffffffffffffffffffffffffffffffffffffffffffffffffffffffffffffff7f000000000000000000000000000000000000000000000000000000000000c3507f000000000000000000000000ffffffffffffffffffffffffffffffffffffffff7ffffffffffffffffffffffffffffffffffffffffffffffffffffffffffffffffe7f000000000000000000000000ffffffffffffffffffffffffffffffffffffffff097ffffffffffffffffffffffffffffffffffffffffffffffffffffffffffffffffe02207160005155",
                "nonce" : "0x00",
                "storage" : {
                }
            },
            "0x945304eb96065b2a98b57a48a06ae28d285a71b5" : {
                "balance" : "0x2e",
                "code" : "0x6000355415600957005b60203560003555",
                "nonce" : "0x00",
                "storage" : {
                }
            },
            "0xa94f5374fce5edbc8e2a8697c15331677e6ebf0b" : {
                "balance" : "0x0de0b6b3a7640000",
                "code" : "0x",
                "nonce" : "0x00",
                "storage" : {
                }
            }
        },
        "transaction" : {
            "data" : [
                "0x7f00000000000000000000000100000000000000000000000000000000000000007fffffffffffffffffffffffffffffffffffffffffffffffffffffffffffffffff7f000000000000000000000000000000000000000000000000000000000000c3507f000000000000000000000000ffffffffffffffffffffffffffffffffffffffff7ffffffffffffffffffffffffffffffffffffffffffffffffffffffffffffffffe7f000000000000000000000000ffffffffffffffffffffffffffffffffffffffff097ffffffffffffffffffffffffffffffffffffffffffffffffffffffffffffffffe022071"
            ],
            "gasLimit" : [
                "0x51e47512"
            ],
            "gasPrice" : "0x0a",
            "nonce" : "0x00",
            "secretKey" : "0x45a915e4d060149eb4365960e6a7a45f334393093061116b197e3240065ff2d8",
            "sender" : "0xa94f5374fce5edbc8e2a8697c15331677e6ebf0b",
            "to" : "0x095e7baea6a6c7c4c2dfeb977efac326af552d87",
            "value" : [
                "0x0a9a88d4"
            ]
        }
    }
}