{
    "randomStatetest493" : {
        "_info" : {
            "comment" : "",
            "filling-rpc-server" : "evm version 1.14.4-unstable-3d8028a6-20240513",
            "filling-tool-version" : "retesteth-0.3.2-cancun+commit.2ab0208e.Linux.g++",
            "generatedTestHash" : "f4cb80edb36cb2a3f3c77b90b61dc998d3bf306932e19c48c9f8b6a828824f66",
            "lllcversion" : "Version: 0.5.14-develop.2023.7.11+commit.c58ab2c6.mod.Linux.g++",
            "solidity" : "Version: 0.8.21+commit.d9974bed.Linux.g++",
            "source" : "src/GeneralStateTestsFiller/stRandom2/randomStatetest493Filler.json",
            "sourceHash" : "77efa5feb6741497477fe764f585449873faefd26e5519ef038f16443f84ad1b"
        },
        "env" : {
            "currentBaseFee" : "0x0a",
            "currentCoinbase" : "0x945304eb96065b2a98b57a48a06ae28d285a71b5",
            "currentDifficulty" : "0x020000",
            "currentExcessBlobGas" : "0x00",
            "currentGasLimit" : "0x7fffffffffffffff",
            "currentNumber" : "0x01",
            "currentRandom" : "0x0000000000000000000000000000000000000000000000000000000000020000",
            "currentTimestamp" : "0x03e8"
        },
        "post" : {
            "Cancun" : [
                {
                    "hash" : "0x7c0d4ca58055c54be38aad1f54cf7292aab2be281a67095a9b61ba4791eb56ea",
                    "indexes" : {
                        "data" : 0,
                        "gas" : 0,
                        "value" : 0
                    },
                    "logs" : "0x1dcc4de8dec75d7aab85b567b6ccd41ad312451b948a7413f0a142fd40d49347",
                    "txbytes" : "0xf9014f800a841ef0f8a194095e7baea6a6c7c4c2dfeb977efac326af552d878454d0f339b8e97f00000000000000000000000000000000000000000000000000000000000000017f000000000000000000000000945304eb96065b2a98b57a48a06ae28d285a71b5437f000000000000000000000000ffffffffffffffffffffffffffffffffffffffff7f00000000000000000000000000000000000000000000000000000000000000017ffffffffffffffffffffffffffffffffffffffffffffffffffffffffffffffffe7f000000000000000000000000ffffffffffffffffffffffffffffffffffffffff7fffffffffffffffffffffffffffffffffffffffffffffffffffffffffffffffff091ba06c7a0850735fc241ddfc725c2c2d50c4d79ff1a3153ae1aa94306b7a0eb88ed9a029fa870a55ec750b039f259947158ba9c4a0b3e27a4b0e076b9c2c8e4187b367"
                }
            ]
        },
        "pre" : {
            "0x095e7baea6a6c7c4c2dfeb977efac326af552d87" : {
                "balance" : "0x00",
                "code" : "0x7f00000000000000000000000000000000000000000000000000000000000000017f000000000000000000000000945304eb96065b2a98b57a48a06ae28d285a71b5437f000000000000000000000000ffffffffffffffffffffffffffffffffffffffff7f00000000000000000000000000000000000000000000000000000000000000017ffffffffffffffffffffffffffffffffffffffffffffffffffffffffffffffffe7f000000000000000000000000ffffffffffffffffffffffffffffffffffffffff7fffffffffffffffffffffffffffffffffffffffffffffffffffffffffffffffff095560005155",
                "nonce" : "0x00",
                "storage" : {
                }
            },
            "0x945304eb96065b2a98b57a48a06ae28d285a71b5" : {
                "balance" : "0x2e",
                "code" : "0x6000355415600957005b60203560003555",
                "nonce" : "0x00",
                "storage" : {
                }
            },
            "0xa94f5374fce5edbc8e2a8697c15331677e6ebf0b" : {
                "balance" : "0x0de0b6b3a7640000",
                "code" : "0x",
                "nonce" : "0x00",
                "storage" : {
                }
            }
        },
        "transaction" : {
            "data" : [
                "0x7f00000000000000000000000000000000000000000000000000000000000000017f000000000000000000000000945304eb96065b2a98b57a48a06ae28d285a71b5437f000000000000000000000000ffffffffffffffffffffffffffffffffffffffff7f00000000000000000000000000000000000000000000000000000000000000017ffffffffffffffffffffffffffffffffffffffffffffffffffffffffffffffffe7f000000000000000000000000ffffffffffffffffffffffffffffffffffffffff7fffffffffffffffffffffffffffffffffffffffffffffffffffffffffffffffff09"
            ],
            "gasLimit" : [
                "0x1ef0f8a1"
            ],
            "gasPrice" : "0x0a",
            "nonce" : "0x00",
            "secretKey" : "0x45a915e4d060149eb4365960e6a7a45f334393093061116b197e3240065ff2d8",
            "sender" : "0xa94f5374fce5edbc8e2a8697c15331677e6ebf0b",
            "to" : "0x095e7baea6a6c7c4c2dfeb977efac326af552d87",
            "value" : [
                "0x54d0f339"
            ]
        }
    }
}