{
    "randomStatetest642" : {
        "_info" : {
            "comment" : "",
            "filling-rpc-server" : "evm version 1.14.4-unstable-3d8028a6-20240513",
            "filling-tool-version" : "retesteth-0.3.2-cancun+commit.2ab0208e.Linux.g++",
            "generatedTestHash" : "0d001a5f899a26a70e13628d07a590c2d2bef46a2720a4787d892517d88e9705",
            "lllcversion" : "Version: 0.5.14-develop.2023.7.11+commit.c58ab2c6.mod.Linux.g++",
            "solidity" : "Version: 0.8.21+commit.d9974bed.Linux.g++",
            "source" : "src/GeneralStateTestsFiller/stRandom2/randomStatetest642Filler.json",
            "sourceHash" : "613b220cac1c0e67d6161faf54f79239a9776d444d8b233249eef90324c0f775"
        },
        "env" : {
            "currentBaseFee" : "0x0a",
            "currentCoinbase" : "0xa94f5374fce5edbc8e2a8697c15331677e6ebf0b",
            "currentDifficulty" : "0x020000",
            "currentExcessBlobGas" : "0x00",
            "currentGasLimit" : "0x406fbe7b1f887c",
            "currentNumber" : "0x01",
            "currentRandom" : "0x0000000000000000000000000000000000000000000000000000000000020000",
            "currentTimestamp" : "0x03e8"
        },
        "post" : {
            "Cancun" : [
                {
                    "hash" : "0x8bbb1f73f14bbd72903a89de24e75959b6b7b350dc8c9a0cdd058382254dca23",
                    "indexes" : {
                        "data" : 0,
                        "gas" : 0,
                        "value" : 0
                    },
                    "logs" : "0x1dcc4de8dec75d7aab85b567b6ccd41ad312451b948a7413f0a142fd40d49347",
                    "txbytes" : "0xf901e0800a834ac88d94000000000000000000000000000000000000000784f5e5cc4bb9017a73ac858c3531a0d29ea7a15dfca264e244056b35816eb2fa5e8b941bb7e03e269017ca7b29556e2c50a4525c68460af5ba912653059274ec9907faed7f4ceacf55ed7b50228e7e26e7113d6751750964de40c9f5bb9f378e19edc3fd6ffd6af7ee7710107f382df318b8e1c707719add3db4b00892ddfba9f3e970c8aa9b41f208c53bf041556585635e6534916c5ec0ba7162ea7979164bb27d007c198e1e50cb945b54a4dca4ac110de1a1d47f43fa61c9a6e916d30c3e89695e77cb0da0bcea3bd98260927c609b5782488c5d7e06f07fc67aa5f1cb3c2d7ee74a4054d94e0108b3c962a00fb567a505e96a974f83567a74b898ddd6136e1e6634e4c85cb37db14f98d0080ac548e092928b6eee8d6863592d990f9298d7040cfa486e4e881b0f19eb06892d2185cc0b295d7f2669f00ac67c30de107cd324610a5af8bb29d11354783888e7b8ba5ab533f959729b6e25886d426bbf4cd00626cffbc0ec6beb6a62ae0d9e7166a6303d22036c2b3d45e88057940ada00938e1ca051b0348078c8c9c2e6f53dc4169db5fca6a8a0521b5f0dff29767dce479a2548a04335b431f4d20a09c7cecb7ba7a7657a24619630058f89db4a07c309c1c02dfc"
                }
            ]
        },
        "pre" : {
            "0xa94f5374fce5edbc8e2a8697c15331677e6ebf0b" : {
                "balance" : "0x26551a696cacb206",
                "code" : "0x",
                "nonce" : "0x00",
                "storage" : {
                }
            },
            "0xb94f5374fce5edbc8e2a8697c15331677e6ebf0b" : {
                "balance" : "0x577686e8d1344340",
                "code" : "0x62f46a4f547b169c9edf92f4b39273fe47accc75d1209ae58463c2585607ce051ff6714c4f0fbf6de0659784434fb240652ff52d08576408f168a43a6651f765a4788a05537086290691d5a3239db43eefea96b0012ea26534e99e4ba9ee7f92f37fa731707f800683bafb70815757d861ad8cc6804154ce5b9de3146b58cd53",
                "nonce" : "0x70",
                "storage" : {
                }
            },
            "0xc94f5374fce5edbc8e2a8697c15331677e6ebf0b" : {
                "balance" : "0x11bae0bb79d6a164",
                "code" : "0x",
                "nonce" : "0xa3",
                "storage" : {
                }
            }
        },
        "transaction" : {
            "data" : [
                "0x73ac858c3531a0d29ea7a15dfca264e244056b35816eb2fa5e8b941bb7e03e269017ca7b29556e2c50a4525c68460af5ba912653059274ec9907faed7f4ceacf55ed7b50228e7e26e7113d6751750964de40c9f5bb9f378e19edc3fd6ffd6af7ee7710107f382df318b8e1c707719add3db4b00892ddfba9f3e970c8aa9b41f208c53bf041556585635e6534916c5ec0ba7162ea7979164bb27d007c198e1e50cb945b54a4dca4ac110de1a1d47f43fa61c9a6e916d30c3e89695e77cb0da0bcea3bd98260927c609b5782488c5d7e06f07fc67aa5f1cb3c2d7ee74a4054d94e0108b3c962a00fb567a505e96a974f83567a74b898ddd6136e1e6634e4c85cb37db14f98d0080ac548e092928b6eee8d6863592d990f9298d7040cfa486e4e881b0f19eb06892d2185cc0b295d7f2669f00ac67c30de107cd324610a5af8bb29d11354783888e7b8ba5ab533f959729b6e25886d426bbf4cd00626cffbc0ec6beb6a62ae0d9e7166a6303d22036c2b3d45e88057940ada00938e"
            ],
            "gasLimit" : [
                "0x4ac88d"
            ],
            "gasPrice" : "0x0a",
            "nonce" : "0x00",
            "secretKey" : "0x45a915e4d060149eb4365960e6a7a45f334393093061116b197e3240065ff2d8",
            "sender" : "0xa94f5374fce5edbc8e2a8697c15331677e6ebf0b",
            "to" : "0x0000000000000000000000000000000000000007",
            "value" : [
                "0xf5e5cc4b"
            ]
        }
    }
}