{
    "randomStatetest650" : {
        "_info" : {
            "comment" : "Consensus issue test produced by fuzz testing team FuzzyVM-1061441003-276458261",
            "filling-rpc-server" : "evm version 1.14.4-unstable-3d8028a6-20240513",
            "filling-tool-version" : "retesteth-0.3.2-cancun+commit.2ab0208e.Linux.g++",
            "generatedTestHash" : "11f6c3cf1d0a3a9b6d32c37c31535a53de7401c0cb581669412a1d6b5cc8428c",
            "lllcversion" : "Version: 0.5.14-develop.2023.7.11+commit.c58ab2c6.mod.Linux.g++",
            "solidity" : "Version: 0.8.21+commit.d9974bed.Linux.g++",
            "source" : "src/GeneralStateTestsFiller/stRandom2/randomStatetest650Filler.json",
            "sourceHash" : "8a04a1d8db0ab621c7f24d9f0ae31ee1147698dc7d74194ecc8ff658b3c2680b"
        },
        "env" : {
            "currentBaseFee" : "0x0a",
            "currentCoinbase" : "0xb94f5374fce5edbc8e2a8697c15331677e6ebf0b",
            "currentDifficulty" : "0x020000",
            "currentExcessBlobGas" : "0x00",
            "currentGasLimit" : "0x26e1f476fe1e22",
            "currentNumber" : "0x01",
            "currentRandom" : "0x0000000000000000000000000000000000000000000000000000000000020000",
            "currentTimestamp" : "0x03e8"
        },
        "post" : {
            "Cancun" : [
                {
                    "hash" : "0xc67407239de9d1d5cd95ff7c81d8ccd46ce73efc92f7385c2bc5dd3711e9eac8",
                    "indexes" : {
                        "data" : 0,
                        "gas" : 0,
                        "value" : 0
                    },
                    "logs" : "0x1dcc4de8dec75d7aab85b567b6ccd41ad312451b948a7413f0a142fd40d49347",
                    "txbytes" : "0xf8ca800a8401312d0094000000000000000000000000000000ca1100f02284efbfbd03b864000000d514029599b459ce6d7f5a430010f6730aefbfbdefbfbdefbfbdefbfbd03000000d514029599b459ce6d7f5a430010f6730aefbfbdefbfbdefbfbdefbfbd03000000d514029599b459ce6d7f5a430010f6730aefbfbdefbfbdefbfbdefbfbd03001ba0dc49386c1367c10f0e96399b7edb397d0e4e56e59db039d09ea83e0e9b6bedfba0316a71182789898fe932cffc0b948d9159659f2868a59c7aaacfddc2208a412f"
                }
            ]
        },
        "pre" : {
            "0x000000000000000000000000000000ca1100f022" : {
                "balance" : "0x00",
                "code" : "0x60006000526310000000602052600060405260f66060536073606153600a60625360ef60635360bf60645360bd60655360ef60665360bf60675360bd60685360ef60695360bf606a5360bd606b5360ef606c5360bf606d5360bd606e536003606f536040600060706000600562d51402fa6000635a430010557fbfbdefbfbdefbfbdefbfbd03000000d514029599b459ce6d7f5a430010f6730a6000527fefbfbdefbfbdefbfbdefbfbd03000000d514029599b459ce6d7f5a430010f6736020527f0aefbfbdefbfbdefbfbdefbfbd03000000d514029599b459ce6d7f5a430010f66040527f730aefbfbdefbfbdefbfbdefbfbd03000000d514029599b459ce6d7f5a4300106060527ff6730aefbfbdefbfbdefbfbdefbfbd03000000d514029599b459ce6d7f5a43006080527f10f6730aefbfbdefbfbdefbfbdefbfbd03000000d514029599b459ce6d7f5a4360a0527e10f6730aefbfbdefbfbdefbfbdefbfbd03000000d514029599b459ce6d7f5a60c052604360e053600060e153601060e25360f660e353607360e453600a60e55360ef60e65360bf60e75360bd60e85360ef60e95360bf60ea5360bd60eb5360ef60ec5360bf60ed5360bd60ee536020600060ef600063bfbdefbf6002622368eff16010615a436159ce6199b4610295600761d514f17fbfbdefbfbdefbfbdefbfbd03000000d514029599b459ce6d7f5a430010f6730a6000527fefbfbdefbfbdefbfbdefbfbd03000000d514029599b459ce6d7f5a430010f6736020527f0aefbfbdefbfbdefbfbdefbfbd03000000d514029599b459ce6d7f5a430010f66040527f730aefbfbdefbfbdefbfbdefbfbd03000000d514029599b459ce6d7f5a4300106060527ff6730aefbfbdefbfbdefbfbdefbfbd03000000d514029599b459ce6d7f5a43006080527f10f6730aefbfbdefbfbdefbfbdefbfbd03000000d514029599b459ce6d7f5a4360a0527e10f6730aefbfbdefbfbdefbfbdefbfbd03000000d514029599b459ce6d7f5a60c052604360e053600060e153601060e25360f660e353607360e453600a60e55360ef60e65360bf60e75360bd60e85360ef60e95360bf60ea5360bd60eb5360ef60ec5360bf60ed5360bd60ee536020600060ef600063bfbdefbf6002622368eff16010615a436159ce6199b4610295600761d514f17fbfbdefbfbdefbfbdefbfbd03000000d514029599b459ce6d7f5a430010f6730a6000527fefbfbdefbfbdefbfbdefbfbd03000000d514029599b459ce6d7f5a430010f6736020527f0aefbfbdefbfbdefbfbdefbfbd03000000d514029599b459ce6d7f5a430010f66040527f730aefbfbdefbfbdefbfbdefbfbd03000000d514029599b459ce6d7f5a4300106060527ff6730aefbfbdefbfbdefbfbdefbfbd03000000d514029599b459ce6d7f5a43006080527f10f6730aefbfbdefbfbdefbfbdefbfbd03000000d514029599b459ce6d7f5a4360a0527e10f6730aefbfbdefbfbdefbfbdefbfbd03000000d514029599b459ce6d7f5a60c052604360e053600060e153601060e25360f660e353607360e453600a60e55360ef60e65360bf60e75360bd60e85360ef60e95360bf60ea5360bd60eb5360ef60ec5360bf60ed5360bd60ee536020600060ef600063bfbdefbf6002622368eff16010615a436159ce6199b4610295600761d514f17fbfbdefbfbdefbfbdefbfbd03000000d514029599b459ce6d7f5a430010f6730a6000527fefbfbdefbfbdefbfbdefbfbd03000000d514029599b459ce6d7f5a430010f6736020527f0aefbfbdefbfbdefbfbdefbfbd03000000d514029599b459ce6d7f5a430010f66040527f730aefbfbdefbfbdefbfbdefbfbd03000000d514029599b459ce6d7f5a4300106060527ff6730aefbfbdefbfbdefbfbdefbfbd03000000d514029599b459ce6d7f5a43006080527f10f6730aefbfbdefbfbdefbfbdefbfbd03000000d514029599b459ce6d7f5a4360a0527e10f6730aefbfbdefbfbdefbfbdefbfbd03000000d514029599b459ce6d7f5a60c052604360e053600060e153601060e25360f660e353607360e453600a60e55360ef60e65360bf60e75360bd60e85360ef60e95360bf60ea5360bd60eb5360ef60ec5360bf60ed5360bd60ee536020600060ef600063bfbdefbf6002622368eff16010615a436159ce6199b4610295600761d514f17fbfbdefbfbdefbfbdefbfbd03000000d514029599b459ce6d7f5a430010f6730a6000527fefbfbdefbfbdefbfbdefbfbd03000000d514029599b459ce6d7f5a430010f6736020527f0aefbfbdefbfbdefbfbdefbfbd03000000d514029599b459ce6d7f5a430010f66040527f730aefbfbdefbfbdefbfbdefbfbd03000000d514029599b459ce6d7f5a4300106060527ff6730aefbfbdefbfbdefbfbdefbfbd03000000d514029599b459ce6d7f5a43006080527f10f6730aefbfbdefbfbdefbfbdefbfbd03000000d514029599b459ce6d7f5a4360a0527e10f6730aefbfbdefbfbdefbfbdefbfbd03000000d514029599b459ce6d7f5a60c052604360e053600060e153601060e25360f660e353607360e453600a60e55360ef60e65360bf60e75360bd60e85360ef60e95360bf60ea5360bd60eb5360ef60ec5360bf60ed5360bd60ee536020600060ef600063bfbdefbf6002622368eff16010615a436159ce6199b4610295600761d514f17fbfbdefbfbdefbfbdefbfbd03000000d514029599b459ce6d7f5a430010f6730a6000527fefbfbdefbfbdefbfbdefbfbd03000000d514029599b459ce6d7f5a430010f6736020527f0aefbfbdefbfbdefbfbdefbfbd03000000d514029599b459ce6d7f5a430010f66040527f730aefbfbdefbfbdefbfbdefbfbd03000000d514029599b459ce6d7f5a4300106060527ff6730aefbfbdefbfbdefbfbdefbfbd03000000d514029599b459ce6d7f5a43006080527f10f6730aefbfbdefbfbdefbfbdefbfbd03000000d514029599b459ce6d7f5a4360a0527e10f6730aefbfbdefbfbdefbfbdefbfbd03000000d514029599b459ce6d7f5a60c052604360e053600060e153601060e25360f660e353607360e453600a60e55360ef60e65360bf60e75360bd60e85360ef60e95360bf60ea5360bd60eb5360ef60ec5360bf60ed5360bd60ee536020600060ef600063bfbdefbf6002622368eff16010615a436159ce6199b4610295600761d514f17fbfbdefbfbdefbfbdefbfbd03000000d514029599b459ce6d7f5a430010f6730a6000527fefbfbdefbfbdefbfbdefbfbd03000000d514029599b459ce6d7f5a430010f6736020527f0aefbfbdefbfbdefbfbdefbfbd03000000d514029599b459ce6d7f5a430010f66040527f730aefbfbdefbfbdefbfbdefbfbd03000000d514029599b459ce6d7f5a4300106060527ff6730aefbfbdefbfbdefbfbdefbfbd03000000d514029599b459ce6d7f5a43006080527f10f6730aefbfbdefbfbdefbfbdefbfbd03000000d514029599b459ce6d7f5a4360a0527e10f6730aefbfbdefbfbdefbfbdefbfbd03000000d514029599b459ce6d7f5a60c052604360e053600060e153601060e25360f660e353607360e453600a60e55360ef60e65360bf60e75360bd60e85360ef60e95360bf60ea5360bd60eb5360ef60ec5360bf60ed5360bd60ee536020600060ef600063bfbdefbf6002622368eff16010615a436159ce6199b4610295600761d514f17fbfbdefbfbdefbfbdefbfbd03000000d514029599b459ce6d7f5a430010f6730a6000527fefbfbdefbfbdefbfbdefbfbd03000000d514029599b459ce6d7f5a430010f6736020527f0aefbfbdefbfbdefbfbdefbfbd03000000d514029599b459ce6d7f5a430010f66040527f730aefbfbdefbfbdefbfbdefbfbd03000000d514029599b459ce6d7f5a4300106060527ff6730aefbfbdefbfbdefbfbdefbfbd03000000d514029599b459ce6d7f5a43006080527f10f6730aefbfbdefbfbdefbfbdefbfbd03000000d514029599b459ce6d7f5a4360a0527e10f6730aefbfbdefbfbdefbfbdefbfbd03000000d514029599b459ce6d7f5a60c052604360e053600060e153601060e25360f660e353607360e453600a60e55360ef60e65360bf60e75360bd60e85360ef60e95360bf60ea5360bd60eb5360ef60ec5360bf60ed5360bd60ee536020600060ef600063bfbdefbf6002622368eff16010615a436159ce6199b4610295600761d514f17fbfbdefbfbdefbfbdefbfbd03000000d514029599b459ce6d7f5a430010f6730a6000527fefbfbdefbfbdefbfbdefbfbd03000000d514029599b459ce6d7f5a430010f6736020527f0aefbfbdefbfbdefbfbdefbfbd03000000d514029599b459ce6d7f5a430010f66040527f730aefbfbdefbfbdefbfbdefbfbd03000000d514029599b459ce6d7f5a4300106060527ff6730aefbfbdefbfbdefbfbdefbfbd03000000d514029599b459ce6d7f5a43006080527f10f6730aefbfbdefbfbdefbfbdefbfbd03000000d514029599b459ce6d7f5a4360a0527e10f6730aefbfbdefbfbdefbfbdefbfbd03000000d514029599b459ce6d7f5a60c052604360e053600060e153601060e25360f660e353607360e453600a60e55360ef60e65360bf60e75360bd60e85360ef60e95360bf60ea5360bd60eb5360ef60ec5360bf60ed5360bd60ee536020600060ef600063bfbdefbf6002622368eff16010615a436159ce6199b4610295600761d514f17fbfbdefbfbdefbfbdefbfbd03000000d514029599b459ce6d7f5a430010f6730a6000527fefbfbdefbfbdefbfbdefbfbd03000000d514029599b459ce6d7f5a430010f6736020527f0aefbfbdefbfbdefbfbdefbfbd03000000d514029599b459ce6d7f5a430010f66040527f730aefbfbdefbfbdefbfbdefbfbd03000000d514029599b459ce6d7f5a4300106060527ff6730aefbfbdefbfbdefbfbdefbfbd03000000d514029599b459ce6d7f5a43006080527f10f6730aefbfbdefbfbdefbfbdefbfbd03000000d514029599b459ce6d7f5a4360a0527e10f6730aefbfbdefbfbdefbfbdefbfbd03000000d514029599b459ce6d7f5a60c052604360e053600060e153601060e25360f660e353607360e453600a60e55360ef60e65360bf60e75360bd60e85360ef60e95360bf60ea5360bd60eb5360ef60ec5360bf60ed5360bd60ee536020600060ef600063bfbdefbf6002622368eff16010615a436159ce6199b4610295600761d514f17fbfbdefbfbdefbfbdefbfbd03000000d514029599b459ce6d7f5a430010f6730a6000527fefbfbdefbfbdefbfbdefbfbd03000000d514029599b459ce6d7f5a430010f6736020527f0aefbfbdefbfbdefbfbdefbfbd03000000d514029599b459ce6d7f5a430010f66040527f730aefbfbdefbfbdefbfbdefbfbd03000000d514029599b459ce6d7f5a4300106060527ff6730aefbfbdefbfbdefbfbdefbfbd03000000d514029599b459ce6d7f5a43006080527f10f6730aefbfbdefbfbdefbfbdefbfbd03000000d514029599b459ce6d7f5a4360a0527e10f6730aefbfbdefbfbdefbfbdefbfbd03000000d514029599b459ce6d7f5a60c052604360e053600060e153601060e25360f660e353607360e453600a60e55360ef60e65360bf60e75360bd60e85360ef60e95360bf60ea5360bd60eb5360ef60ec5360bf60ed5360bd60ee536020600060ef600063bfbdefbf6002622368eff16010615a436159ce6199b4610295600761d514f17fbfbdefbfbdefbfbdefbfbd03000000d514029599b459ce6d7f5a430010f6730a6000527fefbfbdefbfbdefbfbdefbfbd03000000d514029599b459ce6d7f5a430010f6736020527f0aefbfbdefbfbdefbfbdefbfbd03000000d514029599b459ce6d7f5a430010f66040527f730aefbfbdefbfbdefbfbdefbfbd03000000d514029599b459ce6d7f5a4300106060527ff6730aefbfbdefbfbdefbfbdefbfbd03000000d514029599b459ce6d7f5a43006080527f10f6730aefbfbdefbfbdefbfbdefbfbd03000000d514029599b459ce6d7f5a4360a0527e10f6730aefbfbdefbfbdefbfbdefbfbd03000000d514029599b459ce6d7f5a60c052604360e053600060e153601060e25360f660e353607360e453600a60e55360ef60e65360bf60e75360bd60e85360ef60e95360bf60ea5360bd60eb5360ef60ec5360bf60ed5360bd60ee536020600060ef600063bfbdefbf6002622368eff16010615a436159ce6199b4610295600761d514f17fbfbdefbfbdefbfbdefbfbd03000000d514029599b459ce6d7f5a430010f6730a6000527fefbfbdefbfbdefbfbdefbfbd03000000d514029599b459ce6d7f5a430010f6736020527f0aefbfbdefbfbdefbfbdefbfbd03000000d514029599b459ce6d7f5a430010f66040527f730aefbfbdefbfbdefbfbdefbfbd03000000d514029599b459ce6d7f5a4300106060527ff6730aefbfbdefbfbdefbfbdefbfbd03000000d514029599b459ce6d7f5a43006080527f10f6730aefbfbdefbfbdefbfbdefbfbd03000000d514029599b459ce6d7f5a4360a0527e10f6730aefbfbdefbfbdefbfbdefbfbd03000000d514029599b459ce6d7f5a60c052604360e053600060e153601060e25360f660e353607360e453600a60e55360ef60e65360bf60e75360bd60e85360ef60e95360bf60ea5360bd60eb5360ef60ec5360bf60ed5360bd60ee536020600060ef600063bfbdefbf6002622368eff16010615a436159ce6199b4610295600761d514f17fbfbdefbfbdefbfbdefbfbd03000000d514029599b459ce6d7f5a430010f6730a6000527fefbfbdefbfbdefbfbdefbfbd03000000d514029599b459ce6d7f5a430010f6736020527f0aefbfbdefbfbdefbfbdefbfbd03000000d514029599b459ce6d7f5a430010f66040527f730aefbfbdefbfbdefbfbdefbfbd03000000d514029599b459ce6d7f5a4300106060527ff6730aefbfbdefbfbdefbfbdefbfbd03000000d514029599b459ce6d7f5a43006080527f10f6730aefbfbdefbfbdefbfbdefbfbd03000000d514029599b459ce6d7f5a4360a0527e10f6730aefbfbdefbfbdefbfbdefbfbd03000000d514029599b459ce6d7f5a60c052604360e053600060e153601060e25360f660e353607360e453600a60e55360ef60e65360bf60e75360bd60e85360ef60e95360bf60ea5360bd60eb5360ef60ec5360bf60ed5360bd60ee536020600060ef600063bfbdefbf6002622368eff16010615a436159ce6199b4610295600761d514f17fbfbdefbfbdefbfbdefbfbd03000000d514029599b459ce6d7f5a430010f6730a6000527fefbfbdefbfbdefbfbdefbfbd03000000d514029599b459ce6d7f5a430010f6736020527f0aefbfbdefbfbdefbfbdefbfbd03000000d514029599b459ce6d7f5a430010f66040527f730aefbfbdefbfbdefbfbdefbfbd03000000d514029599b459ce6d7f5a4300106060527ff6730aefbfbdefbfbdefbfbdefbfbd03000000d514029599b459ce6d7f5a43006080527f10f6730aefbfbdefbfbdefbfbdefbfbd03000000d514029599b459ce6d7f5a4360a0527e10f6730aefbfbdefbfbdefbfbdefbfbd03000000d514029599b459ce6d7f5a60c052604360e053600060e153601060e25360f660e353607360e453600a60e55360ef60e65360bf60e75360bd60e85360ef60e95360bf60ea5360bd60eb5360ef60ec5360bf60ed5360bd60ee536020600060ef600063bfbdefbf6002622368eff16010615a436159ce6199b4610295600761d514f17fbfbdefbfbdefbfbdefbfbd03000000d514029599b459ce6d7f5a430010f6730a6000527fefbfbdefbfbdefbfbdefbfbd03000000d514029599b459ce6d7f5a430010f6736020527f0aefbfbdefbfbdefbfbdefbfbd03000000d514029599b459ce6d7f5a430010f66040527f730aefbfbdefbfbdefbfbdefbfbd03000000d514029599b459ce6d7f5a4300106060527ff6730aefbfbdefbfbdefbfbdefbfbd03000000d514029599b459ce6d7f5a43006080527f10f6730aefbfbdefbfbdefbfbdefbfbd03000000d514029599b459ce6d7f5a4360a0527e10f6730aefbfbdefbfbdefbfbdefbfbd03000000d514029599b459ce6d7f5a60c052604360e053600060e153601060e25360f660e353607360e453600a60e55360ef60e65360bf60e75360bd60e85360ef60e95360bf60ea5360bd60eb5360ef60ec5360bf60ed5360bd60ee536020600060ef600063bfbdefbf6002622368eff16010615a436159ce6199b4610295600761d514f17fbfbdefbfbdefbfbdefbfbd03000000d514029599b459ce6d7f5a430010f6730a6000527fefbfbdefbfbdefbfbdefbfbd03000000d514029599b459ce6d7f5a430010f6736020527f0aefbfbdefbfbdefbfbdefbfbd03000000d514029599b459ce6d7f5a430010f66040527f730aefbfbdefbfbdefbfbdefbfbd03000000d514029599b459ce6d7f5a4300106060527ff6730aefbfbdefbfbdefbfbdefbfbd03000000d514029599b459ce6d7f5a43006080527f10f6730aefbfbdefbfbdefbfbdefbfbd03000000d514029599b459ce6d7f5a4360a0527e10f6730aefbfbdefbfbdefbfbdefbfbd03000000d514029599b459ce6d7f5a60c052604360e053600060e153601060e25360f660e353607360e453600a60e55360ef60e65360bf60e75360bd60e85360ef60e95360bf60ea5360bd60eb5360ef60ec5360bf60ed5360bd60ee536020600060ef600063bfbdefbf6002622368eff16010615a436159ce6199b4610295600761d514f17fbfbdefbfbdefbfbdefbfbd03000000d514029599b459ce6d7f5a430010f6730a6000527fefbfbdefbfbdefbfbdefbfbd03000000d514029599b459ce6d7f5a430010f6736020527f0aefbfbdefbfbdefbfbdefbfbd03000000d514029599b459ce6d7f5a430010f66040527f730aefbfbdefbfbdefbfbdefbfbd03000000d514029599b459ce6d7f5a4300106060527ff6730aefbfbdefbfbdefbfbdefbfbd03000000d514029599b459ce6d7f5a43006080527f10f6730aefbfbdefbfbdefbfbdefbfbd03000000d514029599b459ce6d7f5a4360a0527e10f6730aefbfbdefbfbdefbfbdefbfbd03000000d514029599b459ce6d7f5a60c052604360e053600060e153601060e25360f660e353607360e453600a60e55360ef60e65360bf60e75360bd60e85360ef60e95360bf60ea5360bd60eb5360ef60ec5360bf60ed5360bd60ee536020600060ef600063bfbdefbf6002622368eff16010615a436159ce6199b4610295600761d514f17fbfbdefbfbdefbfbdefbfbd03000000d514029599b459ce6d7f5a430010f6730a6000527fefbfbdefbfbdefbfbdefbfbd03000000d514029599b459ce6d7f5a430010f6736020527f0aefbfbdefbfbdefbfbdefbfbd03000000d514029599b459ce6d7f5a430010f66040527f730aefbfbdefbfbdefbfbdefbfbd03000000d514029599b459ce6d7f5a4300106060527ff6730aefbfbdefbfbdefbfbdefbfbd03000000d514029599b459ce6d7f5a43006080527f10f6730aefbfbdefbfbdefbfbdefbfbd03000000d514029599b459ce6d7f5a4360a0527e10f6730aefbfbdefbfbdefbfbdefbfbd03000000d514029599b459ce6d7f5a60c052604360e053600060e153601060e25360f660e353607360e453600a60e55360ef60e65360bf60e75360bd60e85360ef60e95360bf60ea5360bd60eb5360ef60ec5360bf60ed5360bd60ee536020600060ef600063bfbdefbf6002622368eff16010615a436159ce6199b4610295600761d514f17fbfbdefbfbdefbfbdefbfbd03000000d514029599b459ce6d7f5a430010f6730a6000527fefbfbdefbfbdefbfbdefbfbd03000000d514029599b459ce6d7f5a430010f6736020527f0aefbfbdefbfbdefbfbdefbfbd03000000d514029599b459ce6d7f5a430010f66040527f730aefbfbdefbfbdefbfbdefbfbd03000000d514029599b459ce6d7f5a4300106060527ff6730aefbfbdefbfbdefbfbdefbfbd03000000d514029599b459ce6d7f5a43006080527f10f6730aefbfbdefbfbdefbfbdefbfbd03000000d514029599b459ce6d7f5a4360a0527e10f6730aefbfbdefbfbdefbfbdefbfbd03000000d514029599b459ce6d7f5a60c052604360e053600060e153601060e25360f660e353607360e453600a60e55360ef60e65360bf60e75360bd60e85360ef60e95360bf60ea5360bd60eb5360ef60ec5360bf60ed5360bd60ee536020600060ef600063bfbdefbf6002622368eff16010615a436159ce6199b4610295600761d514f17fbfbdefbfbdefbfbdefbfbd03000000d514029599b459ce6d7f5a430010f6730a6000527fefbfbdefbfbdefbfbdefbfbd03000000d514029599b459ce6d7f5a430010f6736020527f0aefbfbdefbfbdefbfbdefbfbd03000000d514029599b459ce6d7f5a430010f66040527f730aefbfbdefbfbdefbfbdefbfbd03000000d514029599b459ce6d7f5a4300106060527ff6730aefbfbdefbfbdefbfbdefbfbd03000000d514029599b459ce6d7f5a43006080527f10f6730aefbfbdefbfbdefbfbdefbfbd03000000d514029599b459ce6d7f5a4360a0527e10f6730aefbfbdefbfbdefbfbdefbfbd03000000d514029599b459ce6d7f5a60c052604360e053600060e153601060e25360f660e353607360e453600a60e55360ef60e65360bf60e75360bd60e85360ef60e95360bf60ea5360bd60eb5360ef60ec5360bf60ed5360bd60ee536020600060ef600063bfbdefbf6002622368eff16010615a436159ce6199b4610295600761d514f17fbfbdefbfbdefbfbdefbfbd03000000d514029599b459ce6d7f5a430010f6730a6000527fefbfbdefbfbdefbfbdefbfbd03000000d514029599b459ce6d7f5a430010f6736020527f0aefbfbdefbfbdefbfbdefbfbd03000000d514029599b459ce6d7f5a430010f66040527f730aefbfbdefbfbdefbfbdefbfbd03000000d514029599b459ce6d7f5a4300106060527ff6730aefbfbdefbfbdefbfbdefbfbd03000000d514029599b459ce6d7f5a43006080527f10f6730aefbfbdefbfbdefbfbdefbfbd03000000d514029599b459ce6d7f5a4360a0527e10f6730aefbfbdefbfbdefbfbdefbfbd03000000d514029599b459ce6d7f5a60c052604360e053600060e153601060e25360f660e353607360e453600a60e55360ef60e65360bf60e75360bd60e85360ef60e95360bf60ea5360bd60eb5360ef60ec5360bf60ed5360bd60ee536020600060ef600063bfbdefbf6002622368eff16010615a436159ce6199b4610295600761d514f17fbfbdefbfbdefbfbdefbfbd03000000d514029599b459ce6d7f5a430010f6730a6000527fefbfbdefbfbdefbfbdefbfbd03000000d514029599b459ce6d7f5a430010f6736020527f0aefbfbdefbfbdefbfbdefbfbd03000000d514029599b459ce6d7f5a430010f66040527f730aefbfbdefbfbdefbfbdefbfbd03000000d514029599b459ce6d7f5a4300106060527ff6730aefbfbdefbfbdefbfbdefbfbd03000000d514029599b459ce6d7f5a43006080527f10f6730aefbfbdefbfbdefbfbdefbfbd03000000d514029599b459ce6d7f5a4360a0527e10f6730aefbfbdefbfbdefbfbdefbfbd03000000d514029599b459ce6d7f5a60c052604360e053600060e153601060e25360f660e353607360e453600a60e55360ef60e65360bf60e75360bd60e85360ef60e95360bf60ea5360bd60eb5360ef60ec5360bf60ed5360bd60ee536020600060ef600063bfbdefbf6002622368eff16010615a436159ce6199b4610295600761d514f17fbfbdefbfbdefbfbdefbfbd03000000d514029599b459ce6d7f5a430010f6730a6000527fefbfbdefbfbdefbfbdefbfbd03000000d514029599b459ce6d7f5a430010f6736020527f0aefbfbdefbfbdefbfbdefbfbd03000000d514029599b459ce6d7f5a430010f66040527f730aefbfbdefbfbdefbfbdefbfbd03000000d514029599b459ce6d7f5a4300106060527ff6730aefbfbdefbfbdefbfbdefbfbd03000000d514029599b459ce6d7f5a43006080527f10f6730aefbfbdefbfbdefbfbdefbfbd03000000d514029599b459ce6d7f5a4360a0527e10f6730aefbfbdefbfbdefbfbdefbfbd03000000d514029599b459ce6d7f5a60c052604360e053600060e153601060e25360f660e353607360e453600a60e55360ef60e65360bf60e75360bd60e85360ef60e95360bf60ea5360bd60eb5360ef60ec5360bf60ed5360bd60ee536020600060ef600063bfbdefbf6002622368eff16010615a436159ce6199b4610295600761d514f17fbfbdefbfbdefbfbdefbfbd03000000d514029599b459ce6d7f5a430010f6730a6000527fefbfbdefbfbdefbfbdefbfbd03000000d514029599b459ce6d7f5a430010f6736020527f0aefbfbdefbfbdefbfbdefbfbd03000000d514029599b459ce6d7f5a430010f66040527f730aefbfbdefbfbdefbfbdefbfbd03000000d514029599b459ce6d7f5a4300106060527ff6730aefbfbdefbfbdefbfbdefbfbd03000000d514029599b459ce6d7f5a43006080527f10f6730aefbfbdefbfbdefbfbdefbfbd03000000d514029599b459ce6d7f5a4360a0527e10f6730aefbfbdefbfbdefbfbdefbfbd03000000d514029599b459ce6d7f5a60c052604360e053600060e153601060e25360f660e353607360e453600a60e55360ef60e65360bf60e75360bd60e85360ef60e95360bf60ea5360bd60eb5360ef60ec5360bf60ed5360bd60ee536020600060ef600063bfbdefbf6002622368eff16010615a436159ce6199b4610295600761d514f17fbfbdefbfbdefbfbdefbfbd03000000d514029599b459ce6d7f5a430010f6730a6000527fefbfbdefbfbdefbfbdefbfbd03000000d514029599b459ce6d7f5a430010f6736020527f0aefbfbdefbfbdefbfbdefbfbd03000000d514029599b459ce6d7f5a430010f66040527f730aefbfbdefbfbdefbfbdefbfbd03000000d514029599b459ce6d7f5a4300106060527ff6730aefbfbdefbfbdefbfbdefbfbd03000000d514029599b459ce6d7f5a43006080527f10f6730aefbfbdefbfbdefbfbdefbfbd03000000d514029599b459ce6d7f5a4360a0527e10f6730aefbfbdefbfbdefbfbdefbfbd03000000d514029599b459ce6d7f5a60c052604360e053600060e153601060e25360f660e353607360e453600a60e55360ef60e65360bf60e75360bd60e85360ef60e95360bf60ea5360bd60eb5360ef60ec5360bf60ed5360bd60ee536020600060ef600063bfbdefbf6002622368eff16010615a436159ce6199b4610295600761d514f17fbfbdefbfbdefbfbdefbfbd03000000d514029599b459ce6d7f5a430010f6730a6000527fefbfbdefbfbdefbfbdefbfbd03000000d514029599b459ce6d7f5a430010f6736020527f0aefbfbdefbfbdefbfbdefbfbd03000000d514029599b459ce6d7f5a430010f66040527f730aefbfbdefbfbdefbfbdefbfbd03000000d514029599b459ce6d7f5a4300106060527ff6730aefbfbdefbfbdefbfbdefbfbd03000000d514029599b459ce6d7f5a43006080527f10f6730aefbfbdefbfbdefbfbdefbfbd03000000d514029599b459ce6d7f5a4360a0527e10f6730aefbfbdefbfbdefbfbdefbfbd03000000d514029599b459ce6d7f5a60c052604360e053600060e153601060e25360f660e353607360e453600a60e55360ef60e65360bf60e75360bd60e85360ef60e95360bf60ea5360bd60eb5360ef60ec5360bf60ed5360bd60ee536020600060ef600063bfbdefbf6002622368eff16010615a436159ce6199b4610295600761d514f17fbfbdefbfbdefbfbdefbfbd03000000d514029599b459ce6d7f5a430010f6730a6000527fefbfbdefbfbdefbfbdefbfbd03000000d514029599b459ce6d7f5a430010f6736020527f0aefbfbdefbfbdefbfbdefbfbd03000000d514029599b459ce6d7f5a430010f66040527f730aefbfbdefbfbdefbfbdefbfbd03000000d514029599b459ce6d7f5a4300106060527ff6730aefbfbdefbfbdefbfbdefbfbd03000000d514029599b459ce6d7f5a43006080527f10f6730aefbfbdefbfbdefbfbdefbfbd03000000d514029599b459ce6d7f5a4360a0527e10f6730aefbfbdefbfbdefbfbdefbfbd03000000d514029599b459ce6d7f5a60c052604360e053600060e153601060e25360f660e353607360e453600a60e55360ef60e65360bf60e75360bd60e85360ef60e95360bf60ea5360bd60eb5360ef60ec5360bf60ed5360bd60ee536020600060ef600063bfbdefbf6002622368eff16010615a436159ce6199b4610295600761d514f17fbfbdefbfbdefbfbdefbfbd03000000d514029599b459ce6d7f5a430010f6730a6000527fefbfbdefbfbdefbfbdefbfbd03000000d514029599b459ce6d7f5a430010f6736020527f0aefbfbdefbfbdefbfbdefbfbd03000000d514029599b459ce6d7f5a430010f66040527f730aefbfbdefbfbdefbfbdefbfbd03000000d514029599b459ce6d7f5a4300106060527ff6730aefbfbdefbfbdefbfbdefbfbd03000000d514029599b459ce6d7f5a43006080527f10f6730aefbfbdefbfbdefbfbdefbfbd03000000d514029599b459ce6d7f5a4360a0527e10f6730aefbfbdefbfbdefbfbdefbfbd03000000d514029599b459ce6d7f5a60c052604360e053600060e153601060e25360f660e353607360e453600a60e55360ef60e65360bf60e75360bd60e85360ef60e95360bf60ea5360bd60eb5360ef60ec5360bf60ed5360bd60ee536020600060ef600063bfbdefbf6002622368eff16010615a436159ce6199b4610295600761d514f17fbfbdefbfbdefbfbdefbfbd03000000d514029599b459ce6d7f5a430010f6730a6000527fefbfbdefbfbdefbfbdefbfbd03000000d514029599b459ce6d7f5a430010f6736020527f0aefbfbdefbfbdefbfbdefbfbd03000000d514029599b459ce6d7f5a430010f66040527f730aefbfbdefbfbdefbfbdefbfbd03000000d514029599b459ce6d7f5a4300106060527ff6730aefbfbdefbfbdefbfbdefbfbd03000000d514029599b459ce6d7f5a43006080527f10f6730aefbfbdefbfbdefbfbdefbfbd03000000d514029599b459ce6d7f5a4360a0527e10f6730aefbfbdefbfbdefbfbdefbfbd03000000d514029599b459ce6d7f5a60c052604360e053600060e153601060e25360f660e353607360e453600a60e55360ef60e65360bf60e75360bd60e85360ef60e95360bf60ea5360bd60eb5360ef60ec5360bf60ed5360bd60ee536020600060ef600063bfbdefbf6002622368eff16010615a436159ce6199b4610295600761d514f17fbfbdefbfbdefbfbdefbfbd03000000d514029599b459ce6d7f5a430010f6730a6000527fefbfbdefbfbdefbfbdefbfbd03000000d514029599b459ce6d7f5a430010f6736020527f0aefbfbdefbfbdefbfbdefbfbd03000000d514029599b459ce6d7f5a430010f66040527f730aefbfbdefbfbdefbfbdefbfbd03000000d514029599b459ce6d7f5a4300106060527ff6730aefbfbdefbfbdefbfbdefbfbd03000000d514029599b459ce6d7f5a43006080527f10f6730aefbfbdefbfbdefbfbdefbfbd03000000d514029599b459ce6d7f5a4360a0527e10f6730aefbfbdefbfbdefbfbdefbfbd03000000d514029599b459ce6d7f5a60c052604360e053600060e153601060e25360f660e353607360e453600a60e55360ef60e65360bf60e75360bd60e85360ef60e95360bf60ea5360bd60eb5360ef60ec5360bf60ed5360bd60ee536020600060ef600063bfbdefbf6002622368eff16010615a436159ce6199b4610295600761d514f17fbfbdefbfbdefbfbdefbfbd03000000d514029599b459ce6d7f5a430010f6730a6000527fefbfbdefbfbdefbfbdefbfbd03000000d514029599b459ce6d7f5a430010f6736020527f0aefbfbdefbfbdefbfbdefbfbd03000000d514029599b459ce6d7f5a430010f66040527f730aefbfbdefbfbdefbfbdefbfbd03000000d514029599b459ce6d7f5a4300106060527ff6730aefbfbdefbfbdefbfbdefbfbd03000000d514029599b459ce6d7f5a43006080527f10f6730aefbfbdefbfbdefbfbdefbfbd03000000d514029599b459ce6d7f5a4360a0527e10f6730aefbfbdefbfbdefbfbdefbfbd03000000d514029599b459ce6d7f5a60c052604360e053600060e153601060e25360f660e353607360e453600a60e55360ef60e65360bf60e75360bd60e85360ef60e95360bf60ea5360bd60eb5360ef60ec5360bf60ed5360bd60ee536020600060ef600063bfbdefbf6002622368eff16010615a436159ce6199b4610295600761d514f17fbfbdefbfbdefbfbdefbfbd03000000d514029599b459ce6d7f5a430010f6730a6000527fefbfbdefbfbdefbfbdefbfbd03000000d514029599b459ce6d7f5a430010f6736020527f0aefbfbdefbfbdefbfbdefbfbd03000000d514029599b459ce6d7f5a430010f66040527f730aefbfbdefbfbdefbfbdefbfbd03000000d514029599b459ce6d7f5a4300106060527ff6730aefbfbdefbfbdefbfbdefbfbd03000000d514029599b459ce6d7f5a43006080527f10f6730aefbfbdefbfbdefbfbdefbfbd03000000d514029599b459ce6d7f5a4360a0527e10f6730aefbfbdefbfbdefbfbdefbfbd03000000d514029599b459ce6d7f5a60c052604360e053600060e153601060e25360f660e353607360e453600a60e55360ef60e65360bf60e75360bd60e85360ef60e95360bf60ea5360bd60eb5360ef60ec5360bf60ed5360bd60ee536020600060ef600063bfbdefbf6002622368eff16010615a436159ce6199b4610295600761d514f17fbfbdefbfbdefbfbdefbfbd03000000d514029599b459ce6d7f5a430010f6730a6000527fefbfbdefbfbdefbfbdefbfbd03000000d514029599b459ce6d7f5a430010f6736020527f0aefbfbdefbfbdefbfbdefbfbd03000000d514029599b459ce6d7f5a430010f66040527f730aefbfbdefbfbdefbfbdefbfbd03000000d514029599b459ce6d7f5a4300106060527ff6730aefbfbdefbfbdefbfbdefbfbd03000000d514029599b459ce6d7f5a43006080527f10f6730aefbfbdefbfbdefbfbdefbfbd03000000d514029599b459ce6d7f5a4360a0527e10f6730aefbfbdefbfbdefbfbdefbfbd03000000d514029599b459ce6d7f5a60c052604360e053600060e153601060e25360f660e353607360e453600a60e55360ef60e65360bf60e75360bd60e85360ef60e95360bf60ea5360bd60eb5360ef60ec5360bf60ed5360bd60ee536020600060ef600063bfbdefbf6002622368eff16010615a436159ce6199b4610295600761d514f17fbfbdefbfbdefbfbdefbfbd03000000d514029599b459ce6d7f5a430010f6730a6000527fefbfbdefbfbdefbfbdefbfbd03000000d514029599b459ce6d7f5a430010f6736020527f0aefbfbdefbfbdefbfbdefbfbd03000000d514029599b459ce6d7f5a430010f66040527f730aefbfbdefbfbdefbfbdefbfbd03000000d514029599b459ce6d7f5a4300106060527ff6730aefbfbdefbfbdefbfbdefbfbd03000000d514029599b459ce6d7f5a43006080527f10f6730aefbfbdefbfbdefbfbdefbfbd03000000d514029599b459ce6d7f5a4360a0527e10f6730aefbfbdefbfbdefbfbdefbfbd03000000d514029599b459ce6d7f5a60c052604360e053600060e153601060e25360f660e353607360e453600a60e55360ef60e65360bf60e75360bd60e85360ef60e95360bf60ea5360bd60eb5360ef60ec5360bf60ed5360bd60ee536020600060ef600063bfbdefbf6002622368eff16010615a436159ce6199b4610295600761d514f17fbfbdefbfbdefbfbdefbfbd03000000d514029599b459ce6d7f5a430010f6730a6000527fefbfbdefbfbdefbfbdefbfbd03000000d514029599b459ce6d7f5a430010f6736020527f0aefbfbdefbfbdefbfbdefbfbd03000000d514029599b459ce6d7f5a430010f66040527f730aefbfbdefbfbdefbfbdefbfbd03000000d514029599b459ce6d7f5a4300106060527ff6730aefbfbdefbfbdefbfbdefbfbd03000000d514029599b459ce6d7f5a43006080527f10f6730aefbfbdefbfbdefbfbdefbfbd03000000d514029599b459ce6d7f5a4360a0527e10f6730aefbfbdefbfbdefbfbdefbfbd03000000d514029599b459ce6d7f5a60c052604360e053600060e153601060e25360f660e353607360e453600a60e55360ef60e65360bf60e75360bd60e85360ef60e95360bf60ea5360bd60eb5360ef60ec5360bf60ed5360bd60ee536020600060ef600063bfbdefbf6002622368eff16010615a436159ce6199b4610295600761d514f17fbfbdefbfbdefbfbdefbfbd03000000d514029599b459ce6d7f5a430010f6730a6000527fefbfbdefbfbdefbfbdefbfbd03000000d514029599b459ce6d7f5a430010f6736020527f0aefbfbdefbfbdefbfbdefbfbd03000000d514029599b459ce6d7f5a430010f66040527f730aefbfbdefbfbdefbfbdefbfbd03000000d514029599b459ce6d7f5a4300106060527ff6730aefbfbdefbfbdefbfbdefbfbd03000000d514029599b459ce6d7f5a43006080527f10f6730aefbfbdefbfbdefbfbdefbfbd03000000d514029599b459ce6d7f5a4360a0527e10f6730aefbfbdefbfbdefbfbdefbfbd03000000d514029599b459ce6d7f5a60c052604360e053600060e153601060e25360f660e353607360e453600a60e55360ef60e65360bf60e75360bd60e85360ef60e95360bf60ea5360bd60eb5360ef60ec5360bf60ed5360bd60ee536020600060ef600063bfbdefbf6002622368eff16010615a436159ce6199b4610295600761d514f17fbfbdefbfbdefbfbdefbfbd03000000d514029599b459ce6d7f5a430010f6730a6000527fefbfbdefbfbdefbfbdefbfbd03000000d514029599b459ce6d7f5a430010f6736020527f0aefbfbdefbfbdefbfbdefbfbd03000000d514029599b459ce6d7f5a430010f66040527f730aefbfbdefbfbdefbfbdefbfbd03000000d514029599b459ce6d7f5a4300106060527ff6730aefbfbdefbfbdefbfbdefbfbd03000000d514029599b459ce6d7f5a43006080527f10f6730aefbfbdefbfbdefbfbdefbfbd03000000d514029599b459ce6d7f5a4360a0527e10f6730aefbfbdefbfbdefbfbdefbfbd03000000d514029599b459ce6d7f5a60c052604360e053600060e153601060e25360f660e353607360e453600a60e55360ef60e65360bf60e75360bd60e85360ef60e95360bf60ea5360bd60eb5360ef60ec5360bf60ed5360bd60ee536020600060ef600063bfbdefbf6002622368eff16010615a436159ce6199b4610295600761d514f17fbfbdefbfbdefbfbdefbfbd03000000d514029599b459ce6d7f5a430010f6730a6000527fefbfbdefbfbdefbfbdefbfbd03000000d514029599b459ce6d7f5a430010f6736020527f0aefbfbdefbfbdefbfbdefbfbd03000000d514029599b459ce6d7f5a430010f66040527f730aefbfbdefbfbdefbfbdefbfbd03000000d514029599b459ce6d7f5a4300106060527ff6730aefbfbdefbfbdefbfbdefbfbd03000000d514029599b459ce6d7f5a43006080527f10f6730aefbfbdefbfbdefbfbdefbfbd03000000d514029599b459ce6d7f5a4360a0527e10f6730aefbfbdefbfbdefbfbdefbfbd03000000d514029599b459ce6d7f5a60c052604360e053600060e153601060e25360f660e353607360e453600a60e55360ef60e65360bf60e75360bd60e85360ef60e95360bf60ea5360bd60eb5360ef60ec5360bf60ed5360bd60ee536020600060ef600063bfbdefbf6002622368eff16010615a436159ce6199b4610295600761d514f17fbfbdefbfbdefbfbdefbfbd03000000d514029599b459ce6d7f5a430010f6730a6000527fefbfbdefbfbdefbfbdefbfbd03000000d514029599b459ce6d7f5a430010f6736020527f0aefbfbdefbfbdefbfbdefbfbd03000000d514029599b459ce6d7f5a430010f66040527f730aefbfbdefbfbdefbfbdefbfbd03000000d514029599b459ce6d7f5a4300106060527ff6730aefbfbdefbfbdefbfbdefbfbd03000000d514029599b459ce6d7f5a43006080527f10f6730aefbfbdefbfbdefbfbdefbfbd03000000d514029599b459ce6d7f5a4360a0527e10f6730aefbfbdefbfbdefbfbdefbfbd03000000d514029599b459ce6d7f5a60c052604360e053600060e153601060e25360f660e353607360e453600a60e55360ef60e65360bf60e75360bd60e85360ef60e95360bf60ea5360bd60eb5360ef60ec5360bf60ed5360bd60ee536020600060ef600063bfbdefbf6002622368eff16010615a436159ce6199b4610295600761d514f17fbfbdefbfbdefbfbdefbfbd03000000d514029599b459ce6d7f5a430010f6730a6000527fefbfbdefbfbdefbfbdefbfbd03000000d514029599b459ce6d7f5a430010f6736020527f0aefbfbdefbfbdefbfbdefbfbd03000000d514029599b459ce6d7f5a430010f66040527f730aefbfbdefbfbdefbfbdefbfbd03000000d514029599b459ce6d7f5a4300106060527ff6730aefbfbdefbfbdefbfbdefbfbd03000000d514029599b459ce6d7f5a43006080527f10f6730aefbfbdefbfbdefbfbdefbfbd03000000d514029599b459ce6d7f5a4360a0527e10f6730aefbfbdefbfbdefbfbdefbfbd03000000d514029599b459ce6d7f5a60c052604360e053600060e153601060e25360f660e353607360e453600a60e55360ef60e65360bf60e75360bd60e85360ef60e95360bf60ea5360bd60eb5360ef60ec5360bf60ed5360bd60ee536020600060ef600063bfbdefbf6002622368eff16010615a436159ce6199b4610295600761d514f17fbfbdefbfbdefbfbdefbfbd03000000d514029599b459ce6d7f5a430010f6730a6000527fefbfbdefbfbdefbfbdefbfbd03000000d514029599b459ce6d7f5a430010f6736020527f0aefbfbdefbfbdefbfbdefbfbd03000000d514029599b459ce6d7f5a430010f66040527f730aefbfbdefbfbdefbfbdefbfbd03000000d514029599b459ce6d7f5a4300106060527ff6730aefbfbdefbfbdefbfbdefbfbd03000000d514029599b459ce6d7f5a43006080527f10f6730aefbfbdefbfbdefbfbdefbfbd03000000d514029599b459ce6d7f5a4360a0527e10f6730aefbfbdefbfbdefbfbdefbfbd03000000d514029599b459ce6d7f5a60c052604360e053600060e153601060e25360f660e353607360e453600a60e55360ef60e65360bf60e75360bd60e85360ef60e95360bf60ea5360bd60eb5360ef60ec5360bf60ed5360bd60ee536020600060ef600063bfbdefbf6002622368eff16010615a436159ce6199b4610295600761d514f17fbfbdefbfbdefbfbdefbfbd03000000d514029599b459ce6d7f5a430010f6730a6000527fefbfbdefbfbdefbfbdefbfbd03000000d514029599b459ce6d7f5a430010f6736020527f0aefbfbdefbfbdefbfbdefbfbd03000000d514029599b459ce6d7f5a430010f66040527f730aefbfbdefbfbdefbfbdefbfbd03000000d514029599b459ce6d7f5a4300106060527ff6730aefbfbdefbfbdefbfbdefbfbd03000000d514029599b459ce6d7f5a43006080527f10f6730aefbfbdefbfbdefbfbdefbfbd03000000d514029599b459ce6d7f5a4360a0527e10f6730aefbfbdefbfbdefbfbdefbfbd03000000d514029599b459ce6d7f5a60c052604360e053600060e153601060e25360f660e353607360e453600a60e55360ef60e65360bf60e75360bd60e85360ef60e95360bf60ea5360bd60eb5360ef60ec5360bf60ed5360bd60ee536020600060ef600063bfbdefbf6002622368eff16010615a436159ce6199b4610295600761d514f17fbfbdefbfbdefbfbdefbfbd03000000d514029599b459ce6d7f5a430010f6730a6000527fefbfbdefbfbdefbfbdefbfbd03000000d514029599b459ce6d7f5a430010f6736020527f0aefbfbdefbfbdefbfbdefbfbd03000000d514029599b459ce6d7f5a430010f66040527f730aefbfbdefbfbdefbfbdefbfbd03000000d514029599b459ce6d7f5a4300106060527ff6730aefbfbdefbfbdefbfbdefbfbd03000000d514029599b459ce6d7f5a43006080527f10f6730aefbfbdefbfbdefbfbdefbfbd03000000d514029599b459ce6d7f5a4360a0527e10f6730aefbfbdefbfbdefbfbdefbfbd03000000d514029599b459ce6d7f5a60c052604360e053600060e153601060e25360f660e353607360e453600a60e55360ef60e65360bf60e75360bd60e85360ef60e95360bf60ea5360bd60eb5360ef60ec5360bf60ed5360bd60ee536020600060ef600063bfbdefbf6002622368eff16010615a436159ce6199b4610295600761d514f17fbfbdefbfbdefbfbdefbfbd03000000d514029599b459ce6d7f5a430010f6730a6000527fefbfbdefbfbdefbfbdefbfbd03000000d514029599b459ce6d7f5a430010f6736020527f0aefbfbdefbfbdefbfbdefbfbd03000000d514029599b459ce6d7f5a430010f66040527f730aefbfbdefbfbdefbfbdefbfbd03000000d514029599b459ce6d7f5a4300106060527ff6730aefbfbdefbfbdefbfbdefbfbd03000000d514029599b459ce6d7f5a43006080527f10f6730aefbfbdefbfbdefbfbdefbfbd03000000d514029599b459ce6d7f5a4360a0527e10f6730aefbfbdefbfbdefbfbdefbfbd03000000d514029599b459ce6d7f5a60c052604360e053600060e153601060e25360f660e353607360e453600a60e55360ef60e65360bf60e75360bd60e85360ef60e95360bf60ea5360bd60eb5360ef60ec5360bf60ed5360bd60ee536020600060ef600063bfbdefbf6002622368eff16010615a436159ce6199b4610295600761d514f17fbfbdefbfbdefbfbdefbfbd03000000d514029599b459ce6d7f5a430010f6730a6000527fefbfbdefbfbdefbfbdefbfbd03000000d514029599b459ce6d7f5a430010f6736020527f0aefbfbdefbfbdefbfbdefbfbd03000000d514029599b459ce6d7f5a430010f66040527f730aefbfbdefbfbdefbfbdefbfbd03000000d514029599b459ce6d7f5a4300106060527ff6730aefbfbdefbfbdefbfbdefbfbd03000000d514029599b459ce6d7f5a43006080527f10f6730aefbfbdefbfbdefbfbdefbfbd03000000d514029599b459ce6d7f5a4360a0527e10f6730aefbfbdefbfbdefbfbdefbfbd03000000d514029599b459ce6d7f5a60c052604360e053600060e153601060e25360f660e353607360e453600a60e55360ef60e65360bf60e75360bd60e85360ef60e95360bf60ea5360bd60eb5360ef60ec5360bf60ed5360bd60ee536020600060ef600063bfbdefbf6002622368eff16010615a436159ce6199b4610295600761d514f17fbfbdefbfbdefbfbdefbfbd03000000d514029599b459ce6d7f5a430010f6730a6000527fefbfbdefbfbdefbfbdefbfbd03000000d514029599b459ce6d7f5a430010f6736020527f0aefbfbdefbfbdefbfbdefbfbd03000000d514029599b459ce6d7f5a430010f66040527f730aefbfbdefbfbdefbfbdefbfbd03000000d514029599b459ce6d7f5a4300106060527ff6730aefbfbdefbfbdefbfbdefbfbd03000000d514029599b459ce6d7f5a43006080527f10f6730aefbfbdefbfbdefbfbdefbfbd03000000d514029599b459ce6d7f5a4360a0527e10f6730aefbfbdefbfbdefbfbdefbfbd03000000d514029599b459ce6d7f5a60c052604360e053600060e153601060e25360f660e353607360e453600a60e55360ef60e65360bf60e75360bd60e85360ef60e95360bf60ea5360bd60eb5360ef60ec5360bf60ed5360bd60ee536020600060ef600063bfbdefbf6002622368eff16010615a436159ce6199b4610295600761d514f17fbfbdefbfbdefbfbdefbfbd03000000d514029599b459ce6d7f5a430010f6730a6000527fefbfbdefbfbdefbfbdefbfbd03000000d514029599b459ce6d7f5a430010f6736020527f0aefbfbdefbfbdefbfbdefbfbd03000000d514029599b459ce6d7f5a430010f66040527f730aefbfbdefbfbdefbfbdefbfbd03000000d514029599b459ce6d7f5a4300106060527ff6730aefbfbdefbfbdefbfbdefbfbd03000000d514029599b459ce6d7f5a43006080527f10f6730aefbfbdefbfbdefbfbdefbfbd03000000d514029599b459ce6d7f5a4360a0527e10f6730aefbfbdefbfbdefbfbdefbfbd03000000d514029599b459ce6d7f5a60c052604360e053600060e153601060e25360f660e353607360e453600a60e55360ef60e65360bf60e75360bd60e85360ef60e95360bf60ea5360bd60eb5360ef60ec5360bf60ed5360bd60ee536020600060ef600063bfbdefbf6002622368eff16010615a436159ce6199b4610295600761d514f17fbfbdefbfbdefbfbdefbfbd03000000d514029599b459ce6d7f5a430010f6730a6000527fefbfbdefbfbdefbfbdefbfbd03000000d514029599b459ce6d7f5a430010f6736020527f0aefbfbdefbfbdefbfbdefbfbd03000000d514029599b459ce6d7f5a430010f66040527f730aefbfbdefbfbdefbfbdefbfbd03000000d514029599b459ce6d7f5a4300106060527ff6730aefbfbdefbfbdefbfbdefbfbd03000000d514029599b459ce6d7f5a43006080527f10f6730aefbfbdefbfbdefbfbdefbfbd03000000d514029599b459ce6d7f5a4360a0527e10f6730aefbfbdefbfbdefbfbdefbfbd03000000d514029599b459ce6d7f5a60c052604360e053600060e153601060e25360f660e353607360e453600a60e55360ef60e65360bf60e75360bd60e85360ef60e95360bf60ea5360bd60eb5360ef60ec5360bf60ed5360bd60ee536020600060ef600063bfbdefbf6002622368eff16010615a436159ce6199b4610295600761d514f17fbfbdefbfbdefbfbdefbfbd03000000d514029599b459ce6d7f5a430010f6730a6000527fefbfbdefbfbdefbfbdefbfbd03000000d514029599b459ce6d7f5a430010f6736020527f0aefbfbdefbfbdefbfbdefbfbd03000000d514029599b459ce6d7f5a430010f66040527f730aefbfbdefbfbdefbfbdefbfbd03000000d514029599b459ce6d7f5a4300106060527ff6730aefbfbdefbfbdefbfbdefbfbd03000000d514029599b459ce6d7f5a43006080527f10f6730aefbfbdefbfbdefbfbdefbfbd03000000d514029599b459ce6d7f5a4360a0527e10f6730aefbfbdefbfbdefbfbdefbfbd03000000d514029599b459ce6d7f5a60c052604360e053600060e153601060e25360f660e353607360e453600a60e55360ef60e65360bf60e75360bd60e85360ef60e95360bf60ea5360bd60eb5360ef60ec5360bf60ed5360bd60ee536020600060ef600063bfbdefbf6002622368eff16010615a436159ce6199b4610295600761d514f17fbfbdefbfbdefbfbdefbfbd03000000d514029599b459ce6d7f5a430010f6730a6000527fefbfbdefbfbdefbfbdefbfbd03000000d514029599b459ce6d7f5a430010f6736020527f0aefbfbdefbfbdefbfbdefbfbd03000000d514029599b459ce6d7f5a430010f66040527f730aefbfbdefbfbdefbfbdefbfbd03000000d514029599b459ce6d7f5a4300106060527ff6730aefbfbdefbfbdefbfbdefbfbd03000000d514029599b459ce6d7f5a43006080527f10f6730aefbfbdefbfbdefbfbdefbfbd03000000d514029599b459ce6d7f5a4360a0527e10f6730aefbfbdefbfbdefbfbdefbfbd03000000d514029599b459ce6d7f5a60c052604360e053600060e153601060e25360f660e353607360e453600a60e55360ef60e65360bf60e75360bd60e85360ef60e95360bf60ea5360bd60eb5360ef60ec5360bf60ed5360bd60ee536020600060ef600063bfbdefbf6002622368eff16010615a436159ce6199b4610295600761d514f17fbfbdefbfbdefbfbdefbfbd03000000d514029599b459ce6d7f5a430010f6730a6000527fefbfbdefbfbdefbfbdefbfbd03000000d514029599b459ce6d7f5a430010f6736020527f0aefbfbdefbfbdefbfbdefbfbd03000000d514029599b459ce6d7f5a430010f66040527f730aefbfbdefbfbdefbfbdefbfbd03000000d514029599b459ce6d7f5a4300106060527ff6730aefbfbdefbfbdefbfbdefbfbd03000000d514029599b459ce6d7f5a43006080527f10f6730aefbfbdefbfbdefbfbdefbfbd03000000d514029599b459ce6d7f5a4360a0527e10f6730aefbfbdefbfbdefbfbdefbfbd03000000d514029599b459ce6d7f5a60c052604360e053600060e153601060e25360f660e353607360e453600a60e55360ef60e65360bf60e75360bd60e85360ef60e95360bf60ea5360bd60eb5360ef60ec5360bf60ed5360bd60ee536020600060ef600063bfbdefbf6002622368eff16010615a436159ce6199b4610295600761d514f17fbfbdefbfbdefbfbdefbfbd03000000d514029599b459ce6d7f5a430010f6730a6000527fefbfbdefbfbdefbfbdefbfbd03000000d514029599b459ce6d7f5a430010f6736020527f0aefbfbdefbfbdefbfbdefbfbd03000000d514029599b459ce6d7f5a430010f66040527f730aefbfbdefbfbdefbfbdefbfbd03000000d514029599b459ce6d7f5a4300106060527ff6730aefbfbdefbfbdefbfbdefbfbd03000000d514029599b459ce6d7f5a43006080527f10f6730aefbfbdefbfbdefbfbdefbfbd03000000d514029599b459ce6d7f5a4360a0527e10f6730aefbfbdefbfbdefbfbdefbfbd03000000d514029599b459ce6d7f5a60c052604360e053600060e153601060e25360f660e353607360e453600a60e55360ef60e65360bf60e75360bd60e85360ef60e95360bf60ea5360bd60eb5360ef60ec5360bf60ed5360bd60ee536020600060ef600063bfbdefbf6002622368eff1",
                "nonce" : "0x00",
                "storage" : {
                }
            },
            "0xa94f5374fce5edbc8e2a8697c15331677e6ebf0b" : {
                "balance" : "0x3fffffffffffffff",
                "code" : "0x",
                "nonce" : "0x00",
                "storage" : {
                }
            }
        },
        "transaction" : {
            "data" : [
                "0x000000d514029599b459ce6d7f5a430010f6730aefbfbdefbfbdefbfbdefbfbd03000000d514029599b459ce6d7f5a430010f6730aefbfbdefbfbdefbfbdefbfbd03000000d514029599b459ce6d7f5a430010f6730aefbfbdefbfbdefbfbdefbfbd0300"
            ],
            "gasLimit" : [
                "0x01312d00"
            ],
            "gasPrice" : "0x0a",
            "nonce" : "0x00",
            "secretKey" : "0x45a915e4d060149eb4365960e6a7a45f334393093061116b197e3240065ff2d8",
            "sender" : "0xa94f5374fce5edbc8e2a8697c15331677e6ebf0b",
            "to" : "0x000000000000000000000000000000ca1100f022",
            "value" : [
                "0xefbfbd03"
            ]
        }
    }
}