{
    "randomStatetest548" : {
        "_info" : {
            "comment" : "",
            "filling-rpc-server" : "evm version 1.14.4-unstable-3d8028a6-20240513",
            "filling-tool-version" : "retesteth-0.3.2-cancun+commit.2ab0208e.Linux.g++",
            "generatedTestHash" : "17bb9cf035dce2da0221ca9df17fc5041f33d5b46ebb9171173cc5e32aa575ff",
            "lllcversion" : "Version: 0.5.14-develop.2023.7.11+commit.c58ab2c6.mod.Linux.g++",
            "solidity" : "Version: 0.8.21+commit.d9974bed.Linux.g++",
            "source" : "src/GeneralStateTestsFiller/stRandom2/randomStatetest548Filler.json",
            "sourceHash" : "87b2c26c208db81ec170a253b56495add6c59ab213282a5a11edec30281b9654"
        },
        "env" : {
            "currentBaseFee" : "0x0a",
            "currentCoinbase" : "0x945304eb96065b2a98b57a48a06ae28d285a71b5",
            "currentDifficulty" : "0x020000",
            "currentExcessBlobGas" : "0x00",
            "currentGasLimit" : "0x7fffffffffffffff",
            "currentNumber" : "0x01",
            "currentRandom" : "0x0000000000000000000000000000000000000000000000000000000000020000",
            "currentTimestamp" : "0x03e8"
        },
        "post" : {
            "Cancun" : [
                {
                    "hash" : "0x67ef964eb0f30f080888b6da63523e21094a5f2829ca26d6c2683f897000dcbb",
                    "indexes" : {
                        "data" : 0,
                        "gas" : 0,
                        "value" : 0
                    },
                    "logs" : "0x1dcc4de8dec75d7aab85b567b6ccd41ad312451b948a7413f0a142fd40d49347",
                    "txbytes" : "0xf9011e800a8466ad794c94095e7baea6a6c7c4c2dfeb977efac326af552d87842aa46f82b8b87f0000000000000000000000010000000000000000000000000000000000000000417fffffffffffffffffffffffffffffffffffffffffffffffffffffffffffffffff7f000000000000000000000001000000000000000000000000000000000000000019417f00000000000000000000000000000000000000000000000000000000000000017fffffffffffffffffffffffffffffffffffffffffffffffffffffffffffffffff6f777a349a646633977da01a315a3c031ba0bdf8c57b6d7d102452d8debd38df86a1d2fba91944bc762be8e22861758c4ff2a04f8a7c19e2e15e68431f5c2f09f7cea8401f427ea2248ce8ea0405835f9749cc"
                }
            ]
        },
        "pre" : {
            "0x095e7baea6a6c7c4c2dfeb977efac326af552d87" : {
                "balance" : "0x00",
                "code" : "0x7f0000000000000000000000010000000000000000000000000000000000000000417fffffffffffffffffffffffffffffffffffffffffffffffffffffffffffffffff7f000000000000000000000001000000000000000000000000000000000000000019417f00000000000000000000000000000000000000000000000000000000000000017fffffffffffffffffffffffffffffffffffffffffffffffffffffffffffffffff6f777a349a646633977da01a315a3c035560005155",
                "nonce" : "0x00",
                "storage" : {
                }
            },
            "0x945304eb96065b2a98b57a48a06ae28d285a71b5" : {
                "balance" : "0x2e",
                "code" : "0x6000355415600957005b60203560003555",
                "nonce" : "0x00",
                "storage" : {
                }
            },
            "0xa94f5374fce5edbc8e2a8697c15331677e6ebf0b" : {
                "balance" : "0x0de0b6b3a7640000",
                "code" : "0x",
                "nonce" : "0x00",
                "storage" : {
                }
            }
        },
        "transaction" : {
            "data" : [
                "0x7f0000000000000000000000010000000000000000000000000000000000000000417fffffffffffffffffffffffffffffffffffffffffffffffffffffffffffffffff7f000000000000000000000001000000000000000000000000000000000000000019417f00000000000000000000000000000000000000000000000000000000000000017fffffffffffffffffffffffffffffffffffffffffffffffffffffffffffffffff6f777a349a646633977da01a315a3c03"
            ],
            "gasLimit" : [
                "0x66ad794c"
            ],
            "gasPrice" : "0x0a",
            "nonce" : "0x00",
            "secretKey" : "0x45a915e4d060149eb4365960e6a7a45f334393093061116b197e3240065ff2d8",
            "sender" : "0xa94f5374fce5edbc8e2a8697c15331677e6ebf0b",
            "to" : "0x095e7baea6a6c7c4c2dfeb977efac326af552d87",
            "value" : [
                "0x2aa46f82"
            ]
        }
    }
}