{
    "randomStatetest415" : {
        "_info" : {
            "comment" : "",
            "filling-rpc-server" : "evm version 1.14.4-unstable-3d8028a6-20240513",
            "filling-tool-version" : "retesteth-0.3.2-cancun+commit.2ab0208e.Linux.g++",
            "generatedTestHash" : "97f0d5e8427aa90541bf119804ac3ceedac6a012c0ae69896bec76d5aa4e1fc7",
            "lllcversion" : "Version: 0.5.14-develop.2023.7.11+commit.c58ab2c6.mod.Linux.g++",
            "solidity" : "Version: 0.8.21+commit.d9974bed.Linux.g++",
            "source" : "src/GeneralStateTestsFiller/stRandom2/randomStatetest415Filler.json",
            "sourceHash" : "c3817aec69f243c269adeffecda8de00eb4f014ff7f7d7dfa50c9be9628dba13"
        },
        "env" : {
            "currentBaseFee" : "0x0a",
            "currentCoinbase" : "0x945304eb96065b2a98b57a48a06ae28d285a71b5",
            "currentDifficulty" : "0x020000",
            "currentExcessBlobGas" : "0x00",
            "currentGasLimit" : "0x7fffffffffffffff",
            "currentNumber" : "0x01",
            "currentRandom" : "0x0000000000000000000000000000000000000000000000000000000000020000",
            "currentTimestamp" : "0x03e8"
        },
        "post" : {
            "Cancun" : [
                {
                    "hash" : "0xafe1697193a8ecbf0db147b5d341b126f3cf37ee557f67417efa8c6b7df21c02",
                    "indexes" : {
                        "data" : 0,
                        "gas" : 0,
                        "value" : 0
                    },
                    "logs" : "0x390428532a653dc4b4c8b06be33656ac6a7176560350b69582ef56c651362cdd",
                    "txbytes" : "0xf8f9800a8423bf317894095e7baea6a6c7c4c2dfeb977efac326af552d878449a12105b8937fffffffffffffffffffffffffffffffffffffffffffffffffffffffffffffffff437f000000000000000000000000000000000000000000000000000000000000000142427f000000000000000000000000945304eb96065b2a98b57a48a06ae28d285a71b5357f000000000000000000000000ffffffffffffffffffffffffffffffffffffffff62010a8c8794a17e8ea4f21ca078de88d60f30b18b6a673a7757d11f18a93bf637fd96fa0f53abd15e7e2b411aa04470ceec4c06ecc4af56dcdc767b5236793216bb31743b8d8e7b1aaed2ac1125"
                }
            ]
        },
        "pre" : {
            "0x095e7baea6a6c7c4c2dfeb977efac326af552d87" : {
                "balance" : "0x00",
                "code" : "0x7fffffffffffffffffffffffffffffffffffffffffffffffffffffffffffffffff437f000000000000000000000000000000000000000000000000000000000000000142427f000000000000000000000000945304eb96065b2a98b57a48a06ae28d285a71b5357f000000000000000000000000ffffffffffffffffffffffffffffffffffffffff62010a8c8794a17e8ea4f260005155",
                "nonce" : "0x00",
                "storage" : {
                }
            },
            "0x945304eb96065b2a98b57a48a06ae28d285a71b5" : {
                "balance" : "0x2e",
                "code" : "0x6000355415600957005b60203560003555",
                "nonce" : "0x00",
                "storage" : {
                }
            },
            "0xa94f5374fce5edbc8e2a8697c15331677e6ebf0b" : {
                "balance" : "0x0de0b6b3a7640000",
                "code" : "0x",
                "nonce" : "0x00",
                "storage" : {
                }
            }
        },
        "transaction" : {
            "data" : [
                "0x7fffffffffffffffffffffffffffffffffffffffffffffffffffffffffffffffff437f000000000000000000000000000000000000000000000000000000000000000142427f000000000000000000000000945304eb96065b2a98b57a48a06ae28d285a71b5357f000000000000000000000000ffffffffffffffffffffffffffffffffffffffff62010a8c8794a17e8ea4f2"
            ],
            "gasLimit" : [
                "0x23bf3178"
            ],
            "gasPrice" : "0x0a",
            "nonce" : "0x00",
            "secretKey" : "0x45a915e4d060149eb4365960e6a7a45f334393093061116b197e3240065ff2d8",
            "sender" : "0xa94f5374fce5edbc8e2a8697c15331677e6ebf0b",
            "to" : "0x095e7baea6a6c7c4c2dfeb977efac326af552d87",
            "value" : [
                "0x49a12105"
            ]
        }
    }
}