{
    "randomStatetest451" : {
        "_info" : {
            "comment" : "",
            "filling-rpc-server" : "evm version 1.14.4-unstable-3d8028a6-20240513",
            "filling-tool-version" : "retesteth-0.3.2-cancun+commit.2ab0208e.Linux.g++",
            "generatedTestHash" : "75a143e897eb31975350fc88a52c4931d926b75731c25e98448a71b1f7955b4e",
            "lllcversion" : "Version: 0.5.14-develop.2023.7.11+commit.c58ab2c6.mod.Linux.g++",
            "solidity" : "Version: 0.8.21+commit.d9974bed.Linux.g++",
            "source" : "src/GeneralStateTestsFiller/stRandom2/randomStatetest451Filler.json",
            "sourceHash" : "87bcc6b1d4197dd916a0c05e9307339455051c2cad16a416abfc0aa45123d4c9"
        },
        "env" : {
            "currentBaseFee" : "0x0a",
            "currentCoinbase" : "0x945304eb96065b2a98b57a48a06ae28d285a71b5",
            "currentDifficulty" : "0x020000",
            "currentExcessBlobGas" : "0x00",
            "currentGasLimit" : "0x7fffffffffffffff",
            "currentNumber" : "0x01",
            "currentRandom" : "0x0000000000000000000000000000000000000000000000000000000000020000",
            "currentTimestamp" : "0x03e8"
        },
        "post" : {
            "Cancun" : [
                {
                    "hash" : "0xeeed6875a3da97f35a29c8f85cedc4627c2dcfeb4d57f9eb1cfe535683711afb",
                    "indexes" : {
                        "data" : 0,
                        "gas" : 0,
                        "value" : 0
                    },
                    "logs" : "0x1dcc4de8dec75d7aab85b567b6ccd41ad312451b948a7413f0a142fd40d49347",
                    "txbytes" : "0xf9017f800a8427cf9c6b94095e7baea6a6c7c4c2dfeb977efac326af552d8784306ca21ab901187fffffffffffffffffffffffffffffffffffffffffffffffffffffffffffffffff7f00000000000000000000000100000000000000000000000000000000000000007f00000000000000000000000100000000000000000000000000000000000000007f00000000000000000000000000000000000000000000000000000000000000007f000000000000000000000000945304eb96065b2a98b57a48a06ae28d285a71b57fffffffffffffffffffffffffffffffffffffffffffffffffffffffffffffffff7f00000000000000000000000000000000000000000000000000000000000000017f00000000000000000000000000000000000000000000000000000000000000006fed05989a0659453076573a870411741ca0fdbfb713b6296764058a996a5ba003af1b9f0241bc21f2e6f44f547dd6cb35dca01398bb235688f4ce191dde03b3ac4b2b7218dbb7f5c6a9d3e3d63fe00be3079e"
                }
            ]
        },
        "pre" : {
            "0x095e7baea6a6c7c4c2dfeb977efac326af552d87" : {
                "balance" : "0x00",
                "code" : "0x7fffffffffffffffffffffffffffffffffffffffffffffffffffffffffffffffff7f00000000000000000000000100000000000000000000000000000000000000007f00000000000000000000000100000000000000000000000000000000000000007f00000000000000000000000000000000000000000000000000000000000000007f000000000000000000000000945304eb96065b2a98b57a48a06ae28d285a71b57fffffffffffffffffffffffffffffffffffffffffffffffffffffffffffffffff7f00000000000000000000000000000000000000000000000000000000000000017f00000000000000000000000000000000000000000000000000000000000000006fed05989a0659453076573a870411745560005155",
                "nonce" : "0x00",
                "storage" : {
                }
            },
            "0x945304eb96065b2a98b57a48a06ae28d285a71b5" : {
                "balance" : "0x2e",
                "code" : "0x6000355415600957005b60203560003555",
                "nonce" : "0x00",
                "storage" : {
                }
            },
            "0xa94f5374fce5edbc8e2a8697c15331677e6ebf0b" : {
                "balance" : "0x0de0b6b3a7640000",
                "code" : "0x",
                "nonce" : "0x00",
                "storage" : {
                }
            }
        },
        "transaction" : {
            "data" : [
                "0x7fffffffffffffffffffffffffffffffffffffffffffffffffffffffffffffffff7f00000000000000000000000100000000000000000000000000000000000000007f00000000000000000000000100000000000000000000000000000000000000007f00000000000000000000000000000000000000000000000000000000000000007f000000000000000000000000945304eb96065b2a98b57a48a06ae28d285a71b57fffffffffffffffffffffffffffffffffffffffffffffffffffffffffffffffff7f00000000000000000000000000000000000000000000000000000000000000017f00000000000000000000000000000000000000000000000000000000000000006fed05989a0659453076573a87041174"
            ],
            "gasLimit" : [
                "0x27cf9c6b"
            ],
            "gasPrice" : "0x0a",
            "nonce" : "0x00",
            "secretKey" : "0x45a915e4d060149eb4365960e6a7a45f334393093061116b197e3240065ff2d8",
            "sender" : "0xa94f5374fce5edbc8e2a8697c15331677e6ebf0b",
            "to" : "0x095e7baea6a6c7c4c2dfeb977efac326af552d87",
            "value" : [
                "0x306ca21a"
            ]
        }
    }
}