{
    "randomStatetest414" : {
        "_info" : {
            "comment" : "",
            "filling-rpc-server" : "evm version 1.14.4-unstable-3d8028a6-20240513",
            "filling-tool-version" : "retesteth-0.3.2-cancun+commit.2ab0208e.Linux.g++",
            "generatedTestHash" : "075ea22fd751dbc4d0dcacd2d1ab00e31f2b61fa4db09c5f66f746c1a82207b2",
            "lllcversion" : "Version: 0.5.14-develop.2023.7.11+commit.c58ab2c6.mod.Linux.g++",
            "solidity" : "Version: 0.8.21+commit.d9974bed.Linux.g++",
            "source" : "src/GeneralStateTestsFiller/stRandom2/randomStatetest414Filler.json",
            "sourceHash" : "8de18a30c91e49900d89bd8b54effd645f3893d4d2477d59e8d1e18c4f89f08a"
        },
        "env" : {
            "currentBaseFee" : "0x0a",
            "currentCoinbase" : "0x945304eb96065b2a98b57a48a06ae28d285a71b5",
            "currentDifficulty" : "0x020000",
            "currentExcessBlobGas" : "0x00",
            "currentGasLimit" : "0x7fffffffffffffff",
            "currentNumber" : "0x01",
            "currentRandom" : "0x0000000000000000000000000000000000000000000000000000000000020000",
            "currentTimestamp" : "0x03e8"
        },
        "post" : {
            "Cancun" : [
                {
                    "hash" : "0x357323b93fe1b68c0da7d669c7cda9141dece729f0fd6f48d678317cb22bb7e9",
                    "indexes" : {
                        "data" : 0,
                        "gas" : 0,
                        "value" : 0
                    },
                    "logs" : "0x1dcc4de8dec75d7aab85b567b6ccd41ad312451b948a7413f0a142fd40d49347",
                    "txbytes" : "0xf8cf800a84487b0e6d94095e7baea6a6c7c4c2dfeb977efac326af552d878440e7cc29b8697fffffffffffffffffffffffffffffffffffffffffffffffffffffffffffffffff6251437f0000000000000000000000010000000000000000000000000000000000000000437f000000000000000000000000fffffffffffffffffffffffffffffffffffffffff1141ba0e5ce601a38a7db37582c561f9c3870a97703190af708fcbc725a81d410acc728a00e08739859bcbc8bf368a1c2f399744ea333152f5e0b43ed02ae50df2119c042"
                }
            ]
        },
        "pre" : {
            "0x095e7baea6a6c7c4c2dfeb977efac326af552d87" : {
                "balance" : "0x00",
                "code" : "0x7fffffffffffffffffffffffffffffffffffffffffffffffffffffffffffffffff6251437f0000000000000000000000010000000000000000000000000000000000000000437f000000000000000000000000fffffffffffffffffffffffffffffffffffffffff11460005155",
                "nonce" : "0x00",
                "storage" : {
                }
            },
            "0x945304eb96065b2a98b57a48a06ae28d285a71b5" : {
                "balance" : "0x2e",
                "code" : "0x6000355415600957005b60203560003555",
                "nonce" : "0x00",
                "storage" : {
                }
            },
            "0xa94f5374fce5edbc8e2a8697c15331677e6ebf0b" : {
                "balance" : "0x0de0b6b3a7640000",
                "code" : "0x",
                "nonce" : "0x00",
                "storage" : {
                }
            }
        },
        "transaction" : {
            "data" : [
                "0x7fffffffffffffffffffffffffffffffffffffffffffffffffffffffffffffffff6251437f0000000000000000000000010000000000000000000000000000000000000000437f000000000000000000000000fffffffffffffffffffffffffffffffffffffffff114"
            ],
            "gasLimit" : [
                "0x487b0e6d"
            ],
            "gasPrice" : "0x0a",
            "nonce" : "0x00",
            "secretKey" : "0x45a915e4d060149eb4365960e6a7a45f334393093061116b197e3240065ff2d8",
            "sender" : "0xa94f5374fce5edbc8e2a8697c15331677e6ebf0b",
            "to" : "0x095e7baea6a6c7c4c2dfeb977efac326af552d87",
            "value" : [
                "0x40e7cc29"
            ]
        }
    }
}