{
    "randomStatetest571" : {
        "_info" : {
            "comment" : "",
            "filling-rpc-server" : "evm version 1.14.4-unstable-3d8028a6-20240513",
            "filling-tool-version" : "retesteth-0.3.2-cancun+commit.2ab0208e.Linux.g++",
            "generatedTestHash" : "e2d362fbbbcf336aeca71db4649d6213de20567e9f3d84903df69c409c115c2a",
            "lllcversion" : "Version: 0.5.14-develop.2023.7.11+commit.c58ab2c6.mod.Linux.g++",
            "solidity" : "Version: 0.8.21+commit.d9974bed.Linux.g++",
            "source" : "src/GeneralStateTestsFiller/stRandom2/randomStatetest571Filler.json",
            "sourceHash" : "a16392cccc68b1c61e8218a64f2ebd7b64b1b54eb5bdfd55d8b4d7375089f238"
        },
        "env" : {
            "currentBaseFee" : "0x0a",
            "currentCoinbase" : "0x945304eb96065b2a98b57a48a06ae28d285a71b5",
            "currentDifficulty" : "0x020000",
            "currentExcessBlobGas" : "0x00",
            "currentGasLimit" : "0x7fffffffffffffff",
            "currentNumber" : "0x01",
            "currentRandom" : "0x0000000000000000000000000000000000000000000000000000000000020000",
            "currentTimestamp" : "0x03e8"
        },
        "post" : {
            "Cancun" : [
                {
                    "hash" : "0x416ac4ca71c1ec0d05bace8ae98deb1ba957dba6fd8f6222b715f421685f29ec",
                    "indexes" : {
                        "data" : 0,
                        "gas" : 0,
                        "value" : 0
                    },
                    "logs" : "0x1dcc4de8dec75d7aab85b567b6ccd41ad312451b948a7413f0a142fd40d49347",
                    "txbytes" : "0xf90157800a847592dd6b94095e7baea6a6c7c4c2dfeb977efac326af552d878453934784b8f17ffffffffffffffffffffffffffffffffffffffffffffffffffffffffffffffffe7ffffffffffffffffffffffffffffffffffffffffffffffffffffffffffffffffe7f000000000000000000000000ffffffffffffffffffffffffffffffffffffffff7f00000000000000000000000000000000000000000000000000000000000000015b7f00000000000000000000000100000000000000000000000000000000000000007f00000000000000000000000000000000000000000000000000000000000000017f000000000000000000000000945304eb96065b2a98b57a48a06ae28d285a71b53c6508766c8b6b403a1ca04198ad774f995e7182bd3afabb5a4c601d232d6d184057facf8d1cafd18a5e58a0687d2875163cb205c0f0ee37f6b802d7c8e01a89fd05c04cfa95ddf4db8d0619"
                }
            ]
        },
        "pre" : {
            "0x095e7baea6a6c7c4c2dfeb977efac326af552d87" : {
                "balance" : "0x00",
                "code" : "0x7ffffffffffffffffffffffffffffffffffffffffffffffffffffffffffffffffe7ffffffffffffffffffffffffffffffffffffffffffffffffffffffffffffffffe7f000000000000000000000000ffffffffffffffffffffffffffffffffffffffff7f00000000000000000000000000000000000000000000000000000000000000015b7f00000000000000000000000100000000000000000000000000000000000000007f00000000000000000000000000000000000000000000000000000000000000017f000000000000000000000000945304eb96065b2a98b57a48a06ae28d285a71b53c6508766c8b6b403a60005155",
                "nonce" : "0x00",
                "storage" : {
                }
            },
            "0x945304eb96065b2a98b57a48a06ae28d285a71b5" : {
                "balance" : "0x2e",
                "code" : "0x6000355415600957005b60203560003555",
                "nonce" : "0x00",
                "storage" : {
                }
            },
            "0xa94f5374fce5edbc8e2a8697c15331677e6ebf0b" : {
                "balance" : "0x0de0b6b3a7640000",
                "code" : "0x",
                "nonce" : "0x00",
                "storage" : {
                }
            }
        },
        "transaction" : {
            "data" : [
                "0x7ffffffffffffffffffffffffffffffffffffffffffffffffffffffffffffffffe7ffffffffffffffffffffffffffffffffffffffffffffffffffffffffffffffffe7f000000000000000000000000ffffffffffffffffffffffffffffffffffffffff7f00000000000000000000000000000000000000000000000000000000000000015b7f00000000000000000000000100000000000000000000000000000000000000007f00000000000000000000000000000000000000000000000000000000000000017f000000000000000000000000945304eb96065b2a98b57a48a06ae28d285a71b53c6508766c8b6b403a"
            ],
            "gasLimit" : [
                "0x7592dd6b"
            ],
            "gasPrice" : "0x0a",
            "nonce" : "0x00",
            "secretKey" : "0x45a915e4d060149eb4365960e6a7a45f334393093061116b197e3240065ff2d8",
            "sender" : "0xa94f5374fce5edbc8e2a8697c15331677e6ebf0b",
            "to" : "0x095e7baea6a6c7c4c2dfeb977efac326af552d87",
            "value" : [
                "0x53934784"
            ]
        }
    }
}