{
    "TestNameRegistrator" : {
        "_info" : {
            "comment" : "",
            "filling-rpc-server" : "evm version 1.14.4-unstable-3d8028a6-20240513",
            "filling-tool-version" : "retesteth-0.3.2-cancun+commit.2ab0208e.Linux.g++",
            "generatedTestHash" : "630806abf3eb5add19a09d43b6bda628091648b42237af058e1f7b7b2eb3a291",
            "lllcversion" : "Version: 0.5.14-develop.2023.7.11+commit.c58ab2c6.mod.Linux.g++",
            "solidity" : "Version: 0.8.21+commit.d9974bed.Linux.g++",
            "source" : "src/GeneralStateTestsFiller/stSystemOperationsTest/TestNameRegistratorFiller.json",
            "sourceHash" : "9f70dc24abc183b2825a910a83660ea1ca5e927ecaf4c2553ac316371d6c3da0"
        },
        "env" : {
            "currentBaseFee" : "0x0a",
            "currentCoinbase" : "0x2adc25665018aa1fe0e6bc666dac8fc2697ff9ba",
            "currentDifficulty" : "0x020000",
            "currentExcessBlobGas" : "0x00",
            "currentGasLimit" : "0x0f4240",
            "currentNumber" : "0x01",
            "currentRandom" : "0x0000000000000000000000000000000000000000000000000000000000020000",
            "currentTimestamp" : "0x03e8"
        },
        "post" : {
            "Cancun" : [
                {
                    "hash" : "0x8155e1ffbdbbb7ba604c7668c69974bff46ed37c59ba662deef3950b171fd3bf",
                    "indexes" : {
                        "data" : 0,
                        "gas" : 0,
                        "value" : 0
                    },
                    "logs" : "0x1dcc4de8dec75d7aab85b567b6ccd41ad312451b948a7413f0a142fd40d49347",
                    "txbytes" : "0xf8a4800a830f424094095e7baea6a6c7c4c2dfeb977efac326af552d87830186a0b840fffffffffffffffffffffffffffffffffffffffffffffffffffffffffffffffafffffffffffffffffffffffffffffffffffffffffffffffffffffffffffffffa1ba0bb6e7add6d9320538015187dc1b1014c526fd300145a09a8cdb6446dc20a460ca04d8daac247ef23f43cca55633d056642e919c3754e677986fc87cedcca949963"
                }
            ]
        },
        "pre" : {
            "0x095e7baea6a6c7c4c2dfeb977efac326af552d87" : {
                "balance" : "0x0de0b6b3a7640000",
                "code" : "0x6000355415600957005b60203560003555",
                "nonce" : "0x00",
                "storage" : {
                }
            },
            "0xa94f5374fce5edbc8e2a8697c15331677e6ebf0b" : {
                "balance" : "0x0de0b6b3a7640000",
                "code" : "0x",
                "nonce" : "0x00",
                "storage" : {
                }
            }
        },
        "transaction" : {
            "data" : [
                "0xfffffffffffffffffffffffffffffffffffffffffffffffffffffffffffffffafffffffffffffffffffffffffffffffffffffffffffffffffffffffffffffffa"
            ],
            "gasLimit" : [
                "0x0f4240"
            ],
            "gasPrice" : "0x0a",
            "nonce" : "0x00",
            "secretKey" : "0x45a915e4d060149eb4365960e6a7a45f334393093061116b197e3240065ff2d8",
            "sender" : "0xa94f5374fce5edbc8e2a8697c15331677e6ebf0b",
            "to" : "0x095e7baea6a6c7c4c2dfeb977efac326af552d87",
            "value" : [
                "0x0186a0"
            ]
        }
    }
}