{
    "returndatacopy_following_create" : {
        "_info" : {
            "comment" : "",
            "filling-rpc-server" : "evm version 1.14.4-unstable-3d8028a6-20240513",
            "filling-tool-version" : "retesteth-0.3.2-cancun+commit.2ab0208e.Linux.g++",
            "generatedTestHash" : "603f38395a16aa0c70912f2b5a55452ff2c8ff4f6a74ef961cc89c176328a5fc",
            "lllcversion" : "Version: 0.5.14-develop.2023.7.11+commit.c58ab2c6.mod.Linux.g++",
            "solidity" : "Version: 0.8.21+commit.d9974bed.Linux.g++",
            "source" : "src/GeneralStateTestsFiller/stReturnDataTest/returndatacopy_following_createFiller.json",
            "sourceHash" : "5d8245be13b336b34d75182a9d69c060a5cdadd537a5d70c30b6863c148ea4e3"
        },
        "env" : {
            "currentBaseFee" : "0x0a",
            "currentCoinbase" : "0x2adc25665018aa1fe0e6bc666dac8fc2697ff9ba",
            "currentDifficulty" : "0x020000",
            "currentExcessBlobGas" : "0x00",
            "currentGasLimit" : "0x1a00000000",
            "currentNumber" : "0x01",
            "currentRandom" : "0x0000000000000000000000000000000000000000000000000000000000020000",
            "currentTimestamp" : "0x03e8"
        },
        "post" : {
            "Cancun" : [
                {
                    "hash" : "0x72abbda47c2ed6f084f976632cfc57262e964c9337035185c46b71d383ee24fa",
                    "indexes" : {
                        "data" : 0,
                        "gas" : 0,
                        "value" : 0
                    },
                    "logs" : "0x1dcc4de8dec75d7aab85b567b6ccd41ad312451b948a7413f0a142fd40d49347",
                    "txbytes" : "0xf862800a850a00000000940f572e5295c57f15886f9b263e2f6d2d6c7b5ec680801ba0be56d61b678ad2c41b294c70b5213913b9a6f17753ba7aadc171c9a2474f66a8a04814800401028ca339e8af9f4a6253bddd3f9df8f1dc6da275d19862e9f28642"
                }
            ]
        },
        "pre" : {
            "0x0aabbccdd5c57f15886f9b263e2f6d2d6c7b5ec6" : {
                "balance" : "0x00",
                "code" : "0x7d111122223333444455556666777788889999aaaabbbbccccddddeeeeffff60005260206000f300",
                "nonce" : "0x00",
                "storage" : {
                }
            },
            "0x0f572e5295c57f15886f9b263e2f6d2d6c7b5ec6" : {
                "balance" : "0x00",
                "code" : "0x6000600052596000526002806028600051396000516000f0506020600060003e60005160005500fe0000",
                "nonce" : "0x00",
                "storage" : {
                    "0x00" : "0x01"
                }
            },
            "0xa94f5374fce5edbc8e2a8697c15331677e6ebf0b" : {
                "balance" : "0x6400000000",
                "code" : "0x",
                "nonce" : "0x00",
                "storage" : {
                }
            }
        },
        "transaction" : {
            "data" : [
                "0x"
            ],
            "gasLimit" : [
                "0x0a00000000"
            ],
            "gasPrice" : "0x0a",
            "nonce" : "0x00",
            "secretKey" : "0x45a915e4d060149eb4365960e6a7a45f334393093061116b197e3240065ff2d8",
            "sender" : "0xa94f5374fce5edbc8e2a8697c15331677e6ebf0b",
            "to" : "0x0f572e5295c57f15886f9b263e2f6d2d6c7b5ec6",
            "value" : [
                "0x00"
            ]
        }
    }
}