{
    "randomStatetest254" : {
        "_info" : {
            "comment" : "",
            "filling-rpc-server" : "evm version 1.14.4-unstable-3d8028a6-20240513",
            "filling-tool-version" : "retesteth-0.3.2-cancun+commit.2ab0208e.Linux.g++",
            "generatedTestHash" : "3be58269a18d026d9938a7b3dd446b55a3b497e166e6f2ef2a48e7896d8fa199",
            "lllcversion" : "Version: 0.5.14-develop.2023.7.11+commit.c58ab2c6.mod.Linux.g++",
            "solidity" : "Version: 0.8.21+commit.d9974bed.Linux.g++",
            "source" : "src/GeneralStateTestsFiller/stRandom/randomStatetest254Filler.json",
            "sourceHash" : "a623f8634a731a3da4cc03d5f8a0718bef0c56645ef4118a467f84ecada7f57a"
        },
        "env" : {
            "currentBaseFee" : "0x0a",
            "currentCoinbase" : "0x945304eb96065b2a98b57a48a06ae28d285a71b5",
            "currentDifficulty" : "0x020000",
            "currentExcessBlobGas" : "0x00",
            "currentGasLimit" : "0x7fffffffffffffff",
            "currentNumber" : "0x01",
            "currentRandom" : "0x0000000000000000000000000000000000000000000000000000000000020000",
            "currentTimestamp" : "0x03e8"
        },
        "post" : {
            "Cancun" : [
                {
                    "hash" : "0x7911d718e629b7edf10557bf7c724bdf21d346365797f3833251127344959b5e",
                    "indexes" : {
                        "data" : 0,
                        "gas" : 0,
                        "value" : 0
                    },
                    "logs" : "0x1dcc4de8dec75d7aab85b567b6ccd41ad312451b948a7413f0a142fd40d49347",
                    "txbytes" : "0xf9011e800a846118b30294095e7baea6a6c7c4c2dfeb977efac326af552d87845c13c2ffb8b87f000000000000000000000001000000000000000000000000000000000000000041417f0000000000000000000000000000000000000000000000000000000000000001447fffffffffffffffffffffffffffffffffffffffffffffffffffffffffffffffff7ffffffffffffffffffffffffffffffffffffffffffffffffffffffffffffffffe7f000000000000000000000000000000000000000000000000000000000000c3506f059b6b83f294740688598c52195a921ba0e40135289358a66524ec6243cf55aba245d08e96dbac7ffa888705c0d345d3e0a04071011dd90544b1c8735cdf44c5975ac622387b97a6a01e5a487cd52a13d636"
                }
            ]
        },
        "pre" : {
            "0x095e7baea6a6c7c4c2dfeb977efac326af552d87" : {
                "balance" : "0x00",
                "code" : "0x7f000000000000000000000001000000000000000000000000000000000000000041417f0000000000000000000000000000000000000000000000000000000000000001447fffffffffffffffffffffffffffffffffffffffffffffffffffffffffffffffff7ffffffffffffffffffffffffffffffffffffffffffffffffffffffffffffffffe7f000000000000000000000000000000000000000000000000000000000000c3506f059b6b83f294740688598c52195a925560005155",
                "nonce" : "0x00",
                "storage" : {
                }
            },
            "0x945304eb96065b2a98b57a48a06ae28d285a71b5" : {
                "balance" : "0x2e",
                "code" : "0x6000355415600957005b60203560003555",
                "nonce" : "0x00",
                "storage" : {
                }
            },
            "0xa94f5374fce5edbc8e2a8697c15331677e6ebf0b" : {
                "balance" : "0x0de0b6b3a7640000",
                "code" : "0x",
                "nonce" : "0x00",
                "storage" : {
                }
            }
        },
        "transaction" : {
            "data" : [
                "0x7f000000000000000000000001000000000000000000000000000000000000000041417f0000000000000000000000000000000000000000000000000000000000000001447fffffffffffffffffffffffffffffffffffffffffffffffffffffffffffffffff7ffffffffffffffffffffffffffffffffffffffffffffffffffffffffffffffffe7f000000000000000000000000000000000000000000000000000000000000c3506f059b6b83f294740688598c52195a92"
            ],
            "gasLimit" : [
                "0x6118b302"
            ],
            "gasPrice" : "0x0a",
            "nonce" : "0x00",
            "secretKey" : "0x45a915e4d060149eb4365960e6a7a45f334393093061116b197e3240065ff2d8",
            "sender" : "0xa94f5374fce5edbc8e2a8697c15331677e6ebf0b",
            "to" : "0x095e7baea6a6c7c4c2dfeb977efac326af552d87",
            "value" : [
                "0x5c13c2ff"
            ]
        }
    }
}