{
    "randomStatetest92" : {
        "_info" : {
            "comment" : "",
            "filling-rpc-server" : "evm version 1.14.4-unstable-3d8028a6-20240513",
            "filling-tool-version" : "retesteth-0.3.2-cancun+commit.2ab0208e.Linux.g++",
            "generatedTestHash" : "b4aea72122b508785c81f73e758d2b19e7320e0c6afc60b8b3b42cb1962447f6",
            "lllcversion" : "Version: 0.5.14-develop.2023.7.11+commit.c58ab2c6.mod.Linux.g++",
            "solidity" : "Version: 0.8.21+commit.d9974bed.Linux.g++",
            "source" : "src/GeneralStateTestsFiller/stRandom/randomStatetest92Filler.json",
            "sourceHash" : "cd8874b7f5ab8936059a62d07f763dc669da763d788cf8900182936bed683b18"
        },
        "env" : {
            "currentBaseFee" : "0x0a",
            "currentCoinbase" : "0x945304eb96065b2a98b57a48a06ae28d285a71b5",
            "currentDifficulty" : "0x020000",
            "currentExcessBlobGas" : "0x00",
            "currentGasLimit" : "0x7fffffffffffffff",
            "currentNumber" : "0x01",
            "currentRandom" : "0x0000000000000000000000000000000000000000000000000000000000020000",
            "currentTimestamp" : "0x03e8"
        },
        "post" : {
            "Cancun" : [
                {
                    "hash" : "0xc4832ee1763c8a1c33b54fe714563f2674367608884fa66c2a274a16f9bad962",
                    "indexes" : {
                        "data" : 0,
                        "gas" : 0,
                        "value" : 0
                    },
                    "logs" : "0x1dcc4de8dec75d7aab85b567b6ccd41ad312451b948a7413f0a142fd40d49347",
                    "txbytes" : "0xf9017f800a847eab2c0894095e7baea6a6c7c4c2dfeb977efac326af552d87841c23d3bcb901187f00000000000000000000000100000000000000000000000000000000000000007f00000000000000000000000100000000000000000000000000000000000000007fffffffffffffffffffffffffffffffffffffffffffffffffffffffffffffffff7f000000000000000000000000945304eb96065b2a98b57a48a06ae28d285a71b57f000000000000000000000000ffffffffffffffffffffffffffffffffffffffff7f00000000000000000000000000000000000000000000000000000000000000017fffffffffffffffffffffffffffffffffffffffffffffffffffffffffffffffff7f00000000000000000000000100000000000000000000000000000000000000006f59640c655956799087168f0658a11a1ba05689196e1aa1bdab7103440c17be569785af45020c1cee2a8d327845d717d9eba03900621715b1b1fa2c3a05b9b7bc0de7ed69c993c9caf846f04921d95a131b08"
                }
            ]
        },
        "pre" : {
            "0x095e7baea6a6c7c4c2dfeb977efac326af552d87" : {
                "balance" : "0x00",
                "code" : "0x7f00000000000000000000000100000000000000000000000000000000000000007f00000000000000000000000100000000000000000000000000000000000000007fffffffffffffffffffffffffffffffffffffffffffffffffffffffffffffffff7f000000000000000000000000945304eb96065b2a98b57a48a06ae28d285a71b57f000000000000000000000000ffffffffffffffffffffffffffffffffffffffff7f00000000000000000000000000000000000000000000000000000000000000017fffffffffffffffffffffffffffffffffffffffffffffffffffffffffffffffff7f00000000000000000000000100000000000000000000000000000000000000006f59640c655956799087168f0658a11a5560005155",
                "nonce" : "0x00",
                "storage" : {
                }
            },
            "0x945304eb96065b2a98b57a48a06ae28d285a71b5" : {
                "balance" : "0x2e",
                "code" : "0x6000355415600957005b60203560003555",
                "nonce" : "0x00",
                "storage" : {
                }
            },
            "0xa94f5374fce5edbc8e2a8697c15331677e6ebf0b" : {
                "balance" : "0x0de0b6b3a7640000",
                "code" : "0x",
                "nonce" : "0x00",
                "storage" : {
                }
            }
        },
        "transaction" : {
            "data" : [
                "0x7f00000000000000000000000100000000000000000000000000000000000000007f00000000000000000000000100000000000000000000000000000000000000007fffffffffffffffffffffffffffffffffffffffffffffffffffffffffffffffff7f000000000000000000000000945304eb96065b2a98b57a48a06ae28d285a71b57f000000000000000000000000ffffffffffffffffffffffffffffffffffffffff7f00000000000000000000000000000000000000000000000000000000000000017fffffffffffffffffffffffffffffffffffffffffffffffffffffffffffffffff7f00000000000000000000000100000000000000000000000000000000000000006f59640c655956799087168f0658a11a"
            ],
            "gasLimit" : [
                "0x7eab2c08"
            ],
            "gasPrice" : "0x0a",
            "nonce" : "0x00",
            "secretKey" : "0x45a915e4d060149eb4365960e6a7a45f334393093061116b197e3240065ff2d8",
            "sender" : "0xa94f5374fce5edbc8e2a8697c15331677e6ebf0b",
            "to" : "0x095e7baea6a6c7c4c2dfeb977efac326af552d87",
            "value" : [
                "0x1c23d3bc"
            ]
        }
    }
}