{
    "randomStatetest313" : {
        "_info" : {
            "comment" : "",
            "filling-rpc-server" : "evm version 1.14.4-unstable-3d8028a6-20240513",
            "filling-tool-version" : "retesteth-0.3.2-cancun+commit.2ab0208e.Linux.g++",
            "generatedTestHash" : "dda81809d52a7b6c67fa5e96cfab11434d0a6e1c3f5537e50c45c56d9767fd27",
            "lllcversion" : "Version: 0.5.14-develop.2023.7.11+commit.c58ab2c6.mod.Linux.g++",
            "solidity" : "Version: 0.8.21+commit.d9974bed.Linux.g++",
            "source" : "src/GeneralStateTestsFiller/stRandom/randomStatetest313Filler.json",
            "sourceHash" : "8fb0d250326fca63e4f6c65676abcb80890a2f8dd1c87cc460a4f8c46814052a"
        },
        "env" : {
            "currentBaseFee" : "0x0a",
            "currentCoinbase" : "0x945304eb96065b2a98b57a48a06ae28d285a71b5",
            "currentDifficulty" : "0x020000",
            "currentExcessBlobGas" : "0x00",
            "currentGasLimit" : "0x7fffffffffffffff",
            "currentNumber" : "0x01",
            "currentRandom" : "0x0000000000000000000000000000000000000000000000000000000000020000",
            "currentTimestamp" : "0x03e8"
        },
        "post" : {
            "Cancun" : [
                {
                    "hash" : "0xabfff5c2249f5422270f4f598fc423e4fc8557b17d6173079ef0c477f7ff937f",
                    "indexes" : {
                        "data" : 0,
                        "gas" : 0,
                        "value" : 0
                    },
                    "logs" : "0x1dcc4de8dec75d7aab85b567b6ccd41ad312451b948a7413f0a142fd40d49347",
                    "txbytes" : "0xf8d5800a844859786694095e7baea6a6c7c4c2dfeb977efac326af552d87843159e0f9b86f0b7f00000000000000000000000000000000000000000000000000000000000000013c7f000000000000000000000000000000000000000000000000000000000000c350a345457fffffffffffffffffffffffffffffffffffffffffffffffffffffffffffffffff8287a3208c8c5a1ca08b94a2b5c8cae07124309d4fe79daef9b75db88461daa417c1a8e877d7ec1fc6a0436e73ba78786d6b8282d3d56f9bce0fa95accf779430084e664184b97fc0e61"
                }
            ]
        },
        "pre" : {
            "0x095e7baea6a6c7c4c2dfeb977efac326af552d87" : {
                "balance" : "0x00",
                "code" : "0x0b7f00000000000000000000000000000000000000000000000000000000000000013c7f000000000000000000000000000000000000000000000000000000000000c350a345457fffffffffffffffffffffffffffffffffffffffffffffffffffffffffffffffff8287a3208c8c5a60005155",
                "nonce" : "0x00",
                "storage" : {
                }
            },
            "0x945304eb96065b2a98b57a48a06ae28d285a71b5" : {
                "balance" : "0x2e",
                "code" : "0x6000355415600957005b60203560003555",
                "nonce" : "0x00",
                "storage" : {
                }
            },
            "0xa94f5374fce5edbc8e2a8697c15331677e6ebf0b" : {
                "balance" : "0x0de0b6b3a7640000",
                "code" : "0x",
                "nonce" : "0x00",
                "storage" : {
                }
            }
        },
        "transaction" : {
            "data" : [
                "0x0b7f00000000000000000000000000000000000000000000000000000000000000013c7f000000000000000000000000000000000000000000000000000000000000c350a345457fffffffffffffffffffffffffffffffffffffffffffffffffffffffffffffffff8287a3208c8c5a"
            ],
            "gasLimit" : [
                "0x48597866"
            ],
            "gasPrice" : "0x0a",
            "nonce" : "0x00",
            "secretKey" : "0x45a915e4d060149eb4365960e6a7a45f334393093061116b197e3240065ff2d8",
            "sender" : "0xa94f5374fce5edbc8e2a8697c15331677e6ebf0b",
            "to" : "0x095e7baea6a6c7c4c2dfeb977efac326af552d87",
            "value" : [
                "0x3159e0f9"
            ]
        }
    }
}