{
    "randomStatetest210" : {
        "_info" : {
            "comment" : "",
            "filling-rpc-server" : "evm version 1.14.4-unstable-3d8028a6-20240513",
            "filling-tool-version" : "retesteth-0.3.2-cancun+commit.2ab0208e.Linux.g++",
            "generatedTestHash" : "e6bfd54abefc597c21d21e017e36557a0233f2fc6cbafcdde6342cba23be5ad1",
            "lllcversion" : "Version: 0.5.14-develop.2023.7.11+commit.c58ab2c6.mod.Linux.g++",
            "solidity" : "Version: 0.8.21+commit.d9974bed.Linux.g++",
            "source" : "src/GeneralStateTestsFiller/stRandom/randomStatetest210Filler.json",
            "sourceHash" : "cb9319f33361352507f0a5aa19b25b39cab50c0c2141206749bbbc91bf9fb483"
        },
        "env" : {
            "currentBaseFee" : "0x0a",
            "currentCoinbase" : "0x945304eb96065b2a98b57a48a06ae28d285a71b5",
            "currentDifficulty" : "0x020000",
            "currentExcessBlobGas" : "0x00",
            "currentGasLimit" : "0x7fffffffffffffff",
            "currentNumber" : "0x01",
            "currentRandom" : "0x0000000000000000000000000000000000000000000000000000000000020000",
            "currentTimestamp" : "0x03e8"
        },
        "post" : {
            "Cancun" : [
                {
                    "hash" : "0x76df187000e99be758fadc80903f7cf9ec6e4a58bf060a2b454604d22ec753d5",
                    "indexes" : {
                        "data" : 0,
                        "gas" : 0,
                        "value" : 0
                    },
                    "logs" : "0x1dcc4de8dec75d7aab85b567b6ccd41ad312451b948a7413f0a142fd40d49347",
                    "txbytes" : "0xf9012f800a8456c7e88894095e7baea6a6c7c4c2dfeb977efac326af552d87846a1b0d6ab8c9457f000000000000000000000000ffffffffffffffffffffffffffffffffffffffff7f00000000000000000000000000000000000000000000000000000000000000007f000000000000000000000000ffffffffffffffffffffffffffffffffffffffff427ffffffffffffffffffffffffffffffffffffffffffffffffffffffffffffffffe7f00000000000000000000000100000000000000000000000000000000000000007f000000000000000000000000ffffffffffffffffffffffffffffffffffffffff091ca0db5bcc1e65c61c2342446f51ab5b2d0b647126d6b9c987c43263688e2c6fe3aea02d8ea328a6a69d024a450104b31a905e86c83336050b0bf0d1cbd1b80729c032"
                }
            ]
        },
        "pre" : {
            "0x095e7baea6a6c7c4c2dfeb977efac326af552d87" : {
                "balance" : "0x00",
                "code" : "0x457f000000000000000000000000ffffffffffffffffffffffffffffffffffffffff7f00000000000000000000000000000000000000000000000000000000000000007f000000000000000000000000ffffffffffffffffffffffffffffffffffffffff427ffffffffffffffffffffffffffffffffffffffffffffffffffffffffffffffffe7f00000000000000000000000100000000000000000000000000000000000000007f000000000000000000000000ffffffffffffffffffffffffffffffffffffffff0960005155",
                "nonce" : "0x00",
                "storage" : {
                }
            },
            "0x945304eb96065b2a98b57a48a06ae28d285a71b5" : {
                "balance" : "0x2e",
                "code" : "0x6000355415600957005b60203560003555",
                "nonce" : "0x00",
                "storage" : {
                }
            },
            "0xa94f5374fce5edbc8e2a8697c15331677e6ebf0b" : {
                "balance" : "0x0de0b6b3a7640000",
                "code" : "0x",
                "nonce" : "0x00",
                "storage" : {
                }
            }
        },
        "transaction" : {
            "data" : [
                "0x457f000000000000000000000000ffffffffffffffffffffffffffffffffffffffff7f00000000000000000000000000000000000000000000000000000000000000007f000000000000000000000000ffffffffffffffffffffffffffffffffffffffff427ffffffffffffffffffffffffffffffffffffffffffffffffffffffffffffffffe7f00000000000000000000000100000000000000000000000000000000000000007f000000000000000000000000ffffffffffffffffffffffffffffffffffffffff09"
            ],
            "gasLimit" : [
                "0x56c7e888"
            ],
            "gasPrice" : "0x0a",
            "nonce" : "0x00",
            "secretKey" : "0x45a915e4d060149eb4365960e6a7a45f334393093061116b197e3240065ff2d8",
            "sender" : "0xa94f5374fce5edbc8e2a8697c15331677e6ebf0b",
            "to" : "0x095e7baea6a6c7c4c2dfeb977efac326af552d87",
            "value" : [
                "0x6a1b0d6a"
            ]
        }
    }
}