{
    "expPower256Of256" : {
        "_info" : {
            "comment" : "Ori Pomerantz qbzzt1@gmail.com",
            "filling-rpc-server" : "evm version 1.14.4-unstable-3d8028a6-20240513",
            "filling-tool-version" : "retesteth-0.3.2-cancun+commit.2ab0208e.Linux.g++",
            "generatedTestHash" : "ef95e0b1bbc235b669371c4b4114ce6a0346dd5c0f0f36a0ce640c19ddbcfd83",
            "lllcversion" : "Version: 0.5.14-develop.2023.7.11+commit.c58ab2c6.mod.Linux.g++",
            "solidity" : "Version: 0.8.21+commit.d9974bed.Linux.g++",
            "source" : "src/GeneralStateTestsFiller/VMTests/vmArithmeticTest/expPower256Of256Filler.yml",
            "sourceHash" : "9cc4b3bac2d8f3d8a4807cd3aeec66bc3256173718548c003f2671b81b9fe7ea"
        },
        "env" : {
            "currentBaseFee" : "0x0a",
            "currentCoinbase" : "0x2adc25665018aa1fe0e6bc666dac8fc2697ff9ba",
            "currentDifficulty" : "0x020000",
            "currentExcessBlobGas" : "0x00",
            "currentGasLimit" : "0x05f5e100",
            "currentNumber" : "0x01",
            "currentRandom" : "0x0000000000000000000000000000000000000000000000000000000000020000",
            "currentTimestamp" : "0x03e8"
        },
        "post" : {
            "Cancun" : [
                {
                    "hash" : "0x07e29d5f4b74d32e38d9369ce15638a0622657bf7e876d34ebeedff0ba10c9fe",
                    "indexes" : {
                        "data" : 0,
                        "gas" : 0,
                        "value" : 0
                    },
                    "logs" : "0x1dcc4de8dec75d7aab85b567b6ccd41ad312451b948a7413f0a142fd40d49347",
                    "txbytes" : "0xf885800a8404c4b40094cccccccccccccccccccccccccccccccccccccccc01a4693c613900000000000000000000000000000000000000000000000000000000000000001ba0e8ff56322287185f6afd3422a825b47bf5c1a4ccf0dc0389cdc03f7c1c32b7eaa0776b02f9f5773238d3ff36b74a123f409cd6420908d7855bbe4c8ff63e00d698"
                }
            ]
        },
        "pre" : {
            "0xa94f5374fce5edbc8e2a8697c15331677e6ebf0b" : {
                "balance" : "0x0ba1a9ce0ba1a9ce",
                "code" : "0x",
                "nonce" : "0x00",
                "storage" : {
                }
            },
            "0xcccccccccccccccccccccccccccccccccccccccc" : {
                "balance" : "0x0ba1a9ce0ba1a9ce",
                "code" : "0x60006101000a6101000a600060100255600060ff0a6101000a60016000601002015560006101010a6101000a60026000601002015560006101000a60ff0a600360006010020155600060ff0a60ff0a60046000601002015560006101010a60ff0a60056000601002015560006101000a6101010a600660006010020155600060ff0a6101010a60076000601002015560006101010a6101010a60086000601002015560016101000a6101000a600160100255600160ff0a6101000a60016001601002015560016101010a6101000a60026001601002015560016101000a60ff0a600360016010020155600160ff0a60ff0a60046001601002015560016101010a60ff0a60056001601002015560016101000a6101010a600660016010020155600160ff0a6101010a60076001601002015560016101010a6101010a60086001601002015560026101000a6101000a600260100255600260ff0a6101000a60016002601002015560026101010a6101000a60026002601002015560026101000a60ff0a600360026010020155600260ff0a60ff0a60046002601002015560026101010a60ff0a60056002601002015560026101000a6101010a600660026010020155600260ff0a6101010a60076002601002015560026101010a6101010a60086002601002015560036101000a6101000a600360100255600360ff0a6101000a60016003601002015560036101010a6101000a60026003601002015560036101000a60ff0a600360036010020155600360ff0a60ff0a60046003601002015560036101010a60ff0a60056003601002015560036101000a6101010a600660036010020155600360ff0a6101010a60076003601002015560036101010a6101010a60086003601002015560046101000a6101000a600460100255600460ff0a6101000a60016004601002015560046101010a6101000a60026004601002015560046101000a60ff0a600360046010020155600460ff0a60ff0a60046004601002015560046101010a60ff0a60056004601002015560046101000a6101010a600660046010020155600460ff0a6101010a60076004601002015560046101010a6101010a60086004601002015560056101000a6101000a600560100255600560ff0a6101000a60016005601002015560056101010a6101000a60026005601002015560056101000a60ff0a600360056010020155600560ff0a60ff0a60046005601002015560056101010a60ff0a60056005601002015560056101000a6101010a600660056010020155600560ff0a6101010a60076005601002015560056101010a6101010a60086005601002015560066101000a6101000a600660100255600660ff0a6101000a60016006601002015560066101010a6101000a60026006601002015560066101000a60ff0a600360066010020155600660ff0a60ff0a60046006601002015560066101010a60ff0a60056006601002015560066101000a6101010a600660066010020155600660ff0a6101010a60076006601002015560066101010a6101010a60086006601002015560076101000a6101000a600760100255600760ff0a6101000a60016007601002015560076101010a6101000a60026007601002015560076101000a60ff0a600360076010020155600760ff0a60ff0a60046007601002015560076101010a60ff0a60056007601002015560076101000a6101010a600660076010020155600760ff0a6101010a60076007601002015560076101010a6101010a60086007601002015560086101000a6101000a600860100255600860ff0a6101000a60016008601002015560086101010a6101000a60026008601002015560086101000a60ff0a600360086010020155600860ff0a60ff0a60046008601002015560086101010a60ff0a60056008601002015560086101000a6101010a600660086010020155600860ff0a6101010a60076008601002015560086101010a6101010a60086008601002015560096101000a6101000a600960100255600960ff0a6101000a60016009601002015560096101010a6101000a60026009601002015560096101000a60ff0a600360096010020155600960ff0a60ff0a60046009601002015560096101010a60ff0a60056009601002015560096101000a6101010a600660096010020155600960ff0a6101010a60076009601002015560096101010a6101010a600860096010020155600a6101000a6101000a600a60100255600a60ff0a6101000a6001600a6010020155600a6101010a6101000a6002600a6010020155600a6101000a60ff0a6003600a6010020155600a60ff0a60ff0a6004600a6010020155600a6101010a60ff0a6005600a6010020155600a6101000a6101010a6006600a6010020155600a60ff0a6101010a6007600a6010020155600a6101010a6101010a6008600a6010020155600b6101000a6101000a600b60100255600b60ff0a6101000a6001600b6010020155600b6101010a6101000a6002600b6010020155600b6101000a60ff0a6003600b6010020155600b60ff0a60ff0a6004600b6010020155600b6101010a60ff0a6005600b6010020155600b6101000a6101010a6006600b6010020155600b60ff0a6101010a6007600b6010020155600b6101010a6101010a6008600b6010020155600c6101000a6101000a600c60100255600c60ff0a6101000a6001600c6010020155600c6101010a6101000a6002600c6010020155600c6101000a60ff0a6003600c6010020155600c60ff0a60ff0a6004600c6010020155600c6101010a60ff0a6005600c6010020155600c6101000a6101010a6006600c6010020155600c60ff0a6101010a6007600c6010020155600c6101010a6101010a6008600c6010020155600d6101000a6101000a600d60100255600d60ff0a6101000a6001600d6010020155600d6101010a6101000a6002600d6010020155600d6101000a60ff0a6003600d6010020155600d60ff0a60ff0a6004600d6010020155600d6101010a60ff0a6005600d6010020155600d6101000a6101010a6006600d6010020155600d60ff0a6101010a6007600d6010020155600d6101010a6101010a6008600d6010020155600e6101000a6101000a600e60100255600e60ff0a6101000a6001600e6010020155600e6101010a6101000a6002600e6010020155600e6101000a60ff0a6003600e6010020155600e60ff0a60ff0a6004600e6010020155600e6101010a60ff0a6005600e6010020155600e6101000a6101010a6006600e6010020155600e60ff0a6101010a6007600e6010020155600e6101010a6101010a6008600e6010020155600f6101000a6101000a600f60100255600f60ff0a6101000a6001600f6010020155600f6101010a6101000a6002600f6010020155600f6101000a60ff0a6003600f6010020155600f60ff0a60ff0a6004600f6010020155600f6101010a60ff0a6005600f6010020155600f6101000a6101010a6006600f6010020155600f60ff0a6101010a6007600f6010020155600f6101010a6101010a6008600f601002015560106101000a6101000a601060100255601060ff0a6101000a60016010601002015560106101010a6101000a60026010601002015560106101000a60ff0a600360106010020155601060ff0a60ff0a60046010601002015560106101010a60ff0a60056010601002015560106101000a6101010a600660106010020155601060ff0a6101010a60076010601002015560106101010a6101010a60086010601002015560116101000a6101000a601160100255601160ff0a6101000a60016011601002015560116101010a6101000a60026011601002015560116101000a60ff0a600360116010020155601160ff0a60ff0a60046011601002015560116101010a60ff0a60056011601002015560116101000a6101010a600660116010020155601160ff0a6101010a60076011601002015560116101010a6101010a60086011601002015560126101000a6101000a601260100255601260ff0a6101000a60016012601002015560126101010a6101000a60026012601002015560126101000a60ff0a600360126010020155601260ff0a60ff0a60046012601002015560126101010a60ff0a60056012601002015560126101000a6101010a600660126010020155601260ff0a6101010a60076012601002015560126101010a6101010a60086012601002015560136101000a6101000a601360100255601360ff0a6101000a60016013601002015560136101010a6101000a60026013601002015560136101000a60ff0a600360136010020155601360ff0a60ff0a60046013601002015560136101010a60ff0a60056013601002015560136101000a6101010a600660136010020155601360ff0a6101010a60076013601002015560136101010a6101010a60086013601002015560146101000a6101000a601460100255601460ff0a6101000a60016014601002015560146101010a6101000a60026014601002015560146101000a60ff0a600360146010020155601460ff0a60ff0a60046014601002015560146101010a60ff0a60056014601002015560146101000a6101010a600660146010020155601460ff0a6101010a60076014601002015560146101010a6101010a60086014601002015560156101000a6101000a601560100255601560ff0a6101000a60016015601002015560156101010a6101000a60026015601002015560156101000a60ff0a600360156010020155601560ff0a60ff0a60046015601002015560156101010a60ff0a60056015601002015560156101000a6101010a600660156010020155601560ff0a6101010a60076015601002015560156101010a6101010a60086015601002015560166101000a6101000a601660100255601660ff0a6101000a60016016601002015560166101010a6101000a60026016601002015560166101000a60ff0a600360166010020155601660ff0a60ff0a60046016601002015560166101010a60ff0a60056016601002015560166101000a6101010a600660166010020155601660ff0a6101010a60076016601002015560166101010a6101010a60086016601002015560176101000a6101000a601760100255601760ff0a6101000a60016017601002015560176101010a6101000a60026017601002015560176101000a60ff0a600360176010020155601760ff0a60ff0a60046017601002015560176101010a60ff0a60056017601002015560176101000a6101010a600660176010020155601760ff0a6101010a60076017601002015560176101010a6101010a60086017601002015560186101000a6101000a601860100255601860ff0a6101000a60016018601002015560186101010a6101000a60026018601002015560186101000a60ff0a600360186010020155601860ff0a60ff0a60046018601002015560186101010a60ff0a60056018601002015560186101000a6101010a600660186010020155601860ff0a6101010a60076018601002015560186101010a6101010a60086018601002015560196101000a6101000a601960100255601960ff0a6101000a60016019601002015560196101010a6101000a60026019601002015560196101000a60ff0a600360196010020155601960ff0a60ff0a60046019601002015560196101010a60ff0a60056019601002015560196101000a6101010a600660196010020155601960ff0a6101010a60076019601002015560196101010a6101010a600860196010020155601a6101000a6101000a601a60100255601a60ff0a6101000a6001601a6010020155601a6101010a6101000a6002601a6010020155601a6101000a60ff0a6003601a6010020155601a60ff0a60ff0a6004601a6010020155601a6101010a60ff0a6005601a6010020155601a6101000a6101010a6006601a6010020155601a60ff0a6101010a6007601a6010020155601a6101010a6101010a6008601a6010020155601b6101000a6101000a601b60100255601b60ff0a6101000a6001601b6010020155601b6101010a6101000a6002601b6010020155601b6101000a60ff0a6003601b6010020155601b60ff0a60ff0a6004601b6010020155601b6101010a60ff0a6005601b6010020155601b6101000a6101010a6006601b6010020155601b60ff0a6101010a6007601b6010020155601b6101010a6101010a6008601b6010020155601c6101000a6101000a601c60100255601c60ff0a6101000a6001601c6010020155601c6101010a6101000a6002601c6010020155601c6101000a60ff0a6003601c6010020155601c60ff0a60ff0a6004601c6010020155601c6101010a60ff0a6005601c6010020155601c6101000a6101010a6006601c6010020155601c60ff0a6101010a6007601c6010020155601c6101010a6101010a6008601c6010020155601d6101000a6101000a601d60100255601d60ff0a6101000a6001601d6010020155601d6101010a6101000a6002601d6010020155601d6101000a60ff0a6003601d6010020155601d60ff0a60ff0a6004601d6010020155601d6101010a60ff0a6005601d6010020155601d6101000a6101010a6006601d6010020155601d60ff0a6101010a6007601d6010020155601d6101010a6101010a6008601d6010020155601e6101000a6101000a601e60100255601e60ff0a6101000a6001601e6010020155601e6101010a6101000a6002601e6010020155601e6101000a60ff0a6003601e6010020155601e60ff0a60ff0a6004601e6010020155601e6101010a60ff0a6005601e6010020155601e6101000a6101010a6006601e6010020155601e60ff0a6101010a6007601e6010020155601e6101010a6101010a6008601e6010020155601f6101000a6101000a601f60100255601f60ff0a6101000a6001601f6010020155601f6101010a6101000a6002601f6010020155601f6101000a60ff0a6003601f6010020155601f60ff0a60ff0a6004601f6010020155601f6101010a60ff0a6005601f6010020155601f6101000a6101010a6006601f6010020155601f60ff0a6101010a6007601f6010020155601f6101010a6101010a6008601f601002015560206101000a6101000a602060100255602060ff0a6101000a60016020601002015560206101010a6101000a60026020601002015560206101000a60ff0a600360206010020155602060ff0a60ff0a60046020601002015560206101010a60ff0a60056020601002015560206101000a6101010a600660206010020155602060ff0a6101010a60076020601002015560206101010a6101010a60086020601002015560216101000a6101000a602160100255602160ff0a6101000a60016021601002015560216101010a6101000a60026021601002015560216101000a60ff0a600360216010020155602160ff0a60ff0a60046021601002015560216101010a60ff0a60056021601002015560216101000a6101010a600660216010020155602160ff0a6101010a60076021601002015560216101010a6101010a60086021601002015500",
                "nonce" : "0x00",
                "storage" : {
                }
            }
        },
        "transaction" : {
            "data" : [
                "0x693c61390000000000000000000000000000000000000000000000000000000000000000"
            ],
            "gasLimit" : [
                "0x04c4b400"
            ],
            "gasPrice" : "0x0a",
            "nonce" : "0x00",
            "secretKey" : "0x45a915e4d060149eb4365960e6a7a45f334393093061116b197e3240065ff2d8",
            "sender" : "0xa94f5374fce5edbc8e2a8697c15331677e6ebf0b",
            "to" : "0xcccccccccccccccccccccccccccccccccccccccc",
            "value" : [
                "0x01"
            ]
        }
    }
}