{
    "ecmul_0-3_2_21000_128" : {
        "_info" : {
            "comment" : "Puts the point (0, 3) and the factor 2 into the ECMUL precompile, truncating or expanding the input data to 128 bytes. Gives the execution 21000 bytes",
            "filling-rpc-server" : "evm version 1.14.4-unstable-3d8028a6-20240513",
            "filling-tool-version" : "retesteth-0.3.2-cancun+commit.2ab0208e.Linux.g++",
            "generatedTestHash" : "af8920c7e109fa1645d29213f20a70d0e0a81a50373388e0ac385085d3c3eaf4",
            "lllcversion" : "Version: 0.5.14-develop.2023.7.11+commit.c58ab2c6.mod.Linux.g++",
            "solidity" : "Version: 0.8.21+commit.d9974bed.Linux.g++",
            "source" : "src/GeneralStateTestsFiller/stZeroKnowledge2/ecmul_0-3_2_21000_128Filler.json",
            "sourceHash" : "5b72f040fce6f9fe98c8b9a58175923bd028259494b529dde243e49ed53e62a2"
        },
        "env" : {
            "currentBaseFee" : "0x0a",
            "currentCoinbase" : "0x3535353535353535353535353535353535353535",
            "currentDifficulty" : "0x020000",
            "currentExcessBlobGas" : "0x00",
            "currentGasLimit" : "0x05f5e100",
            "currentNumber" : "0x01",
            "currentRandom" : "0x0000000000000000000000000000000000000000000000000000000000020000",
            "currentTimestamp" : "0x03e8"
        },
        "post" : {
            "Cancun" : [
                {
                    "hash" : "0xf92244480853f51c3b1255830daf2eaefdc603ceb21966ac8593b7238ff3afa4",
                    "indexes" : {
                        "data" : 0,
                        "gas" : 0,
                        "value" : 0
                    },
                    "logs" : "0x1dcc4de8dec75d7aab85b567b6ccd41ad312451b948a7413f0a142fd40d49347",
                    "txbytes" : "0xf901242a0a82a92094c305c901078781c232a2a521c2af7980f8385ee980b8c430c8d1da0000000000000000000000000000000000000000000000000000000000000020000000000000000000000000000000000000000000000000000000000000008000000000000000000000000000000000000000000000000000000000000000000000000000000000000000000000000000000000000000000000000000000003000000000000000000000000000000000000000000000000000000000000000200000000000000000000000000000000000000000000000000000000000000001ba0a8abda7ecde1209f4823acc33091dd30d368184dcadcbd429145c97d17342ad2a03f4e298b3bc43970d9add00975dbdbb88068711d60e4f7e24d69a900acbf019b"
                },
                {
                    "hash" : "0x7bd28bb177ea7fd5a09229b6cceb4f35e86d3b0da286216233609ce55b2dfa8f",
                    "indexes" : {
                        "data" : 0,
                        "gas" : 1,
                        "value" : 0
                    },
                    "logs" : "0x1dcc4de8dec75d7aab85b567b6ccd41ad312451b948a7413f0a142fd40d49347",
                    "txbytes" : "0xf901252a0a83015f9094c305c901078781c232a2a521c2af7980f8385ee980b8c430c8d1da0000000000000000000000000000000000000000000000000000000000000020000000000000000000000000000000000000000000000000000000000000008000000000000000000000000000000000000000000000000000000000000000000000000000000000000000000000000000000000000000000000000000000003000000000000000000000000000000000000000000000000000000000000000200000000000000000000000000000000000000000000000000000000000000001ba0b1fdc14f322d912bac7e34112fa68c19b329d3bcc109940e538be41dbd599d03a052361b7dfe799adc3c0ab6d27cb76d04c7e41ad5426bce8b3dc690429399e63a"
                },
                {
                    "hash" : "0xf35abb2cc3f933fc343ce5ba4eb6520d546cf399f6ccd3d7ebe1c59ad45f1f0c",
                    "indexes" : {
                        "data" : 0,
                        "gas" : 2,
                        "value" : 0
                    },
                    "logs" : "0x1dcc4de8dec75d7aab85b567b6ccd41ad312451b948a7413f0a142fd40d49347",
                    "txbytes" : "0xf901252a0a8301adb094c305c901078781c232a2a521c2af7980f8385ee980b8c430c8d1da0000000000000000000000000000000000000000000000000000000000000020000000000000000000000000000000000000000000000000000000000000008000000000000000000000000000000000000000000000000000000000000000000000000000000000000000000000000000000000000000000000000000000003000000000000000000000000000000000000000000000000000000000000000200000000000000000000000000000000000000000000000000000000000000001ba0173121069cdc8b391de537ef7c3d4ac55fa804364374decc392b03d5e613ea3fa006689d53cf6460acd0c6b534a93619a8abb568088d574058b18185acde48392d"
                },
                {
                    "hash" : "0x7f54e1dc75d60dc788b2df5ce4907c9a49136c730af24086c477eba9e75f153b",
                    "indexes" : {
                        "data" : 0,
                        "gas" : 3,
                        "value" : 0
                    },
                    "logs" : "0x1dcc4de8dec75d7aab85b567b6ccd41ad312451b948a7413f0a142fd40d49347",
                    "txbytes" : "0xf901252a0a83030d4094c305c901078781c232a2a521c2af7980f8385ee980b8c430c8d1da0000000000000000000000000000000000000000000000000000000000000020000000000000000000000000000000000000000000000000000000000000008000000000000000000000000000000000000000000000000000000000000000000000000000000000000000000000000000000000000000000000000000000003000000000000000000000000000000000000000000000000000000000000000200000000000000000000000000000000000000000000000000000000000000001ba0c8f99cf2fd5a48848a7238217a25b7e8d2615395ae65d56cd65a5b472d0cbf0da0524c4dd0db303c1c175231f1034bd75bd37baaaf7955bf9725e12821cb40a21d"
                }
            ]
        },
        "pre" : {
            "0x0000000000000000000000000000000000000000" : {
                "balance" : "0x01",
                "code" : "0x",
                "nonce" : "0x00",
                "storage" : {
                }
            },
            "0x0000000000000000000000000000000000000001" : {
                "balance" : "0x01",
                "code" : "0x",
                "nonce" : "0x00",
                "storage" : {
                }
            },
            "0x0000000000000000000000000000000000000002" : {
                "balance" : "0x01",
                "code" : "0x",
                "nonce" : "0x00",
                "storage" : {
                }
            },
            "0x0000000000000000000000000000000000000003" : {
                "balance" : "0x01",
                "code" : "0x",
                "nonce" : "0x00",
                "storage" : {
                }
            },
            "0x0000000000000000000000000000000000000004" : {
                "balance" : "0x01",
                "code" : "0x",
                "nonce" : "0x00",
                "storage" : {
                }
            },
            "0x0000000000000000000000000000000000000005" : {
                "balance" : "0x01",
                "code" : "0x",
                "nonce" : "0x00",
                "storage" : {
                }
            },
            "0x0000000000000000000000000000000000000006" : {
                "balance" : "0x01",
                "code" : "0x",
                "nonce" : "0x00",
                "storage" : {
                }
            },
            "0x0000000000000000000000000000000000000007" : {
                "balance" : "0x01",
                "code" : "0x",
                "nonce" : "0x00",
                "storage" : {
                }
            },
            "0x10a1c1cb95c92ec31d3f22c66eef1d9f3f258c6b" : {
                "balance" : "0x0de0b6b3a7640000",
                "code" : "0x",
                "nonce" : "0x00",
                "storage" : {
                }
            },
            "0x13cbb8d99c6c4e0f2728c7d72606e78a29c4e224" : {
                "balance" : "0x0de0b6b3a7640000",
                "code" : "0x",
                "nonce" : "0x00",
                "storage" : {
                }
            },
            "0x24143873e0e0815fdcbcffdbe09c979cbf9ad013" : {
                "balance" : "0x0de0b6b3a7640000",
                "code" : "0x",
                "nonce" : "0x00",
                "storage" : {
                }
            },
            "0x3535353535353535353535353535353535353535" : {
                "balance" : "0x1d7dce",
                "code" : "0x",
                "nonce" : "0x00",
                "storage" : {
                }
            },
            "0x598443f1880ef585b21f1d7585bd0577402861e5" : {
                "balance" : "0x0de0b6b3a7640000",
                "code" : "0x",
                "nonce" : "0x00",
                "storage" : {
                }
            },
            "0x77db2bebba79db42a978f896968f4afce746ea1f" : {
                "balance" : "0x0de0b6b3a7640000",
                "code" : "0x",
                "nonce" : "0x00",
                "storage" : {
                }
            },
            "0x7d577a597b2742b498cb5cf0c26cdcd726d39e6e" : {
                "balance" : "0x0de0b6b3a7640000",
                "code" : "0x",
                "nonce" : "0x00",
                "storage" : {
                }
            },
            "0x82a978b3f5962a5b0957d9ee9eef472ee55b42f1" : {
                "balance" : "0x0de0b6b3a7468232",
                "code" : "0x",
                "nonce" : "0x2a",
                "storage" : {
                }
            },
            "0x90f0b1ebbba1c1936aff7aaf20a7878ff9e04b6c" : {
                "balance" : "0x0de0b6b3a7640000",
                "code" : "0x",
                "nonce" : "0x00",
                "storage" : {
                }
            },
            "0xc305c901078781c232a2a521c2af7980f8385ee9" : {
                "balance" : "0x00",
                "code" : "0x600035601c52740100000000000000000000000000000000000000006020526fffffffffffffffffffffffffffffffff6040527fffffffffffffffffffffffffffffffff000000000000000000000000000000016060527402540be3fffffffffffffffffffffffffdabf41c006080527ffffffffffffffffffffffffdabf41c00000000000000000000000002540be40060a0526330c8d1da600051141561012b5760c06004356004013511151558576004356004013560200160043560040161014037604061026061014051610160600060076305f5e0fff11558576040610240526102406060806102c0828460006004601bf15050506102c08051602082012090506000556102c060206020820352604081510160206001820306601f820103905060208203f350005b",
                "nonce" : "0x01",
                "storage" : {
                }
            },
            "0xdceceaf3fc5c0a63d195d69b1a90011b7b19650d" : {
                "balance" : "0x0de0b6b3a7640000",
                "code" : "0x",
                "nonce" : "0x00",
                "storage" : {
                }
            },
            "0xe0fc04fa2d34a66b779fd5cee748268032a146c0" : {
                "balance" : "0x0de0b6b3a7640000",
                "code" : "0x",
                "nonce" : "0x00",
                "storage" : {
                }
            }
        },
        "transaction" : {
            "data" : [
                "0x30c8d1da000000000000000000000000000000000000000000000000000000000000002000000000000000000000000000000000000000000000000000000000000000800000000000000000000000000000000000000000000000000000000000000000000000000000000000000000000000000000000000000000000000000000000300000000000000000000000000000000000000000000000000000000000000020000000000000000000000000000000000000000000000000000000000000000"
            ],
            "gasLimit" : [
                "0xa920",
                "0x015f90",
                "0x01adb0",
                "0x030d40"
            ],
            "gasPrice" : "0x0a",
            "nonce" : "0x2a",
            "secretKey" : "0x044852b2a670ade5407e78fb2863c51de9fcb96542a07186fe3aeda6bb8a116d",
            "sender" : "0x82a978b3f5962a5b0957d9ee9eef472ee55b42f1",
            "to" : "0xc305c901078781c232a2a521c2af7980f8385ee9",
            "value" : [
                "0x00"
            ]
        }
    }
}