{
    "CallWithZeroValueToPrecompileFromCalledContract" : {
        "_info" : {
            "comment" : "Contract C calls contract B.\nContract B staticcalls contract A.\nContract A calls precompiled contracts with 0 value.\nIt should execute successfully for each precompiled contract.\n",
            "filling-rpc-server" : "evm version 1.14.4-unstable-3d8028a6-20240513",
            "filling-tool-version" : "retesteth-0.3.2-cancun+commit.2ab0208e.Linux.g++",
            "generatedTestHash" : "281b33cbfaa71295c63d1aff7d3788721f6af4a0770bd17736774a79895d43af",
            "lllcversion" : "Version: 0.5.14-develop.2023.7.11+commit.c58ab2c6.mod.Linux.g++",
            "solidity" : "Version: 0.8.21+commit.d9974bed.Linux.g++",
            "source" : "src/GeneralStateTestsFiller/stStaticFlagEnabled/CallWithZeroValueToPrecompileFromCalledContractFiller.yml",
            "sourceHash" : "4b56159c159608b29fdeaf3020e4bfc8b9a08bb3bc7947c6b76bc52c3aec2826"
        },
        "env" : {
            "currentBaseFee" : "0x0a",
            "currentCoinbase" : "0xcafe000000000000000000000000000000000001",
            "currentDifficulty" : "0x020000",
            "currentExcessBlobGas" : "0x00",
            "currentGasLimit" : "0x989680",
            "currentNumber" : "0x01",
            "currentRandom" : "0x0000000000000000000000000000000000000000000000000000000000020000",
            "currentTimestamp" : "0x03e8"
        },
        "post" : {
            "Cancun" : [
                {
                    "hash" : "0x76ef77f9db3e75e6a8c61af64ffaf98400688877ca063d49fe1d5b528be14ef5",
                    "indexes" : {
                        "data" : 0,
                        "gas" : 0,
                        "value" : 0
                    },
                    "logs" : "0x1dcc4de8dec75d7aab85b567b6ccd41ad312451b948a7413f0a142fd40d49347",
                    "txbytes" : "0xf860800a833d090094c00000000000000000000000000000000000000064801ca06f1fa866da89e869cd6fbc877a5c65a3208fead5c6ee7ca2f8f287e802ca2c70a07cd7f175ffb75dfc30277beba49388d4dc30a001ceaf404013ec6d5e7fc8f810"
                }
            ]
        },
        "pre" : {
            "0xa000000000000000000000000000000000000000" : {
                "balance" : "0x03e8",
                "code" : "0x7f18c547e4f7b0f325ad1e56f57e26c745b09a3e503d86e00e5255ff7f715d3d1c600052601c6020527f73b1693892219d736caba55bdb67216e485557ea6b6af75f37096c9aa6a5a75f6040527feeb940b1d03b21e36b0e47e79769f095fe2ab855bd91e3a38756b7d75a9c4549606052602061200060806000600060015af1620a00005260a060020a6120005106620a010052620a0100513214620a02005260006000526000602052600060405260006060526000612000527c0ccccccccccccccccccccccccccccccccccccccccccccccccccc000000600052602061200060206000600060025af1620a030052600051620a04005261200051620a05005260006000526000612000527c0ccccccccccccccccccccccccccccccccccccccccccccccccccc000000600052602061200060206000600060035af1620a060052600051620a07005261200051620a08005260006000526000612000527c0ccccccccccccccccccccccccccccccccccccccccccccccccccc000000600052602061200060206000600060045af1620a09005261200051620a10005260006000526000612000526001600052602060205260206040527f03fffffffffffffffffffffffffffffffffffffffffffffffffffffffefffffc6060527f2efffffffffffffffffffffffffffffffffffffffffffffffffffffffefffffc6080527f2f0000000000000000000000000000000000000000000000000000000000000060a052602061200060a16000600060055af1620a11005261200051620a12005260006000526000602052600060405260006060526000608052600060a0526000612000527f0f25929bcb43d5a57391564615c9e70a992b10eafa4db109709649cf48c50dd26000527f16da2f5cb6be7a0aa72c440c53c9bbdfec6c36c7d515536431b3a865468acbba6020527f1de49a4b0233273bba8146af82042d004f2085ec982397db0d97da17204cc2866040527f0217327ffc463919bef80cc166d09c6172639d8589799928761bcd9f22c903d4606052604061200060806000600060065af1620a13005261200051620a14005261202051620a15005260006000526000602052600060405260006060526000612000526000612020527f0f25929bcb43d5a57391564615c9e70a992b10eafa4db109709649cf48c50dd26000527f16da2f5cb6be7a0aa72c440c53c9bbdfec6c36c7d515536431b3a865468acbba6020526003604052604061200060606000600060075af1620a16005261200051620a17005261202051620a1800526000600052600060205260006040526000612000526000612020527f1c76476f4def4bb94541d57ebba1193381ffa7aa76ada664dd31c16024c43f596000527f3034dd2920f673e204fee2811c678745fc819b55d3e9d294e45c9b03a76aef416020527f209dd15ebff5d46c4bd888e51a93cf99a7329636c63514396b4a452003a35bf76040527f04bf11ca01483bfa8b34b43561848d28905960114c8ac04049af4b6315a416786060527f2bb8324af6cfc93537a2ad1a445cfd0ca2a71acd7ac41fadbf933c2a51be344d6080527f120a2a4cf30c1bf9845f20c6fe39e07ea2cce61f0c9bb048165fe5e4de87755060a0527f111e129f1cf1097710d41c4ac70fcdfa5ba2023c6ff1cbeac322de49d1b6df7c60c0527f2032c61a830e3c17286de9462bf242fca2883585b93870a73853face6a6bf41160e0527f198e9393920d483a7260bfb731fb5d25f1aa493335a9e71297e485b7aef312c2610100527f1800deef121f1e76426a00665e5c4479674322d4f75edadd46debd5cd992f6ed610120527f090689d0585ff075ec9e99ad690c3395bc4b313370b38ef355acdadcd122975b610140527f12c85ea5db8c6deb4aab71808dcb408fe3d1e7690c43d37b4ce6cc0166fa7daa6101605260206120006101806000600060085af1620a19005261200051620a20005260006120005262012020620a0000f300",
                "nonce" : "0x00",
                "storage" : {
                }
            },
            "0xa94f5374fce5edbc8e2a8697c15331677e6ebf0b" : {
                "balance" : "0x0de0b6b3a7640000",
                "code" : "0x",
                "nonce" : "0x00",
                "storage" : {
                }
            },
            "0xb000000000000000000000000000000000000000" : {
                "balance" : "0x03e8",
                "code" : "0x7ffeedfeedfeedfeedfeedfeedfeedfeedfeedfeedfeedfeedfeedfeedfeedfeed60005562012020620a00006000600073a0000000000000000000000000000000000000005afa507ffeedfeedfeedfeedfeedfeedfeedfeedfeedfeedfeedfeedfeedfeedfeedfeed600155620a000051610a0055620a110051610a1155620a010051610a0155620a120051610a1255620a020051610a0255620a130051610a1355620a030051610a0355620a140051610a1455620a040051610a0455620a150051610a1555620a050051610a0555620a160051610a1655620a060051610a0655620a170051610a1755620a070051610a0755620a180051610a1855620a080051610a0855620a190051610a1955620a090051610a0955620a200051610a2055620a100051610a105500",
                "nonce" : "0x00",
                "storage" : {
                    "0x00" : "0xdeadbeafdeadbeafdeadbeafdeadbeafdeadbeafdeadbeafdeadbeafdeadbeaf",
                    "0x01" : "0xdeadbeafdeadbeafdeadbeafdeadbeafdeadbeafdeadbeafdeadbeafdeadbeaf"
                }
            },
            "0xc000000000000000000000000000000000000000" : {
                "balance" : "0x03e8",
                "code" : "0x7ffeedfeedfeedfeedfeedfeedfeedfeedfeedfeedfeedfeedfeedfeedfeedfeed6000556000600060006000600073b0000000000000000000000000000000000000005af1507ffeedfeedfeedfeedfeedfeedfeedfeedfeedfeedfeedfeedfeedfeedfeedfeed60015500",
                "nonce" : "0x00",
                "storage" : {
                    "0x00" : "0xdeadbeafdeadbeafdeadbeafdeadbeafdeadbeafdeadbeafdeadbeafdeadbeaf",
                    "0x01" : "0xdeadbeafdeadbeafdeadbeafdeadbeafdeadbeafdeadbeafdeadbeafdeadbeaf"
                }
            }
        },
        "transaction" : {
            "data" : [
                "0x"
            ],
            "gasLimit" : [
                "0x3d0900"
            ],
            "gasPrice" : "0x0a",
            "nonce" : "0x00",
            "secretKey" : "0x45a915e4d060149eb4365960e6a7a45f334393093061116b197e3240065ff2d8",
            "sender" : "0xa94f5374fce5edbc8e2a8697c15331677e6ebf0b",
            "to" : "0xc000000000000000000000000000000000000000",
            "value" : [
                "0x64"
            ]
        }
    }
}