{
    "callcallcode_01_OOGE" : {
        "_info" : {
            "comment" : "call -> callcode -> code oog ",
            "filling-rpc-server" : "evm version 1.14.4-unstable-3d8028a6-20240513",
            "filling-tool-version" : "retesteth-0.3.2-cancun+commit.2ab0208e.Linux.g++",
            "generatedTestHash" : "37a6f3d20c6ad6b19af07799aa6ee5be2717b48e4ea0ff5ee81ad7bd0fea50f5",
            "lllcversion" : "Version: 0.5.14-develop.2023.7.11+commit.c58ab2c6.mod.Linux.g++",
            "solidity" : "Version: 0.8.21+commit.d9974bed.Linux.g++",
            "source" : "src/GeneralStateTestsFiller/stCallCodes/callcallcode_01_OOGEFiller.json",
            "sourceHash" : "d2df8c24ede1d27e0ed09f409bf22b6dd5a9af0e736b8d4d4719a87dd025bfda"
        },
        "env" : {
            "currentBaseFee" : "0x0a",
            "currentCoinbase" : "0x2adc25665018aa1fe0e6bc666dac8fc2697ff9ba",
            "currentDifficulty" : "0x020000",
            "currentExcessBlobGas" : "0x00",
            "currentGasLimit" : "0x01c9c380",
            "currentNumber" : "0x01",
            "currentRandom" : "0x0000000000000000000000000000000000000000000000000000000000020000",
            "currentTimestamp" : "0x03e8"
        },
        "post" : {
            "Cancun" : [
                {
                    "hash" : "0x36c8fd9ee84387bfce0bc6299e2d3f65f13dac550dc4e185d02166f3fc86c890",
                    "indexes" : {
                        "data" : 0,
                        "gas" : 0,
                        "value" : 0
                    },
                    "logs" : "0x1dcc4de8dec75d7aab85b567b6ccd41ad312451b948a7413f0a142fd40d49347",
                    "txbytes" : "0xf860800a830f424094100000000000000000000000000000000000000080801ba0878fccf1801724b1bfb5b0a67d68454b9c56fe9e3753200bc36cd66eed5636eca00dc53455b0e859433799ddbe3c16f98e70c52b6bf684992d9907dc9d1ccb03f1"
                }
            ]
        },
        "pre" : {
            "0x1000000000000000000000000000000000000000" : {
                "balance" : "0x0de0b6b3a7640000",
                "code" : "0x60406000604060006000731000000000000000000000000000000000000001620c3500f160005500",
                "nonce" : "0x00",
                "storage" : {
                }
            },
            "0x1000000000000000000000000000000000000001" : {
                "balance" : "0x00",
                "code" : "0x60406000604060006000731000000000000000000000000000000000000002620927c0f26001556001600b5500",
                "nonce" : "0x00",
                "storage" : {
                }
            },
            "0x1000000000000000000000000000000000000002" : {
                "balance" : "0x00",
                "code" : "0x6001600255622fffff60002000",
                "nonce" : "0x00",
                "storage" : {
                }
            },
            "0xa94f5374fce5edbc8e2a8697c15331677e6ebf0b" : {
                "balance" : "0x0de0b6b3a7640000",
                "code" : "0x",
                "nonce" : "0x00",
                "storage" : {
                }
            }
        },
        "transaction" : {
            "data" : [
                "0x"
            ],
            "gasLimit" : [
                "0x0f4240"
            ],
            "gasPrice" : "0x0a",
            "nonce" : "0x00",
            "secretKey" : "0x45a915e4d060149eb4365960e6a7a45f334393093061116b197e3240065ff2d8",
            "sender" : "0xa94f5374fce5edbc8e2a8697c15331677e6ebf0b",
            "to" : "0x1000000000000000000000000000000000000000",
            "value" : [
                "0x00"
            ]
        }
    }
}