{
    "callcodeDynamicCode2SelfCall" : {
        "_info" : {
            "comment" : "callcode happen to a contract that is dynamicly created from within the contract (to itself)",
            "filling-rpc-server" : "evm version 1.14.4-unstable-3d8028a6-20240513",
            "filling-tool-version" : "retesteth-0.3.2-cancun+commit.2ab0208e.Linux.g++",
            "generatedTestHash" : "ec60bffdceb7584d55df88c0a8282063bf30e38b40f8e746adbfefd3a51e52d2",
            "lllcversion" : "Version: 0.5.14-develop.2023.7.11+commit.c58ab2c6.mod.Linux.g++",
            "solidity" : "Version: 0.8.21+commit.d9974bed.Linux.g++",
            "source" : "src/GeneralStateTestsFiller/stCallCodes/callcodeDynamicCode2SelfCallFiller.json",
            "sourceHash" : "e1379f7f1454deeed661542ed0972a9526ea2d2da1de7c7e52f4566f5daab31c"
        },
        "env" : {
            "currentBaseFee" : "0x0a",
            "currentCoinbase" : "0x2adc25665018aa1fe0e6bc666dac8fc2697ff9ba",
            "currentDifficulty" : "0x020000",
            "currentExcessBlobGas" : "0x00",
            "currentGasLimit" : "0x989680",
            "currentNumber" : "0x01",
            "currentRandom" : "0x0000000000000000000000000000000000000000000000000000000000020000",
            "currentTimestamp" : "0x03e8"
        },
        "post" : {
            "Cancun" : [
                {
                    "hash" : "0x0822c631d47eacc6625ef843a7b0f6b5d5592011d176a200a7418eb38a98e4fb",
                    "indexes" : {
                        "data" : 0,
                        "gas" : 0,
                        "value" : 0
                    },
                    "logs" : "0x1dcc4de8dec75d7aab85b567b6ccd41ad312451b948a7413f0a142fd40d49347",
                    "txbytes" : "0xf880800a83162c1994110000000000000000000000000000000000000080a0000000000000000000000000a0000000000000000000000000000000000000001ba0a5f0650b9b892f0eacfacbf1e65579b550984d82b686a5b19242da2690b5ab12a062453940543d0c70b2ade834d0f19018899af2aa04aa1b626dd546504d47c518"
                },
                {
                    "hash" : "0x3ce45d642009234ff54980acd4308b1230cab7e1d55766408fe6b7aeeab2fe22",
                    "indexes" : {
                        "data" : 1,
                        "gas" : 0,
                        "value" : 0
                    },
                    "logs" : "0x1dcc4de8dec75d7aab85b567b6ccd41ad312451b948a7413f0a142fd40d49347",
                    "txbytes" : "0xf880800a83162c1994110000000000000000000000000000000000000080a000000000000000000000000010000000000000000000000000000000000000001ca0eea33a7585b0b5b2bffd5b79db62acfcb3550b937b293216b5ac87934da5cc5aa06310388cb61e1c948e1676f1ea6328b4493804154e0fcdf5246df8ce6f396f6b"
                }
            ]
        },
        "pre" : {
            "0x1000000000000000000000000000000000000000" : {
                "balance" : "0x2710",
                "code" : "0x604680602760003960006000f0600a5560406000604060006000600a54620186a0f2600b5500fe604060006040600060007313136008b64ff592819b2fa6d43f2835c452020e620186a0f2607a5560128060346000396000f300fe600160005530601455326015553360165500",
                "nonce" : "0x00",
                "storage" : {
                }
            },
            "0x1100000000000000000000000000000000000000" : {
                "balance" : "0x00",
                "code" : "0x60006000600060006000600035620c3500f100",
                "nonce" : "0x00",
                "storage" : {
                }
            },
            "0xa000000000000000000000000000000000000000" : {
                "balance" : "0x2710",
                "code" : "0x7f604060006040600060007313136008b64ff592819b2fa6d43f2835c452020e626000527f0186a0f2600b5533600c55000000000000000000000000000000000000000000602052604060006001f000",
                "nonce" : "0x00",
                "storage" : {
                }
            },
            "0xa94f5374fce5edbc8e2a8697c15331677e6ebf0b" : {
                "balance" : "0x2386f26fc10000",
                "code" : "0x",
                "nonce" : "0x00",
                "storage" : {
                }
            }
        },
        "transaction" : {
            "data" : [
                "0x000000000000000000000000a000000000000000000000000000000000000000",
                "0x0000000000000000000000001000000000000000000000000000000000000000"
            ],
            "gasLimit" : [
                "0x162c19"
            ],
            "gasPrice" : "0x0a",
            "nonce" : "0x00",
            "secretKey" : "0x45a915e4d060149eb4365960e6a7a45f334393093061116b197e3240065ff2d8",
            "sender" : "0xa94f5374fce5edbc8e2a8697c15331677e6ebf0b",
            "to" : "0x1100000000000000000000000000000000000000",
            "value" : [
                "0x00"
            ]
        }
    }
}