{
    "callcodeInInitcodeToExistingContract" : {
        "_info" : {
            "comment" : "callcode inside create/create2 contract init to existing contract",
            "filling-rpc-server" : "evm version 1.14.4-unstable-3d8028a6-20240513",
            "filling-tool-version" : "retesteth-0.3.2-cancun+commit.2ab0208e.Linux.g++",
            "generatedTestHash" : "1b68c78a9ddb9d66c92df18cc3e2c84c876708d6784063d73becacc56356c3c3",
            "lllcversion" : "Version: 0.5.14-develop.2023.7.11+commit.c58ab2c6.mod.Linux.g++",
            "solidity" : "Version: 0.8.21+commit.d9974bed.Linux.g++",
            "source" : "src/GeneralStateTestsFiller/stCallCodes/callcodeInInitcodeToExistingContractFiller.json",
            "sourceHash" : "ffda8374b523fc4dcc0db5a8d7c044c2810a80aef75899b408ec79ffa40e656c"
        },
        "env" : {
            "currentBaseFee" : "0x0a",
            "currentCoinbase" : "0x2adc25665018aa1fe0e6bc666dac8fc2697ff9ba",
            "currentDifficulty" : "0x020000",
            "currentExcessBlobGas" : "0x00",
            "currentGasLimit" : "0x0f4240",
            "currentNumber" : "0x01",
            "currentRandom" : "0x0000000000000000000000000000000000000000000000000000000000020000",
            "currentTimestamp" : "0x03e8"
        },
        "post" : {
            "Cancun" : [
                {
                    "hash" : "0x0a7814b53a5fcd7078d62cbde400775bd9566507ee9a98e14bd88732592064e1",
                    "indexes" : {
                        "data" : 0,
                        "gas" : 0,
                        "value" : 0
                    },
                    "logs" : "0x1dcc4de8dec75d7aab85b567b6ccd41ad312451b948a7413f0a142fd40d49347",
                    "txbytes" : "0xf880800a830f424094110000000000000000000000000000000000000080a000000000000000000000000010000000000000000000000000000000000000001ca0ca78c6aeceba1c80b3c5904c35b296f162da6e954108ed3b0850dbbd1eba4349a06691b8ca833ecef464101a63e9710d881bc488dd2aebd813eb32c54900b02bfc"
                },
                {
                    "hash" : "0xe20f3c2ef981a9c2820c44c3af8bf6a4623f5f6207868bd50807661d7623e5c0",
                    "indexes" : {
                        "data" : 1,
                        "gas" : 0,
                        "value" : 0
                    },
                    "logs" : "0x1dcc4de8dec75d7aab85b567b6ccd41ad312451b948a7413f0a142fd40d49347",
                    "txbytes" : "0xf880800a830f424094110000000000000000000000000000000000000080a000000000000000000000000020000000000000000000000000000000000000001ba0f7974705a787c5f412c26b5774972b33e1e9eebe96f758308a0bf87d00530341a04adf51bcbf3ae243e677603067518d772153750ce235d25d149cd6b035b8b1b0"
                }
            ]
        },
        "pre" : {
            "0x1000000000000000000000000000000000000000" : {
                "balance" : "0x2710",
                "code" : "0x602780600f60003960006001f000fe6000600060006000600173100000000000000000000000000000000000000161c350f260015500",
                "nonce" : "0x00",
                "storage" : {
                }
            },
            "0x1000000000000000000000000000000000000001" : {
                "balance" : "0x00",
                "code" : "0x600160025500",
                "nonce" : "0x00",
                "storage" : {
                }
            },
            "0x1100000000000000000000000000000000000000" : {
                "balance" : "0x00",
                "code" : "0x60006000600060006000600035620493e0f100",
                "nonce" : "0x00",
                "storage" : {
                }
            },
            "0x2000000000000000000000000000000000000000" : {
                "balance" : "0x2710",
                "code" : "0x6000602780601160003960006001f500fe6000600060006000600173100000000000000000000000000000000000000161c350f260015500",
                "nonce" : "0x00",
                "storage" : {
                }
            },
            "0xa94f5374fce5edbc8e2a8697c15331677e6ebf0b" : {
                "balance" : "0x2386f26fc10000",
                "code" : "0x",
                "nonce" : "0x00",
                "storage" : {
                }
            }
        },
        "transaction" : {
            "data" : [
                "0x0000000000000000000000001000000000000000000000000000000000000000",
                "0x0000000000000000000000002000000000000000000000000000000000000000"
            ],
            "gasLimit" : [
                "0x0f4240"
            ],
            "gasPrice" : "0x0a",
            "nonce" : "0x00",
            "secretKey" : "0x45a915e4d060149eb4365960e6a7a45f334393093061116b197e3240065ff2d8",
            "sender" : "0xa94f5374fce5edbc8e2a8697c15331677e6ebf0b",
            "to" : "0x1100000000000000000000000000000000000000",
            "value" : [
                "0x00"
            ]
        }
    }
}