{
    "blake2B" : {
        "_info" : {
            "comment" : "Ori Pomerantz qbzzt1@gmail.com",
            "filling-rpc-server" : "evm version 1.14.4-unstable-3d8028a6-20240513",
            "filling-tool-version" : "retesteth-0.3.2-cancun+commit.2ab0208e.Linux.g++",
            "generatedTestHash" : "363686c0a9bb98301512c269249760755f51302caba071259cd75e070d75ce04",
            "labels" : {
                "0" : "fail",
                "1" : "fail",
                "10" : "test-0032",
                "11" : "test-0064",
                "12" : "test-0128",
                "13" : "test-0256",
                "14" : "test-0512",
                "15" : "test-1024",
                "16" : "test-0016-16",
                "17" : "test-0032-16",
                "18" : "test-0064-16",
                "19" : "test-0128-16",
                "2" : "fail",
                "20" : "test-0256-16",
                "21" : "test-0512-16",
                "22" : "test-1024-16",
                "23" : "test-0016-120",
                "24" : "test-0032-120",
                "25" : "test-0064-120",
                "3" : "fail",
                "4" : "case-04",
                "5" : "case-05",
                "6" : "case-06",
                "7" : "case-07",
                "8" : "case-09",
                "9" : "test-0016"
            },
            "lllcversion" : "Version: 0.5.14-develop.2023.7.11+commit.c58ab2c6.mod.Linux.g++",
            "solidity" : "Version: 0.8.21+commit.d9974bed.Linux.g++",
            "source" : "src/GeneralStateTestsFiller/stPreCompiledContracts/blake2BFiller.yml",
            "sourceHash" : "1ff8257b403e70161d094b6720fa3d09f56b291f2c138228b8745ffbd0c73224"
        },
        "env" : {
            "currentBaseFee" : "0x0a",
            "currentCoinbase" : "0x2adc25665018aa1fe0e6bc666dac8fc2697ff9ba",
            "currentDifficulty" : "0x020000",
            "currentExcessBlobGas" : "0x00",
            "currentGasLimit" : "0xff112233445566",
            "currentNumber" : "0x01",
            "currentRandom" : "0x0000000000000000000000000000000000000000000000000000000000020000",
            "currentTimestamp" : "0x03e8"
        },
        "post" : {
            "Cancun" : [
                {
                    "hash" : "0x282b6c38bd69e59c165305dde0729efdc283f0e14c6ffb646b12f6fcc4b06176",
                    "indexes" : {
                        "data" : 0,
                        "gas" : 0,
                        "value" : 0
                    },
                    "logs" : "0x1dcc4de8dec75d7aab85b567b6ccd41ad312451b948a7413f0a142fd40d49347",
                    "txbytes" : "0xf889800a85f00000000094cccccccccccccccccccccccccccccccccccccccc830186a0a4693c613900000000000000000000000000000000000000000000000000000000000000001ba06ef32f04aca8e025499f79728b7061fe34822900d1d5bc385d43461249f5dabea04a796cc6ed55b9b278a5948fd19c3fb22631f3f09e07c0f67063a26cc01ee1e0"
                },
                {
                    "hash" : "0xb977bca56011384e962d4fe8ed68b3dd48ab97dda62a123661b09897a826709f",
                    "indexes" : {
                        "data" : 1,
                        "gas" : 0,
                        "value" : 0
                    },
                    "logs" : "0x1dcc4de8dec75d7aab85b567b6ccd41ad312451b948a7413f0a142fd40d49347",
                    "txbytes" : "0xf889800a85f00000000094cccccccccccccccccccccccccccccccccccccccc830186a0a4693c613900000000000000000000000000000000000000000000000000000000000000011ba08125a7caa3a70b5937a4df02a48681d975a02a859627576f689631762919b22da07c8e2d38ecc580bd12db08b8dd009ebca0ea6a1b57030327d143146a5840f6eb"
                },
                {
                    "hash" : "0xb977bca56011384e962d4fe8ed68b3dd48ab97dda62a123661b09897a826709f",
                    "indexes" : {
                        "data" : 2,
                        "gas" : 0,
                        "value" : 0
                    },
                    "logs" : "0x1dcc4de8dec75d7aab85b567b6ccd41ad312451b948a7413f0a142fd40d49347",
                    "txbytes" : "0xf889800a85f00000000094cccccccccccccccccccccccccccccccccccccccc830186a0a4693c613900000000000000000000000000000000000000000000000000000000000000021ba0f1fe586af196988877ae29a8901108f0badcca482e72460f095cbf869260488ea0067bf1b74580d4ba5a25ce400decd8d684b408b7f59fed63a3bdd68cd98904d7"
                },
                {
                    "hash" : "0xda850485fe5e3bd1a6d8ae700071fb664c0e4088529a52d2800930be7f7e6952",
                    "indexes" : {
                        "data" : 3,
                        "gas" : 0,
                        "value" : 0
                    },
                    "logs" : "0x1dcc4de8dec75d7aab85b567b6ccd41ad312451b948a7413f0a142fd40d49347",
                    "txbytes" : "0xf889800a85f00000000094cccccccccccccccccccccccccccccccccccccccc830186a0a4693c613900000000000000000000000000000000000000000000000000000000000000031ca098814d1d8704b10d244f057cd626ab71087a4b7500a5a7f7115cc55cc5755128a044979afcfcf913b9ebe93ef2b1e9cd158c8a76b8075ff2dd506e102695907624"
                },
                {
                    "hash" : "0x10bcf00d412cfca7d5bce5d80bce2bfc82848debd29d3d75c6e42aa8f42a019a",
                    "indexes" : {
                        "data" : 4,
                        "gas" : 0,
                        "value" : 0
                    },
                    "logs" : "0x1dcc4de8dec75d7aab85b567b6ccd41ad312451b948a7413f0a142fd40d49347",
                    "txbytes" : "0xf889800a85f00000000094cccccccccccccccccccccccccccccccccccccccc830186a0a4693c613900000000000000000000000000000000000000000000000000000000000000041ba08400b2f0387d4b50229e1b96a34303eace5424e602c496bd0169ffc504fa88c4a02100d626b1603db2d7c37ccdeb814edcc7372f1da0ecedede9a23a4fb8dc6f65"
                },
                {
                    "hash" : "0x09ff61372ebab5e9f60ca992ce1ca728b413d2bc88b1683204f3b1dabc3263f4",
                    "indexes" : {
                        "data" : 5,
                        "gas" : 0,
                        "value" : 0
                    },
                    "logs" : "0x1dcc4de8dec75d7aab85b567b6ccd41ad312451b948a7413f0a142fd40d49347",
                    "txbytes" : "0xf889800a85f00000000094cccccccccccccccccccccccccccccccccccccccc830186a0a4693c613900000000000000000000000000000000000000000000000000000000000000051ba0828fe737b46c654f87fb25e053d1402dadfe79bf5e42c47f99f70ed1224ca602a0142246b80ce65c3baa17d032880be2c8764793fa16e991c04b1254d46f773188"
                },
                {
                    "hash" : "0x2994a50318695f638d465d17f53189a9d83721e97bd946f0301b23b57df9f033",
                    "indexes" : {
                        "data" : 6,
                        "gas" : 0,
                        "value" : 0
                    },
                    "logs" : "0x1dcc4de8dec75d7aab85b567b6ccd41ad312451b948a7413f0a142fd40d49347",
                    "txbytes" : "0xf889800a85f00000000094cccccccccccccccccccccccccccccccccccccccc830186a0a4693c613900000000000000000000000000000000000000000000000000000000000000061ba06e30848e2b62bd8d1d620dcef968b3d8e6339dcdde6812f5ec27c4385dba78f0a04f4cf9d3ca8a368b8926a0efd9865a7b44a2dc45f116ec8fc8bd6363083b54f6"
                },
                {
                    "hash" : "0xdcd3dfa4f03a43dfb8b34a4fd329af1805f3f9e0bf369c84ab38ec1d706a8466",
                    "indexes" : {
                        "data" : 7,
                        "gas" : 0,
                        "value" : 0
                    },
                    "logs" : "0x1dcc4de8dec75d7aab85b567b6ccd41ad312451b948a7413f0a142fd40d49347",
                    "txbytes" : "0xf889800a85f00000000094cccccccccccccccccccccccccccccccccccccccc830186a0a4693c613900000000000000000000000000000000000000000000000000000000000000071ca087f0da1c32890a8204e506782a27e3b712a20da07a81c7b4d2645e1389d26c9ea06272aea0873d0c71c54bab5f2368ce331a4a664bde61e790ba7440e198d4328f"
                },
                {
                    "hash" : "0x5bcf3c6cf824b5d8a75a0f3027a208e5c7f49014017daa55b5ad86b1abc42a5d",
                    "indexes" : {
                        "data" : 8,
                        "gas" : 0,
                        "value" : 0
                    },
                    "logs" : "0x1dcc4de8dec75d7aab85b567b6ccd41ad312451b948a7413f0a142fd40d49347",
                    "txbytes" : "0xf889800a85f00000000094cccccccccccccccccccccccccccccccccccccccc830186a0a4693c613900000000000000000000000000000000000000000000000000000000000000091ca04f2bdeac569f34d6fff32e8b7493c3c43d040f7d6cf686412f2acebdda692aaaa040789a3ea1cb25a447d9b56529638044bfbcb415a175e87300341fb4c23dad05"
                },
                {
                    "hash" : "0xd01cd8b7511c18c3ef9b90d9e2dfbcf3bf833a22749f36f7524c28b826e8f7c8",
                    "indexes" : {
                        "data" : 9,
                        "gas" : 0,
                        "value" : 0
                    },
                    "logs" : "0x1dcc4de8dec75d7aab85b567b6ccd41ad312451b948a7413f0a142fd40d49347",
                    "txbytes" : "0xf889800a85f00000000094cccccccccccccccccccccccccccccccccccccccc830186a0a4693c613900000000000000000000000000000000000000000000000000000000000000101ca06ece945f3feafcce5261c68cc7df5de17060b7421ab9b0d99b8613613da4a763a025aa32e0acba15065932a1a9ee713de92a2ce8d5fe76f564a8837862d6d698bd"
                },
                {
                    "hash" : "0xd7c9b3daef6adc9edebbea315a285be23e0014ef41540844c14ec5e894fc035c",
                    "indexes" : {
                        "data" : 10,
                        "gas" : 0,
                        "value" : 0
                    },
                    "logs" : "0x1dcc4de8dec75d7aab85b567b6ccd41ad312451b948a7413f0a142fd40d49347",
                    "txbytes" : "0xf889800a85f00000000094cccccccccccccccccccccccccccccccccccccccc830186a0a4693c613900000000000000000000000000000000000000000000000000000000000000201ba05c2c5d7484cf26fe4e128901be430a80db00f1918840830198a0011e37e164cea0784703d16c6bfe38d30f89269889de7eaf4d360db45b3575f6a4144c765e1d2b"
                },
                {
                    "hash" : "0x63ce78797b91299b041c237fce5feb349b755cb100e9ab023dff42c1cb52930d",
                    "indexes" : {
                        "data" : 11,
                        "gas" : 0,
                        "value" : 0
                    },
                    "logs" : "0x1dcc4de8dec75d7aab85b567b6ccd41ad312451b948a7413f0a142fd40d49347",
                    "txbytes" : "0xf889800a85f00000000094cccccccccccccccccccccccccccccccccccccccc830186a0a4693c613900000000000000000000000000000000000000000000000000000000000000401ca0a4652e3d1db22e9fd820a5e6fae21b8c90f6a9f9a4c85a3bab0bc28adc728daca032a28f1c2824d3628c1a0ae42f206a4d9e13f368e18fb3da22dc85bcec1667fe"
                },
                {
                    "hash" : "0x483a04effb20000cb88d30d352977a62cbdcd05e184045349be603b2b8c367c7",
                    "indexes" : {
                        "data" : 12,
                        "gas" : 0,
                        "value" : 0
                    },
                    "logs" : "0x1dcc4de8dec75d7aab85b567b6ccd41ad312451b948a7413f0a142fd40d49347",
                    "txbytes" : "0xf889800a85f00000000094cccccccccccccccccccccccccccccccccccccccc830186a0a4693c613900000000000000000000000000000000000000000000000000000000000000801ca08d2dce6f6b89296997ed7e3ff02beb9b9be959b5f47e95d328066b13a42385f0a013a78e72caa98ab689f549dfebce48835d538745c7bbf1908e64d3673e5f748d"
                },
                {
                    "hash" : "0x93c1efe4e6ed1c4531838bbb0c2a9b6fae31cb5786c3abf06c894801eee55678",
                    "indexes" : {
                        "data" : 13,
                        "gas" : 0,
                        "value" : 0
                    },
                    "logs" : "0x1dcc4de8dec75d7aab85b567b6ccd41ad312451b948a7413f0a142fd40d49347",
                    "txbytes" : "0xf889800a85f00000000094cccccccccccccccccccccccccccccccccccccccc830186a0a4693c613900000000000000000000000000000000000000000000000000000000000001001ba0818a7df6e654a899f85031b963c7a2a1c1727e73d49ad2f83b7aad82c88a7104a0404eec73aa371b8cfd300053983374d380a399a2bfab5ee3eaf517af4bd3b3b6"
                },
                {
                    "hash" : "0xba5a79e148a0b6ab4029d402dfc65daf4934fbdbcd1cfd611423726fd59718a7",
                    "indexes" : {
                        "data" : 14,
                        "gas" : 0,
                        "value" : 0
                    },
                    "logs" : "0x1dcc4de8dec75d7aab85b567b6ccd41ad312451b948a7413f0a142fd40d49347",
                    "txbytes" : "0xf889800a85f00000000094cccccccccccccccccccccccccccccccccccccccc830186a0a4693c613900000000000000000000000000000000000000000000000000000000000002001ca091b625993fec840aad0b2c953aeae7648752073c5dd66599eba7357875a05fb7a00bd29b6562eeb88803175d06c2fe86e6f7947445fab880554f2984a15e8cea18"
                },
                {
                    "hash" : "0x4992c096a5cd903b0e1207fec3ac612e62215f7d19fcac246bf59603d3cfe33e",
                    "indexes" : {
                        "data" : 15,
                        "gas" : 0,
                        "value" : 0
                    },
                    "logs" : "0x1dcc4de8dec75d7aab85b567b6ccd41ad312451b948a7413f0a142fd40d49347",
                    "txbytes" : "0xf889800a85f00000000094cccccccccccccccccccccccccccccccccccccccc830186a0a4693c613900000000000000000000000000000000000000000000000000000000000004001ca0f2980b96162f176d547e5e216a9866c156cb940fc6c13ab18a2f9544900934f4a01b693d5a66e259f4ae1d0eea83102dc4e3e696cc2edadcc318958ce08bba2dcd"
                },
                {
                    "hash" : "0x55145d3e19f0b06c4e3a3f3eb44312aa59ad6f51d0888d3ee45ea4923e339e2b",
                    "indexes" : {
                        "data" : 16,
                        "gas" : 0,
                        "value" : 0
                    },
                    "logs" : "0x1dcc4de8dec75d7aab85b567b6ccd41ad312451b948a7413f0a142fd40d49347",
                    "txbytes" : "0xf8aa800a85f00000000094cccccccccccccccccccccccccccccccccccccccc830186a0b8441a8451e6000000000000000000000000000000000000000000000000000000000000001000000000000000000000000000000000000000000000000000000000000000101ba08e94eb037c0a2f4b39b445d2531d5a6118dde5e763ec0c53f0bb0712b9580493a01df0af49ec5ae90a397f64ca3ef8ef0c02c9ce4a187b556269477c9421f02c1b"
                },
                {
                    "hash" : "0xbaa2eb1d9f2410adf68d5ccd2e270c40338ba76e987179362f8dfc2472d7907d",
                    "indexes" : {
                        "data" : 17,
                        "gas" : 0,
                        "value" : 0
                    },
                    "logs" : "0x1dcc4de8dec75d7aab85b567b6ccd41ad312451b948a7413f0a142fd40d49347",
                    "txbytes" : "0xf8aa800a85f00000000094cccccccccccccccccccccccccccccccccccccccc830186a0b8441a8451e6000000000000000000000000000000000000000000000000000000000000002000000000000000000000000000000000000000000000000000000000000000101ba084ddb6b58efbed8085b547fb7f6733fb4dbb33a25652d181719e94ebd0b2681ba06164c53cdf7944ae72a00d9bd90ddace5522cd2e18662b8dc58584af7538d7cd"
                },
                {
                    "hash" : "0x50b3df59ccb8abcf3f53d42098d4df44345328739c28277fb6ad02c9102635ca",
                    "indexes" : {
                        "data" : 18,
                        "gas" : 0,
                        "value" : 0
                    },
                    "logs" : "0x1dcc4de8dec75d7aab85b567b6ccd41ad312451b948a7413f0a142fd40d49347",
                    "txbytes" : "0xf8aa800a85f00000000094cccccccccccccccccccccccccccccccccccccccc830186a0b8441a8451e6000000000000000000000000000000000000000000000000000000000000004000000000000000000000000000000000000000000000000000000000000000101ba0aa6e809aae610ddc6e16c1e2ae8f5f7a10495445c5ebf3e122f1fd8ffb72390ba034f60efca60c18b8de126451cdafd1790cc5b173065b3b4c96dbbf59256885c9"
                },
                {
                    "hash" : "0xea42ad525c7a13b35eaca4f0081073a77516b4374627b0d34605f3a8cb531cdb",
                    "indexes" : {
                        "data" : 19,
                        "gas" : 0,
                        "value" : 0
                    },
                    "logs" : "0x1dcc4de8dec75d7aab85b567b6ccd41ad312451b948a7413f0a142fd40d49347",
                    "txbytes" : "0xf8aa800a85f00000000094cccccccccccccccccccccccccccccccccccccccc830186a0b8441a8451e6000000000000000000000000000000000000000000000000000000000000008000000000000000000000000000000000000000000000000000000000000000101ba00e9b9d40cdaa12126834c4c0472de6e4d54f1a6122564ab17abcb6eea5d6f8bfa00659dce29ea8baa0fbf9fb0ec4f65f13d18445718e3b2dfde1c75892792d8a21"
                },
                {
                    "hash" : "0xf4dab05b191b13ed33efa9f1186366ff16c26bbf96d47ba81580aa778e4fcf18",
                    "indexes" : {
                        "data" : 20,
                        "gas" : 0,
                        "value" : 0
                    },
                    "logs" : "0x1dcc4de8dec75d7aab85b567b6ccd41ad312451b948a7413f0a142fd40d49347",
                    "txbytes" : "0xf8a9800a85f00000000094cccccccccccccccccccccccccccccccccccccccc830186a0b8441a8451e6000000000000000000000000000000000000000000000000000000000000010000000000000000000000000000000000000000000000000000000000000000101ba00158e470055be7f32d1f487b422233d0b29116bbb322393b08dfe2128ce3de839f71e910ee5bd089fd3a8067873a5094f3d6f56267d48925643ee6a12bebf9f5"
                },
                {
                    "hash" : "0xd89050769f1abe0cda60e81d4d62fed3c7672c04046f76d9a76b56e240909e8f",
                    "indexes" : {
                        "data" : 21,
                        "gas" : 0,
                        "value" : 0
                    },
                    "logs" : "0x1dcc4de8dec75d7aab85b567b6ccd41ad312451b948a7413f0a142fd40d49347",
                    "txbytes" : "0xf8aa800a85f00000000094cccccccccccccccccccccccccccccccccccccccc830186a0b8441a8451e6000000000000000000000000000000000000000000000000000000000000020000000000000000000000000000000000000000000000000000000000000000101ba0b608a84f73a52c105a250b3afca336127ae5e14ba80f749e406088870c496967a02be90c22b9b2725a387d5b9c6f9828c955be5155259cdfea4ed90cf776f8953f"
                },
                {
                    "hash" : "0x97fe7ac1f7de9a8f2a7df109337a444e97e65c848e04ca7057e21fd288e69adc",
                    "indexes" : {
                        "data" : 22,
                        "gas" : 0,
                        "value" : 0
                    },
                    "logs" : "0x1dcc4de8dec75d7aab85b567b6ccd41ad312451b948a7413f0a142fd40d49347",
                    "txbytes" : "0xf8aa800a85f00000000094cccccccccccccccccccccccccccccccccccccccc830186a0b8441a8451e6000000000000000000000000000000000000000000000000000000000000040000000000000000000000000000000000000000000000000000000000000000101ca0f04eadfcf5de724f0471f640b0821d162b5099b942925a2b53ca25922b6d2bfea05cf7e5670000dcb822f0e134c6e3e711464290841d603bc9ef779c1a6b42f6ed"
                },
                {
                    "hash" : "0xc05754213f2943a7c79da9b86cdc3ffd6e9871912ad4c19382651c990d4e874d",
                    "indexes" : {
                        "data" : 23,
                        "gas" : 0,
                        "value" : 0
                    },
                    "logs" : "0x1dcc4de8dec75d7aab85b567b6ccd41ad312451b948a7413f0a142fd40d49347",
                    "txbytes" : "0xf8aa800a85f00000000094cccccccccccccccccccccccccccccccccccccccc830186a0b8441a8451e6000000000000000000000000000000000000000000000000000000000000001000000000000000000000000000000000000000000000000000000000000000781ca02809651b6cbac9a8a8eec373015e958e37826778fd249f8033cbebc08f28e4ada067ddbb61c19292f9c65817ba8d184f4724e71ea17e471734addc4c96a93ef126"
                },
                {
                    "hash" : "0xbc1c2ceab9119ff26a7d2de6864f305e77a0c3e74e566ce694614172cc5d58cb",
                    "indexes" : {
                        "data" : 24,
                        "gas" : 0,
                        "value" : 0
                    },
                    "logs" : "0x1dcc4de8dec75d7aab85b567b6ccd41ad312451b948a7413f0a142fd40d49347",
                    "txbytes" : "0xf8aa800a85f00000000094cccccccccccccccccccccccccccccccccccccccc830186a0b8441a8451e6000000000000000000000000000000000000000000000000000000000000002000000000000000000000000000000000000000000000000000000000000000781ca08e79cdcffc7c924878b123fb13395bad95240a4faef662c6d05f3fa247a56434a00315c111ef79cff1b4855b982ca3768d2a57f575e3926615fe98b7613b074b45"
                },
                {
                    "hash" : "0xc26f1965bdbfdcb24c585bbf4e62d6314f8443b1d3eb563e615c530a9a6edab2",
                    "indexes" : {
                        "data" : 25,
                        "gas" : 0,
                        "value" : 0
                    },
                    "logs" : "0x1dcc4de8dec75d7aab85b567b6ccd41ad312451b948a7413f0a142fd40d49347",
                    "txbytes" : "0xf8aa800a85f00000000094cccccccccccccccccccccccccccccccccccccccc830186a0b8441a8451e6000000000000000000000000000000000000000000000000000000000000004000000000000000000000000000000000000000000000000000000000000000781ba025bb88900e04db3cefd1c60d38f731c6dbe6ee7d0ed2bbd7fdc1db4fbd7ffa08a039658d430ee5ff8504728b9bd4bf1f0a21cf7bbd083b278b024591639e2b667f"
                }
            ]
        },
        "pre" : {
            "0xa94f5374fce5edbc8e2a8697c15331677e6ebf0b" : {
                "balance" : "0x0de0b6b3a7640000",
                "code" : "0x",
                "nonce" : "0x00",
                "storage" : {
                }
            },
            "0xcccccccccccccccccccccccccccccccccccccccc" : {
                "balance" : "0x00",
                "code" : "0x60d560243560043580801561054257806001146104b4578060021461042857806003146103c1578060041461034c57806005146102e55780600614610296578060071461022057806008146101aa57600914610142575b600f81116100a2575b5060008111610089575b60406102008360008060095af16000556102005160015561022051600255005b5b8015610069578060019160600181604401530361008a565b60ff907b48c9bdf267e6096a3ba7ca8485ae67bb2bf894fe72f36e3cf1361d5f60005260008051602061056d8339815191526020526619cde05b61626360c81b60405260006060526000608052600060a0527b0300000000000000000000000000000001000000000000000000000060c05263ff000000811660181c60005362ff0000811660101c60015361ff00811660081c600253166003533861005f565b60008051602061054d83398151915260005260008051602061056d8339815191526020526819cde05b616263646560b81b60405260006060526000608052600060a0527b0500000000000000000000000000000001000000000000000000000060c052610056565b507bb736420d9819f695c458357b7a519844d4076b018d0c91c30ec9e2a01960005260008051602061056d8339815191526020526619cde05b61626360c81b60405260006060526000608052600060a0527b0300000000000000000000000000000001000000000000000000000060c052610056565b507c0148c9bdf267e6096a3ba7ca8485ae67bb2bf894fe72f36e3cf1361d5f60005260008051602061056d8339815191526020526619cde05b61626360c81b60405260006060526000608052600060a0527b0300000000000000000000000000000001000000000000000000000060c052610056565b5060008051602061054d833981519152600090815260008051602061056d8339815191526020526619cde05b61626360c81b6040526060819052608081905260a052600360d81b60c052610056565b5060008051602061054d83398151915260005260008051602061056d8339815191526020526619cde05b61626360c81b60405260006060526000608052600060a0527b0300000000000000000000000000000001000000000000000000000060c052610056565b507b48c9bdf267e6096a3ba7ca8485ae67bb2bf894fe72f36e3cf1361d5f60005260008051602061056d8339815191526020526619cde05b61626360c81b60405260006060526000608052600060a0527b0300000000000000000000000000000001000000000000000000000060c052610056565b5060008051602061054d83398151915260005260008051602061056d8339815191526020526619cde05b61626360c81b60405260006060526000608052600060a0527b0300000000000000000000000000000002000000000000000000000060c052610056565b50915060d6917b0c48c9bdf267e6096a3ba7ca8485ae67bb2bf894fe72f36e3cf1361d6000527f5f3af54fa5d182e6ad7f520e511f6c3e2b8c68059b6bbd41fbabd9831f79217e602052671319cde05b61626360c01b60405260006060526000608052600060a0527a03000000000000000000000000000000010000000000000000000060c052610056565b50915060d4917d0c48c9bdf267e6096a3ba7ca8485ae67bb2bf894fe72f36e3cf1361d5f3a6000527ff54fa5d182e6ad7f520e511f6c3e2b8c68059b6bbd41fbabd9831f79217e131960205265cde05b61626360d01b60405260006060526000608052600060a0527c030000000000000000000000000000000100000000000000000000000060c052610056565b506000925061005656fe0000000c48c9bdf267e6096a3ba7ca8485ae67bb2bf894fe72f36e3cf1361d5f3af54fa5d182e6ad7f520e511f6c3e2b8c68059b6bbd41fbabd9831f79217e13",
                "nonce" : "0x00",
                "storage" : {
                }
            }
        },
        "transaction" : {
            "data" : [
                "0x693c61390000000000000000000000000000000000000000000000000000000000000000",
                "0x693c61390000000000000000000000000000000000000000000000000000000000000001",
                "0x693c61390000000000000000000000000000000000000000000000000000000000000002",
                "0x693c61390000000000000000000000000000000000000000000000000000000000000003",
                "0x693c61390000000000000000000000000000000000000000000000000000000000000004",
                "0x693c61390000000000000000000000000000000000000000000000000000000000000005",
                "0x693c61390000000000000000000000000000000000000000000000000000000000000006",
                "0x693c61390000000000000000000000000000000000000000000000000000000000000007",
                "0x693c61390000000000000000000000000000000000000000000000000000000000000009",
                "0x693c61390000000000000000000000000000000000000000000000000000000000000010",
                "0x693c61390000000000000000000000000000000000000000000000000000000000000020",
                "0x693c61390000000000000000000000000000000000000000000000000000000000000040",
                "0x693c61390000000000000000000000000000000000000000000000000000000000000080",
                "0x693c61390000000000000000000000000000000000000000000000000000000000000100",
                "0x693c61390000000000000000000000000000000000000000000000000000000000000200",
                "0x693c61390000000000000000000000000000000000000000000000000000000000000400",
                "0x1a8451e600000000000000000000000000000000000000000000000000000000000000100000000000000000000000000000000000000000000000000000000000000010",
                "0x1a8451e600000000000000000000000000000000000000000000000000000000000000200000000000000000000000000000000000000000000000000000000000000010",
                "0x1a8451e600000000000000000000000000000000000000000000000000000000000000400000000000000000000000000000000000000000000000000000000000000010",
                "0x1a8451e600000000000000000000000000000000000000000000000000000000000000800000000000000000000000000000000000000000000000000000000000000010",
                "0x1a8451e600000000000000000000000000000000000000000000000000000000000001000000000000000000000000000000000000000000000000000000000000000010",
                "0x1a8451e600000000000000000000000000000000000000000000000000000000000002000000000000000000000000000000000000000000000000000000000000000010",
                "0x1a8451e600000000000000000000000000000000000000000000000000000000000004000000000000000000000000000000000000000000000000000000000000000010",
                "0x1a8451e600000000000000000000000000000000000000000000000000000000000000100000000000000000000000000000000000000000000000000000000000000078",
                "0x1a8451e600000000000000000000000000000000000000000000000000000000000000200000000000000000000000000000000000000000000000000000000000000078",
                "0x1a8451e600000000000000000000000000000000000000000000000000000000000000400000000000000000000000000000000000000000000000000000000000000078"
            ],
            "gasLimit" : [
                "0xf000000000"
            ],
            "gasPrice" : "0x0a",
            "nonce" : "0x00",
            "secretKey" : "0x45a915e4d060149eb4365960e6a7a45f334393093061116b197e3240065ff2d8",
            "sender" : "0xa94f5374fce5edbc8e2a8697c15331677e6ebf0b",
            "to" : "0xcccccccccccccccccccccccccccccccccccccccc",
            "value" : [
                "0x0186a0"
            ]
        }
    }
}