{
    "accessListExample" : {
        "_info" : {
            "comment" : "A test shows accessList transaction example",
            "filling-rpc-server" : "evm version 1.14.4-unstable-3d8028a6-20240513",
            "filling-tool-version" : "retesteth-0.3.2-cancun+commit.2ab0208e.Linux.g++",
            "generatedTestHash" : "e96c219eb507584e5b4c79cd6032ccdafb18298cfae9b3d1dfa26658369801da",
            "labels" : {
                "0" : "declaredKeyWrite",
                "1" : "declaredKeyWrite2"
            },
            "lllcversion" : "Version: 0.5.14-develop.2023.7.11+commit.c58ab2c6.mod.Linux.g++",
            "solidity" : "Version: 0.8.21+commit.d9974bed.Linux.g++",
            "source" : "src/GeneralStateTestsFiller/stExample/accessListExampleFiller.yml",
            "sourceHash" : "cfa9c92fa3dc433ddd20a62c4c5472e09c233c38b56b06557862621c0702d45d"
        },
        "env" : {
            "currentBaseFee" : "0x0a",
            "currentCoinbase" : "0x2adc25665018aa1fe0e6bc666dac8fc2697ff9ba",
            "currentDifficulty" : "0x020000",
            "currentExcessBlobGas" : "0x00",
            "currentGasLimit" : "0xff112233445566",
            "currentNumber" : "0x01",
            "currentRandom" : "0x0000000000000000000000000000000000000000000000000000000000020000",
            "currentTimestamp" : "0x03e8"
        },
        "post" : {
            "Cancun" : [
                {
                    "hash" : "0x2a7d9d52c698e77f941c8337d58ed4875781ec766c39064ad85b19edb513cac3",
                    "indexes" : {
                        "data" : 0,
                        "gas" : 0,
                        "value" : 0
                    },
                    "logs" : "0x1dcc4de8dec75d7aab85b567b6ccd41ad312451b948a7413f0a142fd40d49347",
                    "txbytes" : "0x01f8f901800a83061a8094095e7baea6a6c7c4c2dfeb977efac326af552d87830186a000f893f85994095e7baea6a6c7c4c2dfeb977efac326af552d87f842a00000000000000000000000000000000000000000000000000000000000000000a00000000000000000000000000000000000000000000000000000000000000001f794195e7baea6a6c7c4c2dfeb977efac326af552d87e1a0000000000000000000000000000000000000000000000000000000000000000080a011c97e0bb8a356fe4f49b37863d059c6fe8cd3214a6ac06a8387a2f6f0b75f60a0212368a1097da30806edfd13d9c35662e1baee939235eb25de867980bd0eda26"
                },
                {
                    "hash" : "0x46ffc1400ed4ed57e528040b544067131b9e209b0a600ec3ff117cc38326e475",
                    "indexes" : {
                        "data" : 1,
                        "gas" : 0,
                        "value" : 0
                    },
                    "logs" : "0x1dcc4de8dec75d7aab85b567b6ccd41ad312451b948a7413f0a142fd40d49347",
                    "txbytes" : "0x01f89e01800a83061a8094095e7baea6a6c7c4c2dfeb977efac326af552d87830186a000f838f794195e7baea6a6c7c4c2dfeb977efac326af552d87e1a0000000000000000000000000000000000000000000000000000000000000000080a0378aab326d222137f330470cc4066787c24d0b1ec8cf858628633009a9ce5a82a01485155170a1cd7cf692d89e1a2fb302e0cde48871b6f760c8c6b0b7c11f6629"
                }
            ]
        },
        "pre" : {
            "0x095e7baea6a6c7c4c2dfeb977efac326af552d87" : {
                "balance" : "0x0de0b6b3a7640000",
                "code" : "0x600160010160005500",
                "nonce" : "0x00",
                "storage" : {
                }
            },
            "0xa94f5374fce5edbc8e2a8697c15331677e6ebf0b" : {
                "balance" : "0x0de0b6b3a7640000",
                "code" : "0x",
                "nonce" : "0x00",
                "storage" : {
                }
            }
        },
        "transaction" : {
            "accessLists" : [
                [
                    {
                        "address" : "0x095e7baea6a6c7c4c2dfeb977efac326af552d87",
                        "storageKeys" : [
                            "0x0000000000000000000000000000000000000000000000000000000000000000",
                            "0x0000000000000000000000000000000000000000000000000000000000000001"
                        ]
                    },
                    {
                        "address" : "0x195e7baea6a6c7c4c2dfeb977efac326af552d87",
                        "storageKeys" : [
                            "0x0000000000000000000000000000000000000000000000000000000000000000"
                        ]
                    }
                ],
                [
                    {
                        "address" : "0x195e7baea6a6c7c4c2dfeb977efac326af552d87",
                        "storageKeys" : [
                            "0x0000000000000000000000000000000000000000000000000000000000000000"
                        ]
                    }
                ]
            ],
            "data" : [
                "0x00",
                "0x00"
            ],
            "gasLimit" : [
                "0x061a80"
            ],
            "gasPrice" : "0x0a",
            "nonce" : "0x00",
            "secretKey" : "0x45a915e4d060149eb4365960e6a7a45f334393093061116b197e3240065ff2d8",
            "sender" : "0xa94f5374fce5edbc8e2a8697c15331677e6ebf0b",
            "to" : "0x095e7baea6a6c7c4c2dfeb977efac326af552d87",
            "value" : [
                "0x0186a0"
            ]
        }
    }
}