{
    "solidityExample" : {
        "_info" : {
            "comment" : "An example test for using solidity contracts in the test",
            "filling-rpc-server" : "evm version 1.14.4-unstable-3d8028a6-20240513",
            "filling-tool-version" : "retesteth-0.3.2-cancun+commit.cae6bc33.Linux.g++",
            "generatedTestHash" : "8d279193ea1b859a251ad6db78ace61d8a5eead070ba77a483d970c90ab90c51",
            "lllcversion" : "Version: 0.5.14-develop.2023.7.11+commit.c58ab2c6.mod.Linux.g++",
            "solidity" : "Version: 0.8.21+commit.d9974bed.Linux.g++",
            "source" : "src/GeneralStateTestsFiller/stExample/solidityExampleFiller.yml",
            "sourceHash" : "183aba76ca652aca9dba9268833bc330bb2c52d0d83d0f00d5d1bd167f983b5d"
        },
        "env" : {
            "currentBaseFee" : "0x0a",
            "currentCoinbase" : "0x2adc25665018aa1fe0e6bc666dac8fc2697ff9ba",
            "currentDifficulty" : "0x020000",
            "currentExcessBlobGas" : "0x00",
            "currentGasLimit" : "0x05f5e100",
            "currentNumber" : "0x01",
            "currentRandom" : "0x0000000000000000000000000000000000000000000000000000000000020000",
            "currentTimestamp" : "0x03e8"
        },
        "post" : {
            "Cancun" : [
                {
                    "hash" : "0xb909be5cfc7f6db3fc4450a8cce5f3e18ca078b230f4f344e3db530414722d7d",
                    "indexes" : {
                        "data" : 0,
                        "gas" : 0,
                        "value" : 0
                    },
                    "logs" : "0x1dcc4de8dec75d7aab85b567b6ccd41ad312451b948a7413f0a142fd40d49347",
                    "txbytes" : "0xf8a6800a8404c4b40094095e7baea6a6c7c4c2dfeb977efac326af552d8780b844b66176a7000000000000000000000000000000000000000000000000000000000000000500000000000000000000000000000000000000000000000000000000000000451ca0557b882a6f4c398e1dc30731cc0490f9743d2df3a13b9e465a87198920d34877a071659dc2b9ff195215e075315734b937a7773e470d47d33cdca183b1bc4093a7"
                }
            ]
        },
        "pre" : {
            "0x095e7baea6a6c7c4c2dfeb977efac326af552d87" : {
                "balance" : "0x0ba1a9ce0ba1a9ce",
                "code" : "0x608060405234801561001057600080fd5b506004361061002b5760003560e01c8063b66176a714610030575b600080fd5b61004a6004803603810190610045919061018d565b61004c565b005b60405161005890610145565b604051809103906000f080158015610074573d6000803e3d6000fd5b506000806101000a81548173ffffffffffffffffffffffffffffffffffffffff021916908373ffffffffffffffffffffffffffffffffffffffff16021790555060008054906101000a900473ffffffffffffffffffffffffffffffffffffffff1673ffffffffffffffffffffffffffffffffffffffff1663b66176a783836040518363ffffffff1660e01b815260040161010f9291906101dc565b600060405180830381600087803b15801561012957600080fd5b505af115801561013d573d6000803e3d6000fd5b505050505050565b6101238061020683390190565b600080fd5b6000819050919050565b61016a81610157565b811461017557600080fd5b50565b60008135905061018781610161565b92915050565b600080604083850312156101a4576101a3610152565b5b60006101b285828601610178565b92505060206101c385828601610178565b9150509250929050565b6101d681610157565b82525050565b60006040820190506101f160008301856101cd565b6101fe60208301846101cd565b939250505056fe608060405267ff00ff00ff00ff0060005534801561001c57600080fd5b5060f88061002b6000396000f3fe6080604052348015600f57600080fd5b506004361060285760003560e01c8063b66176a714602d575b600080fd5b60436004803603810190603f91906089565b6045565b005b806000819055508082555050565b600080fd5b6000819050919050565b6069816058565b8114607357600080fd5b50565b6000813590506083816062565b92915050565b60008060408385031215609d57609c6053565b5b600060a9858286016076565b925050602060b8858286016076565b915050925092905056fea2646970667358221220444b063c9c7b7f7cfac0d52785c57f2898d65a5ce9256d32a095579f0beb60c064736f6c63430008150033a26469706673582212204b5afe33c08339f7d04ff73c16da3adc21f281fcaf8b10149458645b71caa07d64736f6c63430008150033",
                "nonce" : "0x00",
                "storage" : {
                }
            },
            "0x195e7baea6a6c7c4c2dfeb977efac326af552d87" : {
                "balance" : "0x0ba1a9ce0ba1a9ce",
                "code" : "0x6080604052348015600e575f80fd5b50600436106026575f3560e01c8063b66176a714602a575b5f80fd5b60406004803603810190603c91906081565b6042565b005b805f819055508082555050565b5f80fd5b5f819050919050565b6063816053565b8114606c575f80fd5b50565b5f81359050607b81605c565b92915050565b5f80604083850312156094576093604f565b5b5f609f85828601606f565b925050602060ae85828601606f565b915050925092905056fea2646970667358221220e2112565781b1621141d344fab0f1e58d0a71c04d20b29c21e204c69b343c4c664736f6c63430008150033",
                "nonce" : "0x00",
                "storage" : {
                }
            },
            "0xa94f5374fce5edbc8e2a8697c15331677e6ebf0b" : {
                "balance" : "0x0ba1a9ce0ba1a9ce",
                "code" : "0x",
                "nonce" : "0x00",
                "storage" : {
                }
            }
        },
        "transaction" : {
            "data" : [
                "0xb66176a700000000000000000000000000000000000000000000000000000000000000050000000000000000000000000000000000000000000000000000000000000045"
            ],
            "gasLimit" : [
                "0x04c4b400"
            ],
            "gasPrice" : "0x0a",
            "nonce" : "0x00",
            "secretKey" : "0x45a915e4d060149eb4365960e6a7a45f334393093061116b197e3240065ff2d8",
            "sender" : "0xa94f5374fce5edbc8e2a8697c15331677e6ebf0b",
            "to" : "0x095e7baea6a6c7c4c2dfeb977efac326af552d87",
            "value" : [
                "0x00"
            ]
        }
    }
}