{
  "tests/cancun/eip4844_blobs/test_blob_txs.py::test_blob_gas_subtraction_tx[fork_Cancun-single_blob-blockchain_test--100_wei_mid_execution--tx_max_fee_per_blob_gas_multiplier_1-no_calldata-tx_value_0-tx_max_priority_fee_per_gas_0-tx_max_fee_per_gas_7-no_access_list]": {
    "network": "Cancun",
    "genesisBlockHeader": {
      "parentHash": "0x0000000000000000000000000000000000000000000000000000000000000000",
      "uncleHash": "0x1dcc4de8dec75d7aab85b567b6ccd41ad312451b948a7413f0a142fd40d49347",
      "coinbase": "0x0000000000000000000000000000000000000000",
      "stateRoot": "0x69eb78b654f551a98a7c4c3680952578fc88c910e9ce6859b598982225aa2e9e",
      "transactionsTrie": "0x56e81f171bcc55a6ff8345e692c0f86e5b48e01b996cadc001622fb5e363b421",
      "receiptTrie": "0x56e81f171bcc55a6ff8345e692c0f86e5b48e01b996cadc001622fb5e363b421",
      "bloom": "0x00000000000000000000000000000000000000000000000000000000000000000000000000000000000000000000000000000000000000000000000000000000000000000000000000000000000000000000000000000000000000000000000000000000000000000000000000000000000000000000000000000000000000000000000000000000000000000000000000000000000000000000000000000000000000000000000000000000000000000000000000000000000000000000000000000000000000000000000000000000000000000000000000000000000000000000000000000000000000000000000000000000000000000000000000000000",
      "difficulty": "0x00",
      "number": "0x00",
      "gasLimit": "0x016345785d8a0000",
      "gasUsed": "0x00",
      "timestamp": "0x00",
      "extraData": "0x00",
      "mixHash": "0x0000000000000000000000000000000000000000000000000000000000000000",
      "nonce": "0x0000000000000000",
      "baseFeePerGas": "0x07",
      "withdrawalsRoot": "0x56e81f171bcc55a6ff8345e692c0f86e5b48e01b996cadc001622fb5e363b421",
      "blobGasUsed": "0x00",
      "excessBlobGas": "0x140000",
      "parentBeaconBlockRoot": "0x0000000000000000000000000000000000000000000000000000000000000000",
      "hash": "0xcee3f461026e5dd6d42ad85f751fe33f1586bd7b6958450ce6014bdb7bda8102"
    },
    "pre": {
      "0x000f3df6d732807ef1319fb7b8bb8522d0beac02": {
        "nonce": "0x01",
        "balance": "0x00",
        "code": "0x3373fffffffffffffffffffffffffffffffffffffffe14604d57602036146024575f5ffd5b5f35801560495762001fff810690815414603c575f5ffd5b62001fff01545f5260205ff35b5f5ffd5b62001fff42064281555f359062001fff015500",
        "storage": {}
      },
      "0xa94f5374fce5edbc8e2a8697c15331677e6ebf0b": {
        "nonce": "0x00",
        "balance": "0x3767e0",
        "code": "0x",
        "storage": {}
      },
      "0x0000000000000000000000000000000000001000": {
        "nonce": "0x01",
        "balance": "0x64",
        "code": "0x32316000556000600060006000344703325af13231600155",
        "storage": {}
      }
    },
    "postState": {
      "0x000f3df6d732807ef1319fb7b8bb8522d0beac02": {
        "nonce": "0x01",
        "balance": "0x00",
        "code": "0x3373fffffffffffffffffffffffffffffffffffffffe14604d57602036146024575f5ffd5b5f35801560495762001fff810690815414603c575f5ffd5b62001fff01545f5260205ff35b5f5ffd5b62001fff42064281555f359062001fff015500",
        "storage": {
          "0x03e8": "0x03e8"
        }
      },
      "0xa94f5374fce5edbc8e2a8697c15331677e6ebf0b": {
        "nonce": "0x01",
        "balance": "0x2fd134",
        "code": "0x",
        "storage": {}
      },
      "0x0000000000000000000000000000000000001000": {
        "nonce": "0x01",
        "balance": "0x00",
        "code": "0x32316000556000600060006000344703325af13231600155",
        "storage": {
          "0x01": "0x64"
        }
      }
    },
    "lastblockhash": "0x95a059cd7170ef162a5645511c1267e205269fa26fac9daf7d2da457d0719b76",
    "genesisRLP": "0xf90243f9023da00000000000000000000000000000000000000000000000000000000000000000a01dcc4de8dec75d7aab85b567b6ccd41ad312451b948a7413f0a142fd40d49347940000000000000000000000000000000000000000a069eb78b654f551a98a7c4c3680952578fc88c910e9ce6859b598982225aa2e9ea056e81f171bcc55a6ff8345e692c0f86e5b48e01b996cadc001622fb5e363b421a056e81f171bcc55a6ff8345e692c0f86e5b48e01b996cadc001622fb5e363b421b9010000000000000000000000000000000000000000000000000000000000000000000000000000000000000000000000000000000000000000000000000000000000000000000000000000000000000000000000000000000000000000000000000000000000000000000000000000000000000000000000000000000000000000000000000000000000000000000000000000000000000000000000000000000000000000000000000000000000000000000000000000000000000000000000000000000000000000000000000000000000000000000000000000000000000000000000000000000000000000000000000000000000000000000000000000000000808088016345785d8a0000808000a0000000000000000000000000000000000000000000000000000000000000000088000000000000000007a056e81f171bcc55a6ff8345e692c0f86e5b48e01b996cadc001622fb5e363b4218083140000a00000000000000000000000000000000000000000000000000000000000000000c0c0c0",
    "blocks": [
      {
        "blockHeader": {
          "parentHash": "0xcee3f461026e5dd6d42ad85f751fe33f1586bd7b6958450ce6014bdb7bda8102",
          "uncleHash": "0x1dcc4de8dec75d7aab85b567b6ccd41ad312451b948a7413f0a142fd40d49347",
          "coinbase": "0x2adc25665018aa1fe0e6bc666dac8fc2697ff9ba",
          "stateRoot": "0xce47f07437375020f2aa8e0d6fb8b1763622ec72a4200e924d8a9170a0f8e16b",
          "transactionsTrie": "0xf7eb5f8b03e66178abc787bffec49346c8daddacc5bf6a5716976c90c6ac54a8",
          "receiptTrie": "0xd50c52c98deb959710e767b89ba66716b36e2d77631d603936f1311dfcaf43e7",
          "bloom": "0x00000000000000000000000000000000000000000000000000000000000000000000000000000000000000000000000000000000000000000000000000000000000000000000000000000000000000000000000000000000000000000000000000000000000000000000000000000000000000000000000000000000000000000000000000000000000000000000000000000000000000000000000000000000000000000000000000000000000000000000000000000000000000000000000000000000000000000000000000000000000000000000000000000000000000000000000000000000000000000000000000000000000000000000000000000000",
          "difficulty": "0x00",
          "number": "0x01",
          "gasLimit": "0x016345785d8a0000",
          "gasUsed": "0xcc70",
          "timestamp": "0x03e8",
          "extraData": "0x00",
          "mixHash": "0x0000000000000000000000000000000000000000000000000000000000000000",
          "nonce": "0x0000000000000000",
          "baseFeePerGas": "0x07",
          "withdrawalsRoot": "0x56e81f171bcc55a6ff8345e692c0f86e5b48e01b996cadc001622fb5e363b421",
          "blobGasUsed": "0x020000",
          "excessBlobGas": "0x0e0000",
          "parentBeaconBlockRoot": "0x0000000000000000000000000000000000000000000000000000000000000000",
          "hash": "0x95a059cd7170ef162a5645511c1267e205269fa26fac9daf7d2da457d0719b76"
        },
        "transactions": [
          {
            "type": "0x03",
            "chainId": "0x01",
            "nonce": "0x00",
            "maxPriorityFeePerGas": "0x00",
            "maxFeePerGas": "0x07",
            "gasLimit": "0x07a120",
            "to": "0x0000000000000000000000000000000000001000",
            "value": "0x00",
            "data": "0x",
            "accessList": [],
            "maxFeePerBlobGas": "0x01",
            "blobVersionedHashes": [
              "0x0100000000000000000000000000000000000000000000000000000000000000"
            ],
            "v": "0x01",
            "r": "0xa125362f494ea7e41f2522b70ea370c7ef0549d350808f7f65dcc478f35ad59e",
            "s": "0x6ecde04f907292484cb1ffe1f0a7768a9da153c7cebe37f4de45d4a1cc5b9d4c",
            "sender": "0xa94f5374fce5edbc8e2a8697c15331677e6ebf0b"
          }
        ],
        "uncleHeaders": [],
        "withdrawals": [],
        "rlp": "0xf902d6f90244a0cee3f461026e5dd6d42ad85f751fe33f1586bd7b6958450ce6014bdb7bda8102a01dcc4de8dec75d7aab85b567b6ccd41ad312451b948a7413f0a142fd40d49347942adc25665018aa1fe0e6bc666dac8fc2697ff9baa0ce47f07437375020f2aa8e0d6fb8b1763622ec72a4200e924d8a9170a0f8e16ba0f7eb5f8b03e66178abc787bffec49346c8daddacc5bf6a5716976c90c6ac54a8a0d50c52c98deb959710e767b89ba66716b36e2d77631d603936f1311dfcaf43e7b9010000000000000000000000000000000000000000000000000000000000000000000000000000000000000000000000000000000000000000000000000000000000000000000000000000000000000000000000000000000000000000000000000000000000000000000000000000000000000000000000000000000000000000000000000000000000000000000000000000000000000000000000000000000000000000000000000000000000000000000000000000000000000000000000000000000000000000000000000000000000000000000000000000000000000000000000000000000000000000000000000000000000000000000000000000000000800188016345785d8a000082cc708203e800a0000000000000000000000000000000000000000000000000000000000000000088000000000000000007a056e81f171bcc55a6ff8345e692c0f86e5b48e01b996cadc001622fb5e363b42183020000830e0000a00000000000000000000000000000000000000000000000000000000000000000f88bb88903f886018080078307a1209400000000000000000000000000000000000010008080c001e1a0010000000000000000000000000000000000000000000000000000000000000001a0a125362f494ea7e41f2522b70ea370c7ef0549d350808f7f65dcc478f35ad59ea06ecde04f907292484cb1ffe1f0a7768a9da153c7cebe37f4de45d4a1cc5b9d4cc0c0",
        "blocknumber": "1"
      }
    ],
    "sealEngine": "NoProof",
    "_info": {
      "hash": "0xa76ca02afa2292978e366e74c57b894f56332d858350af5d9ecb13642d993f45",
      "comment": "`execution-spec-tests` generated test",
      "filling-transition-tool": "ethereum-spec-evm-resolver 0.0.1",
      "description": "Test function documentation:\n\nCheck that the blob gas fee for a transaction is subtracted from the sender balance before the\ntransaction is executed.\n\n- Transactions with max fee equal or higher than current block base fee\n- Transactions with and without value\n- Transactions with and without calldata\n- Transactions with max fee per blob gas lower or higher than the priority fee\n- Transactions where an externally owned account sends funds to the sender mid execution",
      "url": "https://github.com/ethereum/execution-spec-tests/blob/2813b70414a5894b847f27c99234106c747da588/tests/cancun/eip4844_blobs/test_blob_txs.py#L744",
      "fixture_format": "blockchain_test",
      "reference-spec": "https://github.com/ethereum/EIPs/blob/master/EIPS/eip-4844.md",
      "reference-spec-version": "f0eb6a364aaf5ccb43516fa2c269a54fb881ecfd"
    }
  }
}
