{
  "tests/verkle/eip4762_verkle_gas_witness/test_balance.py::test_balance[fork_Verkle-blockchain_test-warm_False-target_0xd94f5374fce5edbc8e2a8697c15331677e6ebf0c]": {
    "network": "Verkle",
    "genesisBlockHeader": {
      "parentHash": "0x0000000000000000000000000000000000000000000000000000000000000000",
      "uncleHash": "0x1dcc4de8dec75d7aab85b567b6ccd41ad312451b948a7413f0a142fd40d49347",
      "coinbase": "0x0000000000000000000000000000000000000000",
      "stateRoot": "0x43f42844321e615a750468be1925f1f470bac332a9593273a45d5b9b38fb394a",
      "transactionsTrie": "0x56e81f171bcc55a6ff8345e692c0f86e5b48e01b996cadc001622fb5e363b421",
      "receiptTrie": "0x56e81f171bcc55a6ff8345e692c0f86e5b48e01b996cadc001622fb5e363b421",
      "bloom": "0x00000000000000000000000000000000000000000000000000000000000000000000000000000000000000000000000000000000000000000000000000000000000000000000000000000000000000000000000000000000000000000000000000000000000000000000000000000000000000000000000000000000000000000000000000000000000000000000000000000000000000000000000000000000000000000000000000000000000000000000000000000000000000000000000000000000000000000000000000000000000000000000000000000000000000000000000000000000000000000000000000000000000000000000000000000000",
      "difficulty": "0x00",
      "number": "0x00",
      "gasLimit": "0x02540be400",
      "gasUsed": "0x00",
      "timestamp": "0x00",
      "extraData": "0x00",
      "mixHash": "0x0000000000000000000000000000000000000000000000000000000000000000",
      "nonce": "0x0000000000000000",
      "baseFeePerGas": "0x07",
      "withdrawalsRoot": "0x56e81f171bcc55a6ff8345e692c0f86e5b48e01b996cadc001622fb5e363b421",
      "hash": "0x892b44e01fa0b7b9c9c8a359730008de8560443044046a67d331d2eeb7d41b6c"
    },
    "pre": {
      "0xfffffffffffffffffffffffffffffffffffffffe": {
        "nonce": "0x01",
        "balance": "0x00",
        "code": "0x60203611603157600143035f35116029575f356120000143116029576120005f3506545f5260205ff35b5f5f5260205ff35b5f5ffd00",
        "storage": {}
      },
      "0xa94f5374fce5edbc8e2a8697c15331677e6ebf0b": {
        "nonce": "0x00",
        "balance": "0x3635c9adc5dea00000",
        "code": "0x",
        "storage": {}
      },
      "0x8a0a19589531694250d570040a0c4b74576919b8": {
        "nonce": "0x00",
        "balance": "0x00",
        "code": "0x73d94f5374fce5edbc8e2a8697c15331677e6ebf0c315f55",
        "storage": {}
      },
      "0x0000000000000000000000000000000000000004": {
        "nonce": "0x00",
        "balance": "0xf0",
        "code": "0x",
        "storage": {}
      },
      "0xd94f5374fce5edbc8e2a8697c15331677e6ebf0c": {
        "nonce": "0x00",
        "balance": "0xf2",
        "code": "0x",
        "storage": {}
      }
    },
    "lastblockhash": "0xb5ad60d496c9ce007d90daf8c8a1fbdbf4e98fb7b0d89c3073da617ea8a18504",
    "genesisRLP": "0xf9021af90214a00000000000000000000000000000000000000000000000000000000000000000a01dcc4de8dec75d7aab85b567b6ccd41ad312451b948a7413f0a142fd40d49347940000000000000000000000000000000000000000a043f42844321e615a750468be1925f1f470bac332a9593273a45d5b9b38fb394aa056e81f171bcc55a6ff8345e692c0f86e5b48e01b996cadc001622fb5e363b421a056e81f171bcc55a6ff8345e692c0f86e5b48e01b996cadc001622fb5e363b421b901000000000000000000000000000000000000000000000000000000000000000000000000000000000000000000000000000000000000000000000000000000000000000000000000000000000000000000000000000000000000000000000000000000000000000000000000000000000000000000000000000000000000000000000000000000000000000000000000000000000000000000000000000000000000000000000000000000000000000000000000000000000000000000000000000000000000000000000000000000000000000000000000000000000000000000000000000000000000000000000000000000000000000000000000000000000080808502540be400808000a0000000000000000000000000000000000000000000000000000000000000000088000000000000000007a056e81f171bcc55a6ff8345e692c0f86e5b48e01b996cadc001622fb5e363b421c0c0c0",
    "blocks": [
      {
        "blockHeader": {
          "parentHash": "0x892b44e01fa0b7b9c9c8a359730008de8560443044046a67d331d2eeb7d41b6c",
          "uncleHash": "0x1dcc4de8dec75d7aab85b567b6ccd41ad312451b948a7413f0a142fd40d49347",
          "coinbase": "0x2adc25665018aa1fe0e6bc666dac8fc2697ff9ba",
          "stateRoot": "0x42a8e67dc42253ba01bbac869dfcb61b81fa5e75728bbafb7937b3be88b575be",
          "transactionsTrie": "0x3689aafcc5e72f08b809aa44a48978afe322c74ba051c10d3b175e1b5e8892b1",
          "receiptTrie": "0xd6e45eb365ae2c934788bbfa773a7c2801621f553b9999509dc935fa7c1ef45a",
          "bloom": "0x00000000000000000000000000000000000000000000000000000000000000000000000000000000000000000000000000000000000000000000000000000000000000000000000000000000000000000000000000000000000000000000000000000000000000000000000000000000000000000000000000000000000000000000000000000000000000000000000000000000000000000000000000000000000000000000000000000000000000000000000000000000000000000000000000000000000000000000000000000000000000000000000000000000000000000000000000000000000000000000000000000000000000000000000000000000",
          "difficulty": "0x00",
          "number": "0x01",
          "gasLimit": "0x02540be400",
          "gasUsed": "0x697d",
          "timestamp": "0x0c",
          "extraData": "0x",
          "mixHash": "0x0000000000000000000000000000000000000000000000000000000000000000",
          "nonce": "0x0000000000000000",
          "baseFeePerGas": "0x07",
          "withdrawalsRoot": "0x56e81f171bcc55a6ff8345e692c0f86e5b48e01b996cadc001622fb5e363b421",
          "hash": "0xb5ad60d496c9ce007d90daf8c8a1fbdbf4e98fb7b0d89c3073da617ea8a18504"
        },
        "transactions": [
          {
            "type": "0x00",
            "chainId": "0x01",
            "nonce": "0x00",
            "gasPrice": "0x0a",
            "gasLimit": "0x0f4240",
            "to": "0x8a0a19589531694250d570040a0c4b74576919b8",
            "value": "0x00",
            "data": "0x",
            "v": "0x26",
            "r": "0xf072481d98bbf72e5b77c44ae076dd6b2f0db9073936b73556ba2aae4b22f572",
            "s": "0x68aab80c9019049f258dc900bac0b30846e7384a64a521938ee0e2b1969f5615",
            "sender": "0xa94f5374fce5edbc8e2a8697c15331677e6ebf0b"
          }
        ],
        "uncleHeaders": [],
        "withdrawals": [],
        "witness": {
          "stateDiff": [
            {
              "stem": "0x0365b079a274a1808d56484ce5bd97914629907d75767f51439102e22cd50d",
              "suffixDiffs": [
                {
                  "suffix": 0,
                  "currentValue": "0x00000000000000000000000000000000000000000000003635c9adc5dea00000",
                  "newValue": "0x00000000000000000000000000000001000000000000003635c9adc5de9be11e"
                },
                {
                  "suffix": 1,
                  "currentValue": "0xc5d2460186f7233c927e7db2dcc703c0e500b653ca82273b7bfad8045d85a470",
                  "newValue": null
                }
              ]
            },
            {
              "stem": "0x5b5fdfedd6a0e932da408ac7d772a36513d1eee9b9926e52620c43a433aad7",
              "suffixDiffs": [
                {
                  "suffix": 64,
                  "newValue": "0x892b44e01fa0b7b9c9c8a359730008de8560443044046a67d331d2eeb7d41b6c",
                  "currentValue": null
                }
              ]
            },
            {
              "stem": "0x914ec5f0e0c27fe094862fbd89a6abe684939af6940434d8bf218cedb2d624",
              "suffixDiffs": [
                {
                  "suffix": 0,
                  "newValue": "0x0000000000000000000000000000000000000000000000000000000000013c77",
                  "currentValue": null
                },
                {
                  "suffix": 1,
                  "newValue": "0xc5d2460186f7233c927e7db2dcc703c0e500b653ca82273b7bfad8045d85a470",
                  "currentValue": null
                }
              ]
            },
            {
              "stem": "0x9bcc6e55c098e22bfe2feee3cefcd2abab05249f3fd93a77cb65eeee3e0398",
              "suffixDiffs": [
                {
                  "suffix": 0,
                  "currentValue": "0x00000000000000000000000000000000000000000000000000000000000000f2",
                  "newValue": null
                }
              ]
            },
            {
              "stem": "0xecb505156708480caf702cd85124f67f3ed78ae4bc890a6dcb62574ba9a90c",
              "suffixDiffs": [
                {
                  "suffix": 0,
                  "currentValue": "0x0000000000000018000000000000000000000000000000000000000000000000",
                  "newValue": null
                },
                {
                  "suffix": 1,
                  "currentValue": "0xf57da5fd839f9b72c3eb938958ef432c5edf6fb9bfab01538c8d80684abaa911",
                  "newValue": null
                },
                {
                  "suffix": 64,
                  "newValue": "0x00000000000000000000000000000000000000000000000000000000000000f2",
                  "currentValue": null
                },
                {
                  "suffix": 128,
                  "currentValue": "0x0073d94f5374fce5edbc8e2a8697c15331677e6ebf0c315f5500000000000000",
                  "newValue": null
                }
              ]
            }
          ],
          "verkleProof": {
            "otherStems": [],
            "depthExtensionPresent": "0xa0a080a0a",
            "commitmentsByPath": [
              "0x360bcc4c15a10f6f058d1d07e13e9a271da3da0cd69026d5a9ab25e1c0a5d697",
              "0x324e7b7405bbfae46866bad5c94ac2983093b86f85035fe5984ec40a1b5e5ce3",
              "0x61506c1cc4f27c9231a546a4b0d249d5f3ba4ba9e63c5ebb84087665eb396e95",
              "0x4909fc1889e10819cda41706a26373145c4e4575d68b96569af12db69040b6e1",
              "0x24ef52dcec1f1337acccfcd7f4971281e7103fd2c3bc2290953c6108c625e62d",
              "0x14727a2ae64efbc4eac9e7fdf4523648c56dc2c965d71a8ee4e1e851a96b39ab",
              "0x0098c8c4150df18b8fd89a3e7f00b9acf0b4cd57ec150822b59fb892f117c978",
              "0x4a73708b3fc437457f291df1c60e3f666809981e33bcce5c5c0e1477410310e6",
              "0x4c4d16009e8244534c7e9787689c1e5bd689b66cc94b5432bb710d454d7f669a"
            ],
            "d": "0x67470dc63d2c7cc9cd9e592edd56d00821b6594c34e0bacf86b1c5c9a9718082",
            "ipaProof": {
              "cl": [
                "0x7112c1af1235966871a6502db6a39d61ed1de9a264bb7f9f940ea503e39ccd94",
                "0x32bc4bdb63baadd736c7a8d29ab727b85f8ac387c333729880eac7dc733c7dca",
                "0x50bf88ec84560dac51f03f7b5465a6657271f5bb469bcd995b36e3b10fa4195d",
                "0x65a65ff55de65b4f47ba2d471a7e93aa9758e42774092d09695cc0228a5ef06d",
                "0x703d1459c98e0b82bb50e13e04d495b32d06a3dc37f8a674891c3787756f7f93",
                "0x473a2ba27f5abaab9deec701a0f0e8496a09e377c66707a580a5e92e2876e863",
                "0x6fd3e965ccb597f2ba5d6ce1dba40d5e30f323c90d7d2c40c446c0a9a6e9e429",
                "0x4b80256157896233467a3c034e614b891e16f42983eaa1b6c3a4bede7892a485"
              ],
              "cr": [
                "0x49915432075a35f9ebb1d6cf4eb0b17a4c3f0d10b64090a5816a7d0f2d5647f2",
                "0x405875e0ae5a8696f36d4d8a039304d11354389c4cb9b17ba74dd90268699b3e",
                "0x1403ed6283ab9438081c3a931bf3e4274d25f02457632dbf1f74c0067acae2b8",
                "0x294116383e4ea8814af33169de08c15253085f48e453086a39dc2f0ceca28605",
                "0x4c32ab8ccbabb55165fa4345bef2ee66feba0cb75bc7a90c82d1fd4213852d01",
                "0x4385c056b930c76515808cd5ec5a48647bd9a950aad2ce27045c557a49cb14db",
                "0x1425890c216ef762c14fc2214008c76b7240be5f84470c929b30a04195683846",
                "0x37b3dae65bd6b9ff8849236ae82e56cc32d46fe41f29ffdd9e42620a70c6aae7"
              ],
              "finalEvaluation": "0x10dbaf004f5f3265b8b00ecfbd798ed74e978a87b2c60f26ebc9ec62a7bb2f33"
            }
          }
        },
        "rlp": "0xf9027ff90216a0892b44e01fa0b7b9c9c8a359730008de8560443044046a67d331d2eeb7d41b6ca01dcc4de8dec75d7aab85b567b6ccd41ad312451b948a7413f0a142fd40d49347942adc25665018aa1fe0e6bc666dac8fc2697ff9baa042a8e67dc42253ba01bbac869dfcb61b81fa5e75728bbafb7937b3be88b575bea03689aafcc5e72f08b809aa44a48978afe322c74ba051c10d3b175e1b5e8892b1a0d6e45eb365ae2c934788bbfa773a7c2801621f553b9999509dc935fa7c1ef45ab901000000000000000000000000000000000000000000000000000000000000000000000000000000000000000000000000000000000000000000000000000000000000000000000000000000000000000000000000000000000000000000000000000000000000000000000000000000000000000000000000000000000000000000000000000000000000000000000000000000000000000000000000000000000000000000000000000000000000000000000000000000000000000000000000000000000000000000000000000000000000000000000000000000000000000000000000000000000000000000000000000000000000000000000000000000000080018502540be40082697d0c80a0000000000000000000000000000000000000000000000000000000000000000088000000000000000007a056e81f171bcc55a6ff8345e692c0f86e5b48e01b996cadc001622fb5e363b421f862f860800a830f4240948a0a19589531694250d570040a0c4b74576919b8808026a0f072481d98bbf72e5b77c44ae076dd6b2f0db9073936b73556ba2aae4b22f572a068aab80c9019049f258dc900bac0b30846e7384a64a521938ee0e2b1969f5615c0c0",
        "blocknumber": "1"
      }
    ],
    "sealEngine": "NoProof",
    "_info": {
      "hash": "0x038aad9fce5eb794861e615c24a9fb4bb7eb297210a973fc8fc068c7771b36c8",
      "comment": "`execution-spec-tests` generated test",
      "filling-transition-tool": "evm version 1.12.1-unstable-ffc1f2de-20240927",
      "description": "Test function documentation:\n\n    Test BALANCE witness with/without WARM access.",
      "url": "https://github.com/ethereum/execution-spec-tests/blob/12010a55ade19ee93352740cffbd5f39c1c981c4/tests/verkle/eip4762_verkle_gas_witness/test_balance.py#L34",
      "reference-spec": "https://github.com/ethereum/EIPs/blob/master/EIPS/eip-4762.md",
      "reference-spec-version": "2f8299df31bb8173618901a03a8366a3183479b0"
    }
  }
}
