{
    "Create2Recursive" : {
        "_info" : {
            "comment" : "Create2 inside Create2 inside Create2....",
            "filling-rpc-server" : "evm version 1.14.4-unstable-3d8028a6-20240513",
            "filling-tool-version" : "retesteth-0.3.2-cancun+commit.2ab0208e.Linux.g++",
            "generatedTestHash" : "48de5aa6cbb697e942d62dccc02deaff43453c91048436634bf087ecaaf79005",
            "lllcversion" : "Version: 0.5.14-develop.2023.7.11+commit.c58ab2c6.mod.Linux.g++",
            "solidity" : "Version: 0.8.21+commit.d9974bed.Linux.g++",
            "source" : "src/GeneralStateTestsFiller/stCreate2/Create2RecursiveFiller.json",
            "sourceHash" : "8f3982c1f24e450be1ac487acae6ccfd4286d260b89b44e9a76ab56b90ba5fee"
        },
        "env" : {
            "currentBaseFee" : "0x0a",
            "currentCoinbase" : "0x2adc25665018aa1fe0e6bc666dac8fc2697ff9ba",
            "currentDifficulty" : "0x020000",
            "currentExcessBlobGas" : "0x00",
            "currentGasLimit" : "0x7fffffffffffffff",
            "currentNumber" : "0x01",
            "currentRandom" : "0x0000000000000000000000000000000000000000000000000000000000020000",
            "currentTimestamp" : "0x03e8"
        },
        "post" : {
            "Cancun" : [
                {
                    "hash" : "0xd2c30ecf50a5bd0b5511b53a0d1db29289ff4ef1d6341cf58425589dc3193998",
                    "indexes" : {
                        "data" : 0,
                        "gas" : 0,
                        "value" : 0
                    },
                    "logs" : "0x1dcc4de8dec75d7aab85b567b6ccd41ad312451b948a7413f0a142fd40d49347",
                    "txbytes" : "0xf865800a887effffffffffffff94b94f5374fce5edbc8e2a8697c15331677e6ebf0b80801ca01b3723e67ea5f55055160a3e79141aec6f26c742cd9811b91f791f258427510ea0453d5c97c4ed49afd959cd0773650ca8e252e5376abeceed2b0645174e6bae54"
                },
                {
                    "hash" : "0xbce1ad9068b37763359cf67d4c7482914f7191387900ce9593baf34c80a89dea",
                    "indexes" : {
                        "data" : 0,
                        "gas" : 1,
                        "value" : 0
                    },
                    "logs" : "0x1dcc4de8dec75d7aab85b567b6ccd41ad312451b948a7413f0a142fd40d49347",
                    "txbytes" : "0xf863800a861240e9387c0094b94f5374fce5edbc8e2a8697c15331677e6ebf0b80801ca0fe4bf9834be661357a7a524f0f71b153f6fcd08ae530430bb80705d09f359c00a003de6668f8181ff230fcc1005c7e245a794dc575068d63c9e17f1f8c7cce56be"
                },
                {
                    "hash" : "0x31e2e1a8274a22bae6cd613be3fa39870ba77f94694fd7639eb871400412d346",
                    "indexes" : {
                        "data" : 0,
                        "gas" : 2,
                        "value" : 0
                    },
                    "logs" : "0x1dcc4de8dec75d7aab85b567b6ccd41ad312451b948a7413f0a142fd40d49347",
                    "txbytes" : "0xf863800a8612433d44600094b94f5374fce5edbc8e2a8697c15331677e6ebf0b80801ca09ebb82ff2a397e68ab2d4eec91edc81a2674d2c7d8e7544755e9c6b42a26bb44a030b77040a73e7b39e3d69612cd09b9f3d249cb584229892772f1829c2a13a990"
                }
            ]
        },
        "pre" : {
            "0xa94f5374fce5edbc8e2a8697c15331677e6ebf0b" : {
                "balance" : "0xffffffffffffffffffffffffffffffffffffffffffffffffffffffffffffff",
                "code" : "0x",
                "nonce" : "0x00",
                "storage" : {
                }
            },
            "0xb94f5374fce5edbc8e2a8697c15331677e6ebf0b" : {
                "balance" : "0x00",
                "code" : "0x7d606460006000396103e85a10601b576000606460006000f5601d565b5a5b6000526000601e60026000f500",
                "nonce" : "0x00",
                "storage" : {
                }
            }
        },
        "transaction" : {
            "data" : [
                "0x"
            ],
            "gasLimit" : [
                "0x7effffffffffffff",
                "0x1240e9387c00",
                "0x12433d446000"
            ],
            "gasPrice" : "0x0a",
            "nonce" : "0x00",
            "secretKey" : "0x45a915e4d060149eb4365960e6a7a45f334393093061116b197e3240065ff2d8",
            "sender" : "0xa94f5374fce5edbc8e2a8697c15331677e6ebf0b",
            "to" : "0xb94f5374fce5edbc8e2a8697c15331677e6ebf0b",
            "value" : [
                "0x00"
            ]
        }
    }
}