{
    "RevertDepthCreate2OOGBerlin" : {
        "_info" : {
            "comment" : "",
            "filling-rpc-server" : "evm version 1.14.4-unstable-3d8028a6-20240513",
            "filling-tool-version" : "retesteth-0.3.2-cancun+commit.2ab0208e.Linux.g++",
            "generatedTestHash" : "ad25dafeace3cf4563e52486df563af4e64528a38418b8f8b1bee9b502769a14",
            "lllcversion" : "Version: 0.5.14-develop.2023.7.11+commit.c58ab2c6.mod.Linux.g++",
            "solidity" : "Version: 0.8.21+commit.d9974bed.Linux.g++",
            "source" : "src/GeneralStateTestsFiller/stCreate2/RevertDepthCreate2OOGBerlinFiller.json",
            "sourceHash" : "238077564bb9763af2795006d77aa4afe6b6b5fb19f2f5364a3503f5ee3a23c7"
        },
        "env" : {
            "currentBaseFee" : "0x0a",
            "currentCoinbase" : "0x2adc25665018aa1fe0e6bc666dac8fc2697ff9ba",
            "currentDifficulty" : "0x020000",
            "currentExcessBlobGas" : "0x00",
            "currentGasLimit" : "0x989680",
            "currentNumber" : "0x01",
            "currentRandom" : "0x0000000000000000000000000000000000000000000000000000000000020000",
            "currentTimestamp" : "0x03e8"
        },
        "post" : {
            "Cancun" : [
                {
                    "hash" : "0x9c130f05938ec1ee44af27cbac70ed98889f38da0f873ff7d41ca7316553b0ff",
                    "indexes" : {
                        "data" : 1,
                        "gas" : 1,
                        "value" : 0
                    },
                    "logs" : "0x1dcc4de8dec75d7aab85b567b6ccd41ad312451b948a7413f0a142fd40d49347",
                    "txbytes" : "0xf880800a8302981094a00000000000000000000000000000000000000001a0000000000000000000000000000000000000000000000000000000000001ea601ba0a80cad0bed5f36632afaf668c6c5e78ab22d09a0e05fd3e62245b48312798b33a022c5a560e3a945c54671c11527538851a5b1c2c0ebcc142656200ba7b4120ee9"
                },
                {
                    "hash" : "0x8e5fd77892457ee7a3c4c2eaca111df502063be4da929c38b4830310fcec42d4",
                    "indexes" : {
                        "data" : 1,
                        "gas" : 1,
                        "value" : 1
                    },
                    "logs" : "0x1dcc4de8dec75d7aab85b567b6ccd41ad312451b948a7413f0a142fd40d49347",
                    "txbytes" : "0xf880800a8302981094a00000000000000000000000000000000000000080a0000000000000000000000000000000000000000000000000000000000001ea601ca0d7337570a5a65fb7c49f51db71302ec6e59a778dd242d3ce860cfe7122da2d71a01728ab1164d219a15612e8eb45cf7a2763293371baf997ba0d8937e516515f60"
                },
                {
                    "hash" : "0x604845e83b3b01c555758844aa16b9902bb75622c3aabc7170b2a41511c82980",
                    "indexes" : {
                        "data" : 0,
                        "gas" : 1,
                        "value" : 0
                    },
                    "logs" : "0x1dcc4de8dec75d7aab85b567b6ccd41ad312451b948a7413f0a142fd40d49347",
                    "txbytes" : "0xf880800a8302981094a00000000000000000000000000000000000000001a0000000000000000000000000000000000000000000000000000000000000ea601ba09a478435f62aaa53badb789cfed37cf4950fda6282eaa066b8d6f5382455d195a0416abfa3fb1d7e3a388757cefec065ff6da4567e6871d7432d1c4235f79cc328"
                },
                {
                    "hash" : "0x115895a7132a3ec4be31ec56724cb181d6d8503e0e19bd9f05ea00a02d62905d",
                    "indexes" : {
                        "data" : 0,
                        "gas" : 1,
                        "value" : 1
                    },
                    "logs" : "0x1dcc4de8dec75d7aab85b567b6ccd41ad312451b948a7413f0a142fd40d49347",
                    "txbytes" : "0xf880800a8302981094a00000000000000000000000000000000000000080a0000000000000000000000000000000000000000000000000000000000000ea601ca0f7e49ce6c395866ca1e23dc51eed14e61f96c381d7fae53987dd527d881207c6a056556bd0f0c23c14681745d14467276f5b05e427d2baf91a50ae2d8abe0817eb"
                },
                {
                    "hash" : "0x0363bb97a4ddb398ea77412cebb530fac974e46d13a2d662a14cc4edb618bb41",
                    "indexes" : {
                        "data" : 0,
                        "gas" : 0,
                        "value" : 0
                    },
                    "logs" : "0x1dcc4de8dec75d7aab85b567b6ccd41ad312451b948a7413f0a142fd40d49347",
                    "txbytes" : "0xf880800a8301adb094a00000000000000000000000000000000000000001a0000000000000000000000000000000000000000000000000000000000000ea601ba06aa61b617b4e38153705c272c5b19a531cff03d2d07d970389b225252e546113a04df41cd6c854a9bd5208d03fcbcb6401b3e867453610d047610e3066381fb374"
                },
                {
                    "hash" : "0x0363bb97a4ddb398ea77412cebb530fac974e46d13a2d662a14cc4edb618bb41",
                    "indexes" : {
                        "data" : 0,
                        "gas" : 0,
                        "value" : 1
                    },
                    "logs" : "0x1dcc4de8dec75d7aab85b567b6ccd41ad312451b948a7413f0a142fd40d49347",
                    "txbytes" : "0xf880800a8301adb094a00000000000000000000000000000000000000080a0000000000000000000000000000000000000000000000000000000000000ea601ca0bed77bc32f00eba51a4c07ca1a2d7fd1d85147f60f04f5184079f103e4e77a78a03a851971798cd2b6acceb39036e948f91529728e1af3b3efb820c604d6a60ae3"
                },
                {
                    "hash" : "0x0363bb97a4ddb398ea77412cebb530fac974e46d13a2d662a14cc4edb618bb41",
                    "indexes" : {
                        "data" : 1,
                        "gas" : 0,
                        "value" : 0
                    },
                    "logs" : "0x1dcc4de8dec75d7aab85b567b6ccd41ad312451b948a7413f0a142fd40d49347",
                    "txbytes" : "0xf880800a8301adb094a00000000000000000000000000000000000000001a0000000000000000000000000000000000000000000000000000000000001ea601ba0c8eb963f0d1fe5892d10f1831c9cbed04e5f137888e21337461e30556cb7ae32a03cb3e13756e6bfcf183c4e8218c7447c932f58d7b87e1b85008a2060f42511eb"
                },
                {
                    "hash" : "0x0363bb97a4ddb398ea77412cebb530fac974e46d13a2d662a14cc4edb618bb41",
                    "indexes" : {
                        "data" : 1,
                        "gas" : 0,
                        "value" : 1
                    },
                    "logs" : "0x1dcc4de8dec75d7aab85b567b6ccd41ad312451b948a7413f0a142fd40d49347",
                    "txbytes" : "0xf880800a8301adb094a00000000000000000000000000000000000000080a0000000000000000000000000000000000000000000000000000000000001ea601ca022a1d331afb878b6e5bfdb493bd20aa5d3de94202b02f378482e57547b2d7d27a0287dc82d4030b7513e2a060def1e0afb8d549aaf03c5c5738c78348462d7295f"
                }
            ]
        },
        "pre" : {
            "0xa000000000000000000000000000000000000000" : {
                "balance" : "0x05",
                "code" : "0x60016000556000600060006000600073b000000000000000000000000000000000000000600035f1600155600c60045500",
                "nonce" : "0x36",
                "storage" : {
                }
            },
            "0xa94f5374fce5edbc8e2a8697c15331677e6ebf0b" : {
                "balance" : "0xe8d4a51000",
                "code" : "0x",
                "nonce" : "0x00",
                "storage" : {
                }
            },
            "0xb000000000000000000000000000000000000000" : {
                "balance" : "0x00",
                "code" : "0x60086002556000600060006000f550600c60035500",
                "nonce" : "0x00",
                "storage" : {
                }
            }
        },
        "transaction" : {
            "data" : [
                "0x000000000000000000000000000000000000000000000000000000000000ea60",
                "0x000000000000000000000000000000000000000000000000000000000001ea60"
            ],
            "gasLimit" : [
                "0x01adb0",
                "0x029810"
            ],
            "gasPrice" : "0x0a",
            "nonce" : "0x00",
            "secretKey" : "0x45a915e4d060149eb4365960e6a7a45f334393093061116b197e3240065ff2d8",
            "sender" : "0xa94f5374fce5edbc8e2a8697c15331677e6ebf0b",
            "to" : "0xa000000000000000000000000000000000000000",
            "value" : [
                "0x01",
                "0x00"
            ]
        }
    }
}