{
    "loopMul" : {
        "_info" : {
            "comment" : "Ori Pomerantz qbzzt1@gmail.com",
            "filling-rpc-server" : "evm version 1.14.4-unstable-3d8028a6-20240513",
            "filling-tool-version" : "retesteth-0.3.2-cancun+commit.cae6bc33.Linux.g++",
            "generatedTestHash" : "12edaadb090ae60afd42fedd56dd85078527c4f9e9b665e7b1ebaeca107ca536",
            "labels" : {
                "0" : "add-10M",
                "1" : "divadd-10M",
                "2" : "mulmod-2M"
            },
            "lllcversion" : "Version: 0.5.14-develop.2023.7.11+commit.c58ab2c6.mod.Linux.g++",
            "solidity" : "Version: 0.8.21+commit.d9974bed.Linux.g++",
            "source" : "src/GeneralStateTestsFiller/VMTests/vmPerformance/loopMulFiller.yml",
            "sourceHash" : "916bcce5f03ebd3b52d6bc1c0c18016b3468b07cba1ed739e4e36a8af63829ee"
        },
        "env" : {
            "currentBaseFee" : "0x0a",
            "currentCoinbase" : "0x2adc25665018aa1fe0e6bc666dac8fc2697ff9ba",
            "currentDifficulty" : "0x020000",
            "currentExcessBlobGas" : "0x00",
            "currentGasLimit" : "0x7fffffffffffffff",
            "currentNumber" : "0x01",
            "currentRandom" : "0x0000000000000000000000000000000000000000000000000000000000020000",
            "currentTimestamp" : "0x03e8"
        },
        "post" : {
            "Cancun" : [
                {
                    "hash" : "0xa01854411cccc1465b8c45ba502eb75e6701d3348ebe3103a0b5469cdc0f2081",
                    "indexes" : {
                        "data" : 0,
                        "gas" : 0,
                        "value" : 0
                    },
                    "logs" : "0x1dcc4de8dec75d7aab85b567b6ccd41ad312451b948a7413f0a142fd40d49347",
                    "txbytes" : "0xf8ca800a887fffffffffffffff94cccccccccccccccccccccccccccccccccccccccc80b864c4f8b9fb8edad8b55b1586805ea8c245d8c16b06a5102b791fc6eb60693731c0677bf5018edad8b55b1586805ea8c245d8c16b06a5102b791fc6eb60693731c0677bf50100000000000000000000000000000000000000000000000000000000009896801ca08a7c05b7e7c1f7e12f9bdfe00f6a30776f978ccb79875aa504e1eca871e59d64a0104545b5ce4795b9d4398058650189209854641f3f1f183e4e318aa41704ae98"
                },
                {
                    "hash" : "0xd8c8d3505903daffffe8f09737818fb00f62aaa0fbd23d090fcc661e0e9c8d8a",
                    "indexes" : {
                        "data" : 1,
                        "gas" : 0,
                        "value" : 0
                    },
                    "logs" : "0x1dcc4de8dec75d7aab85b567b6ccd41ad312451b948a7413f0a142fd40d49347",
                    "txbytes" : "0xf8ea800a887fffffffffffffff94cccccccccccccccccccccccccccccccccccccccc80b88459e3e1ea8edad8b55b1586805ea8c245d8c16b06a5102b791fc6eb60693731c0677bf5011c68db1c179cd35ab3fc60c63704aa7fcbea40f19782b1611aaba86726a7686cffffffffffffffffffffffffffaaffffffffffffffffbbffffffffffffff000000000000000000000000000000000000000000000000000000000000009896801ba0650cf298f339bee60c1c150bcb6cf3f1174e90c539843e4be6ff4b2dbd639937a06204660931c9f99cdf0ad36cf587281839cbb6c24efb630c3378bb229603c6d1"
                },
                {
                    "hash" : "0xfec0aa3b58912fb45afc432ff0f51f01b852e7b68a5d7aa344ea8bbdfbbb59d2",
                    "indexes" : {
                        "data" : 2,
                        "gas" : 0,
                        "value" : 0
                    },
                    "logs" : "0x1dcc4de8dec75d7aab85b567b6ccd41ad312451b948a7413f0a142fd40d49347",
                    "txbytes" : "0xf8ea800a887fffffffffffffff94cccccccccccccccccccccccccccccccccccccccc80b88415d423278edad8b55b1586805ea8c245d8c16b06a5102b791fc6eb60693731c0677bf5011c68db1c179cd35ab3fc60c63704aa7fcbea40f19782b1611aaba86726a7686cffffffffffffffffffffffffffffffffffffffffffffffffffffffffffffffff00000000000000000000000000000000000000000000000000000000001e84801ca06368792390f8ea16f2392fb5166884f061ae4ada88292842b97c6cbc232fe709a04308f5703284115cea86857d04ab8b99f7722b4ce597bf7bbe9dd84f77a2f72c"
                }
            ]
        },
        "pre" : {
            "0xa94f5374fce5edbc8e2a8697c15331677e6ebf0b" : {
                "balance" : "0x7fffffffffffffff00",
                "code" : "0x",
                "nonce" : "0x00",
                "storage" : {
                }
            },
            "0xcccccccccccccccccccccccccccccccccccccccc" : {
                "balance" : "0x0ba1a9ce0ba1a9ce",
                "code" : "0x608060405234801561001057600080fd5b506004361061004c5760003560e01c806315d423271461005157806359e3e1ea14610081578063c4f8b9fb146100b1578063e01330bb146100e1575b600080fd5b61006b60048036038101906100669190610268565b610111565b60405161007891906102de565b60405180910390f35b61009b60048036038101906100969190610268565b61015e565b6040516100a891906102de565b60405180910390f35b6100cb60048036038101906100c691906102f9565b6101b3565b6040516100d891906102de565b60405180910390f35b6100fb60048036038101906100f691906102f9565b6101f0565b60405161010891906102de565b60405180910390f35b60008085905060005b8381101561014a5784806101315761013061034c565b5b868309915060018161014391906103aa565b905061011a565b508060008190555080915050949350505050565b60008085905060005b8381101561019f57858261017b91906103de565b9150848261018991906103aa565b915060018161019891906103aa565b9050610167565b508060008190555080915050949350505050565b60008084905060005b838110156101dd5784820191506001816101d691906103aa565b90506101bc565b5080600081905550809150509392505050565b60008084905060005b8381101561021a57848202915060018161021391906103aa565b90506101f9565b5080600081905550809150509392505050565b600080fd5b6000819050919050565b61024581610232565b811461025057600080fd5b50565b6000813590506102628161023c565b92915050565b600080600080608085870312156102825761028161022d565b5b600061029087828801610253565b94505060206102a187828801610253565b93505060406102b287828801610253565b92505060606102c387828801610253565b91505092959194509250565b6102d881610232565b82525050565b60006020820190506102f360008301846102cf565b92915050565b6000806000606084860312156103125761031161022d565b5b600061032086828701610253565b935050602061033186828701610253565b925050604061034286828701610253565b9150509250925092565b7f4e487b7100000000000000000000000000000000000000000000000000000000600052601260045260246000fd5b7f4e487b7100000000000000000000000000000000000000000000000000000000600052601160045260246000fd5b60006103b582610232565b91506103c083610232565b92508282019050808211156103d8576103d761037b565b5b92915050565b60006103e982610232565b91506103f483610232565b9250826104045761040361034c565b5b82820490509291505056fea264697066735822122027b67e58cda9f8f4de8a0489827511df155a10b926324a658cb4ddb2b0ed921164736f6c63430008150033",
                "nonce" : "0x01",
                "storage" : {
                }
            }
        },
        "transaction" : {
            "data" : [
                "0xc4f8b9fb8edad8b55b1586805ea8c245d8c16b06a5102b791fc6eb60693731c0677bf5018edad8b55b1586805ea8c245d8c16b06a5102b791fc6eb60693731c0677bf5010000000000000000000000000000000000000000000000000000000000989680",
                "0x59e3e1ea8edad8b55b1586805ea8c245d8c16b06a5102b791fc6eb60693731c0677bf5011c68db1c179cd35ab3fc60c63704aa7fcbea40f19782b1611aaba86726a7686cffffffffffffffffffffffffffaaffffffffffffffffbbffffffffffffff00000000000000000000000000000000000000000000000000000000000000989680",
                "0x15d423278edad8b55b1586805ea8c245d8c16b06a5102b791fc6eb60693731c0677bf5011c68db1c179cd35ab3fc60c63704aa7fcbea40f19782b1611aaba86726a7686cffffffffffffffffffffffffffffffffffffffffffffffffffffffffffffffff00000000000000000000000000000000000000000000000000000000001e8480"
            ],
            "gasLimit" : [
                "0x7fffffffffffffff"
            ],
            "gasPrice" : "0x0a",
            "nonce" : "0x00",
            "secretKey" : "0x45a915e4d060149eb4365960e6a7a45f334393093061116b197e3240065ff2d8",
            "sender" : "0xa94f5374fce5edbc8e2a8697c15331677e6ebf0b",
            "to" : "0xcccccccccccccccccccccccccccccccccccccccc",
            "value" : [
                "0x00"
            ]
        }
    }
}