{
    "createFailBalanceTooLow" : {
        "_info" : {
            "comment" : "create fails because we try to send more wei to it that we have",
            "filling-rpc-server" : "evm version 1.14.4-unstable-3d8028a6-20240513",
            "filling-tool-version" : "retesteth-0.3.2-cancun+commit.2ab0208e.Linux.g++",
            "generatedTestHash" : "214589392703e7e51d2e73cec7dd817b25f475c28b37a9288625b365b2b14f25",
            "lllcversion" : "Version: 0.5.14-develop.2023.7.11+commit.c58ab2c6.mod.Linux.g++",
            "solidity" : "Version: 0.8.21+commit.d9974bed.Linux.g++",
            "source" : "src/GeneralStateTestsFiller/stCallCreateCallCodeTest/createFailBalanceTooLowFiller.json",
            "sourceHash" : "704dd9a75167f93085d1af769df75fa7405443186f25f7d7c7e0200cdc34d5ce"
        },
        "env" : {
            "currentBaseFee" : "0x0a",
            "currentCoinbase" : "0x2adc25665018aa1fe0e6bc666dac8fc2697ff9ba",
            "currentDifficulty" : "0x020000",
            "currentExcessBlobGas" : "0x00",
            "currentGasLimit" : "0x05f5e100",
            "currentNumber" : "0x01",
            "currentRandom" : "0x0000000000000000000000000000000000000000000000000000000000020000",
            "currentTimestamp" : "0x03e8"
        },
        "post" : {
            "Cancun" : [
                {
                    "hash" : "0x1d5cc28225db169757c8b42e0e923850b5542dbdc23c188acd689910e9aad6ea",
                    "indexes" : {
                        "data" : 0,
                        "gas" : 0,
                        "value" : 0
                    },
                    "logs" : "0x1dcc4de8dec75d7aab85b567b6ccd41ad312451b948a7413f0a142fd40d49347",
                    "txbytes" : "0xf860800a8303dc5d94095e7baea6a6c7c4c2dfeb977efac326af552d8717801ca09d04476f3de219db1867e1ab4820b552c78da3f642bae152fab498fb69c1d7b6a07908a8e34ea45d39d7c1662fef9cb6ac113b27e990756cf28c58af5568dface4"
                },
                {
                    "hash" : "0x5ffc26f0b841070f2d98e73090b8f2c17cc290165f6075f59234ed879dbd1b6e",
                    "indexes" : {
                        "data" : 0,
                        "gas" : 0,
                        "value" : 1
                    },
                    "logs" : "0x1dcc4de8dec75d7aab85b567b6ccd41ad312451b948a7413f0a142fd40d49347",
                    "txbytes" : "0xf860800a8303dc5d94095e7baea6a6c7c4c2dfeb977efac326af552d8718801ba0bd440f1e24051288c2af9cd05da14c04167063c56e2eb95e9779d149abf1d01da01ba14075c0c916d5f08cb690dd5adb06f42d624efe92c5f2e753f24fcd478e1f"
                }
            ]
        },
        "pre" : {
            "0x095e7baea6a6c7c4c2dfeb977efac326af552d87" : {
                "balance" : "0x0de0b6b3a7640000",
                "code" : "0x6460016002556000526005601b670de0b6b3a7640018f0ff00",
                "nonce" : "0x00",
                "storage" : {
                }
            },
            "0xa94f5374fce5edbc8e2a8697c15331677e6ebf0b" : {
                "balance" : "0x0de0b6b3a7640000",
                "code" : "0x",
                "nonce" : "0x00",
                "storage" : {
                }
            }
        },
        "transaction" : {
            "data" : [
                "0x"
            ],
            "gasLimit" : [
                "0x03dc5d"
            ],
            "gasPrice" : "0x0a",
            "nonce" : "0x00",
            "secretKey" : "0x45a915e4d060149eb4365960e6a7a45f334393093061116b197e3240065ff2d8",
            "sender" : "0xa94f5374fce5edbc8e2a8697c15331677e6ebf0b",
            "to" : "0x095e7baea6a6c7c4c2dfeb977efac326af552d87",
            "value" : [
                "0x17",
                "0x18"
            ]
        }
    }
}