{
    "CallEcrecover_Overflow" : {
        "_info" : {
            "comment" : "",
            "filling-rpc-server" : "evm version 1.14.4-unstable-3d8028a6-20240513",
            "filling-tool-version" : "retesteth-0.3.2-cancun+commit.2ab0208e.Linux.g++",
            "generatedTestHash" : "3828419945579fccd51bb39e2f19174425b0d3741e66d9a8d1c7b97d2b3dcd34",
            "labels" : {
                "0" : "fail",
                "1" : "fail",
                "2" : "fail",
                "3" : "pass01",
                "4" : "fail",
                "5" : "fail",
                "6" : "pass02",
                "7" : "pass03"
            },
            "lllcversion" : "Version: 0.5.14-develop.2023.7.11+commit.c58ab2c6.mod.Linux.g++",
            "solidity" : "Version: 0.8.21+commit.d9974bed.Linux.g++",
            "source" : "src/GeneralStateTestsFiller/stPreCompiledContracts2/CallEcrecover_OverflowFiller.yml",
            "sourceHash" : "46a83ee784ec1f07434909be3a26e907e2e71c18d24209f42eeeedb5e0386ac2"
        },
        "env" : {
            "currentBaseFee" : "0x0a",
            "currentCoinbase" : "0x2adc25665018aa1fe0e6bc666dac8fc2697ff9ba",
            "currentDifficulty" : "0x020000",
            "currentExcessBlobGas" : "0x00",
            "currentGasLimit" : "0xff112233445566",
            "currentNumber" : "0x01",
            "currentRandom" : "0x0000000000000000000000000000000000000000000000000000000000020000",
            "currentTimestamp" : "0x03e8"
        },
        "post" : {
            "Cancun" : [
                {
                    "hash" : "0x13dc5989aec5a04817b2fe9a2532334e575ca7d2f6ea8276511fab4b319779c8",
                    "indexes" : {
                        "data" : 0,
                        "gas" : 0,
                        "value" : 0
                    },
                    "logs" : "0x1dcc4de8dec75d7aab85b567b6ccd41ad312451b948a7413f0a142fd40d49347",
                    "txbytes" : "0xf8ea800a85f00000000094cccccccccccccccccccccccccccccccccccccccc830186a0b884917694f918c547e4f7b0f325ad1e56f57e26c745b09a3e503d86e00e5255ff7f715d3d1c000000000000000000000000000000000000000000000000000000000000001cfffffffffffffffffffffffffffffffebaaedce6af48a03bbfd25e8cd03641411fffd310ac743f371de3b9f7f9cb56c0b28ad43601b4ab949f53faa07bd2c8041ba0d6738ed2bf1cb566a2a55a8ddbf374c6856dc0ae07986d4e7a8a82c5c3bef23ba0387a0fd2fb3fe7d785bda68815591773752bfa84e58f28282ad65daeb2efe7e8"
                },
                {
                    "hash" : "0x13dc5989aec5a04817b2fe9a2532334e575ca7d2f6ea8276511fab4b319779c8",
                    "indexes" : {
                        "data" : 1,
                        "gas" : 0,
                        "value" : 0
                    },
                    "logs" : "0x1dcc4de8dec75d7aab85b567b6ccd41ad312451b948a7413f0a142fd40d49347",
                    "txbytes" : "0xf8ea800a85f00000000094cccccccccccccccccccccccccccccccccccccccc830186a0b884917694f918c547e4f7b0f325ad1e56f57e26c745b09a3e503d86e00e5255ff7f715d3d1c000000000000000000000000000000000000000000000000000000000000001cfffffffffffffffffffffffffffffffebaaedce6af48a03bbfd25e8cd03641421fffd310ac743f371de3b9f7f9cb56c0b28ad43601b4ab949f53faa07bd2c8041ca0c49079dbf6210b2fa95dd9f7781c78ee0d8a1b90c4da32749f3c50fa8d3dd238a05b646788e8db34638ff33da03da3aa59ba0256b4c2106f3a589c772a508a6f27"
                },
                {
                    "hash" : "0x13dc5989aec5a04817b2fe9a2532334e575ca7d2f6ea8276511fab4b319779c8",
                    "indexes" : {
                        "data" : 2,
                        "gas" : 0,
                        "value" : 0
                    },
                    "logs" : "0x1dcc4de8dec75d7aab85b567b6ccd41ad312451b948a7413f0a142fd40d49347",
                    "txbytes" : "0xf8ea800a85f00000000094cccccccccccccccccccccccccccccccccccccccc830186a0b884917694f918c547e4f7b0f325ad1e56f57e26c745b09a3e503d86e00e5255ff7f715d3d1c000000000000000000000000000000000000000000000000000000000000001cfffffffffffffffffffffffffffffffebaaedce6af48a03bbfd25e8cd0364140efffd310ac743f371de3b9f7f9cb56c0b28ad43601b4ab949f53faa07bd2c8041ca015c3a08163b3d4eb6b8d8a9babf5e1abd0c355641cd33939665819a14ed4aa89a017cac912440e216fb5079083955409ff281b0ff2137617855a344e98f90e540b"
                },
                {
                    "hash" : "0x13dc5989aec5a04817b2fe9a2532334e575ca7d2f6ea8276511fab4b319779c8",
                    "indexes" : {
                        "data" : 4,
                        "gas" : 0,
                        "value" : 0
                    },
                    "logs" : "0x1dcc4de8dec75d7aab85b567b6ccd41ad312451b948a7413f0a142fd40d49347",
                    "txbytes" : "0xf8ea800a85f00000000094cccccccccccccccccccccccccccccccccccccccc830186a0b884917694f918c547e4f7b0f325ad1e56f57e26c745b09a3e503d86e00e5255ff7f715d3d1c000000000000000000000000000000000000000000000000000000000000001c48b55bfa915ac795c431978d8a6a992b628d557da5ff759b307d495a36649353fffffffffffffffffffffffffffffffebaaedce6af48a03bbfd25e8cd03641411ca089fa1f3bb6383c07b045c9dfe9a027825027428bf84804d155da9e8c638bf07ca014a131bd9d0295d702aa50ec5770f3a11ae2fa508131f97d7a59d4574e092910"
                },
                {
                    "hash" : "0x13dc5989aec5a04817b2fe9a2532334e575ca7d2f6ea8276511fab4b319779c8",
                    "indexes" : {
                        "data" : 5,
                        "gas" : 0,
                        "value" : 0
                    },
                    "logs" : "0x1dcc4de8dec75d7aab85b567b6ccd41ad312451b948a7413f0a142fd40d49347",
                    "txbytes" : "0xf8ea800a85f00000000094cccccccccccccccccccccccccccccccccccccccc830186a0b884917694f918c547e4f7b0f325ad1e56f57e26c745b09a3e503d86e00e5255ff7f715d3d1c000000000000000000000000000000000000000000000000000000000000001c48b55bfa915ac795c431978d8a6a992b628d557da5ff759b307d495a36649353fffffffffffffffffffffffffffffffebaaedce6af48a03bbfd25e8cd03641421ca0dfba4fc2311f69b20856972bceb9ab8cf540413531fdfd500885ebc4b4798c95a060136b24df3488f9ebe661dd623dc4bad84c0b3b73c4e92583b223a97c334701"
                },
                {
                    "hash" : "0x4b5a37d027395b1ca17d678e6a8b1c9e85ce65c99a0c5c515ba3a3838d25664a",
                    "indexes" : {
                        "data" : 3,
                        "gas" : 0,
                        "value" : 0
                    },
                    "logs" : "0x1dcc4de8dec75d7aab85b567b6ccd41ad312451b948a7413f0a142fd40d49347",
                    "txbytes" : "0xf8ea800a85f00000000094cccccccccccccccccccccccccccccccccccccccc830186a0b884917694f918c547e4f7b0f325ad1e56f57e26c745b09a3e503d86e00e5255ff7f715d3d1c000000000000000000000000000000000000000000000000000000000000001cfffffffffffffffffffffffffffffffebaaedce6af48a03bbfd25e8cd036413fefffd310ac743f371de3b9f7f9cb56c0b28ad43601b4ab949f53faa07bd2c8041ca07f3fa308d709fe7135521a560ec5b111c2149424ed9a0bfcfd41844984ac2213a03bb836366e51b68d26d9f4fadb01bf59f15426dfd52dc97f4aa6d1e4eb218944"
                },
                {
                    "hash" : "0x78ecf4920ff023906ee03894866f5cf293f488757db6aba9cc1df700e7442b22",
                    "indexes" : {
                        "data" : 6,
                        "gas" : 0,
                        "value" : 0
                    },
                    "logs" : "0x1dcc4de8dec75d7aab85b567b6ccd41ad312451b948a7413f0a142fd40d49347",
                    "txbytes" : "0xf8ea800a85f00000000094cccccccccccccccccccccccccccccccccccccccc830186a0b884917694f918c547e4f7b0f325ad1e56f57e26c745b09a3e503d86e00e5255ff7f715d3d1c000000000000000000000000000000000000000000000000000000000000001c48b55bfa915ac795c431978d8a6a992b628d557da5ff759b307d495a36649353fffffffffffffffffffffffffffffffebaaedce6af48a03bbfd25e8cd03641401ba0da3bb4b38724b7629ccbf9bb9131a3d77f7921fc93cd974b93a6c12ac5ad3be1a056fd78e5928c5204aaf3c3075790dbe23172a55ead500ac43123f0ab1d474cd4"
                },
                {
                    "hash" : "0x77ab82b9e28b10c3892b3cdb2472f7fbd1605a165ab1194e782147a35aec1e1d",
                    "indexes" : {
                        "data" : 7,
                        "gas" : 0,
                        "value" : 0
                    },
                    "logs" : "0x1dcc4de8dec75d7aab85b567b6ccd41ad312451b948a7413f0a142fd40d49347",
                    "txbytes" : "0xf8ea800a85f00000000094cccccccccccccccccccccccccccccccccccccccc830186a0b884917694f918c547e4f7b0f325ad1e56f57e26c745b09a3e503d86e00e5255ff7f715d3d1c000000000000000000000000000000000000000000000000000000000000001c48b55bfa915ac795c431978d8a6a992b628d557da5ff759b307d495a36649353fffffffffffffffffffffffffffffffebaaedce6af48a03bbfd25e8cd036413f1ba0404f9a3a9a97cc0578004f24fc8d9825d0198dce4b746c0f170cb1ac6253dad5a008cc913f861a455845849352538ed56aec9aaa6eea0820deea1447b375e42d31"
                }
            ]
        },
        "pre" : {
            "0xa94f5374fce5edbc8e2a8697c15331677e6ebf0b" : {
                "balance" : "0x0de0b6b3a7640000",
                "code" : "0x",
                "nonce" : "0x00",
                "storage" : {
                }
            },
            "0xcccccccccccccccccccccccccccccccccccccccc" : {
                "balance" : "0x00",
                "code" : "0x6080600460003760206080806000806001610bb8f160005560805160015500",
                "nonce" : "0x00",
                "storage" : {
                }
            }
        },
        "transaction" : {
            "data" : [
                "0x917694f918c547e4f7b0f325ad1e56f57e26c745b09a3e503d86e00e5255ff7f715d3d1c000000000000000000000000000000000000000000000000000000000000001cfffffffffffffffffffffffffffffffebaaedce6af48a03bbfd25e8cd03641411fffd310ac743f371de3b9f7f9cb56c0b28ad43601b4ab949f53faa07bd2c804",
                "0x917694f918c547e4f7b0f325ad1e56f57e26c745b09a3e503d86e00e5255ff7f715d3d1c000000000000000000000000000000000000000000000000000000000000001cfffffffffffffffffffffffffffffffebaaedce6af48a03bbfd25e8cd03641421fffd310ac743f371de3b9f7f9cb56c0b28ad43601b4ab949f53faa07bd2c804",
                "0x917694f918c547e4f7b0f325ad1e56f57e26c745b09a3e503d86e00e5255ff7f715d3d1c000000000000000000000000000000000000000000000000000000000000001cfffffffffffffffffffffffffffffffebaaedce6af48a03bbfd25e8cd0364140efffd310ac743f371de3b9f7f9cb56c0b28ad43601b4ab949f53faa07bd2c804",
                "0x917694f918c547e4f7b0f325ad1e56f57e26c745b09a3e503d86e00e5255ff7f715d3d1c000000000000000000000000000000000000000000000000000000000000001cfffffffffffffffffffffffffffffffebaaedce6af48a03bbfd25e8cd036413fefffd310ac743f371de3b9f7f9cb56c0b28ad43601b4ab949f53faa07bd2c804",
                "0x917694f918c547e4f7b0f325ad1e56f57e26c745b09a3e503d86e00e5255ff7f715d3d1c000000000000000000000000000000000000000000000000000000000000001c48b55bfa915ac795c431978d8a6a992b628d557da5ff759b307d495a36649353fffffffffffffffffffffffffffffffebaaedce6af48a03bbfd25e8cd0364141",
                "0x917694f918c547e4f7b0f325ad1e56f57e26c745b09a3e503d86e00e5255ff7f715d3d1c000000000000000000000000000000000000000000000000000000000000001c48b55bfa915ac795c431978d8a6a992b628d557da5ff759b307d495a36649353fffffffffffffffffffffffffffffffebaaedce6af48a03bbfd25e8cd0364142",
                "0x917694f918c547e4f7b0f325ad1e56f57e26c745b09a3e503d86e00e5255ff7f715d3d1c000000000000000000000000000000000000000000000000000000000000001c48b55bfa915ac795c431978d8a6a992b628d557da5ff759b307d495a36649353fffffffffffffffffffffffffffffffebaaedce6af48a03bbfd25e8cd0364140",
                "0x917694f918c547e4f7b0f325ad1e56f57e26c745b09a3e503d86e00e5255ff7f715d3d1c000000000000000000000000000000000000000000000000000000000000001c48b55bfa915ac795c431978d8a6a992b628d557da5ff759b307d495a36649353fffffffffffffffffffffffffffffffebaaedce6af48a03bbfd25e8cd036413f"
            ],
            "gasLimit" : [
                "0xf000000000"
            ],
            "gasPrice" : "0x0a",
            "nonce" : "0x00",
            "secretKey" : "0x45a915e4d060149eb4365960e6a7a45f334393093061116b197e3240065ff2d8",
            "sender" : "0xa94f5374fce5edbc8e2a8697c15331677e6ebf0b",
            "to" : "0xcccccccccccccccccccccccccccccccccccccccc",
            "value" : [
                "0x0186a0"
            ]
        }
    }
}