{
    "CALLCODEBlake2f" : {
        "_info" : {
            "comment" : "",
            "filling-rpc-server" : "evm version 1.14.4-unstable-3d8028a6-20240513",
            "filling-tool-version" : "retesteth-0.3.2-cancun+commit.2ab0208e.Linux.g++",
            "generatedTestHash" : "4c331c4202fb9ecefd5ed1fd3724875bc4cb51c140c660a06dd2c2ebcce7a6c3",
            "lllcversion" : "Version: 0.5.14-develop.2023.7.11+commit.c58ab2c6.mod.Linux.g++",
            "solidity" : "Version: 0.8.21+commit.d9974bed.Linux.g++",
            "source" : "src/GeneralStateTestsFiller/stPreCompiledContracts2/CALLCODEBlake2fFiller.json",
            "sourceHash" : "84cc7920af51711f0d7ffb418a83c246b65415882dea35d937a071d479920502"
        },
        "env" : {
            "currentBaseFee" : "0x0a",
            "currentCoinbase" : "0x2adc25665018aa1fe0e6bc666dac8fc2697ff9ba",
            "currentDifficulty" : "0x020000",
            "currentExcessBlobGas" : "0x00",
            "currentGasLimit" : "0x02540be400",
            "currentNumber" : "0x01",
            "currentRandom" : "0x0000000000000000000000000000000000000000000000000000000000020000",
            "currentTimestamp" : "0x03e8"
        },
        "post" : {
            "Cancun" : [
                {
                    "hash" : "0x04ee742fcb742458e85617872e4bc0315f873d90c7c28f4c75543d61dae15eb2",
                    "indexes" : {
                        "data" : 0,
                        "gas" : 0,
                        "value" : 0
                    },
                    "logs" : "0x1dcc4de8dec75d7aab85b567b6ccd41ad312451b948a7413f0a142fd40d49347",
                    "txbytes" : "0xf861800a8405f5e10094100000000000000000000000000000000000000080801ba07e09e26678ed4fac08a249ebe8ed680bf9051a5e14ad223e4b2b9d26e0208f37a05f6e3f188e3e6eab7d7d3b6568f5eac7d687b08d307d3154ccd8c87b4630509b"
                },
                {
                    "hash" : "0x9fc7a49c67a01bf1a29ac8a889191f86a90101229520376dd480fb49ffdd6eaa",
                    "indexes" : {
                        "data" : 0,
                        "gas" : 1,
                        "value" : 0
                    },
                    "logs" : "0x1dcc4de8dec75d7aab85b567b6ccd41ad312451b948a7413f0a142fd40d49347",
                    "txbytes" : "0xf860800a83015f9094100000000000000000000000000000000000000080801ba08e4a0cda74ce762eac08f0ca1114ea1662e43cab27b0f5dcd28ca558070b52f5a00bab69304d58d5f0ed397377cf8c5d1e79a607db7d5d769fd75ee94da2c2f777"
                },
                {
                    "hash" : "0xd6f38a2683b50ffe311ef2feb497194853880bd22108982b75597997b3c6bb30",
                    "indexes" : {
                        "data" : 0,
                        "gas" : 2,
                        "value" : 0
                    },
                    "logs" : "0x1dcc4de8dec75d7aab85b567b6ccd41ad312451b948a7413f0a142fd40d49347",
                    "txbytes" : "0xf860800a8301adb094100000000000000000000000000000000000000080801ca0017aab04f475db417099cbfc18a200f76fb1af8d637fc48c76cada04c4786e86a00b9ee4c52009e14fb62e530f777379759aa4c0ff7209371f7bcfc39ab0757baa"
                },
                {
                    "hash" : "0x6aebfc05150882fc7b46e5befad12de4732cc67128913b4f956aec6f722b9b34",
                    "indexes" : {
                        "data" : 0,
                        "gas" : 3,
                        "value" : 0
                    },
                    "logs" : "0x1dcc4de8dec75d7aab85b567b6ccd41ad312451b948a7413f0a142fd40d49347",
                    "txbytes" : "0xf860800a83030d4094100000000000000000000000000000000000000080801ca0b2e86d4f4fd29f4efaad2dd067e45cc002004e27d7e5c75cd3c859ee19dee626a0117b51e4e00076021652459cfe176595b8b201c88a07fe7e80904d31763e0061"
                },
                {
                    "hash" : "0x9fc7a49c67a01bf1a29ac8a889191f86a90101229520376dd480fb49ffdd6eaa",
                    "indexes" : {
                        "data" : 1,
                        "gas" : 1,
                        "value" : 0
                    },
                    "logs" : "0x1dcc4de8dec75d7aab85b567b6ccd41ad312451b948a7413f0a142fd40d49347",
                    "txbytes" : "0xf90135800a83015f9094100000000000000000000000000000000000000080b8d400000c48c9bdf267e6096a3ba7ca8485ae67bb2bf894fe72f36e3cf1361d5f3af54fa5d182e6ad7f520e511f6c3e2b8c68059b6bbd41fbabd9831f79217e1319cde05b616263000000000000000000000000000000000000000000000000000000000000000000000000000000000000000000000000000000000000000000000000000000000000000000000000000000000000000000000000000000000000000000000000000000000000000000000000000000000000000000000000000000000003000000000000000000000000000000011ba0edcfec03a296d0e4b446695c96b7065162758cf4155003b286ddb783d2345417a0736de19c148459972995b6a1e10150551277f220241e20c4352c433fdd9472e1"
                },
                {
                    "hash" : "0xd6f38a2683b50ffe311ef2feb497194853880bd22108982b75597997b3c6bb30",
                    "indexes" : {
                        "data" : 1,
                        "gas" : 2,
                        "value" : 0
                    },
                    "logs" : "0x1dcc4de8dec75d7aab85b567b6ccd41ad312451b948a7413f0a142fd40d49347",
                    "txbytes" : "0xf90135800a8301adb094100000000000000000000000000000000000000080b8d400000c48c9bdf267e6096a3ba7ca8485ae67bb2bf894fe72f36e3cf1361d5f3af54fa5d182e6ad7f520e511f6c3e2b8c68059b6bbd41fbabd9831f79217e1319cde05b616263000000000000000000000000000000000000000000000000000000000000000000000000000000000000000000000000000000000000000000000000000000000000000000000000000000000000000000000000000000000000000000000000000000000000000000000000000000000000000000000000000000000003000000000000000000000000000000011ba03974d534e734480e7e1c2fb1dff5492fb2f776c489d583529976a741d5a9d7bca016a0cbdc346e96dcded5509d825762a27768df75c12f7e5ba87a4a95ab33dd40"
                },
                {
                    "hash" : "0x6aebfc05150882fc7b46e5befad12de4732cc67128913b4f956aec6f722b9b34",
                    "indexes" : {
                        "data" : 1,
                        "gas" : 3,
                        "value" : 0
                    },
                    "logs" : "0x1dcc4de8dec75d7aab85b567b6ccd41ad312451b948a7413f0a142fd40d49347",
                    "txbytes" : "0xf90135800a83030d4094100000000000000000000000000000000000000080b8d400000c48c9bdf267e6096a3ba7ca8485ae67bb2bf894fe72f36e3cf1361d5f3af54fa5d182e6ad7f520e511f6c3e2b8c68059b6bbd41fbabd9831f79217e1319cde05b616263000000000000000000000000000000000000000000000000000000000000000000000000000000000000000000000000000000000000000000000000000000000000000000000000000000000000000000000000000000000000000000000000000000000000000000000000000000000000000000000000000000000003000000000000000000000000000000011ba08d084e4250e92f7ef96a7f820fe589a49dd3450081007b4ddf0575f3e6244ecea0454b742a95aea62e582c2df184468987c5d7116285f34ad5591e7322f90a3f8a"
                },
                {
                    "hash" : "0x9fc7a49c67a01bf1a29ac8a889191f86a90101229520376dd480fb49ffdd6eaa",
                    "indexes" : {
                        "data" : 2,
                        "gas" : 1,
                        "value" : 0
                    },
                    "logs" : "0x1dcc4de8dec75d7aab85b567b6ccd41ad312451b948a7413f0a142fd40d49347",
                    "txbytes" : "0xf90137800a83015f9094100000000000000000000000000000000000000080b8d6000000000c48c9bdf267e6096a3ba7ca8485ae67bb2bf894fe72f36e3cf1361d5f3af54fa5d182e6ad7f520e511f6c3e2b8c68059b6bbd41fbabd9831f79217e1319cde05b616263000000000000000000000000000000000000000000000000000000000000000000000000000000000000000000000000000000000000000000000000000000000000000000000000000000000000000000000000000000000000000000000000000000000000000000000000000000000000000000000000000000000003000000000000000000000000000000011ba02929bbc2bb9c6a4ec3373172ff64e8c1472367f8f227df50246efe14c7165104a06c2e1067e4db928b9a51feb66c7b0a6005e49550df491191bd38f184d42bfb37"
                },
                {
                    "hash" : "0xd6f38a2683b50ffe311ef2feb497194853880bd22108982b75597997b3c6bb30",
                    "indexes" : {
                        "data" : 2,
                        "gas" : 2,
                        "value" : 0
                    },
                    "logs" : "0x1dcc4de8dec75d7aab85b567b6ccd41ad312451b948a7413f0a142fd40d49347",
                    "txbytes" : "0xf90137800a8301adb094100000000000000000000000000000000000000080b8d6000000000c48c9bdf267e6096a3ba7ca8485ae67bb2bf894fe72f36e3cf1361d5f3af54fa5d182e6ad7f520e511f6c3e2b8c68059b6bbd41fbabd9831f79217e1319cde05b616263000000000000000000000000000000000000000000000000000000000000000000000000000000000000000000000000000000000000000000000000000000000000000000000000000000000000000000000000000000000000000000000000000000000000000000000000000000000000000000000000000000000003000000000000000000000000000000011ba0bbe6af0ad6722a1349cbb29813cbd3b919e33dd07a8d08bdf4e73a6cc6e0e374a00a3a93be20dc9f3e599dac951bbb6267c1121d22bdaeef66e4e489d9f8bffbf5"
                },
                {
                    "hash" : "0x6aebfc05150882fc7b46e5befad12de4732cc67128913b4f956aec6f722b9b34",
                    "indexes" : {
                        "data" : 2,
                        "gas" : 3,
                        "value" : 0
                    },
                    "logs" : "0x1dcc4de8dec75d7aab85b567b6ccd41ad312451b948a7413f0a142fd40d49347",
                    "txbytes" : "0xf90137800a83030d4094100000000000000000000000000000000000000080b8d6000000000c48c9bdf267e6096a3ba7ca8485ae67bb2bf894fe72f36e3cf1361d5f3af54fa5d182e6ad7f520e511f6c3e2b8c68059b6bbd41fbabd9831f79217e1319cde05b616263000000000000000000000000000000000000000000000000000000000000000000000000000000000000000000000000000000000000000000000000000000000000000000000000000000000000000000000000000000000000000000000000000000000000000000000000000000000000000000000000000000000003000000000000000000000000000000011ca0ffc614f2f8d7be07c418da51ef4a1c9f2dde99936fe7d15b3342b10c4ab25d9da04eb0ea1f61ad0d8ea7f2f52a09f5de8bf47117cc28ac1930f88b9905aaee9cb7"
                },
                {
                    "hash" : "0x9fc7a49c67a01bf1a29ac8a889191f86a90101229520376dd480fb49ffdd6eaa",
                    "indexes" : {
                        "data" : 3,
                        "gas" : 1,
                        "value" : 0
                    },
                    "logs" : "0x1dcc4de8dec75d7aab85b567b6ccd41ad312451b948a7413f0a142fd40d49347",
                    "txbytes" : "0xf90136800a83015f9094100000000000000000000000000000000000000080b8d50000000c48c9bdf267e6096a3ba7ca8485ae67bb2bf894fe72f36e3cf1361d5f3af54fa5d182e6ad7f520e511f6c3e2b8c68059b6bbd41fbabd9831f79217e1319cde05b616263000000000000000000000000000000000000000000000000000000000000000000000000000000000000000000000000000000000000000000000000000000000000000000000000000000000000000000000000000000000000000000000000000000000000000000000000000000000000000000000000000000000003000000000000000000000000000000021ba0e79bf3cd2fb5ce28ada967f9d9c728b1565d28c7b4113e1ddd218b173bcb3b59a030b4758ee9351a60d35529f9db0b8958ea1872f84b9d7235f7761c9a8c78663d"
                },
                {
                    "hash" : "0xd6f38a2683b50ffe311ef2feb497194853880bd22108982b75597997b3c6bb30",
                    "indexes" : {
                        "data" : 3,
                        "gas" : 2,
                        "value" : 0
                    },
                    "logs" : "0x1dcc4de8dec75d7aab85b567b6ccd41ad312451b948a7413f0a142fd40d49347",
                    "txbytes" : "0xf90136800a8301adb094100000000000000000000000000000000000000080b8d50000000c48c9bdf267e6096a3ba7ca8485ae67bb2bf894fe72f36e3cf1361d5f3af54fa5d182e6ad7f520e511f6c3e2b8c68059b6bbd41fbabd9831f79217e1319cde05b616263000000000000000000000000000000000000000000000000000000000000000000000000000000000000000000000000000000000000000000000000000000000000000000000000000000000000000000000000000000000000000000000000000000000000000000000000000000000000000000000000000000000003000000000000000000000000000000021ba01c099ee1dca06fa4a1cde85d8054f316a61c8ab4432e6f1bb169c71d0130f2a1a036e15f53da18f12bb5351a1d4f31acc347a03ed56a0fe1d0da9632b8e769400a"
                },
                {
                    "hash" : "0x6aebfc05150882fc7b46e5befad12de4732cc67128913b4f956aec6f722b9b34",
                    "indexes" : {
                        "data" : 3,
                        "gas" : 3,
                        "value" : 0
                    },
                    "logs" : "0x1dcc4de8dec75d7aab85b567b6ccd41ad312451b948a7413f0a142fd40d49347",
                    "txbytes" : "0xf90136800a83030d4094100000000000000000000000000000000000000080b8d50000000c48c9bdf267e6096a3ba7ca8485ae67bb2bf894fe72f36e3cf1361d5f3af54fa5d182e6ad7f520e511f6c3e2b8c68059b6bbd41fbabd9831f79217e1319cde05b616263000000000000000000000000000000000000000000000000000000000000000000000000000000000000000000000000000000000000000000000000000000000000000000000000000000000000000000000000000000000000000000000000000000000000000000000000000000000000000000000000000000000003000000000000000000000000000000021ba02c2c000a98140e9603ca4ae10a29207d0bc628f7d2a0f2797ccf8599234e0978a02339bd4109724cb4cdf2655abacfdbc2695134f139f3485352a6c08cd1a22a04"
                },
                {
                    "hash" : "0x9fc7a49c67a01bf1a29ac8a889191f86a90101229520376dd480fb49ffdd6eaa",
                    "indexes" : {
                        "data" : 9,
                        "gas" : 1,
                        "value" : 0
                    },
                    "logs" : "0x1dcc4de8dec75d7aab85b567b6ccd41ad312451b948a7413f0a142fd40d49347",
                    "txbytes" : "0xf90136800a83015f9094100000000000000000000000000000000000000080b8d5007a120048c9bdf267e6096a3ba7ca8485ae67bb2bf894fe72f36e3cf1361d5f3af54fa5d182e6ad7f520e511f6c3e2b8c68059b6bbd41fbabd9831f79217e1319cde05b616263000000000000000000000000000000000000000000000000000000000000000000000000000000000000000000000000000000000000000000000000000000000000000000000000000000000000000000000000000000000000000000000000000000000000000000000000000000000000000000000000000000000003000000000000000000000000000000011ca06e2b15982def07a13292b4b9561e361db5c80d7e1d7c126d0b2e0d978fef1327a00c4e6b0a571b210b5b47b55542f5c92649b40be144a111d9a04561d1a5a93e6f"
                },
                {
                    "hash" : "0xd6f38a2683b50ffe311ef2feb497194853880bd22108982b75597997b3c6bb30",
                    "indexes" : {
                        "data" : 9,
                        "gas" : 2,
                        "value" : 0
                    },
                    "logs" : "0x1dcc4de8dec75d7aab85b567b6ccd41ad312451b948a7413f0a142fd40d49347",
                    "txbytes" : "0xf90136800a8301adb094100000000000000000000000000000000000000080b8d5007a120048c9bdf267e6096a3ba7ca8485ae67bb2bf894fe72f36e3cf1361d5f3af54fa5d182e6ad7f520e511f6c3e2b8c68059b6bbd41fbabd9831f79217e1319cde05b616263000000000000000000000000000000000000000000000000000000000000000000000000000000000000000000000000000000000000000000000000000000000000000000000000000000000000000000000000000000000000000000000000000000000000000000000000000000000000000000000000000000000003000000000000000000000000000000011ca0cd806011d841f230cfb4f03f2ab13cde14cf4ba7369d5c1cdf415ed3649d59b4a048696a815919496ca6ff7c3ef0499ebfeb688603e92b8760f7942c56384342ff"
                },
                {
                    "hash" : "0x6aebfc05150882fc7b46e5befad12de4732cc67128913b4f956aec6f722b9b34",
                    "indexes" : {
                        "data" : 9,
                        "gas" : 3,
                        "value" : 0
                    },
                    "logs" : "0x1dcc4de8dec75d7aab85b567b6ccd41ad312451b948a7413f0a142fd40d49347",
                    "txbytes" : "0xf90136800a83030d4094100000000000000000000000000000000000000080b8d5007a120048c9bdf267e6096a3ba7ca8485ae67bb2bf894fe72f36e3cf1361d5f3af54fa5d182e6ad7f520e511f6c3e2b8c68059b6bbd41fbabd9831f79217e1319cde05b616263000000000000000000000000000000000000000000000000000000000000000000000000000000000000000000000000000000000000000000000000000000000000000000000000000000000000000000000000000000000000000000000000000000000000000000000000000000000000000000000000000000000003000000000000000000000000000000011ba0cfdd3f568cf5be5e5476d40986c6fee0f1352826f16a36de56851b0288c5daf3a05e38896b2c7ca8b7f8cca17d13b6f4e762f9cd8348bb398da31e785bce9d6854"
                },
                {
                    "hash" : "0x9fc7a49c67a01bf1a29ac8a889191f86a90101229520376dd480fb49ffdd6eaa",
                    "indexes" : {
                        "data" : 10,
                        "gas" : 1,
                        "value" : 0
                    },
                    "logs" : "0x1dcc4de8dec75d7aab85b567b6ccd41ad312451b948a7413f0a142fd40d49347",
                    "txbytes" : "0xf862800a83015f909410000000000000000000000000000000000000008082000c1ca073759cd590d5f40fc2977729623da23cb3837984c4898793b18d3e8014a5e244a02ce2fe3e004761bff978464866c11d6b31f117c32a0eb8bfa4780d71893000f2"
                },
                {
                    "hash" : "0xd6f38a2683b50ffe311ef2feb497194853880bd22108982b75597997b3c6bb30",
                    "indexes" : {
                        "data" : 10,
                        "gas" : 2,
                        "value" : 0
                    },
                    "logs" : "0x1dcc4de8dec75d7aab85b567b6ccd41ad312451b948a7413f0a142fd40d49347",
                    "txbytes" : "0xf862800a8301adb09410000000000000000000000000000000000000008082000c1ba01c73698c83dace472158ef9a5059c5558d82bd820e6d1387dfbff80011fb5193a00bb4993de1d68cdaf0c338a922341a838078da9a866c0565da6a70186fab6c20"
                },
                {
                    "hash" : "0x6aebfc05150882fc7b46e5befad12de4732cc67128913b4f956aec6f722b9b34",
                    "indexes" : {
                        "data" : 10,
                        "gas" : 3,
                        "value" : 0
                    },
                    "logs" : "0x1dcc4de8dec75d7aab85b567b6ccd41ad312451b948a7413f0a142fd40d49347",
                    "txbytes" : "0xf862800a83030d409410000000000000000000000000000000000000008082000c1ca016817ce326db4901ad0b5aeb8fbb27529f0b544c2449eae1e1d69f59083a5973a03c61eee3aed5cd304fa85a8abc80c98e8f32ebf3853e5ea9d02ed6529a0ccbf4"
                },
                {
                    "hash" : "0x85909e804d74f7df48cf6682bc47316d002c217191d4cd9ae027e54117a107f4",
                    "indexes" : {
                        "data" : 1,
                        "gas" : 0,
                        "value" : 0
                    },
                    "logs" : "0x1dcc4de8dec75d7aab85b567b6ccd41ad312451b948a7413f0a142fd40d49347",
                    "txbytes" : "0xf90136800a8405f5e10094100000000000000000000000000000000000000080b8d400000c48c9bdf267e6096a3ba7ca8485ae67bb2bf894fe72f36e3cf1361d5f3af54fa5d182e6ad7f520e511f6c3e2b8c68059b6bbd41fbabd9831f79217e1319cde05b616263000000000000000000000000000000000000000000000000000000000000000000000000000000000000000000000000000000000000000000000000000000000000000000000000000000000000000000000000000000000000000000000000000000000000000000000000000000000000000000000000000000000003000000000000000000000000000000011ca0772e35375ec94bc392ab85a15b6b3dc797b67671f6edbf1c0ed396ea3d174965a049a8d73c30a7a79d0b7ad3843627c9d83f6a860e002de1b4854b872f1d844c52"
                },
                {
                    "hash" : "0x85909e804d74f7df48cf6682bc47316d002c217191d4cd9ae027e54117a107f4",
                    "indexes" : {
                        "data" : 2,
                        "gas" : 0,
                        "value" : 0
                    },
                    "logs" : "0x1dcc4de8dec75d7aab85b567b6ccd41ad312451b948a7413f0a142fd40d49347",
                    "txbytes" : "0xf90138800a8405f5e10094100000000000000000000000000000000000000080b8d6000000000c48c9bdf267e6096a3ba7ca8485ae67bb2bf894fe72f36e3cf1361d5f3af54fa5d182e6ad7f520e511f6c3e2b8c68059b6bbd41fbabd9831f79217e1319cde05b616263000000000000000000000000000000000000000000000000000000000000000000000000000000000000000000000000000000000000000000000000000000000000000000000000000000000000000000000000000000000000000000000000000000000000000000000000000000000000000000000000000000000003000000000000000000000000000000011ca00bcf9653663871c42dc2ee77c2fe6ac702d2089ac95069b07753079d6bfca838a03f22e0ab63bc0cb7b212c2db3cc38e06e02c13a1c96c42ceb1f18d7d9a5c717d"
                },
                {
                    "hash" : "0x85909e804d74f7df48cf6682bc47316d002c217191d4cd9ae027e54117a107f4",
                    "indexes" : {
                        "data" : 3,
                        "gas" : 0,
                        "value" : 0
                    },
                    "logs" : "0x1dcc4de8dec75d7aab85b567b6ccd41ad312451b948a7413f0a142fd40d49347",
                    "txbytes" : "0xf90137800a8405f5e10094100000000000000000000000000000000000000080b8d50000000c48c9bdf267e6096a3ba7ca8485ae67bb2bf894fe72f36e3cf1361d5f3af54fa5d182e6ad7f520e511f6c3e2b8c68059b6bbd41fbabd9831f79217e1319cde05b616263000000000000000000000000000000000000000000000000000000000000000000000000000000000000000000000000000000000000000000000000000000000000000000000000000000000000000000000000000000000000000000000000000000000000000000000000000000000000000000000000000000000003000000000000000000000000000000021ba088d8dcc5cd2d1b6062815fce998030f4cd009c45a93253a450d56bc7e6189e75a0617e846a07314d6e225c60e2aeae5dc1d000aec021ecb3d9a01db8911a534c9c"
                },
                {
                    "hash" : "0x5cfdb1dd0a6d62fbc5fd2304cb938ce17b427c4f83b8cc00d02a40aa82551854",
                    "indexes" : {
                        "data" : 4,
                        "gas" : 0,
                        "value" : 0
                    },
                    "logs" : "0x1dcc4de8dec75d7aab85b567b6ccd41ad312451b948a7413f0a142fd40d49347",
                    "txbytes" : "0xf90137800a8405f5e10094100000000000000000000000000000000000000080b8d50000000048c9bdf267e6096a3ba7ca8485ae67bb2bf894fe72f36e3cf1361d5f3af54fa5d182e6ad7f520e511f6c3e2b8c68059b6bbd41fbabd9831f79217e1319cde05b616263000000000000000000000000000000000000000000000000000000000000000000000000000000000000000000000000000000000000000000000000000000000000000000000000000000000000000000000000000000000000000000000000000000000000000000000000000000000000000000000000000000000003000000000000000000000000000000011ca09ed1c8e0814c3cc6aa8e80d49e5da97432c2c3868187362a00dd132cb87e9d83a012f11dee71e493f6c63f69488027f5a3ac2ca6d31c6460a28efebf9a238f66b2"
                },
                {
                    "hash" : "0x5cfdb1dd0a6d62fbc5fd2304cb938ce17b427c4f83b8cc00d02a40aa82551854",
                    "indexes" : {
                        "data" : 4,
                        "gas" : 1,
                        "value" : 0
                    },
                    "logs" : "0x1dcc4de8dec75d7aab85b567b6ccd41ad312451b948a7413f0a142fd40d49347",
                    "txbytes" : "0xf90136800a83015f9094100000000000000000000000000000000000000080b8d50000000048c9bdf267e6096a3ba7ca8485ae67bb2bf894fe72f36e3cf1361d5f3af54fa5d182e6ad7f520e511f6c3e2b8c68059b6bbd41fbabd9831f79217e1319cde05b616263000000000000000000000000000000000000000000000000000000000000000000000000000000000000000000000000000000000000000000000000000000000000000000000000000000000000000000000000000000000000000000000000000000000000000000000000000000000000000000000000000000000003000000000000000000000000000000011ca0f3210d8332478e6ab8cdccbd05a8cd690b1c90fc4299b30a4d287128be077860a01d93e79fd08559d0e816ddbae5399577a64b3d0d9244a65be369fc0ff1bb399f"
                },
                {
                    "hash" : "0x5cfdb1dd0a6d62fbc5fd2304cb938ce17b427c4f83b8cc00d02a40aa82551854",
                    "indexes" : {
                        "data" : 4,
                        "gas" : 2,
                        "value" : 0
                    },
                    "logs" : "0x1dcc4de8dec75d7aab85b567b6ccd41ad312451b948a7413f0a142fd40d49347",
                    "txbytes" : "0xf90136800a8301adb094100000000000000000000000000000000000000080b8d50000000048c9bdf267e6096a3ba7ca8485ae67bb2bf894fe72f36e3cf1361d5f3af54fa5d182e6ad7f520e511f6c3e2b8c68059b6bbd41fbabd9831f79217e1319cde05b616263000000000000000000000000000000000000000000000000000000000000000000000000000000000000000000000000000000000000000000000000000000000000000000000000000000000000000000000000000000000000000000000000000000000000000000000000000000000000000000000000000000000003000000000000000000000000000000011ca0d48c01d84353be9c71decbc18d9dca140b9ca0a06b2260dea297e3938a8a5368a03bb1971e9da4db5ca4275abdd5a0f897198ac20e55ceef363ecfd391bba6eee4"
                },
                {
                    "hash" : "0x5cfdb1dd0a6d62fbc5fd2304cb938ce17b427c4f83b8cc00d02a40aa82551854",
                    "indexes" : {
                        "data" : 4,
                        "gas" : 3,
                        "value" : 0
                    },
                    "logs" : "0x1dcc4de8dec75d7aab85b567b6ccd41ad312451b948a7413f0a142fd40d49347",
                    "txbytes" : "0xf90136800a83030d4094100000000000000000000000000000000000000080b8d50000000048c9bdf267e6096a3ba7ca8485ae67bb2bf894fe72f36e3cf1361d5f3af54fa5d182e6ad7f520e511f6c3e2b8c68059b6bbd41fbabd9831f79217e1319cde05b616263000000000000000000000000000000000000000000000000000000000000000000000000000000000000000000000000000000000000000000000000000000000000000000000000000000000000000000000000000000000000000000000000000000000000000000000000000000000000000000000000000000000003000000000000000000000000000000011ca009c2bed9f41da855775ee7620777f84fa61515410d83bd644f46ae8095aeab0aa05bb1f243275b2f098da04baec9707e4216fc97f1b3f2200d1e380af541964cb9"
                },
                {
                    "hash" : "0x6bdbce3973fb1f28b6025057657eb85aedf05a4b5cf9bc462d25fed06b8641b4",
                    "indexes" : {
                        "data" : 5,
                        "gas" : 0,
                        "value" : 0
                    },
                    "logs" : "0x1dcc4de8dec75d7aab85b567b6ccd41ad312451b948a7413f0a142fd40d49347",
                    "txbytes" : "0xf90137800a8405f5e10094100000000000000000000000000000000000000080b8d50000000c48c9bdf267e6096a3ba7ca8485ae67bb2bf894fe72f36e3cf1361d5f3af54fa5d182e6ad7f520e511f6c3e2b8c68059b6bbd41fbabd9831f79217e1319cde05b616263000000000000000000000000000000000000000000000000000000000000000000000000000000000000000000000000000000000000000000000000000000000000000000000000000000000000000000000000000000000000000000000000000000000000000000000000000000000000000000000000000000000003000000000000000000000000000000011ba0d70d0c78f6b04d627b7dd22cc86efe018ff994c681cbab4aac1277de5a77cc95a018fb482463643c1fd043b7d0e614d94ed94e1371ec67c2574fc60b50c2e3f0d2"
                },
                {
                    "hash" : "0x6bdbce3973fb1f28b6025057657eb85aedf05a4b5cf9bc462d25fed06b8641b4",
                    "indexes" : {
                        "data" : 5,
                        "gas" : 1,
                        "value" : 0
                    },
                    "logs" : "0x1dcc4de8dec75d7aab85b567b6ccd41ad312451b948a7413f0a142fd40d49347",
                    "txbytes" : "0xf90136800a83015f9094100000000000000000000000000000000000000080b8d50000000c48c9bdf267e6096a3ba7ca8485ae67bb2bf894fe72f36e3cf1361d5f3af54fa5d182e6ad7f520e511f6c3e2b8c68059b6bbd41fbabd9831f79217e1319cde05b616263000000000000000000000000000000000000000000000000000000000000000000000000000000000000000000000000000000000000000000000000000000000000000000000000000000000000000000000000000000000000000000000000000000000000000000000000000000000000000000000000000000000003000000000000000000000000000000011ba07df714fd8f916b2e2de037c4ebe5e131183c7fb375673eb42594561afa1afa04a00765d111c9038aab4515901ef9d8da8f350edb4d5968f14687922062d40c212c"
                },
                {
                    "hash" : "0x6bdbce3973fb1f28b6025057657eb85aedf05a4b5cf9bc462d25fed06b8641b4",
                    "indexes" : {
                        "data" : 5,
                        "gas" : 2,
                        "value" : 0
                    },
                    "logs" : "0x1dcc4de8dec75d7aab85b567b6ccd41ad312451b948a7413f0a142fd40d49347",
                    "txbytes" : "0xf90136800a8301adb094100000000000000000000000000000000000000080b8d50000000c48c9bdf267e6096a3ba7ca8485ae67bb2bf894fe72f36e3cf1361d5f3af54fa5d182e6ad7f520e511f6c3e2b8c68059b6bbd41fbabd9831f79217e1319cde05b616263000000000000000000000000000000000000000000000000000000000000000000000000000000000000000000000000000000000000000000000000000000000000000000000000000000000000000000000000000000000000000000000000000000000000000000000000000000000000000000000000000000000003000000000000000000000000000000011ca07d7b055dee41150b5bb42c6d56594e55c9a74e973a1ba537e0cf9c7de9b8a6a5a00bbb27228fb31cf015a731779bddc6ef8cf9fabba005e1523335911b4866e652"
                },
                {
                    "hash" : "0x6bdbce3973fb1f28b6025057657eb85aedf05a4b5cf9bc462d25fed06b8641b4",
                    "indexes" : {
                        "data" : 5,
                        "gas" : 3,
                        "value" : 0
                    },
                    "logs" : "0x1dcc4de8dec75d7aab85b567b6ccd41ad312451b948a7413f0a142fd40d49347",
                    "txbytes" : "0xf90136800a83030d4094100000000000000000000000000000000000000080b8d50000000c48c9bdf267e6096a3ba7ca8485ae67bb2bf894fe72f36e3cf1361d5f3af54fa5d182e6ad7f520e511f6c3e2b8c68059b6bbd41fbabd9831f79217e1319cde05b616263000000000000000000000000000000000000000000000000000000000000000000000000000000000000000000000000000000000000000000000000000000000000000000000000000000000000000000000000000000000000000000000000000000000000000000000000000000000000000000000000000000000003000000000000000000000000000000011ca08049580fac4105eca79329d86e9df4473b3dedd503a2b5286fdc17230b1b58efa04b8f07776bcbe69aa263eaa455e01c6edb5cad751d8440202a8f115cd9b01a03"
                },
                {
                    "hash" : "0x661de02565ccef002268894749c60c19101ac933c739127a676b901b53e2aafb",
                    "indexes" : {
                        "data" : 6,
                        "gas" : 0,
                        "value" : 0
                    },
                    "logs" : "0x1dcc4de8dec75d7aab85b567b6ccd41ad312451b948a7413f0a142fd40d49347",
                    "txbytes" : "0xf90137800a8405f5e10094100000000000000000000000000000000000000080b8d50000000c48c9bdf267e6096a3ba7ca8485ae67bb2bf894fe72f36e3cf1361d5f3af54fa5d182e6ad7f520e511f6c3e2b8c68059b6bbd41fbabd9831f79217e1319cde05b616263000000000000000000000000000000000000000000000000000000000000000000000000000000000000000000000000000000000000000000000000000000000000000000000000000000000000000000000000000000000000000000000000000000000000000000000000000000000000000000000000000000000003000000000000000000000000000000001ba0e65a4e340e84644c08873459a51dc78f1104cb121b09ea1b54d9301ec87997c9a064156341b7e531b6800b7b226d9e33921ad2a2da7eb6ee33b7c52c9cb0c65943"
                },
                {
                    "hash" : "0x661de02565ccef002268894749c60c19101ac933c739127a676b901b53e2aafb",
                    "indexes" : {
                        "data" : 6,
                        "gas" : 1,
                        "value" : 0
                    },
                    "logs" : "0x1dcc4de8dec75d7aab85b567b6ccd41ad312451b948a7413f0a142fd40d49347",
                    "txbytes" : "0xf90136800a83015f9094100000000000000000000000000000000000000080b8d50000000c48c9bdf267e6096a3ba7ca8485ae67bb2bf894fe72f36e3cf1361d5f3af54fa5d182e6ad7f520e511f6c3e2b8c68059b6bbd41fbabd9831f79217e1319cde05b616263000000000000000000000000000000000000000000000000000000000000000000000000000000000000000000000000000000000000000000000000000000000000000000000000000000000000000000000000000000000000000000000000000000000000000000000000000000000000000000000000000000000003000000000000000000000000000000001ba0abea1c743255761171e9b86bb318b1b1cfb241aff595fbff5819e7127146b9a8a0364bcdc71ae55e3082cd5ba516b995f4f8bcebde2c57a6b4bb1add2d71873caa"
                },
                {
                    "hash" : "0x661de02565ccef002268894749c60c19101ac933c739127a676b901b53e2aafb",
                    "indexes" : {
                        "data" : 6,
                        "gas" : 2,
                        "value" : 0
                    },
                    "logs" : "0x1dcc4de8dec75d7aab85b567b6ccd41ad312451b948a7413f0a142fd40d49347",
                    "txbytes" : "0xf90136800a8301adb094100000000000000000000000000000000000000080b8d50000000c48c9bdf267e6096a3ba7ca8485ae67bb2bf894fe72f36e3cf1361d5f3af54fa5d182e6ad7f520e511f6c3e2b8c68059b6bbd41fbabd9831f79217e1319cde05b616263000000000000000000000000000000000000000000000000000000000000000000000000000000000000000000000000000000000000000000000000000000000000000000000000000000000000000000000000000000000000000000000000000000000000000000000000000000000000000000000000000000000003000000000000000000000000000000001ba0174a533497f753c0972d33225d6a51d18451741e77c05f4cb913768c8d0cf81aa043057ea7669c5ec9295596f24c3f792d941367f81d6850acad64e8236ada9e51"
                },
                {
                    "hash" : "0x661de02565ccef002268894749c60c19101ac933c739127a676b901b53e2aafb",
                    "indexes" : {
                        "data" : 6,
                        "gas" : 3,
                        "value" : 0
                    },
                    "logs" : "0x1dcc4de8dec75d7aab85b567b6ccd41ad312451b948a7413f0a142fd40d49347",
                    "txbytes" : "0xf90136800a83030d4094100000000000000000000000000000000000000080b8d50000000c48c9bdf267e6096a3ba7ca8485ae67bb2bf894fe72f36e3cf1361d5f3af54fa5d182e6ad7f520e511f6c3e2b8c68059b6bbd41fbabd9831f79217e1319cde05b616263000000000000000000000000000000000000000000000000000000000000000000000000000000000000000000000000000000000000000000000000000000000000000000000000000000000000000000000000000000000000000000000000000000000000000000000000000000000000000000000000000000000003000000000000000000000000000000001ba02430dd3ab110d2a7eb53e45a387a29dd9ec7a01e1de3419776230c5cd908b06da0412ca11818919a86a4ca9054e8bc7291228702762fbf1357137743c0a582b196"
                },
                {
                    "hash" : "0xc651408ba340c43ee65f2faebcd74eac1da304a17f74d53639ad086a989ba8c2",
                    "indexes" : {
                        "data" : 7,
                        "gas" : 0,
                        "value" : 0
                    },
                    "logs" : "0x1dcc4de8dec75d7aab85b567b6ccd41ad312451b948a7413f0a142fd40d49347",
                    "txbytes" : "0xf90137800a8405f5e10094100000000000000000000000000000000000000080b8d50000000148c9bdf267e6096a3ba7ca8485ae67bb2bf894fe72f36e3cf1361d5f3af54fa5d182e6ad7f520e511f6c3e2b8c68059b6bbd41fbabd9831f79217e1319cde05b616263000000000000000000000000000000000000000000000000000000000000000000000000000000000000000000000000000000000000000000000000000000000000000000000000000000000000000000000000000000000000000000000000000000000000000000000000000000000000000000000000000000000003000000000000000000000000000000011ba0fd290cfb022f42a5e73cee0ef6ede75fb3fcbc64c6e63d86d38a24cb826312cea04d8347c637c75010f0892b7b135f13f83eb13ed6d3f9d5fb245e8f221d6bd200"
                },
                {
                    "hash" : "0xc651408ba340c43ee65f2faebcd74eac1da304a17f74d53639ad086a989ba8c2",
                    "indexes" : {
                        "data" : 7,
                        "gas" : 1,
                        "value" : 0
                    },
                    "logs" : "0x1dcc4de8dec75d7aab85b567b6ccd41ad312451b948a7413f0a142fd40d49347",
                    "txbytes" : "0xf90136800a83015f9094100000000000000000000000000000000000000080b8d50000000148c9bdf267e6096a3ba7ca8485ae67bb2bf894fe72f36e3cf1361d5f3af54fa5d182e6ad7f520e511f6c3e2b8c68059b6bbd41fbabd9831f79217e1319cde05b616263000000000000000000000000000000000000000000000000000000000000000000000000000000000000000000000000000000000000000000000000000000000000000000000000000000000000000000000000000000000000000000000000000000000000000000000000000000000000000000000000000000000003000000000000000000000000000000011ba0f7693cd86e92e62afbfbb8331243336461c0c40912afdeef43ca1d9e7db7ba58a056bef811513133ed13c5e57d0cbf35c5d5140fe98febbf056b272c528471ef1c"
                },
                {
                    "hash" : "0xc651408ba340c43ee65f2faebcd74eac1da304a17f74d53639ad086a989ba8c2",
                    "indexes" : {
                        "data" : 7,
                        "gas" : 2,
                        "value" : 0
                    },
                    "logs" : "0x1dcc4de8dec75d7aab85b567b6ccd41ad312451b948a7413f0a142fd40d49347",
                    "txbytes" : "0xf90136800a8301adb094100000000000000000000000000000000000000080b8d50000000148c9bdf267e6096a3ba7ca8485ae67bb2bf894fe72f36e3cf1361d5f3af54fa5d182e6ad7f520e511f6c3e2b8c68059b6bbd41fbabd9831f79217e1319cde05b616263000000000000000000000000000000000000000000000000000000000000000000000000000000000000000000000000000000000000000000000000000000000000000000000000000000000000000000000000000000000000000000000000000000000000000000000000000000000000000000000000000000000003000000000000000000000000000000011ca0a54ffbc4b90ffd1f0acad021b33d5338c4c39220870ebd2ce86580683791362aa02ef3012bf1413cabd7ca6175c71e0ecba770518718658a392a28cccb04db7032"
                },
                {
                    "hash" : "0xc651408ba340c43ee65f2faebcd74eac1da304a17f74d53639ad086a989ba8c2",
                    "indexes" : {
                        "data" : 7,
                        "gas" : 3,
                        "value" : 0
                    },
                    "logs" : "0x1dcc4de8dec75d7aab85b567b6ccd41ad312451b948a7413f0a142fd40d49347",
                    "txbytes" : "0xf90136800a83030d4094100000000000000000000000000000000000000080b8d50000000148c9bdf267e6096a3ba7ca8485ae67bb2bf894fe72f36e3cf1361d5f3af54fa5d182e6ad7f520e511f6c3e2b8c68059b6bbd41fbabd9831f79217e1319cde05b616263000000000000000000000000000000000000000000000000000000000000000000000000000000000000000000000000000000000000000000000000000000000000000000000000000000000000000000000000000000000000000000000000000000000000000000000000000000000000000000000000000000000003000000000000000000000000000000011ca0a565e78af7b3f80e871b3a31200f93c9d5e8121f28693faa5830f776534a5bf9a04410374759fb8f5e89b1f4d06a09b37d8b076b7b867e238342b227628f046a2b"
                },
                {
                    "hash" : "0x2aea1ae987761f4c75b141b27e0b06cad07a2431e85514f6d73b353e175ed72e",
                    "indexes" : {
                        "data" : 8,
                        "gas" : 0,
                        "value" : 0
                    },
                    "logs" : "0x1dcc4de8dec75d7aab85b567b6ccd41ad312451b948a7413f0a142fd40d49347",
                    "txbytes" : "0xf90137800a8405f5e10094100000000000000000000000000000000000000080b8d50000000000000000000000000000000000000000000000000000000000000000000000000000000000000000000000000000000000000000000000000000000000000000000000000000000000000000000000000000000000000000000000000000000000000000000000000000000000000000000000000000000000000000000000000000000000000000000000000000000000000000000000000000000000000000000000000000000000000000000000000000000000000000000000000000000000000000000000000000000000000000001ba078913b60011d8a7840672583dc7ebf9e12ae197bf8ef05982f5878ee86df81bba01de1d33546151aaef6e7ba3b03515ac22b26ff94a2c69558e0008fec624cd606"
                },
                {
                    "hash" : "0x2aea1ae987761f4c75b141b27e0b06cad07a2431e85514f6d73b353e175ed72e",
                    "indexes" : {
                        "data" : 8,
                        "gas" : 1,
                        "value" : 0
                    },
                    "logs" : "0x1dcc4de8dec75d7aab85b567b6ccd41ad312451b948a7413f0a142fd40d49347",
                    "txbytes" : "0xf90136800a83015f9094100000000000000000000000000000000000000080b8d50000000000000000000000000000000000000000000000000000000000000000000000000000000000000000000000000000000000000000000000000000000000000000000000000000000000000000000000000000000000000000000000000000000000000000000000000000000000000000000000000000000000000000000000000000000000000000000000000000000000000000000000000000000000000000000000000000000000000000000000000000000000000000000000000000000000000000000000000000000000000000001ca085e4ce309e58a1879e30463463515fa24c8cdfa1035394ac3bba5ee5c95840a6a06ddc125843e8ed6844af92f1a06a6e7facd81357f7c9874c029f0fe23cf41862"
                },
                {
                    "hash" : "0x2aea1ae987761f4c75b141b27e0b06cad07a2431e85514f6d73b353e175ed72e",
                    "indexes" : {
                        "data" : 8,
                        "gas" : 2,
                        "value" : 0
                    },
                    "logs" : "0x1dcc4de8dec75d7aab85b567b6ccd41ad312451b948a7413f0a142fd40d49347",
                    "txbytes" : "0xf90136800a8301adb094100000000000000000000000000000000000000080b8d50000000000000000000000000000000000000000000000000000000000000000000000000000000000000000000000000000000000000000000000000000000000000000000000000000000000000000000000000000000000000000000000000000000000000000000000000000000000000000000000000000000000000000000000000000000000000000000000000000000000000000000000000000000000000000000000000000000000000000000000000000000000000000000000000000000000000000000000000000000000000000001ba0e1fdf997fdf8e428cf8f1cddb3d44647ffe02af0af22a2ed7cdd65f808889ea9a0028e3c310bd7d6f053ee60f01d47e0e57c99460a1b08d86aa184e6f5c5bcf5c4"
                },
                {
                    "hash" : "0x2aea1ae987761f4c75b141b27e0b06cad07a2431e85514f6d73b353e175ed72e",
                    "indexes" : {
                        "data" : 8,
                        "gas" : 3,
                        "value" : 0
                    },
                    "logs" : "0x1dcc4de8dec75d7aab85b567b6ccd41ad312451b948a7413f0a142fd40d49347",
                    "txbytes" : "0xf90136800a83030d4094100000000000000000000000000000000000000080b8d50000000000000000000000000000000000000000000000000000000000000000000000000000000000000000000000000000000000000000000000000000000000000000000000000000000000000000000000000000000000000000000000000000000000000000000000000000000000000000000000000000000000000000000000000000000000000000000000000000000000000000000000000000000000000000000000000000000000000000000000000000000000000000000000000000000000000000000000000000000000000000001ca09273bef2c930c76d8750d9cfbdc6a726d1b252155eafcc86ecde9e843b0f2d23a0040b3bf7f49b384d42c426fec3e341c8e162963877af1312c1f65b5d82ab9314"
                },
                {
                    "hash" : "0xe305879e3ffecc511af9d34875ddf36524383fe457eb2a46790fa0a1deba5fad",
                    "indexes" : {
                        "data" : 9,
                        "gas" : 0,
                        "value" : 0
                    },
                    "logs" : "0x1dcc4de8dec75d7aab85b567b6ccd41ad312451b948a7413f0a142fd40d49347",
                    "txbytes" : "0xf90137800a8405f5e10094100000000000000000000000000000000000000080b8d5007a120048c9bdf267e6096a3ba7ca8485ae67bb2bf894fe72f36e3cf1361d5f3af54fa5d182e6ad7f520e511f6c3e2b8c68059b6bbd41fbabd9831f79217e1319cde05b616263000000000000000000000000000000000000000000000000000000000000000000000000000000000000000000000000000000000000000000000000000000000000000000000000000000000000000000000000000000000000000000000000000000000000000000000000000000000000000000000000000000000003000000000000000000000000000000011ba0b1ff23fca807f5b7e5d55765298b0e1f60a60531c2008414b91ed0438025f59aa07d167328e6cbebaae564e46d746f0f3f356334882f9ba0777a6641ae77128fd2"
                },
                {
                    "hash" : "0x7fee9028ece1c068f702a5dac27cade9c0287192855892c37bebdc0bbcaee9eb",
                    "indexes" : {
                        "data" : 10,
                        "gas" : 0,
                        "value" : 0
                    },
                    "logs" : "0x1dcc4de8dec75d7aab85b567b6ccd41ad312451b948a7413f0a142fd40d49347",
                    "txbytes" : "0xf863800a8405f5e1009410000000000000000000000000000000000000008082000c1ba0953abcf3c35c1a4f8a04caebda6682c4e598401c650d6bef720000dc2105d60ea01ce3068fd6218b93a0f8f30a0ea2f0902e14df3e3c5a0221b21bde28edf7ddde"
                }
            ]
        },
        "pre" : {
            "0x1000000000000000000000000000000000000000" : {
                "balance" : "0x00",
                "code" : "0x36600060003760406103e8366000600060095af26001556103e8516002556104085160035500",
                "nonce" : "0x00",
                "storage" : {
                }
            },
            "0xa94f5374fce5edbc8e2a8697c15331677e6ebf0b" : {
                "balance" : "0x3635c9adc5dea00000",
                "code" : "0x",
                "nonce" : "0x00",
                "storage" : {
                }
            }
        },
        "transaction" : {
            "data" : [
                "0x",
                "0x00000c48c9bdf267e6096a3ba7ca8485ae67bb2bf894fe72f36e3cf1361d5f3af54fa5d182e6ad7f520e511f6c3e2b8c68059b6bbd41fbabd9831f79217e1319cde05b61626300000000000000000000000000000000000000000000000000000000000000000000000000000000000000000000000000000000000000000000000000000000000000000000000000000000000000000000000000000000000000000000000000000000000000000000000000000000000000000000000000000000000300000000000000000000000000000001",
                "0x000000000c48c9bdf267e6096a3ba7ca8485ae67bb2bf894fe72f36e3cf1361d5f3af54fa5d182e6ad7f520e511f6c3e2b8c68059b6bbd41fbabd9831f79217e1319cde05b61626300000000000000000000000000000000000000000000000000000000000000000000000000000000000000000000000000000000000000000000000000000000000000000000000000000000000000000000000000000000000000000000000000000000000000000000000000000000000000000000000000000000000300000000000000000000000000000001",
                "0x0000000c48c9bdf267e6096a3ba7ca8485ae67bb2bf894fe72f36e3cf1361d5f3af54fa5d182e6ad7f520e511f6c3e2b8c68059b6bbd41fbabd9831f79217e1319cde05b61626300000000000000000000000000000000000000000000000000000000000000000000000000000000000000000000000000000000000000000000000000000000000000000000000000000000000000000000000000000000000000000000000000000000000000000000000000000000000000000000000000000000000300000000000000000000000000000002",
                "0x0000000048c9bdf267e6096a3ba7ca8485ae67bb2bf894fe72f36e3cf1361d5f3af54fa5d182e6ad7f520e511f6c3e2b8c68059b6bbd41fbabd9831f79217e1319cde05b61626300000000000000000000000000000000000000000000000000000000000000000000000000000000000000000000000000000000000000000000000000000000000000000000000000000000000000000000000000000000000000000000000000000000000000000000000000000000000000000000000000000000000300000000000000000000000000000001",
                "0x0000000c48c9bdf267e6096a3ba7ca8485ae67bb2bf894fe72f36e3cf1361d5f3af54fa5d182e6ad7f520e511f6c3e2b8c68059b6bbd41fbabd9831f79217e1319cde05b61626300000000000000000000000000000000000000000000000000000000000000000000000000000000000000000000000000000000000000000000000000000000000000000000000000000000000000000000000000000000000000000000000000000000000000000000000000000000000000000000000000000000000300000000000000000000000000000001",
                "0x0000000c48c9bdf267e6096a3ba7ca8485ae67bb2bf894fe72f36e3cf1361d5f3af54fa5d182e6ad7f520e511f6c3e2b8c68059b6bbd41fbabd9831f79217e1319cde05b61626300000000000000000000000000000000000000000000000000000000000000000000000000000000000000000000000000000000000000000000000000000000000000000000000000000000000000000000000000000000000000000000000000000000000000000000000000000000000000000000000000000000000300000000000000000000000000000000",
                "0x0000000148c9bdf267e6096a3ba7ca8485ae67bb2bf894fe72f36e3cf1361d5f3af54fa5d182e6ad7f520e511f6c3e2b8c68059b6bbd41fbabd9831f79217e1319cde05b61626300000000000000000000000000000000000000000000000000000000000000000000000000000000000000000000000000000000000000000000000000000000000000000000000000000000000000000000000000000000000000000000000000000000000000000000000000000000000000000000000000000000000300000000000000000000000000000001",
                "0x000000000000000000000000000000000000000000000000000000000000000000000000000000000000000000000000000000000000000000000000000000000000000000000000000000000000000000000000000000000000000000000000000000000000000000000000000000000000000000000000000000000000000000000000000000000000000000000000000000000000000000000000000000000000000000000000000000000000000000000000000000000000000000000000000000000000000000000000000000000000000000",
                "0x007a120048c9bdf267e6096a3ba7ca8485ae67bb2bf894fe72f36e3cf1361d5f3af54fa5d182e6ad7f520e511f6c3e2b8c68059b6bbd41fbabd9831f79217e1319cde05b61626300000000000000000000000000000000000000000000000000000000000000000000000000000000000000000000000000000000000000000000000000000000000000000000000000000000000000000000000000000000000000000000000000000000000000000000000000000000000000000000000000000000000300000000000000000000000000000001",
                "0x000c"
            ],
            "gasLimit" : [
                "0x05f5e100",
                "0x015f90",
                "0x01adb0",
                "0x030d40"
            ],
            "gasPrice" : "0x0a",
            "nonce" : "0x00",
            "secretKey" : "0x45a915e4d060149eb4365960e6a7a45f334393093061116b197e3240065ff2d8",
            "sender" : "0xa94f5374fce5edbc8e2a8697c15331677e6ebf0b",
            "to" : "0x1000000000000000000000000000000000000000",
            "value" : [
                "0x00"
            ]
        }
    }
}