{
    "Transaction64Rule_integerBoundaries" : {
        "_info" : {
            "comment" : "Danno Ferrin danno.ferrin@gmail.com",
            "filling-rpc-server" : "evm version 1.14.4-unstable-3d8028a6-20240513",
            "filling-tool-version" : "retesteth-0.3.2-cancun+commit.2ab0208e.Linux.g++",
            "generatedTestHash" : "27db0646625fc4953608b73621ab125fe288489e1d6f8eadc4206693ec3b714d",
            "labels" : {
                "0" : "int8",
                "1" : "uint8",
                "10" : "int256",
                "11" : "uint256",
                "2" : "int16",
                "3" : "uint16",
                "4" : "int32",
                "5" : "uint32",
                "6" : "int64",
                "7" : "uint64",
                "8" : "int128",
                "9" : "uint128"
            },
            "lllcversion" : "Version: 0.5.14-develop.2023.7.11+commit.c58ab2c6.mod.Linux.g++",
            "solidity" : "Version: 0.8.21+commit.d9974bed.Linux.g++",
            "source" : "src/GeneralStateTestsFiller/stEIP150Specific/Transaction64Rule_integerBoundariesFiller.yml",
            "sourceHash" : "bef83b4564c86cd350a8f62cb3f3f5ff2b82e5589405a8ac2b99c82e27fa2dbf"
        },
        "env" : {
            "currentBaseFee" : "0x0a",
            "currentCoinbase" : "0x2adc25665018aa1fe0e6bc666dac8fc2697ff9ba",
            "currentDifficulty" : "0x020000",
            "currentExcessBlobGas" : "0x00",
            "currentGasLimit" : "0x05f5e100",
            "currentNumber" : "0x01",
            "currentRandom" : "0x0000000000000000000000000000000000000000000000000000000000020000",
            "currentTimestamp" : "0x03e8"
        },
        "post" : {
            "Cancun" : [
                {
                    "hash" : "0xff81f5707d11e1c784be3fea240daf4bb417f5ad2a4c9428acfff3cb0e342cc3",
                    "indexes" : {
                        "data" : 0,
                        "gas" : 0,
                        "value" : 0
                    },
                    "logs" : "0x1dcc4de8dec75d7aab85b567b6ccd41ad312451b948a7413f0a142fd40d49347",
                    "txbytes" : "0xf880800a830c350094000000000000000000000000000000000000c0de80a0000000000000000000000000000000000000000000000000000000000000007f1ca0df3591eeada7e5ac983b28f877101d9a46cf2c5c8777587070b8e4620d8aa0dca012a070f7870e0f3746cbf47aa3cdb80bc72e5c5a357d6016739e64534dc51d7d"
                },
                {
                    "hash" : "0xff81f5707d11e1c784be3fea240daf4bb417f5ad2a4c9428acfff3cb0e342cc3",
                    "indexes" : {
                        "data" : 1,
                        "gas" : 0,
                        "value" : 0
                    },
                    "logs" : "0x1dcc4de8dec75d7aab85b567b6ccd41ad312451b948a7413f0a142fd40d49347",
                    "txbytes" : "0xf880800a830c350094000000000000000000000000000000000000c0de80a0000000000000000000000000000000000000000000000000000000000000008f1ca0ee819117fd9260c2ac309fb3e1a5537f3f8c29f61d0e88b01c5c7d81015b546ea02133942b01b49f043b08e84b4e23170685862d379828a5af32f69c442c0f413c"
                },
                {
                    "hash" : "0xa176a8c91e6717c9f30d0557c0c5588738990a445bc6fd93232be43b0dae8c5b",
                    "indexes" : {
                        "data" : 2,
                        "gas" : 0,
                        "value" : 0
                    },
                    "logs" : "0x1dcc4de8dec75d7aab85b567b6ccd41ad312451b948a7413f0a142fd40d49347",
                    "txbytes" : "0xf880800a830c350094000000000000000000000000000000000000c0de80a00000000000000000000000000000000000000000000000000000000000007fff1ba063242e99ee3c74047559a928e6e97f792a4f2102683b6739a63945d1223fd8f2a04cb71ca1637656c156d8d708c473b081e1c3e2ba227acc507966e0a9e1a58ab7"
                },
                {
                    "hash" : "0xa176a8c91e6717c9f30d0557c0c5588738990a445bc6fd93232be43b0dae8c5b",
                    "indexes" : {
                        "data" : 3,
                        "gas" : 0,
                        "value" : 0
                    },
                    "logs" : "0x1dcc4de8dec75d7aab85b567b6ccd41ad312451b948a7413f0a142fd40d49347",
                    "txbytes" : "0xf880800a830c350094000000000000000000000000000000000000c0de80a00000000000000000000000000000000000000000000000000000000000008fff1ba0858e28d75aa20607f1ed502023295deeb8bfd9bead8e0a2854718b81e5c6475aa0383a9eb787a311b3fc8b853c0721b374037ac6635e0aebc20cb3848c1cfcd72d"
                },
                {
                    "hash" : "0x0b3e777d0a78904e653e78e212f2c3d012919b942dad65eb2ebbb518f245dea7",
                    "indexes" : {
                        "data" : 4,
                        "gas" : 0,
                        "value" : 0
                    },
                    "logs" : "0x1dcc4de8dec75d7aab85b567b6ccd41ad312451b948a7413f0a142fd40d49347",
                    "txbytes" : "0xf880800a830c350094000000000000000000000000000000000000c0de80a0000000000000000000000000000000000000000000000000000000007fffffff1ca069f6f5584b49145fdccda7fd1e57025a599bb771a0e70dc994f71be55b4a1e6ea056664429218fa17f03db84a1aaaf746aa6091b485fdebbf006e783590a5e84d9"
                },
                {
                    "hash" : "0x0b3e777d0a78904e653e78e212f2c3d012919b942dad65eb2ebbb518f245dea7",
                    "indexes" : {
                        "data" : 5,
                        "gas" : 0,
                        "value" : 0
                    },
                    "logs" : "0x1dcc4de8dec75d7aab85b567b6ccd41ad312451b948a7413f0a142fd40d49347",
                    "txbytes" : "0xf880800a830c350094000000000000000000000000000000000000c0de80a0000000000000000000000000000000000000000000000000000000008fffffff1ca08281e70b693036af46a7774ab4f61b8c756cdb2926b88f94a058cb15afed3920a00895f29d4f447854f323788e41cc4161d042d00c090fb96080b2fbffd3998604"
                },
                {
                    "hash" : "0x27016710514c11f5d6612b1d2a7e146d3a8f76e2f760c97723ed48b6dbd9d487",
                    "indexes" : {
                        "data" : 6,
                        "gas" : 0,
                        "value" : 0
                    },
                    "logs" : "0x1dcc4de8dec75d7aab85b567b6ccd41ad312451b948a7413f0a142fd40d49347",
                    "txbytes" : "0xf880800a830c350094000000000000000000000000000000000000c0de80a00000000000000000000000000000000000000000000000007fffffffffffffff1ba06bb867d745531650d1c34ec84435f9ab59fb55b0a2764f53f24af37d8c083c87a0106e9d3137e0a6885eaad38005b21e57c134195e320f624afa3119abf7a8bc8d"
                },
                {
                    "hash" : "0x27016710514c11f5d6612b1d2a7e146d3a8f76e2f760c97723ed48b6dbd9d487",
                    "indexes" : {
                        "data" : 7,
                        "gas" : 0,
                        "value" : 0
                    },
                    "logs" : "0x1dcc4de8dec75d7aab85b567b6ccd41ad312451b948a7413f0a142fd40d49347",
                    "txbytes" : "0xf880800a830c350094000000000000000000000000000000000000c0de80a00000000000000000000000000000000000000000000000008fffffffffffffff1ca05dd8bf71f3da634cdfdc090e62e774d2fd97a56a7520644cd2dc492d8d468718a046de42063632d4c955ecf781ab9d1497170251d15e592c1dc10369f20e609b90"
                },
                {
                    "hash" : "0xaa28fba2eb7eca300d5dd820c9b7a7a07edc57713bddb074b78f64c7f3664c75",
                    "indexes" : {
                        "data" : 8,
                        "gas" : 0,
                        "value" : 0
                    },
                    "logs" : "0x1dcc4de8dec75d7aab85b567b6ccd41ad312451b948a7413f0a142fd40d49347",
                    "txbytes" : "0xf880800a830c350094000000000000000000000000000000000000c0de80a0000000000000000000000000000000007fffffffffffffffffffffffffffffff1ca0312b4b70c70e7277e2851c5b6032bdebc49d6dd9ef8785feccaffad8b16ce0fca02c5e7aff1a7b51b6824949566b6e72fc4a9c1c9d6244813438c55a09009b9703"
                },
                {
                    "hash" : "0xaa28fba2eb7eca300d5dd820c9b7a7a07edc57713bddb074b78f64c7f3664c75",
                    "indexes" : {
                        "data" : 9,
                        "gas" : 0,
                        "value" : 0
                    },
                    "logs" : "0x1dcc4de8dec75d7aab85b567b6ccd41ad312451b948a7413f0a142fd40d49347",
                    "txbytes" : "0xf880800a830c350094000000000000000000000000000000000000c0de80a0000000000000000000000000000000008fffffffffffffffffffffffffffffff1ca04f7cfff56cef9398823d6746a2ea0c3d74e4487a26934dce82e05c4e978c1070a0291f7172f9b7ca8c7581cd3a3788aebf8e7a1ef1a381e4b7dbcbe24535a0e50e"
                },
                {
                    "hash" : "0x6a2f7da505e43d9c196ccd1885f4e430d00ed044879709500421f9fe28e449ce",
                    "indexes" : {
                        "data" : 10,
                        "gas" : 0,
                        "value" : 0
                    },
                    "logs" : "0x1dcc4de8dec75d7aab85b567b6ccd41ad312451b948a7413f0a142fd40d49347",
                    "txbytes" : "0xf880800a830c350094000000000000000000000000000000000000c0de80a07fffffffffffffffffffffffffffffffffffffffffffffffffffffffffffffff1ba0add2b42c9a6347469571eb74574e4d2f06c1bf358bc93feec385a3804fda7083a07651f5792358359dfa6c646847a4b68067e7accac63f369dccaf13e3057a9b85"
                },
                {
                    "hash" : "0x6a2f7da505e43d9c196ccd1885f4e430d00ed044879709500421f9fe28e449ce",
                    "indexes" : {
                        "data" : 11,
                        "gas" : 0,
                        "value" : 0
                    },
                    "logs" : "0x1dcc4de8dec75d7aab85b567b6ccd41ad312451b948a7413f0a142fd40d49347",
                    "txbytes" : "0xf880800a830c350094000000000000000000000000000000000000c0de80a08fffffffffffffffffffffffffffffffffffffffffffffffffffffffffffffff1ba04b144e361e2fa58bac05193dc3bac95b4e046f15c38d39a8318920f47c157f72a0334cd7c856b1114a7081072da338c005a3c99b44267e89a02685e67ef39adc82"
                }
            ]
        },
        "pre" : {
            "0x0000000000000000000000000000000000000100" : {
                "balance" : "0x0ba1a9ce0ba1a9ce",
                "code" : "0x600060ff00",
                "nonce" : "0x00",
                "storage" : {
                }
            },
            "0x000000000000000000000000000000000000c0de" : {
                "balance" : "0x0ba1a9ce0ba1a9ce",
                "code" : "0x5a602060008181610100813583838080808686f150865a10835583838080808686f250865a10600155838381818585f450865a10600255fa505a1060035500",
                "nonce" : "0x00",
                "storage" : {
                }
            },
            "0xa94f5374fce5edbc8e2a8697c15331677e6ebf0b" : {
                "balance" : "0x010000000000000000",
                "code" : "0x",
                "nonce" : "0x00",
                "storage" : {
                }
            }
        },
        "transaction" : {
            "data" : [
                "0x000000000000000000000000000000000000000000000000000000000000007f",
                "0x000000000000000000000000000000000000000000000000000000000000008f",
                "0x0000000000000000000000000000000000000000000000000000000000007fff",
                "0x0000000000000000000000000000000000000000000000000000000000008fff",
                "0x000000000000000000000000000000000000000000000000000000007fffffff",
                "0x000000000000000000000000000000000000000000000000000000008fffffff",
                "0x0000000000000000000000000000000000000000000000007fffffffffffffff",
                "0x0000000000000000000000000000000000000000000000008fffffffffffffff",
                "0x000000000000000000000000000000007fffffffffffffffffffffffffffffff",
                "0x000000000000000000000000000000008fffffffffffffffffffffffffffffff",
                "0x7fffffffffffffffffffffffffffffffffffffffffffffffffffffffffffffff",
                "0x8fffffffffffffffffffffffffffffffffffffffffffffffffffffffffffffff"
            ],
            "gasLimit" : [
                "0x0c3500"
            ],
            "gasPrice" : "0x0a",
            "nonce" : "0x00",
            "secretKey" : "0x45a915e4d060149eb4365960e6a7a45f334393093061116b197e3240065ff2d8",
            "sender" : "0xa94f5374fce5edbc8e2a8697c15331677e6ebf0b",
            "to" : "0x000000000000000000000000000000000000c0de",
            "value" : [
                "0x00"
            ]
        }
    }
}