{
    "Delegatecall1024" : {
        "_info" : {
            "comment" : "",
            "filling-rpc-server" : "evm version 1.14.4-unstable-3d8028a6-20240513",
            "filling-tool-version" : "retesteth-0.3.2-cancun+commit.2ab0208e.Linux.g++",
            "generatedTestHash" : "f4d7a787aeb9e56db73f48de0b026ad2f3acad9a55989145c9bb70c590a2a6df",
            "lllcversion" : "Version: 0.5.14-develop.2023.7.11+commit.c58ab2c6.mod.Linux.g++",
            "solidity" : "Version: 0.8.21+commit.d9974bed.Linux.g++",
            "source" : "src/GeneralStateTestsFiller/stDelegatecallTestHomestead/Delegatecall1024Filler.json",
            "sourceHash" : "db8bb0d0dbff5864bcc1f80163a64285318e4f9b36db7c6635526a132f2dde33"
        },
        "env" : {
            "currentBaseFee" : "0x0a",
            "currentCoinbase" : "0xb94f5374fce5edbc8e2a8697c15331677e6ebf0b",
            "currentDifficulty" : "0x020000",
            "currentExcessBlobGas" : "0x00",
            "currentGasLimit" : "0x7fffffffffffffff",
            "currentNumber" : "0x01",
            "currentRandom" : "0x0000000000000000000000000000000000000000000000000000000000020000",
            "currentTimestamp" : "0x03e8"
        },
        "post" : {
            "Cancun" : [
                {
                    "hash" : "0xfc071ef580274c1c82c28f60253849317c156f6159f711582ef93da01f26f884",
                    "indexes" : {
                        "data" : 0,
                        "gas" : 0,
                        "value" : 0
                    },
                    "logs" : "0x1dcc4de8dec75d7aab85b567b6ccd41ad312451b948a7413f0a142fd40d49347",
                    "txbytes" : "0xf864800a887fe000000000000194bbbf5374fce5edbc8e2a8697c15331677e6ebf0b0a801b9f0ce0db6ff3f59c027ac72fed68709b0c154f756e1844e86c5bcd867aec9024a01f54d77f4fa6c2a9b13d15493ccad14f6d41537249ec01b759206d277a09a4ba"
                }
            ]
        },
        "pre" : {
            "0xa94f5374fce5edbc8e2a8697c15331677e6ebf0b" : {
                "balance" : "0xffffffffffffffffffffffffffffffff",
                "code" : "0x",
                "nonce" : "0x00",
                "storage" : {
                }
            },
            "0xaaaf5374fce5edbc8e2a8697c15331677e6ebf0b" : {
                "balance" : "0x1b58",
                "code" : "0x",
                "nonce" : "0x00",
                "storage" : {
                }
            },
            "0xbbbf5374fce5edbc8e2a8697c15331677e6ebf0b" : {
                "balance" : "0x0400",
                "code" : "0x600160005401600055600060006000600073bbbf5374fce5edbc8e2a8697c15331677e6ebf0b650ffffffffffff460015500",
                "nonce" : "0x00",
                "storage" : {
                }
            }
        },
        "transaction" : {
            "data" : [
                "0x"
            ],
            "gasLimit" : [
                "0x7fe0000000000001"
            ],
            "gasPrice" : "0x0a",
            "nonce" : "0x00",
            "secretKey" : "0x45a915e4d060149eb4365960e6a7a45f334393093061116b197e3240065ff2d8",
            "sender" : "0xa94f5374fce5edbc8e2a8697c15331677e6ebf0b",
            "to" : "0xbbbf5374fce5edbc8e2a8697c15331677e6ebf0b",
            "value" : [
                "0x0a"
            ]
        }
    }
}