{
    "createContractViaContract" : {
        "_info" : {
            "comment" : "",
            "filling-rpc-server" : "evm version 1.14.4-unstable-3d8028a6-20240513",
            "filling-tool-version" : "retesteth-0.3.2-cancun+commit.2ab0208e.Linux.g++",
            "generatedTestHash" : "00ca31771240a1056918c8cdddb0c4ba01eeea88c027f2294be262db3a8381ed",
            "lllcversion" : "Version: 0.5.14-develop.2023.7.11+commit.c58ab2c6.mod.Linux.g++",
            "solidity" : "Version: 0.8.21+commit.d9974bed.Linux.g++",
            "source" : "src/GeneralStateTestsFiller/stHomesteadSpecific/createContractViaContractFiller.json",
            "sourceHash" : "49557e8504d759a2e114c6d2b4296ee0f670e7114b14e32e44ba9d9bc6307d38"
        },
        "env" : {
            "currentBaseFee" : "0x0a",
            "currentCoinbase" : "0x2adc25665018aa1fe0e6bc666dac8fc2697ff9ba",
            "currentDifficulty" : "0x020000",
            "currentExcessBlobGas" : "0x00",
            "currentGasLimit" : "0x0f4240",
            "currentNumber" : "0x01",
            "currentRandom" : "0x0000000000000000000000000000000000000000000000000000000000020000",
            "currentTimestamp" : "0x03e8"
        },
        "post" : {
            "Cancun" : [
                {
                    "hash" : "0xe374974c2295d5c6ff0ec366fa3c79e80c76d279df1f2b72798bc667e7610e52",
                    "indexes" : {
                        "data" : 0,
                        "gas" : 0,
                        "value" : 0
                    },
                    "logs" : "0x1dcc4de8dec75d7aab85b567b6ccd41ad312451b948a7413f0a142fd40d49347",
                    "txbytes" : "0xf860800a830186a094100000000000000000000000000000000000000180801ca0594f176e4711c05310f401064605ab57b4f9538858908aa379ddf6bb1a18c46ba01982f0c00049d0cb19c28ffe05f32952a3136f81dd6adc5ee34ac8144862a2f2"
                }
            ]
        },
        "pre" : {
            "0x1000000000000000000000000000000000000001" : {
                "balance" : "0x00",
                "code" : "0x600060006000f000",
                "nonce" : "0x00",
                "storage" : {
                }
            },
            "0xa94f5374fce5edbc8e2a8697c15331677e6ebf0b" : {
                "balance" : "0x0f4240",
                "code" : "0x",
                "nonce" : "0x00",
                "storage" : {
                }
            }
        },
        "transaction" : {
            "data" : [
                "0x"
            ],
            "gasLimit" : [
                "0x0186a0"
            ],
            "gasPrice" : "0x0a",
            "nonce" : "0x00",
            "secretKey" : "0x45a915e4d060149eb4365960e6a7a45f334393093061116b197e3240065ff2d8",
            "sender" : "0xa94f5374fce5edbc8e2a8697c15331677e6ebf0b",
            "to" : "0x1000000000000000000000000000000000000001",
            "value" : [
                "0x00"
            ]
        }
    }
}