{
    "ReturnTest2" : {
        "_info" : {
            "comment" : "",
            "filling-rpc-server" : "evm version 1.14.4-unstable-3d8028a6-20240513",
            "filling-tool-version" : "retesteth-0.3.2-cancun+commit.2ab0208e.Linux.g++",
            "generatedTestHash" : "4f7e4ce8fcb6acccbecd6dfb94db6e2ae2c0a7a9ce0631b0626082b057dbe0a2",
            "lllcversion" : "Version: 0.5.14-develop.2023.7.11+commit.c58ab2c6.mod.Linux.g++",
            "solidity" : "Version: 0.8.21+commit.d9974bed.Linux.g++",
            "source" : "src/GeneralStateTestsFiller/stInitCodeTest/ReturnTest2Filler.json",
            "sourceHash" : "c1881ff371395d5b8801bfc7510a200fd7dc96abe47d20c6a2742525f885de01"
        },
        "env" : {
            "currentBaseFee" : "0x0a",
            "currentCoinbase" : "0x2adc25665018aa1fe0e6bc666dac8fc2697ff9ba",
            "currentDifficulty" : "0x020000",
            "currentExcessBlobGas" : "0x00",
            "currentGasLimit" : "0x3b9aca00",
            "currentNumber" : "0x01",
            "currentRandom" : "0x0000000000000000000000000000000000000000000000000000000000020000",
            "currentTimestamp" : "0x03e8"
        },
        "post" : {
            "Cancun" : [
                {
                    "hash" : "0x771d27d43b9e051ca342f5e733e597f94bea85f85ecbec27a2313e2f5d5dff99",
                    "indexes" : {
                        "data" : 0,
                        "gas" : 0,
                        "value" : 0
                    },
                    "logs" : "0x1dcc4de8dec75d7aab85b567b6ccd41ad312451b948a7413f0a142fd40d49347",
                    "txbytes" : "0xf860800a8303d09094194f5374fce5edbc8e2a8697c15331677e6ebf0b80801ba08e1ac11b121ba404894bf7b1d776e2a1431189c5a19d746bd814de525f895c58a054f2e32e9d1762876987d939df070e73310a01edceefc9139f74f3db3699e371"
                }
            ]
        },
        "pre" : {
            "0x194f5374fce5edbc8e2a8697c15331677e6ebf0b" : {
                "balance" : "0x00",
                "code" : "0x60156000526020602060206000600073b94f5374fce5edbc8e2a8697c15331677e6ebf0b611b58f15060005160005560205160015560406000f300",
                "nonce" : "0x00",
                "storage" : {
                }
            },
            "0xa94f5374fce5edbc8e2a8697c15331677e6ebf0b" : {
                "balance" : "0x989680",
                "code" : "0x",
                "nonce" : "0x00",
                "storage" : {
                }
            },
            "0xb94f5374fce5edbc8e2a8697c15331677e6ebf0b" : {
                "balance" : "0x0186a0",
                "code" : "0x60003560030260005260206000f300",
                "nonce" : "0x00",
                "storage" : {
                }
            }
        },
        "transaction" : {
            "data" : [
                "0x"
            ],
            "gasLimit" : [
                "0x03d090"
            ],
            "gasPrice" : "0x0a",
            "nonce" : "0x00",
            "secretKey" : "0x45a915e4d060149eb4365960e6a7a45f334393093061116b197e3240065ff2d8",
            "sender" : "0xa94f5374fce5edbc8e2a8697c15331677e6ebf0b",
            "to" : "0x194f5374fce5edbc8e2a8697c15331677e6ebf0b",
            "value" : [
                "0x00"
            ]
        }
    }
}